{
  "_format": "hh-sol-artifact-1",
  "contractName": "MindplexToken",
  "sourceName": "contracts/MindplexToken.sol",
  "abi": [
    {
      "inputs": [
        {
          "internalType": "string",
          "name": "name_",
          "type": "string"
        },
        {
          "internalType": "string",
          "name": "symbol_",
          "type": "string"
        }
      ],
      "stateMutability": "nonpayable",
      "type": "constructor"
    },
    {
      "anonymous": false,
      "inputs": [
        {
          "indexed": true,
          "internalType": "address",
          "name": "owner",
          "type": "address"
        },
        {
          "indexed": true,
          "internalType": "address",
          "name": "spender",
          "type": "address"
        },
        {
          "indexed": false,
          "internalType": "uint256",
          "name": "value",
          "type": "uint256"
        }
      ],
      "name": "Approval",
      "type": "event"
    },
    {
      "anonymous": false,
      "inputs": [
        {
          "indexed": false,
          "internalType": "address",
          "name": "account",
          "type": "address"
        }
      ],
      "name": "Paused",
      "type": "event"
    },
    {
      "anonymous": false,
      "inputs": [
        {
          "indexed": true,
          "internalType": "bytes32",
          "name": "role",
          "type": "bytes32"
        },
        {
          "indexed": true,
          "internalType": "bytes32",
          "name": "previousAdminRole",
          "type": "bytes32"
        },
        {
          "indexed": true,
          "internalType": "bytes32",
          "name": "newAdminRole",
          "type": "bytes32"
        }
      ],
      "name": "RoleAdminChanged",
      "type": "event"
    },
    {
      "anonymous": false,
      "inputs": [
        {
          "indexed": true,
          "internalType": "bytes32",
          "name": "role",
          "type": "bytes32"
        },
        {
          "indexed": true,
          "internalType": "address",
          "name": "account",
          "type": "address"
        },
        {
          "indexed": true,
          "internalType": "address",
          "name": "sender",
          "type": "address"
        }
      ],
      "name": "RoleGranted",
      "type": "event"
    },
    {
      "anonymous": false,
      "inputs": [
        {
          "indexed": true,
          "internalType": "bytes32",
          "name": "role",
          "type": "bytes32"
        },
        {
          "indexed": true,
          "internalType": "address",
          "name": "account",
          "type": "address"
        },
        {
          "indexed": true,
          "internalType": "address",
          "name": "sender",
          "type": "address"
        }
      ],
      "name": "RoleRevoked",
      "type": "event"
    },
    {
      "anonymous": false,
      "inputs": [
        {
          "indexed": true,
          "internalType": "address",
          "name": "from",
          "type": "address"
        },
        {
          "indexed": true,
          "internalType": "address",
          "name": "to",
          "type": "address"
        },
        {
          "indexed": false,
          "internalType": "uint256",
          "name": "value",
          "type": "uint256"
        }
      ],
      "name": "Transfer",
      "type": "event"
    },
    {
      "anonymous": false,
      "inputs": [
        {
          "indexed": false,
          "internalType": "address",
          "name": "account",
          "type": "address"
        }
      ],
      "name": "Unpaused",
      "type": "event"
    },
    {
      "inputs": [],
      "name": "DEFAULT_ADMIN_ROLE",
      "outputs": [
        {
          "internalType": "bytes32",
          "name": "",
          "type": "bytes32"
        }
      ],
      "stateMutability": "view",
      "type": "function"
    },
    {
      "inputs": [],
      "name": "MAX_SUPPLY",
      "outputs": [
        {
          "internalType": "uint256",
          "name": "",
          "type": "uint256"
        }
      ],
      "stateMutability": "view",
      "type": "function"
    },
    {
      "inputs": [],
      "name": "MINTER_ROLE",
      "outputs": [
        {
          "internalType": "bytes32",
          "name": "",
          "type": "bytes32"
        }
      ],
      "stateMutability": "view",
      "type": "function"
    },
    {
      "inputs": [],
      "name": "PAUSER_ROLE",
      "outputs": [
        {
          "internalType": "bytes32",
          "name": "",
          "type": "bytes32"
        }
      ],
      "stateMutability": "view",
      "type": "function"
    },
    {
      "inputs": [
        {
          "internalType": "address",
          "name": "owner",
          "type": "address"
        },
        {
          "internalType": "address",
          "name": "spender",
          "type": "address"
        }
      ],
      "name": "allowance",
      "outputs": [
        {
          "internalType": "uint256",
          "name": "",
          "type": "uint256"
        }
      ],
      "stateMutability": "view",
      "type": "function"
    },
    {
      "inputs": [
        {
          "internalType": "address",
          "name": "spender",
          "type": "address"
        },
        {
          "internalType": "uint256",
          "name": "amount",
          "type": "uint256"
        }
      ],
      "name": "approve",
      "outputs": [
        {
          "internalType": "bool",
          "name": "",
          "type": "bool"
        }
      ],
      "stateMutability": "nonpayable",
      "type": "function"
    },
    {
      "inputs": [
        {
          "internalType": "address",
          "name": "account",
          "type": "address"
        }
      ],
      "name": "balanceOf",
      "outputs": [
        {
          "internalType": "uint256",
          "name": "",
          "type": "uint256"
        }
      ],
      "stateMutability": "view",
      "type": "function"
    },
    {
      "inputs": [
        {
          "internalType": "uint256",
          "name": "amount",
          "type": "uint256"
        }
      ],
      "name": "burn",
      "outputs": [],
      "stateMutability": "nonpayable",
      "type": "function"
    },
    {
      "inputs": [
        {
          "internalType": "address",
          "name": "account",
          "type": "address"
        },
        {
          "internalType": "uint256",
          "name": "amount",
          "type": "uint256"
        }
      ],
      "name": "burnFrom",
      "outputs": [],
      "stateMutability": "nonpayable",
      "type": "function"
    },
    {
      "inputs": [],
      "name": "decimals",
      "outputs": [
        {
          "internalType": "uint8",
          "name": "",
          "type": "uint8"
        }
      ],
      "stateMutability": "pure",
      "type": "function"
    },
    {
      "inputs": [
        {
          "internalType": "address",
          "name": "spender",
          "type": "address"
        },
        {
          "internalType": "uint256",
          "name": "subtractedValue",
          "type": "uint256"
        }
      ],
      "name": "decreaseAllowance",
      "outputs": [
        {
          "internalType": "bool",
          "name": "",
          "type": "bool"
        }
      ],
      "stateMutability": "nonpayable",
      "type": "function"
    },
    {
      "inputs": [
        {
          "internalType": "bytes32",
          "name": "role",
          "type": "bytes32"
        }
      ],
      "name": "getRoleAdmin",
      "outputs": [
        {
          "internalType": "bytes32",
          "name": "",
          "type": "bytes32"
        }
      ],
      "stateMutability": "view",
      "type": "function"
    },
    {
      "inputs": [
        {
          "internalType": "bytes32",
          "name": "role",
          "type": "bytes32"
        },
        {
          "internalType": "address",
          "name": "account",
          "type": "address"
        }
      ],
      "name": "grantRole",
      "outputs": [],
      "stateMutability": "nonpayable",
      "type": "function"
    },
    {
      "inputs": [
        {
          "internalType": "bytes32",
          "name": "role",
          "type": "bytes32"
        },
        {
          "internalType": "address",
          "name": "account",
          "type": "address"
        }
      ],
      "name": "hasRole",
      "outputs": [
        {
          "internalType": "bool",
          "name": "",
          "type": "bool"
        }
      ],
      "stateMutability": "view",
      "type": "function"
    },
    {
      "inputs": [
        {
          "internalType": "address",
          "name": "spender",
          "type": "address"
        },
        {
          "internalType": "uint256",
          "name": "addedValue",
          "type": "uint256"
        }
      ],
      "name": "increaseAllowance",
      "outputs": [
        {
          "internalType": "bool",
          "name": "",
          "type": "bool"
        }
      ],
      "stateMutability": "nonpayable",
      "type": "function"
    },
    {
      "inputs": [
        {
          "internalType": "address",
          "name": "to",
          "type": "address"
        },
        {
          "internalType": "uint256",
          "name": "amount",
          "type": "uint256"
        }
      ],
      "name": "mint",
      "outputs": [],
      "stateMutability": "nonpayable",
      "type": "function"
    },
    {
      "inputs": [],
      "name": "name",
      "outputs": [
        {
          "internalType": "string",
          "name": "",
          "type": "string"
        }
      ],
      "stateMutability": "view",
      "type": "function"
    },
    {
      "inputs": [],
      "name": "pause",
      "outputs": [],
      "stateMutability": "nonpayable",
      "type": "function"
    },
    {
      "inputs": [],
      "name": "paused",
      "outputs": [
        {
          "internalType": "bool",
          "name": "",
          "type": "bool"
        }
      ],
      "stateMutability": "view",
      "type": "function"
    },
    {
      "inputs": [
        {
          "internalType": "bytes32",
          "name": "role",
          "type": "bytes32"
        },
        {
          "internalType": "address",
          "name": "account",
          "type": "address"
        }
      ],
      "name": "renounceRole",
      "outputs": [],
      "stateMutability": "nonpayable",
      "type": "function"
    },
    {
      "inputs": [
        {
          "internalType": "bytes32",
          "name": "role",
          "type": "bytes32"
        },
        {
          "internalType": "address",
          "name": "account",
          "type": "address"
        }
      ],
      "name": "revokeRole",
      "outputs": [],
      "stateMutability": "nonpayable",
      "type": "function"
    },
    {
      "inputs": [
        {
          "internalType": "bytes4",
          "name": "interfaceId",
          "type": "bytes4"
        }
      ],
      "name": "supportsInterface",
      "outputs": [
        {
          "internalType": "bool",
          "name": "",
          "type": "bool"
        }
      ],
      "stateMutability": "view",
      "type": "function"
    },
    {
      "inputs": [],
      "name": "symbol",
      "outputs": [
        {
          "internalType": "string",
          "name": "",
          "type": "string"
        }
      ],
      "stateMutability": "view",
      "type": "function"
    },
    {
      "inputs": [],
      "name": "totalSupply",
      "outputs": [
        {
          "internalType": "uint256",
          "name": "",
          "type": "uint256"
        }
      ],
      "stateMutability": "view",
      "type": "function"
    },
    {
      "inputs": [
        {
          "internalType": "address",
          "name": "to",
          "type": "address"
        },
        {
          "internalType": "uint256",
          "name": "amount",
          "type": "uint256"
        }
      ],
      "name": "transfer",
      "outputs": [
        {
          "internalType": "bool",
          "name": "",
          "type": "bool"
        }
      ],
      "stateMutability": "nonpayable",
      "type": "function"
    },
    {
      "inputs": [
        {
          "internalType": "address",
          "name": "from",
          "type": "address"
        },
        {
          "internalType": "address",
          "name": "to",
          "type": "address"
        },
        {
          "internalType": "uint256",
          "name": "amount",
          "type": "uint256"
        }
      ],
      "name": "transferFrom",
      "outputs": [
        {
          "internalType": "bool",
          "name": "",
          "type": "bool"
        }
      ],
      "stateMutability": "nonpayable",
      "type": "function"
    },
    {
      "inputs": [],
      "name": "unpause",
      "outputs": [],
      "stateMutability": "nonpayable",
      "type": "function"
    }
  ],
  "bytecode": "0x608060405234801562000010575f80fd5b5060405162003c5338038062003c5383398181016040528101906200003691906200079b565b8181816003908162000049919062000a55565b5080600490816200005b919062000a55565b5050505f60055f6101000a81548160ff0219169083151502179055506200009367d86a456773148b5d60c01b6200026160201b60201c565b620000af67eae08bf6388fcaab60c01b6200026160201b60201c565b620000cb67d186fc3c7d5c085760c01b6200026160201b60201c565b620000ee5f801b620000e26200026460201b60201c565b6200026b60201b60201c565b6200010a67bbccc91f5edd3dfd60c01b6200026160201b60201c565b6200012667e04a6d1d34b3bc5360c01b6200026160201b60201c565b620001677f65d7a28e3265b37a6474929f336521b332c1681b933f6cb9f3376673440d862a6200015b6200026460201b60201c565b6200026b60201b60201c565b62000183674093e13d0685255260c01b6200026160201b60201c565b6200019f679dbeb46d1393cd3f60c01b6200026160201b60201c565b620001e07f9f2df0fed2c77648de5860a4cc508cd0818c85b8b8a1ab4ceeef8d981c8956a6620001d46200026460201b60201c565b6200026b60201b60201c565b620001fc67d1fb9ed397c21e5560c01b6200026160201b60201c565b6200021867197095a704d8fbc660c01b6200026160201b60201c565b620002596200022c6200026460201b60201c565b6006600a6200023c919062000cb6565b633b9aca006200024d919062000d06565b6200035760201b60201c565b505062000ec8565b50565b5f33905090565b6200027d8282620004bc60201b60201c565b6200035357600160065f8481526020019081526020015f205f015f8373ffffffffffffffffffffffffffffffffffffffff1673ffffffffffffffffffffffffffffffffffffffff1681526020019081526020015f205f6101000a81548160ff021916908315150217905550620002f86200026460201b60201c565b73ffffffffffffffffffffffffffffffffffffffff168173ffffffffffffffffffffffffffffffffffffffff16837f2f8788117e7eff1d82e926ec794901d17c78024a50270940304540a733656f0d60405160405180910390a45b5050565b5f73ffffffffffffffffffffffffffffffffffffffff168273ffffffffffffffffffffffffffffffffffffffff1603620003c8576040517f08c379a0000000000000000000000000000000000000000000000000000000008152600401620003bf9062000dae565b60405180910390fd5b620003db5f83836200052060201b60201c565b8060025f828254620003ee919062000dce565b92505081905550805f808473ffffffffffffffffffffffffffffffffffffffff1673ffffffffffffffffffffffffffffffffffffffff1681526020019081526020015f205f82825401925050819055508173ffffffffffffffffffffffffffffffffffffffff165f73ffffffffffffffffffffffffffffffffffffffff167fddf252ad1be2c89b69c2b068fc378daa952ba7f163c4a11628f55a4df523b3ef836040516200049d919062000e19565b60405180910390a3620004b85f83836200058c60201b60201c565b5050565b5f60065f8481526020019081526020015f205f015f8373ffffffffffffffffffffffffffffffffffffffff1673ffffffffffffffffffffffffffffffffffffffff1681526020019081526020015f205f9054906101000a900460ff16905092915050565b6200053c679a48b9048b92444760c01b6200026160201b60201c565b620005586725868aeced47b2e360c01b6200026160201b60201c565b6200057467a9ff7514cae174a360c01b6200026160201b60201c565b620005878383836200059160201b60201c565b505050565b505050565b620005a4838383620005fc60201b60201c565b620005b46200060160201b60201c565b15620005f7576040517f08c379a0000000000000000000000000000000000000000000000000000000008152600401620005ee9062000ea8565b60405180910390fd5b505050565b505050565b5f60055f9054906101000a900460ff16905090565b5f604051905090565b5f80fd5b5f80fd5b5f80fd5b5f80fd5b5f601f19601f8301169050919050565b7f4e487b71000000000000000000000000000000000000000000000000000000005f52604160045260245ffd5b62000677826200062f565b810181811067ffffffffffffffff821117156200069957620006986200063f565b5b80604052505050565b5f620006ad62000616565b9050620006bb82826200066c565b919050565b5f67ffffffffffffffff821115620006dd57620006dc6200063f565b5b620006e8826200062f565b9050602081019050919050565b5f5b8381101562000714578082015181840152602081019050620006f7565b5f8484015250505050565b5f620007356200072f84620006c0565b620006a2565b9050828152602081018484840111156200075457620007536200062b565b5b62000761848285620006f5565b509392505050565b5f82601f83011262000780576200077f62000627565b5b8151620007928482602086016200071f565b91505092915050565b5f8060408385031215620007b457620007b36200061f565b5b5f83015167ffffffffffffffff811115620007d457620007d362000623565b5b620007e28582860162000769565b925050602083015167ffffffffffffffff81111562000806576200080562000623565b5b620008148582860162000769565b9150509250929050565b5f81519050919050565b7f4e487b71000000000000000000000000000000000000000000000000000000005f52602260045260245ffd5b5f60028204905060018216806200086d57607f821691505b60208210810362000883576200088262000828565b5b50919050565b5f819050815f5260205f209050919050565b5f6020601f8301049050919050565b5f82821b905092915050565b5f60088302620008e77fffffffffffffffffffffffffffffffffffffffffffffffffffffffffffffffff82620008aa565b620008f38683620008aa565b95508019841693508086168417925050509392505050565b5f819050919050565b5f819050919050565b5f6200093d6200093762000931846200090b565b62000914565b6200090b565b9050919050565b5f819050919050565b62000958836200091d565b62000970620009678262000944565b848454620008b6565b825550505050565b5f90565b6200098662000978565b620009938184846200094d565b505050565b5b81811015620009ba57620009ae5f826200097c565b60018101905062000999565b5050565b601f82111562000a0957620009d38162000889565b620009de846200089b565b81016020851015620009ee578190505b62000a06620009fd856200089b565b83018262000998565b50505b505050565b5f82821c905092915050565b5f62000a2b5f198460080262000a0e565b1980831691505092915050565b5f62000a45838362000a1a565b9150826002028217905092915050565b62000a60826200081e565b67ffffffffffffffff81111562000a7c5762000a7b6200063f565b5b62000a88825462000855565b62000a95828285620009be565b5f60209050601f83116001811462000acb575f841562000ab6578287015190505b62000ac2858262000a38565b86555062000b31565b601f19841662000adb8662000889565b5f5b8281101562000b045784890151825560018201915060208501945060208101905062000add565b8683101562000b24578489015162000b20601f89168262000a1a565b8355505b6001600288020188555050505b505050505050565b7f4e487b71000000000000000000000000000000000000000000000000000000005f52601160045260245ffd5b5f8160011c9050919050565b5f808291508390505b600185111562000bc35780860481111562000b9b5762000b9a62000b39565b5b600185161562000bab5780820291505b808102905062000bbb8562000b66565b945062000b7b565b94509492505050565b5f8262000bdd576001905062000caf565b8162000bec575f905062000caf565b816001811462000c05576002811462000c105762000c46565b600191505062000caf565b60ff84111562000c255762000c2462000b39565b5b8360020a91508482111562000c3f5762000c3e62000b39565b5b5062000caf565b5060208310610133831016604e8410600b841016171562000c805782820a90508381111562000c7a5762000c7962000b39565b5b62000caf565b62000c8f848484600162000b72565b9250905081840481111562000ca95762000ca862000b39565b5b81810290505b9392505050565b5f62000cc2826200090b565b915062000ccf836200090b565b925062000cfe7fffffffffffffffffffffffffffffffffffffffffffffffffffffffffffffffff848462000bcc565b905092915050565b5f62000d12826200090b565b915062000d1f836200090b565b925082820262000d2f816200090b565b9150828204841483151762000d495762000d4862000b39565b5b5092915050565b5f82825260208201905092915050565b7f45524332303a206d696e7420746f20746865207a65726f2061646472657373005f82015250565b5f62000d96601f8362000d50565b915062000da38262000d60565b602082019050919050565b5f6020820190508181035f83015262000dc78162000d88565b9050919050565b5f62000dda826200090b565b915062000de7836200090b565b925082820190508082111562000e025762000e0162000b39565b5b92915050565b62000e13816200090b565b82525050565b5f60208201905062000e2e5f83018462000e08565b92915050565b7f45524332305061757361626c653a20746f6b656e207472616e736665722077685f8201527f696c652070617573656400000000000000000000000000000000000000000000602082015250565b5f62000e90602a8362000d50565b915062000e9d8262000e34565b604082019050919050565b5f6020820190508181035f83015262000ec18162000e82565b9050919050565b612d7d8062000ed65f395ff3fe608060405234801561000f575f80fd5b50600436106101a7575f3560e01c806342966c68116100f7578063a217fddf11610095578063d53913931161006f578063d5391393146104cd578063d547741f146104eb578063dd62ed3e14610507578063e63ab1e914610537576101a7565b8063a217fddf1461044f578063a457c2d71461046d578063a9059cbb1461049d576101a7565b806379cc6790116100d157806379cc6790146103db5780638456cb59146103f757806391d148541461040157806395d89b4114610431576101a7565b806342966c68146103715780635c975abb1461038d57806370a08231146103ab576101a7565b80632f2ff15d1161016457806336568abe1161013e57806336568abe146102ff578063395093511461031b5780633f4ba83a1461034b57806340c10f1914610355576101a7565b80632f2ff15d146102a7578063313ce567146102c357806332cb6b0c146102e1576101a7565b806301ffc9a7146101ab57806306fdde03146101db578063095ea7b3146101f957806318160ddd1461022957806323b872dd14610247578063248a9ca314610277575b5f80fd5b6101c560048036038101906101c09190611d27565b610555565b6040516101d29190611d6c565b60405180910390f35b6101e36105ce565b6040516101f09190611e0f565b60405180910390f35b610213600480360381019061020e9190611ebc565b61065e565b6040516102209190611d6c565b60405180910390f35b610231610680565b60405161023e9190611f09565b60405180910390f35b610261600480360381019061025c9190611f22565b610689565b60405161026e9190611d6c565b60405180910390f35b610291600480360381019061028c9190611fa5565b6106b7565b60405161029e9190611fdf565b60405180910390f35b6102c160048036038101906102bc9190611ff8565b6106d4565b005b6102cb6106f5565b6040516102d89190612051565b60405180910390f35b6102e9610739565b6040516102f69190611f09565b60405180910390f35b61031960048036038101906103149190611ff8565b610759565b005b61033560048036038101906103309190611ebc565b6107dc565b6040516103429190611d6c565b60405180910390f35b610353610812565b005b61036f600480360381019061036a9190611ebc565b6108ab565b005b61038b6004803603810190610386919061206a565b610a39565b005b610395610a4d565b6040516103a29190611d6c565b60405180910390f35b6103c560048036038101906103c09190612095565b610a62565b6040516103d29190611f09565b60405180910390f35b6103f560048036038101906103f09190611ebc565b610aa7565b005b6103ff610ac7565b005b61041b60048036038101906104169190611ff8565b610b60565b6040516104289190611d6c565b60405180910390f35b610439610bc4565b6040516104469190611e0f565b60405180910390f35b610457610c54565b6040516104649190611fdf565b60405180910390f35b61048760048036038101906104829190611ebc565b610c5a565b6040516104949190611d6c565b60405180910390f35b6104b760048036038101906104b29190611ebc565b610ccf565b6040516104c49190611d6c565b60405180910390f35b6104d5610cf1565b6040516104e29190611fdf565b60405180910390f35b61050560048036038101906105009190611ff8565b610d15565b005b610521600480360381019061051c91906120c0565b610d36565b60405161052e9190611f09565b60405180910390f35b61053f610db8565b60405161054c9190611fdf565b60405180910390f35b5f7f7965db0b000000000000000000000000000000000000000000000000000000007bffffffffffffffffffffffffffffffffffffffffffffffffffffffff1916827bffffffffffffffffffffffffffffffffffffffffffffffffffffffff191614806105c757506105c682610ddc565b5b9050919050565b6060600380546105dd9061212b565b80601f01602080910402602001604051908101604052809291908181526020018280546106099061212b565b80156106545780601f1061062b57610100808354040283529160200191610654565b820191905f5260205f20905b81548152906001019060200180831161063757829003601f168201915b5050505050905090565b5f80610668610e45565b9050610675818585610e4c565b600191505092915050565b5f600254905090565b5f80610693610e45565b90506106a085828561100f565b6106ab85858561109a565b60019150509392505050565b5f60065f8381526020019081526020015f20600101549050919050565b6106dd826106b7565b6106e681611306565b6106f0838361131a565b505050565b5f61070a67387313e8392f807860c01b6113f5565b61071e67a8d134d5181650e360c01b6113f5565b610732675a4458da72185b2060c01b6113f5565b6006905090565b6006600a61074791906122b7565b633b9aca006107569190612301565b81565b610761610e45565b73ffffffffffffffffffffffffffffffffffffffff168173ffffffffffffffffffffffffffffffffffffffff16146107ce576040517f08c379a00000000000000000000000000000000000000000000000000000000081526004016107c5906123b2565b60405180910390fd5b6107d882826113f8565b5050565b5f806107e6610e45565b90506108078185856107f88589610d36565b61080291906123d0565b610e4c565b600191505092915050565b610826679786f2efe93562bf60c01b6113f5565b7f65d7a28e3265b37a6474929f336521b332c1681b933f6cb9f3376673440d862a61085081611306565b6108646778bb04c8804c0f6360c01b6113f5565b610878673fcd046526a50e6b60c01b6113f5565b61088c67d352e7a2ac74bdd060c01b6113f5565b6108a067cfeac663810cc1d760c01b6113f5565b6108a86114d3565b50565b6108bf671c5c00c48ebc08bc60c01b6113f5565b6108c7611534565b6108db67974a673d18c84b1060c01b6113f5565b6108ef675b8142cde3942f4660c01b6113f5565b7f9f2df0fed2c77648de5860a4cc508cd0818c85b8b8a1ab4ceeef8d981c8956a661091981611306565b61092d67ce876b63a18fdb0760c01b6113f5565b61094167c6dbfa490cfdb46960c01b6113f5565b610955679557e9dd4afc51fb60c01b6113f5565b610969670e30ff34b604f96260c01b6113f5565b61097d67036e936efaed435c60c01b6113f5565b6006600a61098b91906122b7565b633b9aca0061099a9190612301565b826109a3610680565b6109ad91906123d0565b11156109ee576040517f08c379a00000000000000000000000000000000000000000000000000000000081526004016109e590612473565b60405180910390fd5b610a02672aa604e1c28f718f60c01b6113f5565b610a1667552e728a203151f460c01b6113f5565b610a2a6711a8dfff866ee39760c01b6113f5565b610a34838361157e565b505050565b610a4a610a44610e45565b826116cc565b50565b5f60055f9054906101000a900460ff16905090565b5f805f8373ffffffffffffffffffffffffffffffffffffffff1673ffffffffffffffffffffffffffffffffffffffff1681526020019081526020015f20549050919050565b610ab982610ab3610e45565b8361100f565b610ac382826116cc565b5050565b610adb671c1badd9645a872460c01b6113f5565b7f65d7a28e3265b37a6474929f336521b332c1681b933f6cb9f3376673440d862a610b0581611306565b610b1967481ade2913319e0b60c01b6113f5565b610b2d67795c12b6e86c635e60c01b6113f5565b610b4167ac5dbeb3085112be60c01b6113f5565b610b5567fc80a80801390eff60c01b6113f5565b610b5d61188f565b50565b5f60065f8481526020019081526020015f205f015f8373ffffffffffffffffffffffffffffffffffffffff1673ffffffffffffffffffffffffffffffffffffffff1681526020019081526020015f205f9054906101000a900460ff16905092915050565b606060048054610bd39061212b565b80601f0160208091040260200160405190810160405280929190818152602001828054610bff9061212b565b8015610c4a5780601f10610c2157610100808354040283529160200191610c4a565b820191905f5260205f20905b815481529060010190602001808311610c2d57829003601f168201915b5050505050905090565b5f801b81565b5f80610c64610e45565b90505f610c718286610d36565b905083811015610cb6576040517f08c379a0000000000000000000000000000000000000000000000000000000008152600401610cad90612501565b60405180910390fd5b610cc38286868403610e4c565b60019250505092915050565b5f80610cd9610e45565b9050610ce681858561109a565b600191505092915050565b7f9f2df0fed2c77648de5860a4cc508cd0818c85b8b8a1ab4ceeef8d981c8956a681565b610d1e826106b7565b610d2781611306565b610d3183836113f8565b505050565b5f60015f8473ffffffffffffffffffffffffffffffffffffffff1673ffffffffffffffffffffffffffffffffffffffff1681526020019081526020015f205f8373ffffffffffffffffffffffffffffffffffffffff1673ffffffffffffffffffffffffffffffffffffffff1681526020019081526020015f2054905092915050565b7f65d7a28e3265b37a6474929f336521b332c1681b933f6cb9f3376673440d862a81565b5f7f01ffc9a7000000000000000000000000000000000000000000000000000000007bffffffffffffffffffffffffffffffffffffffffffffffffffffffff1916827bffffffffffffffffffffffffffffffffffffffffffffffffffffffff1916149050919050565b5f33905090565b5f73ffffffffffffffffffffffffffffffffffffffff168373ffffffffffffffffffffffffffffffffffffffff1603610eba576040517f08c379a0000000000000000000000000000000000000000000000000000000008152600401610eb19061258f565b60405180910390fd5b5f73ffffffffffffffffffffffffffffffffffffffff168273ffffffffffffffffffffffffffffffffffffffff1603610f28576040517f08c379a0000000000000000000000000000000000000000000000000000000008152600401610f1f9061261d565b60405180910390fd5b8060015f8573ffffffffffffffffffffffffffffffffffffffff1673ffffffffffffffffffffffffffffffffffffffff1681526020019081526020015f205f8473ffffffffffffffffffffffffffffffffffffffff1673ffffffffffffffffffffffffffffffffffffffff1681526020019081526020015f20819055508173ffffffffffffffffffffffffffffffffffffffff168373ffffffffffffffffffffffffffffffffffffffff167f8c5be1e5ebec7d5bd14f71427d1e84f3dd0314c0f7b2291e5b200ac8c7c3b925836040516110029190611f09565b60405180910390a3505050565b5f61101a8484610d36565b90507fffffffffffffffffffffffffffffffffffffffffffffffffffffffffffffffff81146110945781811015611086576040517f08c379a000000000000000000000000000000000000000000000000000000000815260040161107d90612685565b60405180910390fd5b6110938484848403610e4c565b5b50505050565b5f73ffffffffffffffffffffffffffffffffffffffff168373ffffffffffffffffffffffffffffffffffffffff1603611108576040517f08c379a00000000000000000000000000000000000000000000000000000000081526004016110ff90612713565b60405180910390fd5b5f73ffffffffffffffffffffffffffffffffffffffff168273ffffffffffffffffffffffffffffffffffffffff1603611176576040517f08c379a000000000000000000000000000000000000000000000000000000000815260040161116d906127a1565b60405180910390fd5b6111818383836118f1565b5f805f8573ffffffffffffffffffffffffffffffffffffffff1673ffffffffffffffffffffffffffffffffffffffff1681526020019081526020015f2054905081811015611204576040517f08c379a00000000000000000000000000000000000000000000000000000000081526004016111fb9061282f565b60405180910390fd5b8181035f808673ffffffffffffffffffffffffffffffffffffffff1673ffffffffffffffffffffffffffffffffffffffff1681526020019081526020015f2081905550815f808573ffffffffffffffffffffffffffffffffffffffff1673ffffffffffffffffffffffffffffffffffffffff1681526020019081526020015f205f82825401925050819055508273ffffffffffffffffffffffffffffffffffffffff168473ffffffffffffffffffffffffffffffffffffffff167fddf252ad1be2c89b69c2b068fc378daa952ba7f163c4a11628f55a4df523b3ef846040516112ed9190611f09565b60405180910390a361130084848461193d565b50505050565b61131781611312610e45565b611942565b50565b6113248282610b60565b6113f157600160065f8481526020019081526020015f205f015f8373ffffffffffffffffffffffffffffffffffffffff1673ffffffffffffffffffffffffffffffffffffffff1681526020019081526020015f205f6101000a81548160ff021916908315150217905550611396610e45565b73ffffffffffffffffffffffffffffffffffffffff168173ffffffffffffffffffffffffffffffffffffffff16837f2f8788117e7eff1d82e926ec794901d17c78024a50270940304540a733656f0d60405160405180910390a45b5050565b50565b6114028282610b60565b156114cf575f60065f8481526020019081526020015f205f015f8373ffffffffffffffffffffffffffffffffffffffff1673ffffffffffffffffffffffffffffffffffffffff1681526020019081526020015f205f6101000a81548160ff021916908315150217905550611474610e45565b73ffffffffffffffffffffffffffffffffffffffff168173ffffffffffffffffffffffffffffffffffffffff16837ff6391f5c32d9c69d2a47ea670b442974b53935d1edc7fd64eb21e047a839171b60405160405180910390a45b5050565b6114db6119c6565b5f60055f6101000a81548160ff0219169083151502179055507f5db9ee0a495bf2e6ff9c91a7834c1ba4fdd244a5e8aa4e537bd38aeae4b073aa61151d610e45565b60405161152a919061285c565b60405180910390a1565b61153c610a4d565b1561157c576040517f08c379a0000000000000000000000000000000000000000000000000000000008152600401611573906128bf565b60405180910390fd5b565b5f73ffffffffffffffffffffffffffffffffffffffff168273ffffffffffffffffffffffffffffffffffffffff16036115ec576040517f08c379a00000000000000000000000000000000000000000000000000000000081526004016115e390612927565b60405180910390fd5b6115f75f83836118f1565b8060025f82825461160891906123d0565b92505081905550805f808473ffffffffffffffffffffffffffffffffffffffff1673ffffffffffffffffffffffffffffffffffffffff1681526020019081526020015f205f82825401925050819055508173ffffffffffffffffffffffffffffffffffffffff165f73ffffffffffffffffffffffffffffffffffffffff167fddf252ad1be2c89b69c2b068fc378daa952ba7f163c4a11628f55a4df523b3ef836040516116b59190611f09565b60405180910390a36116c85f838361193d565b5050565b5f73ffffffffffffffffffffffffffffffffffffffff168273ffffffffffffffffffffffffffffffffffffffff160361173a576040517f08c379a0000000000000000000000000000000000000000000000000000000008152600401611731906129b5565b60405180910390fd5b611745825f836118f1565b5f805f8473ffffffffffffffffffffffffffffffffffffffff1673ffffffffffffffffffffffffffffffffffffffff1681526020019081526020015f20549050818110156117c8576040517f08c379a00000000000000000000000000000000000000000000000000000000081526004016117bf90612a43565b60405180910390fd5b8181035f808573ffffffffffffffffffffffffffffffffffffffff1673ffffffffffffffffffffffffffffffffffffffff1681526020019081526020015f20819055508160025f82825403925050819055505f73ffffffffffffffffffffffffffffffffffffffff168373ffffffffffffffffffffffffffffffffffffffff167fddf252ad1be2c89b69c2b068fc378daa952ba7f163c4a11628f55a4df523b3ef846040516118779190611f09565b60405180910390a361188a835f8461193d565b505050565b611897611534565b600160055f6101000a81548160ff0219169083151502179055507f62e78cea01bee320cd4e420270b5ea74000d11b0c9f74754ebdbfc544b05a2586118da610e45565b6040516118e7919061285c565b60405180910390a1565b611905679a48b9048b92444760c01b6113f5565b6119196725868aeced47b2e360c01b6113f5565b61192d67a9ff7514cae174a360c01b6113f5565b611938838383611a0f565b505050565b505050565b61194c8282610b60565b6119c25761195981611a67565b611966835f1c6020611a94565b604051602001611977929190612b2f565b6040516020818303038152906040526040517f08c379a00000000000000000000000000000000000000000000000000000000081526004016119b99190611e0f565b60405180910390fd5b5050565b6119ce610a4d565b611a0d576040517f08c379a0000000000000000000000000000000000000000000000000000000008152600401611a0490612bb2565b60405180910390fd5b565b611a1a838383611cc9565b611a22610a4d565b15611a62576040517f08c379a0000000000000000000000000000000000000000000000000000000008152600401611a5990612c40565b60405180910390fd5b505050565b6060611a8d8273ffffffffffffffffffffffffffffffffffffffff16601460ff16611a94565b9050919050565b60605f6002836002611aa69190612301565b611ab091906123d0565b67ffffffffffffffff811115611ac957611ac8612c5e565b5b6040519080825280601f01601f191660200182016040528015611afb5781602001600182028036833780820191505090505b5090507f3000000000000000000000000000000000000000000000000000000000000000815f81518110611b3257611b31612c8b565b5b60200101907effffffffffffffffffffffffffffffffffffffffffffffffffffffffffffff191690815f1a9053507f780000000000000000000000000000000000000000000000000000000000000081600181518110611b9557611b94612c8b565b5b60200101907effffffffffffffffffffffffffffffffffffffffffffffffffffffffffffff191690815f1a9053505f6001846002611bd39190612301565b611bdd91906123d0565b90505b6001811115611c7c577f3031323334353637383961626364656600000000000000000000000000000000600f861660108110611c1f57611c1e612c8b565b5b1a60f81b828281518110611c3657611c35612c8b565b5b60200101907effffffffffffffffffffffffffffffffffffffffffffffffffffffffffffff191690815f1a905350600485901c945080611c7590612cb8565b9050611be0565b505f8414611cbf576040517f08c379a0000000000000000000000000000000000000000000000000000000008152600401611cb690612d29565b60405180910390fd5b8091505092915050565b505050565b5f80fd5b5f7fffffffff0000000000000000000000000000000000000000000000000000000082169050919050565b611d0681611cd2565b8114611d10575f80fd5b50565b5f81359050611d2181611cfd565b92915050565b5f60208284031215611d3c57611d3b611cce565b5b5f611d4984828501611d13565b91505092915050565b5f8115159050919050565b611d6681611d52565b82525050565b5f602082019050611d7f5f830184611d5d565b92915050565b5f81519050919050565b5f82825260208201905092915050565b5f5b83811015611dbc578082015181840152602081019050611da1565b5f8484015250505050565b5f601f19601f8301169050919050565b5f611de182611d85565b611deb8185611d8f565b9350611dfb818560208601611d9f565b611e0481611dc7565b840191505092915050565b5f6020820190508181035f830152611e278184611dd7565b905092915050565b5f73ffffffffffffffffffffffffffffffffffffffff82169050919050565b5f611e5882611e2f565b9050919050565b611e6881611e4e565b8114611e72575f80fd5b50565b5f81359050611e8381611e5f565b92915050565b5f819050919050565b611e9b81611e89565b8114611ea5575f80fd5b50565b5f81359050611eb681611e92565b92915050565b5f8060408385031215611ed257611ed1611cce565b5b5f611edf85828601611e75565b9250506020611ef085828601611ea8565b9150509250929050565b611f0381611e89565b82525050565b5f602082019050611f1c5f830184611efa565b92915050565b5f805f60608486031215611f3957611f38611cce565b5b5f611f4686828701611e75565b9350506020611f5786828701611e75565b9250506040611f6886828701611ea8565b9150509250925092565b5f819050919050565b611f8481611f72565b8114611f8e575f80fd5b50565b5f81359050611f9f81611f7b565b92915050565b5f60208284031215611fba57611fb9611cce565b5b5f611fc784828501611f91565b91505092915050565b611fd981611f72565b82525050565b5f602082019050611ff25f830184611fd0565b92915050565b5f806040838503121561200e5761200d611cce565b5b5f61201b85828601611f91565b925050602061202c85828601611e75565b9150509250929050565b5f60ff82169050919050565b61204b81612036565b82525050565b5f6020820190506120645f830184612042565b92915050565b5f6020828403121561207f5761207e611cce565b5b5f61208c84828501611ea8565b91505092915050565b5f602082840312156120aa576120a9611cce565b5b5f6120b784828501611e75565b91505092915050565b5f80604083850312156120d6576120d5611cce565b5b5f6120e385828601611e75565b92505060206120f485828601611e75565b9150509250929050565b7f4e487b71000000000000000000000000000000000000000000000000000000005f52602260045260245ffd5b5f600282049050600182168061214257607f821691505b602082108103612155576121546120fe565b5b50919050565b7f4e487b71000000000000000000000000000000000000000000000000000000005f52601160045260245ffd5b5f8160011c9050919050565b5f808291508390505b60018511156121dd578086048111156121b9576121b861215b565b5b60018516156121c85780820291505b80810290506121d685612188565b945061219d565b94509492505050565b5f826121f557600190506122b0565b81612202575f90506122b0565b8160018114612218576002811461222257612251565b60019150506122b0565b60ff8411156122345761223361215b565b5b8360020a91508482111561224b5761224a61215b565b5b506122b0565b5060208310610133831016604e8410600b84101617156122865782820a9050838111156122815761228061215b565b5b6122b0565b6122938484846001612194565b925090508184048111156122aa576122a961215b565b5b81810290505b9392505050565b5f6122c182611e89565b91506122cc83611e89565b92506122f97fffffffffffffffffffffffffffffffffffffffffffffffffffffffffffffffff84846121e6565b905092915050565b5f61230b82611e89565b915061231683611e89565b925082820261232481611e89565b9150828204841483151761233b5761233a61215b565b5b5092915050565b7f416363657373436f6e74726f6c3a2063616e206f6e6c792072656e6f756e63655f8201527f20726f6c657320666f722073656c660000000000000000000000000000000000602082015250565b5f61239c602f83611d8f565b91506123a782612342565b604082019050919050565b5f6020820190508181035f8301526123c981612390565b9050919050565b5f6123da82611e89565b91506123e583611e89565b92508282019050808211156123fd576123fc61215b565b5b92915050565b7f546f6b656e20746f206265206d696e7465642073686f756c64206e6f742065785f8201527f63656564204d617820737570706c790000000000000000000000000000000000602082015250565b5f61245d602f83611d8f565b915061246882612403565b604082019050919050565b5f6020820190508181035f83015261248a81612451565b9050919050565b7f45524332303a2064656372656173656420616c6c6f77616e63652062656c6f775f8201527f207a65726f000000000000000000000000000000000000000000000000000000602082015250565b5f6124eb602583611d8f565b91506124f682612491565b604082019050919050565b5f6020820190508181035f830152612518816124df565b9050919050565b7f45524332303a20617070726f76652066726f6d20746865207a65726f206164645f8201527f7265737300000000000000000000000000000000000000000000000000000000602082015250565b5f612579602483611d8f565b91506125848261251f565b604082019050919050565b5f6020820190508181035f8301526125a68161256d565b9050919050565b7f45524332303a20617070726f766520746f20746865207a65726f2061646472655f8201527f7373000000000000000000000000000000000000000000000000000000000000602082015250565b5f612607602283611d8f565b9150612612826125ad565b604082019050919050565b5f6020820190508181035f830152612634816125fb565b9050919050565b7f45524332303a20696e73756666696369656e7420616c6c6f77616e63650000005f82015250565b5f61266f601d83611d8f565b915061267a8261263b565b602082019050919050565b5f6020820190508181035f83015261269c81612663565b9050919050565b7f45524332303a207472616e736665722066726f6d20746865207a65726f2061645f8201527f6472657373000000000000000000000000000000000000000000000000000000602082015250565b5f6126fd602583611d8f565b9150612708826126a3565b604082019050919050565b5f6020820190508181035f83015261272a816126f1565b9050919050565b7f45524332303a207472616e7366657220746f20746865207a65726f20616464725f8201527f6573730000000000000000000000000000000000000000000000000000000000602082015250565b5f61278b602383611d8f565b915061279682612731565b604082019050919050565b5f6020820190508181035f8301526127b88161277f565b9050919050565b7f45524332303a207472616e7366657220616d6f756e74206578636565647320625f8201527f616c616e63650000000000000000000000000000000000000000000000000000602082015250565b5f612819602683611d8f565b9150612824826127bf565b604082019050919050565b5f6020820190508181035f8301526128468161280d565b9050919050565b61285681611e4e565b82525050565b5f60208201905061286f5f83018461284d565b92915050565b7f5061757361626c653a20706175736564000000000000000000000000000000005f82015250565b5f6128a9601083611d8f565b91506128b482612875565b602082019050919050565b5f6020820190508181035f8301526128d68161289d565b9050919050565b7f45524332303a206d696e7420746f20746865207a65726f2061646472657373005f82015250565b5f612911601f83611d8f565b915061291c826128dd565b602082019050919050565b5f6020820190508181035f83015261293e81612905565b9050919050565b7f45524332303a206275726e2066726f6d20746865207a65726f206164647265735f8201527f7300000000000000000000000000000000000000000000000000000000000000602082015250565b5f61299f602183611d8f565b91506129aa82612945565b604082019050919050565b5f6020820190508181035f8301526129cc81612993565b9050919050565b7f45524332303a206275726e20616d6f756e7420657863656564732062616c616e5f8201527f6365000000000000000000000000000000000000000000000000000000000000602082015250565b5f612a2d602283611d8f565b9150612a38826129d3565b604082019050919050565b5f6020820190508181035f830152612a5a81612a21565b9050919050565b5f81905092915050565b7f416363657373436f6e74726f6c3a206163636f756e74200000000000000000005f82015250565b5f612a9f601783612a61565b9150612aaa82612a6b565b601782019050919050565b5f612abf82611d85565b612ac98185612a61565b9350612ad9818560208601611d9f565b80840191505092915050565b7f206973206d697373696e6720726f6c65200000000000000000000000000000005f82015250565b5f612b19601183612a61565b9150612b2482612ae5565b601182019050919050565b5f612b3982612a93565b9150612b458285612ab5565b9150612b5082612b0d565b9150612b5c8284612ab5565b91508190509392505050565b7f5061757361626c653a206e6f74207061757365640000000000000000000000005f82015250565b5f612b9c601483611d8f565b9150612ba782612b68565b602082019050919050565b5f6020820190508181035f830152612bc981612b90565b9050919050565b7f45524332305061757361626c653a20746f6b656e207472616e736665722077685f8201527f696c652070617573656400000000000000000000000000000000000000000000602082015250565b5f612c2a602a83611d8f565b9150612c3582612bd0565b604082019050919050565b5f6020820190508181035f830152612c5781612c1e565b9050919050565b7f4e487b71000000000000000000000000000000000000000000000000000000005f52604160045260245ffd5b7f4e487b71000000000000000000000000000000000000000000000000000000005f52603260045260245ffd5b5f612cc282611e89565b91505f8203612cd457612cd361215b565b5b600182039050919050565b7f537472696e67733a20686578206c656e67746820696e73756666696369656e745f82015250565b5f612d13602083611d8f565b9150612d1e82612cdf565b602082019050919050565b5f6020820190508181035f830152612d4081612d07565b905091905056fea2646970667358221220a42ac015540d78af0e28387ecd689ccd96bb89d6b25f1de3d57e6e70f65a6ab764736f6c63430008140033",
  "linkReferences": {},
  "deployedLinkReferences": {}
}