{
  "_format": "hh-sol-artifact-1",
  "contractName": "MindplexToken",
  "sourceName": "contracts/MindplexToken.sol",
  "abi": [
    {
      "inputs": [
        {
          "internalType": "string",
          "name": "name_",
          "type": "string"
        },
        {
          "internalType": "string",
          "name": "symbol_",
          "type": "string"
        }
      ],
      "stateMutability": "nonpayable",
      "type": "constructor"
    },
    {
      "anonymous": false,
      "inputs": [
        {
          "indexed": true,
          "internalType": "address",
          "name": "owner",
          "type": "address"
        },
        {
          "indexed": true,
          "internalType": "address",
          "name": "spender",
          "type": "address"
        },
        {
          "indexed": false,
          "internalType": "uint256",
          "name": "value",
          "type": "uint256"
        }
      ],
      "name": "Approval",
      "type": "event"
    },
    {
      "anonymous": false,
      "inputs": [
        {
          "indexed": false,
          "internalType": "address",
          "name": "account",
          "type": "address"
        }
      ],
      "name": "Paused",
      "type": "event"
    },
    {
      "anonymous": false,
      "inputs": [
        {
          "indexed": true,
          "internalType": "bytes32",
          "name": "role",
          "type": "bytes32"
        },
        {
          "indexed": true,
          "internalType": "bytes32",
          "name": "previousAdminRole",
          "type": "bytes32"
        },
        {
          "indexed": true,
          "internalType": "bytes32",
          "name": "newAdminRole",
          "type": "bytes32"
        }
      ],
      "name": "RoleAdminChanged",
      "type": "event"
    },
    {
      "anonymous": false,
      "inputs": [
        {
          "indexed": true,
          "internalType": "bytes32",
          "name": "role",
          "type": "bytes32"
        },
        {
          "indexed": true,
          "internalType": "address",
          "name": "account",
          "type": "address"
        },
        {
          "indexed": true,
          "internalType": "address",
          "name": "sender",
          "type": "address"
        }
      ],
      "name": "RoleGranted",
      "type": "event"
    },
    {
      "anonymous": false,
      "inputs": [
        {
          "indexed": true,
          "internalType": "bytes32",
          "name": "role",
          "type": "bytes32"
        },
        {
          "indexed": true,
          "internalType": "address",
          "name": "account",
          "type": "address"
        },
        {
          "indexed": true,
          "internalType": "address",
          "name": "sender",
          "type": "address"
        }
      ],
      "name": "RoleRevoked",
      "type": "event"
    },
    {
      "anonymous": false,
      "inputs": [
        {
          "indexed": true,
          "internalType": "address",
          "name": "from",
          "type": "address"
        },
        {
          "indexed": true,
          "internalType": "address",
          "name": "to",
          "type": "address"
        },
        {
          "indexed": false,
          "internalType": "uint256",
          "name": "value",
          "type": "uint256"
        }
      ],
      "name": "Transfer",
      "type": "event"
    },
    {
      "anonymous": false,
      "inputs": [
        {
          "indexed": false,
          "internalType": "address",
          "name": "account",
          "type": "address"
        }
      ],
      "name": "Unpaused",
      "type": "event"
    },
    {
      "inputs": [],
      "name": "DEFAULT_ADMIN_ROLE",
      "outputs": [
        {
          "internalType": "bytes32",
          "name": "",
          "type": "bytes32"
        }
      ],
      "stateMutability": "view",
      "type": "function"
    },
    {
      "inputs": [],
      "name": "MAX_SUPPLY",
      "outputs": [
        {
          "internalType": "uint256",
          "name": "",
          "type": "uint256"
        }
      ],
      "stateMutability": "view",
      "type": "function"
    },
    {
      "inputs": [],
      "name": "MINTER_ROLE",
      "outputs": [
        {
          "internalType": "bytes32",
          "name": "",
          "type": "bytes32"
        }
      ],
      "stateMutability": "view",
      "type": "function"
    },
    {
      "inputs": [],
      "name": "PAUSER_ROLE",
      "outputs": [
        {
          "internalType": "bytes32",
          "name": "",
          "type": "bytes32"
        }
      ],
      "stateMutability": "view",
      "type": "function"
    },
    {
      "inputs": [
        {
          "internalType": "address",
          "name": "owner",
          "type": "address"
        },
        {
          "internalType": "address",
          "name": "spender",
          "type": "address"
        }
      ],
      "name": "allowance",
      "outputs": [
        {
          "internalType": "uint256",
          "name": "",
          "type": "uint256"
        }
      ],
      "stateMutability": "view",
      "type": "function"
    },
    {
      "inputs": [
        {
          "internalType": "address",
          "name": "spender",
          "type": "address"
        },
        {
          "internalType": "uint256",
          "name": "amount",
          "type": "uint256"
        }
      ],
      "name": "approve",
      "outputs": [
        {
          "internalType": "bool",
          "name": "",
          "type": "bool"
        }
      ],
      "stateMutability": "nonpayable",
      "type": "function"
    },
    {
      "inputs": [
        {
          "internalType": "address",
          "name": "account",
          "type": "address"
        }
      ],
      "name": "balanceOf",
      "outputs": [
        {
          "internalType": "uint256",
          "name": "",
          "type": "uint256"
        }
      ],
      "stateMutability": "view",
      "type": "function"
    },
    {
      "inputs": [
        {
          "internalType": "uint256",
          "name": "amount",
          "type": "uint256"
        }
      ],
      "name": "burn",
      "outputs": [],
      "stateMutability": "nonpayable",
      "type": "function"
    },
    {
      "inputs": [
        {
          "internalType": "address",
          "name": "account",
          "type": "address"
        },
        {
          "internalType": "uint256",
          "name": "amount",
          "type": "uint256"
        }
      ],
      "name": "burnFrom",
      "outputs": [],
      "stateMutability": "nonpayable",
      "type": "function"
    },
    {
      "inputs": [],
      "name": "decimals",
      "outputs": [
        {
          "internalType": "uint8",
          "name": "",
          "type": "uint8"
        }
      ],
      "stateMutability": "pure",
      "type": "function"
    },
    {
      "inputs": [
        {
          "internalType": "address",
          "name": "spender",
          "type": "address"
        },
        {
          "internalType": "uint256",
          "name": "subtractedValue",
          "type": "uint256"
        }
      ],
      "name": "decreaseAllowance",
      "outputs": [
        {
          "internalType": "bool",
          "name": "",
          "type": "bool"
        }
      ],
      "stateMutability": "nonpayable",
      "type": "function"
    },
    {
      "inputs": [
        {
          "internalType": "bytes32",
          "name": "role",
          "type": "bytes32"
        }
      ],
      "name": "getRoleAdmin",
      "outputs": [
        {
          "internalType": "bytes32",
          "name": "",
          "type": "bytes32"
        }
      ],
      "stateMutability": "view",
      "type": "function"
    },
    {
      "inputs": [
        {
          "internalType": "bytes32",
          "name": "role",
          "type": "bytes32"
        },
        {
          "internalType": "address",
          "name": "account",
          "type": "address"
        }
      ],
      "name": "grantRole",
      "outputs": [],
      "stateMutability": "nonpayable",
      "type": "function"
    },
    {
      "inputs": [
        {
          "internalType": "bytes32",
          "name": "role",
          "type": "bytes32"
        },
        {
          "internalType": "address",
          "name": "account",
          "type": "address"
        }
      ],
      "name": "hasRole",
      "outputs": [
        {
          "internalType": "bool",
          "name": "",
          "type": "bool"
        }
      ],
      "stateMutability": "view",
      "type": "function"
    },
    {
      "inputs": [
        {
          "internalType": "address",
          "name": "spender",
          "type": "address"
        },
        {
          "internalType": "uint256",
          "name": "addedValue",
          "type": "uint256"
        }
      ],
      "name": "increaseAllowance",
      "outputs": [
        {
          "internalType": "bool",
          "name": "",
          "type": "bool"
        }
      ],
      "stateMutability": "nonpayable",
      "type": "function"
    },
    {
      "inputs": [
        {
          "internalType": "address",
          "name": "to",
          "type": "address"
        },
        {
          "internalType": "uint256",
          "name": "amount",
          "type": "uint256"
        }
      ],
      "name": "mint",
      "outputs": [],
      "stateMutability": "nonpayable",
      "type": "function"
    },
    {
      "inputs": [],
      "name": "name",
      "outputs": [
        {
          "internalType": "string",
          "name": "",
          "type": "string"
        }
      ],
      "stateMutability": "view",
      "type": "function"
    },
    {
      "inputs": [],
      "name": "pause",
      "outputs": [],
      "stateMutability": "nonpayable",
      "type": "function"
    },
    {
      "inputs": [],
      "name": "paused",
      "outputs": [
        {
          "internalType": "bool",
          "name": "",
          "type": "bool"
        }
      ],
      "stateMutability": "view",
      "type": "function"
    },
    {
      "inputs": [
        {
          "internalType": "bytes32",
          "name": "role",
          "type": "bytes32"
        },
        {
          "internalType": "address",
          "name": "account",
          "type": "address"
        }
      ],
      "name": "renounceRole",
      "outputs": [],
      "stateMutability": "nonpayable",
      "type": "function"
    },
    {
      "inputs": [
        {
          "internalType": "bytes32",
          "name": "role",
          "type": "bytes32"
        },
        {
          "internalType": "address",
          "name": "account",
          "type": "address"
        }
      ],
      "name": "revokeRole",
      "outputs": [],
      "stateMutability": "nonpayable",
      "type": "function"
    },
    {
      "inputs": [
        {
          "internalType": "bytes4",
          "name": "interfaceId",
          "type": "bytes4"
        }
      ],
      "name": "supportsInterface",
      "outputs": [
        {
          "internalType": "bool",
          "name": "",
          "type": "bool"
        }
      ],
      "stateMutability": "view",
      "type": "function"
    },
    {
      "inputs": [],
      "name": "symbol",
      "outputs": [
        {
          "internalType": "string",
          "name": "",
          "type": "string"
        }
      ],
      "stateMutability": "view",
      "type": "function"
    },
    {
      "inputs": [],
      "name": "totalSupply",
      "outputs": [
        {
          "internalType": "uint256",
          "name": "",
          "type": "uint256"
        }
      ],
      "stateMutability": "view",
      "type": "function"
    },
    {
      "inputs": [
        {
          "internalType": "address",
          "name": "to",
          "type": "address"
        },
        {
          "internalType": "uint256",
          "name": "amount",
          "type": "uint256"
        }
      ],
      "name": "transfer",
      "outputs": [
        {
          "internalType": "bool",
          "name": "",
          "type": "bool"
        }
      ],
      "stateMutability": "nonpayable",
      "type": "function"
    },
    {
      "inputs": [
        {
          "internalType": "address",
          "name": "from",
          "type": "address"
        },
        {
          "internalType": "address",
          "name": "to",
          "type": "address"
        },
        {
          "internalType": "uint256",
          "name": "amount",
          "type": "uint256"
        }
      ],
      "name": "transferFrom",
      "outputs": [
        {
          "internalType": "bool",
          "name": "",
          "type": "bool"
        }
      ],
      "stateMutability": "nonpayable",
      "type": "function"
    },
    {
      "inputs": [],
      "name": "unpause",
      "outputs": [],
      "stateMutability": "nonpayable",
      "type": "function"
    }
  ],
  "bytecode": "0x608060405234801562000010575f80fd5b5060405162003ba938038062003ba98339818101604052810190620000369190620007cd565b8181816003908162000049919062000a87565b5080600490816200005b919062000a87565b5050505f60055f6101000a81548160ff021916908315150217905550620000936743755797c4b39aa760c01b6200026160201b60201c565b620000af67847c7a71f59d3ee160c01b6200026160201b60201c565b620000cb67d86a456773148b5d60c01b6200026160201b60201c565b620000ee5f801b620000e26200026460201b60201c565b6200026b60201b60201c565b6200010a67eae08bf6388fcaab60c01b6200026160201b60201c565b6200012667d186fc3c7d5c085760c01b6200026160201b60201c565b620001677f65d7a28e3265b37a6474929f336521b332c1681b933f6cb9f3376673440d862a6200015b6200026460201b60201c565b6200026b60201b60201c565b6200018367bbccc91f5edd3dfd60c01b6200026160201b60201c565b6200019f67e04a6d1d34b3bc5360c01b6200026160201b60201c565b620001e07f9f2df0fed2c77648de5860a4cc508cd0818c85b8b8a1ab4ceeef8d981c8956a6620001d46200026460201b60201c565b6200026b60201b60201c565b620001fc674093e13d0685255260c01b6200026160201b60201c565b62000218679dbeb46d1393cd3f60c01b6200026160201b60201c565b620002596200022c6200026460201b60201c565b6006600a6200023c919062000ce8565b633b9aca006200024d919062000d38565b6200035760201b60201c565b505062000ed4565b50565b5f33905090565b6200027d8282620004bc60201b60201c565b6200035357600160065f8481526020019081526020015f205f015f8373ffffffffffffffffffffffffffffffffffffffff1673ffffffffffffffffffffffffffffffffffffffff1681526020019081526020015f205f6101000a81548160ff021916908315150217905550620002f86200026460201b60201c565b73ffffffffffffffffffffffffffffffffffffffff168173ffffffffffffffffffffffffffffffffffffffff16837f2f8788117e7eff1d82e926ec794901d17c78024a50270940304540a733656f0d60405160405180910390a45b5050565b5f73ffffffffffffffffffffffffffffffffffffffff168273ffffffffffffffffffffffffffffffffffffffff1603620003c8576040517f08c379a0000000000000000000000000000000000000000000000000000000008152600401620003bf9062000de0565b60405180910390fd5b620003db5f83836200052060201b60201c565b8060025f828254620003ee919062000e00565b92505081905550805f808473ffffffffffffffffffffffffffffffffffffffff1673ffffffffffffffffffffffffffffffffffffffff1681526020019081526020015f205f82825401925050819055508173ffffffffffffffffffffffffffffffffffffffff165f73ffffffffffffffffffffffffffffffffffffffff167fddf252ad1be2c89b69c2b068fc378daa952ba7f163c4a11628f55a4df523b3ef836040516200049d919062000e4b565b60405180910390a3620004b85f8383620005d460201b60201c565b5050565b5f60065f8481526020019081526020015f205f015f8373ffffffffffffffffffffffffffffffffffffffff1673ffffffffffffffffffffffffffffffffffffffff1681526020019081526020015f205f9054906101000a900460ff16905092915050565b6200053c67bf39d9990f27e07860c01b6200026160201b60201c565b6200054c620005d960201b60201c565b6200056867f2a9d73385ceed3760c01b6200026160201b60201c565b62000584679a48b9048b92444760c01b6200026160201b60201c565b620005a06725868aeced47b2e360c01b6200026160201b60201c565b620005bc67a9ff7514cae174a360c01b6200026160201b60201c565b620005cf8383836200062e60201b60201c565b505050565b505050565b620005e96200063360201b60201c565b156200062c576040517f08c379a0000000000000000000000000000000000000000000000000000000008152600401620006239062000eb4565b60405180910390fd5b565b505050565b5f60055f9054906101000a900460ff16905090565b5f604051905090565b5f80fd5b5f80fd5b5f80fd5b5f80fd5b5f601f19601f8301169050919050565b7f4e487b71000000000000000000000000000000000000000000000000000000005f52604160045260245ffd5b620006a98262000661565b810181811067ffffffffffffffff82111715620006cb57620006ca62000671565b5b80604052505050565b5f620006df62000648565b9050620006ed82826200069e565b919050565b5f67ffffffffffffffff8211156200070f576200070e62000671565b5b6200071a8262000661565b9050602081019050919050565b5f5b838110156200074657808201518184015260208101905062000729565b5f8484015250505050565b5f620007676200076184620006f2565b620006d4565b9050828152602081018484840111156200078657620007856200065d565b5b6200079384828562000727565b509392505050565b5f82601f830112620007b257620007b162000659565b5b8151620007c484826020860162000751565b91505092915050565b5f8060408385031215620007e657620007e562000651565b5b5f83015167ffffffffffffffff81111562000806576200080562000655565b5b62000814858286016200079b565b925050602083015167ffffffffffffffff81111562000838576200083762000655565b5b62000846858286016200079b565b9150509250929050565b5f81519050919050565b7f4e487b71000000000000000000000000000000000000000000000000000000005f52602260045260245ffd5b5f60028204905060018216806200089f57607f821691505b602082108103620008b557620008b46200085a565b5b50919050565b5f819050815f5260205f209050919050565b5f6020601f8301049050919050565b5f82821b905092915050565b5f60088302620009197fffffffffffffffffffffffffffffffffffffffffffffffffffffffffffffffff82620008dc565b620009258683620008dc565b95508019841693508086168417925050509392505050565b5f819050919050565b5f819050919050565b5f6200096f6200096962000963846200093d565b62000946565b6200093d565b9050919050565b5f819050919050565b6200098a836200094f565b620009a2620009998262000976565b848454620008e8565b825550505050565b5f90565b620009b8620009aa565b620009c58184846200097f565b505050565b5b81811015620009ec57620009e05f82620009ae565b600181019050620009cb565b5050565b601f82111562000a3b5762000a0581620008bb565b62000a1084620008cd565b8101602085101562000a20578190505b62000a3862000a2f85620008cd565b830182620009ca565b50505b505050565b5f82821c905092915050565b5f62000a5d5f198460080262000a40565b1980831691505092915050565b5f62000a77838362000a4c565b9150826002028217905092915050565b62000a928262000850565b67ffffffffffffffff81111562000aae5762000aad62000671565b5b62000aba825462000887565b62000ac7828285620009f0565b5f60209050601f83116001811462000afd575f841562000ae8578287015190505b62000af4858262000a6a565b86555062000b63565b601f19841662000b0d86620008bb565b5f5b8281101562000b365784890151825560018201915060208501945060208101905062000b0f565b8683101562000b56578489015162000b52601f89168262000a4c565b8355505b6001600288020188555050505b505050505050565b7f4e487b71000000000000000000000000000000000000000000000000000000005f52601160045260245ffd5b5f8160011c9050919050565b5f808291508390505b600185111562000bf55780860481111562000bcd5762000bcc62000b6b565b5b600185161562000bdd5780820291505b808102905062000bed8562000b98565b945062000bad565b94509492505050565b5f8262000c0f576001905062000ce1565b8162000c1e575f905062000ce1565b816001811462000c37576002811462000c425762000c78565b600191505062000ce1565b60ff84111562000c575762000c5662000b6b565b5b8360020a91508482111562000c715762000c7062000b6b565b5b5062000ce1565b5060208310610133831016604e8410600b841016171562000cb25782820a90508381111562000cac5762000cab62000b6b565b5b62000ce1565b62000cc1848484600162000ba4565b9250905081840481111562000cdb5762000cda62000b6b565b5b81810290505b9392505050565b5f62000cf4826200093d565b915062000d01836200093d565b925062000d307fffffffffffffffffffffffffffffffffffffffffffffffffffffffffffffffff848462000bfe565b905092915050565b5f62000d44826200093d565b915062000d51836200093d565b925082820262000d61816200093d565b9150828204841483151762000d7b5762000d7a62000b6b565b5b5092915050565b5f82825260208201905092915050565b7f45524332303a206d696e7420746f20746865207a65726f2061646472657373005f82015250565b5f62000dc8601f8362000d82565b915062000dd58262000d92565b602082019050919050565b5f6020820190508181035f83015262000df98162000dba565b9050919050565b5f62000e0c826200093d565b915062000e19836200093d565b925082820190508082111562000e345762000e3362000b6b565b5b92915050565b62000e45816200093d565b82525050565b5f60208201905062000e605f83018462000e3a565b92915050565b7f5061757361626c653a20706175736564000000000000000000000000000000005f82015250565b5f62000e9c60108362000d82565b915062000ea98262000e66565b602082019050919050565b5f6020820190508181035f83015262000ecd8162000e8e565b9050919050565b612cc78062000ee25f395ff3fe608060405234801561000f575f80fd5b50600436106101a7575f3560e01c806342966c68116100f7578063a217fddf11610095578063d53913931161006f578063d5391393146104cd578063d547741f146104eb578063dd62ed3e14610507578063e63ab1e914610537576101a7565b8063a217fddf1461044f578063a457c2d71461046d578063a9059cbb1461049d576101a7565b806379cc6790116100d157806379cc6790146103db5780638456cb59146103f757806391d148541461040157806395d89b4114610431576101a7565b806342966c68146103715780635c975abb1461038d57806370a08231146103ab576101a7565b80632f2ff15d1161016457806336568abe1161013e57806336568abe146102ff578063395093511461031b5780633f4ba83a1461034b57806340c10f1914610355576101a7565b80632f2ff15d146102a7578063313ce567146102c357806332cb6b0c146102e1576101a7565b806301ffc9a7146101ab57806306fdde03146101db578063095ea7b3146101f957806318160ddd1461022957806323b872dd14610247578063248a9ca314610277575b5f80fd5b6101c560048036038101906101c09190611cff565b610555565b6040516101d29190611d44565b60405180910390f35b6101e36105ce565b6040516101f09190611de7565b60405180910390f35b610213600480360381019061020e9190611e94565b61065e565b6040516102209190611d44565b60405180910390f35b610231610680565b60405161023e9190611ee1565b60405180910390f35b610261600480360381019061025c9190611efa565b610689565b60405161026e9190611d44565b60405180910390f35b610291600480360381019061028c9190611f7d565b6106b7565b60405161029e9190611fb7565b60405180910390f35b6102c160048036038101906102bc9190611fd0565b6106d4565b005b6102cb6106f5565b6040516102d89190612029565b60405180910390f35b6102e9610739565b6040516102f69190611ee1565b60405180910390f35b61031960048036038101906103149190611fd0565b610759565b005b61033560048036038101906103309190611e94565b6107dc565b6040516103429190611d44565b60405180910390f35b610353610812565b005b61036f600480360381019061036a9190611e94565b6108ab565b005b61038b60048036038101906103869190612042565b610a39565b005b610395610a4d565b6040516103a29190611d44565b60405180910390f35b6103c560048036038101906103c0919061206d565b610a62565b6040516103d29190611ee1565b60405180910390f35b6103f560048036038101906103f09190611e94565b610aa7565b005b6103ff610ac7565b005b61041b60048036038101906104169190611fd0565b610b60565b6040516104289190611d44565b60405180910390f35b610439610bc4565b6040516104469190611de7565b60405180910390f35b610457610c54565b6040516104649190611fb7565b60405180910390f35b61048760048036038101906104829190611e94565b610c5a565b6040516104949190611d44565b60405180910390f35b6104b760048036038101906104b29190611e94565b610ccf565b6040516104c49190611d44565b60405180910390f35b6104d5610cf1565b6040516104e29190611fb7565b60405180910390f35b61050560048036038101906105009190611fd0565b610d15565b005b610521600480360381019061051c9190612098565b610d36565b60405161052e9190611ee1565b60405180910390f35b61053f610db8565b60405161054c9190611fb7565b60405180910390f35b5f7f7965db0b000000000000000000000000000000000000000000000000000000007bffffffffffffffffffffffffffffffffffffffffffffffffffffffff1916827bffffffffffffffffffffffffffffffffffffffffffffffffffffffff191614806105c757506105c682610ddc565b5b9050919050565b6060600380546105dd90612103565b80601f016020809104026020016040519081016040528092919081815260200182805461060990612103565b80156106545780601f1061062b57610100808354040283529160200191610654565b820191905f5260205f20905b81548152906001019060200180831161063757829003601f168201915b5050505050905090565b5f80610668610e45565b9050610675818585610e4c565b600191505092915050565b5f600254905090565b5f80610693610e45565b90506106a085828561100f565b6106ab85858561109a565b60019150509392505050565b5f60065f8381526020019081526020015f20600101549050919050565b6106dd826106b7565b6106e681611306565b6106f0838361131a565b505050565b5f61070a67d352e7a2ac74bdd060c01b6113f5565b61071e67cfeac663810cc1d760c01b6113f5565b61073267387313e8392f807860c01b6113f5565b6006905090565b6006600a610747919061228f565b633b9aca0061075691906122d9565b81565b610761610e45565b73ffffffffffffffffffffffffffffffffffffffff168173ffffffffffffffffffffffffffffffffffffffff16146107ce576040517f08c379a00000000000000000000000000000000000000000000000000000000081526004016107c59061238a565b60405180910390fd5b6107d882826113f8565b5050565b5f806107e6610e45565b90506108078185856107f88589610d36565b61080291906123a8565b610e4c565b600191505092915050565b6108266720470d84459ce45f60c01b6113f5565b7f65d7a28e3265b37a6474929f336521b332c1681b933f6cb9f3376673440d862a61085081611306565b61086467c7b89a42065677d560c01b6113f5565b610878677ee51835770edb0960c01b6113f5565b61088c67d598313a3f39905e60c01b6113f5565b6108a0673fcd046526a50e6b60c01b6113f5565b6108a86114d3565b50565b6108bf67b736729b0bac3e7e60c01b6113f5565b6108c7611534565b6108db67ecd96f81d49fb31a60c01b6113f5565b6108ef6736bcf0bd67d5f59760c01b6113f5565b7f9f2df0fed2c77648de5860a4cc508cd0818c85b8b8a1ab4ceeef8d981c8956a661091981611306565b61092d678261605549f215f160c01b6113f5565b61094167b53283ada1a9a05a60c01b6113f5565b61095567adffed96f4d632c260c01b6113f5565b61096967c6dbfa490cfdb46960c01b6113f5565b61097d679557e9dd4afc51fb60c01b6113f5565b6006600a61098b919061228f565b633b9aca0061099a91906122d9565b826109a3610680565b6109ad91906123a8565b11156109ee576040517f08c379a00000000000000000000000000000000000000000000000000000000081526004016109e59061244b565b60405180910390fd5b610a02670e30ff34b604f96260c01b6113f5565b610a1667036e936efaed435c60c01b6113f5565b610a2a672aa604e1c28f718f60c01b6113f5565b610a34838361157e565b505050565b610a4a610a44610e45565b826116cc565b50565b5f60055f9054906101000a900460ff16905090565b5f805f8373ffffffffffffffffffffffffffffffffffffffff1673ffffffffffffffffffffffffffffffffffffffff1681526020019081526020015f20549050919050565b610ab982610ab3610e45565b8361100f565b610ac382826116cc565b5050565b610adb67d06124adaa93884a60c01b6113f5565b7f65d7a28e3265b37a6474929f336521b332c1681b933f6cb9f3376673440d862a610b0581611306565b610b1967e8e63a59de415ebb60c01b6113f5565b610b2d670d43225a74de2d3a60c01b6113f5565b610b41672ac7bc60210945db60c01b6113f5565b610b5567795c12b6e86c635e60c01b6113f5565b610b5d61188f565b50565b5f60065f8481526020019081526020015f205f015f8373ffffffffffffffffffffffffffffffffffffffff1673ffffffffffffffffffffffffffffffffffffffff1681526020019081526020015f205f9054906101000a900460ff16905092915050565b606060048054610bd390612103565b80601f0160208091040260200160405190810160405280929190818152602001828054610bff90612103565b8015610c4a5780601f10610c2157610100808354040283529160200191610c4a565b820191905f5260205f20905b815481529060010190602001808311610c2d57829003601f168201915b5050505050905090565b5f801b81565b5f80610c64610e45565b90505f610c718286610d36565b905083811015610cb6576040517f08c379a0000000000000000000000000000000000000000000000000000000008152600401610cad906124d9565b60405180910390fd5b610cc38286868403610e4c565b60019250505092915050565b5f80610cd9610e45565b9050610ce681858561109a565b600191505092915050565b7f9f2df0fed2c77648de5860a4cc508cd0818c85b8b8a1ab4ceeef8d981c8956a681565b610d1e826106b7565b610d2781611306565b610d3183836113f8565b505050565b5f60015f8473ffffffffffffffffffffffffffffffffffffffff1673ffffffffffffffffffffffffffffffffffffffff1681526020019081526020015f205f8373ffffffffffffffffffffffffffffffffffffffff1673ffffffffffffffffffffffffffffffffffffffff1681526020019081526020015f2054905092915050565b7f65d7a28e3265b37a6474929f336521b332c1681b933f6cb9f3376673440d862a81565b5f7f01ffc9a7000000000000000000000000000000000000000000000000000000007bffffffffffffffffffffffffffffffffffffffffffffffffffffffff1916827bffffffffffffffffffffffffffffffffffffffffffffffffffffffff1916149050919050565b5f33905090565b5f73ffffffffffffffffffffffffffffffffffffffff168373ffffffffffffffffffffffffffffffffffffffff1603610eba576040517f08c379a0000000000000000000000000000000000000000000000000000000008152600401610eb190612567565b60405180910390fd5b5f73ffffffffffffffffffffffffffffffffffffffff168273ffffffffffffffffffffffffffffffffffffffff1603610f28576040517f08c379a0000000000000000000000000000000000000000000000000000000008152600401610f1f906125f5565b60405180910390fd5b8060015f8573ffffffffffffffffffffffffffffffffffffffff1673ffffffffffffffffffffffffffffffffffffffff1681526020019081526020015f205f8473ffffffffffffffffffffffffffffffffffffffff1673ffffffffffffffffffffffffffffffffffffffff1681526020019081526020015f20819055508173ffffffffffffffffffffffffffffffffffffffff168373ffffffffffffffffffffffffffffffffffffffff167f8c5be1e5ebec7d5bd14f71427d1e84f3dd0314c0f7b2291e5b200ac8c7c3b925836040516110029190611ee1565b60405180910390a3505050565b5f61101a8484610d36565b90507fffffffffffffffffffffffffffffffffffffffffffffffffffffffffffffffff81146110945781811015611086576040517f08c379a000000000000000000000000000000000000000000000000000000000815260040161107d9061265d565b60405180910390fd5b6110938484848403610e4c565b5b50505050565b5f73ffffffffffffffffffffffffffffffffffffffff168373ffffffffffffffffffffffffffffffffffffffff1603611108576040517f08c379a00000000000000000000000000000000000000000000000000000000081526004016110ff906126eb565b60405180910390fd5b5f73ffffffffffffffffffffffffffffffffffffffff168273ffffffffffffffffffffffffffffffffffffffff1603611176576040517f08c379a000000000000000000000000000000000000000000000000000000000815260040161116d90612779565b60405180910390fd5b6111818383836118f1565b5f805f8573ffffffffffffffffffffffffffffffffffffffff1673ffffffffffffffffffffffffffffffffffffffff1681526020019081526020015f2054905081811015611204576040517f08c379a00000000000000000000000000000000000000000000000000000000081526004016111fb90612807565b60405180910390fd5b8181035f808673ffffffffffffffffffffffffffffffffffffffff1673ffffffffffffffffffffffffffffffffffffffff1681526020019081526020015f2081905550815f808573ffffffffffffffffffffffffffffffffffffffff1673ffffffffffffffffffffffffffffffffffffffff1681526020019081526020015f205f82825401925050819055508273ffffffffffffffffffffffffffffffffffffffff168473ffffffffffffffffffffffffffffffffffffffff167fddf252ad1be2c89b69c2b068fc378daa952ba7f163c4a11628f55a4df523b3ef846040516112ed9190611ee1565b60405180910390a361130084848461196d565b50505050565b61131781611312610e45565b611972565b50565b6113248282610b60565b6113f157600160065f8481526020019081526020015f205f015f8373ffffffffffffffffffffffffffffffffffffffff1673ffffffffffffffffffffffffffffffffffffffff1681526020019081526020015f205f6101000a81548160ff021916908315150217905550611396610e45565b73ffffffffffffffffffffffffffffffffffffffff168173ffffffffffffffffffffffffffffffffffffffff16837f2f8788117e7eff1d82e926ec794901d17c78024a50270940304540a733656f0d60405160405180910390a45b5050565b50565b6114028282610b60565b156114cf575f60065f8481526020019081526020015f205f015f8373ffffffffffffffffffffffffffffffffffffffff1673ffffffffffffffffffffffffffffffffffffffff1681526020019081526020015f205f6101000a81548160ff021916908315150217905550611474610e45565b73ffffffffffffffffffffffffffffffffffffffff168173ffffffffffffffffffffffffffffffffffffffff16837ff6391f5c32d9c69d2a47ea670b442974b53935d1edc7fd64eb21e047a839171b60405160405180910390a45b5050565b6114db6119f6565b5f60055f6101000a81548160ff0219169083151502179055507f5db9ee0a495bf2e6ff9c91a7834c1ba4fdd244a5e8aa4e537bd38aeae4b073aa61151d610e45565b60405161152a9190612834565b60405180910390a1565b61153c610a4d565b1561157c576040517f08c379a000000000000000000000000000000000000000000000000000000000815260040161157390612897565b60405180910390fd5b565b5f73ffffffffffffffffffffffffffffffffffffffff168273ffffffffffffffffffffffffffffffffffffffff16036115ec576040517f08c379a00000000000000000000000000000000000000000000000000000000081526004016115e3906128ff565b60405180910390fd5b6115f75f83836118f1565b8060025f82825461160891906123a8565b92505081905550805f808473ffffffffffffffffffffffffffffffffffffffff1673ffffffffffffffffffffffffffffffffffffffff1681526020019081526020015f205f82825401925050819055508173ffffffffffffffffffffffffffffffffffffffff165f73ffffffffffffffffffffffffffffffffffffffff167fddf252ad1be2c89b69c2b068fc378daa952ba7f163c4a11628f55a4df523b3ef836040516116b59190611ee1565b60405180910390a36116c85f838361196d565b5050565b5f73ffffffffffffffffffffffffffffffffffffffff168273ffffffffffffffffffffffffffffffffffffffff160361173a576040517f08c379a00000000000000000000000000000000000000000000000000000000081526004016117319061298d565b60405180910390fd5b611745825f836118f1565b5f805f8473ffffffffffffffffffffffffffffffffffffffff1673ffffffffffffffffffffffffffffffffffffffff1681526020019081526020015f20549050818110156117c8576040517f08c379a00000000000000000000000000000000000000000000000000000000081526004016117bf90612a1b565b60405180910390fd5b8181035f808573ffffffffffffffffffffffffffffffffffffffff1673ffffffffffffffffffffffffffffffffffffffff1681526020019081526020015f20819055508160025f82825403925050819055505f73ffffffffffffffffffffffffffffffffffffffff168373ffffffffffffffffffffffffffffffffffffffff167fddf252ad1be2c89b69c2b068fc378daa952ba7f163c4a11628f55a4df523b3ef846040516118779190611ee1565b60405180910390a361188a835f8461196d565b505050565b611897611534565b600160055f6101000a81548160ff0219169083151502179055507f62e78cea01bee320cd4e420270b5ea74000d11b0c9f74754ebdbfc544b05a2586118da610e45565b6040516118e79190612834565b60405180910390a1565b61190567bf39d9990f27e07860c01b6113f5565b61190d611534565b61192167f2a9d73385ceed3760c01b6113f5565b611935679a48b9048b92444760c01b6113f5565b6119496725868aeced47b2e360c01b6113f5565b61195d67a9ff7514cae174a360c01b6113f5565b611968838383611a3f565b505050565b505050565b61197c8282610b60565b6119f25761198981611a44565b611996835f1c6020611a71565b6040516020016119a7929190612b07565b6040516020818303038152906040526040517f08c379a00000000000000000000000000000000000000000000000000000000081526004016119e99190611de7565b60405180910390fd5b5050565b6119fe610a4d565b611a3d576040517f08c379a0000000000000000000000000000000000000000000000000000000008152600401611a3490612b8a565b60405180910390fd5b565b505050565b6060611a6a8273ffffffffffffffffffffffffffffffffffffffff16601460ff16611a71565b9050919050565b60605f6002836002611a8391906122d9565b611a8d91906123a8565b67ffffffffffffffff811115611aa657611aa5612ba8565b5b6040519080825280601f01601f191660200182016040528015611ad85781602001600182028036833780820191505090505b5090507f3000000000000000000000000000000000000000000000000000000000000000815f81518110611b0f57611b0e612bd5565b5b60200101907effffffffffffffffffffffffffffffffffffffffffffffffffffffffffffff191690815f1a9053507f780000000000000000000000000000000000000000000000000000000000000081600181518110611b7257611b71612bd5565b5b60200101907effffffffffffffffffffffffffffffffffffffffffffffffffffffffffffff191690815f1a9053505f6001846002611bb091906122d9565b611bba91906123a8565b90505b6001811115611c59577f3031323334353637383961626364656600000000000000000000000000000000600f861660108110611bfc57611bfb612bd5565b5b1a60f81b828281518110611c1357611c12612bd5565b5b60200101907effffffffffffffffffffffffffffffffffffffffffffffffffffffffffffff191690815f1a905350600485901c945080611c5290612c02565b9050611bbd565b505f8414611c9c576040517f08c379a0000000000000000000000000000000000000000000000000000000008152600401611c9390612c73565b60405180910390fd5b8091505092915050565b5f80fd5b5f7fffffffff0000000000000000000000000000000000000000000000000000000082169050919050565b611cde81611caa565b8114611ce8575f80fd5b50565b5f81359050611cf981611cd5565b92915050565b5f60208284031215611d1457611d13611ca6565b5b5f611d2184828501611ceb565b91505092915050565b5f8115159050919050565b611d3e81611d2a565b82525050565b5f602082019050611d575f830184611d35565b92915050565b5f81519050919050565b5f82825260208201905092915050565b5f5b83811015611d94578082015181840152602081019050611d79565b5f8484015250505050565b5f601f19601f8301169050919050565b5f611db982611d5d565b611dc38185611d67565b9350611dd3818560208601611d77565b611ddc81611d9f565b840191505092915050565b5f6020820190508181035f830152611dff8184611daf565b905092915050565b5f73ffffffffffffffffffffffffffffffffffffffff82169050919050565b5f611e3082611e07565b9050919050565b611e4081611e26565b8114611e4a575f80fd5b50565b5f81359050611e5b81611e37565b92915050565b5f819050919050565b611e7381611e61565b8114611e7d575f80fd5b50565b5f81359050611e8e81611e6a565b92915050565b5f8060408385031215611eaa57611ea9611ca6565b5b5f611eb785828601611e4d565b9250506020611ec885828601611e80565b9150509250929050565b611edb81611e61565b82525050565b5f602082019050611ef45f830184611ed2565b92915050565b5f805f60608486031215611f1157611f10611ca6565b5b5f611f1e86828701611e4d565b9350506020611f2f86828701611e4d565b9250506040611f4086828701611e80565b9150509250925092565b5f819050919050565b611f5c81611f4a565b8114611f66575f80fd5b50565b5f81359050611f7781611f53565b92915050565b5f60208284031215611f9257611f91611ca6565b5b5f611f9f84828501611f69565b91505092915050565b611fb181611f4a565b82525050565b5f602082019050611fca5f830184611fa8565b92915050565b5f8060408385031215611fe657611fe5611ca6565b5b5f611ff385828601611f69565b925050602061200485828601611e4d565b9150509250929050565b5f60ff82169050919050565b6120238161200e565b82525050565b5f60208201905061203c5f83018461201a565b92915050565b5f6020828403121561205757612056611ca6565b5b5f61206484828501611e80565b91505092915050565b5f6020828403121561208257612081611ca6565b5b5f61208f84828501611e4d565b91505092915050565b5f80604083850312156120ae576120ad611ca6565b5b5f6120bb85828601611e4d565b92505060206120cc85828601611e4d565b9150509250929050565b7f4e487b71000000000000000000000000000000000000000000000000000000005f52602260045260245ffd5b5f600282049050600182168061211a57607f821691505b60208210810361212d5761212c6120d6565b5b50919050565b7f4e487b71000000000000000000000000000000000000000000000000000000005f52601160045260245ffd5b5f8160011c9050919050565b5f808291508390505b60018511156121b55780860481111561219157612190612133565b5b60018516156121a05780820291505b80810290506121ae85612160565b9450612175565b94509492505050565b5f826121cd5760019050612288565b816121da575f9050612288565b81600181146121f057600281146121fa57612229565b6001915050612288565b60ff84111561220c5761220b612133565b5b8360020a91508482111561222357612222612133565b5b50612288565b5060208310610133831016604e8410600b841016171561225e5782820a90508381111561225957612258612133565b5b612288565b61226b848484600161216c565b9250905081840481111561228257612281612133565b5b81810290505b9392505050565b5f61229982611e61565b91506122a483611e61565b92506122d17fffffffffffffffffffffffffffffffffffffffffffffffffffffffffffffffff84846121be565b905092915050565b5f6122e382611e61565b91506122ee83611e61565b92508282026122fc81611e61565b9150828204841483151761231357612312612133565b5b5092915050565b7f416363657373436f6e74726f6c3a2063616e206f6e6c792072656e6f756e63655f8201527f20726f6c657320666f722073656c660000000000000000000000000000000000602082015250565b5f612374602f83611d67565b915061237f8261231a565b604082019050919050565b5f6020820190508181035f8301526123a181612368565b9050919050565b5f6123b282611e61565b91506123bd83611e61565b92508282019050808211156123d5576123d4612133565b5b92915050565b7f546f6b656e20746f206265206d696e7465642073686f756c64206e6f742065785f8201527f63656564204d617820737570706c790000000000000000000000000000000000602082015250565b5f612435602f83611d67565b9150612440826123db565b604082019050919050565b5f6020820190508181035f83015261246281612429565b9050919050565b7f45524332303a2064656372656173656420616c6c6f77616e63652062656c6f775f8201527f207a65726f000000000000000000000000000000000000000000000000000000602082015250565b5f6124c3602583611d67565b91506124ce82612469565b604082019050919050565b5f6020820190508181035f8301526124f0816124b7565b9050919050565b7f45524332303a20617070726f76652066726f6d20746865207a65726f206164645f8201527f7265737300000000000000000000000000000000000000000000000000000000602082015250565b5f612551602483611d67565b915061255c826124f7565b604082019050919050565b5f6020820190508181035f83015261257e81612545565b9050919050565b7f45524332303a20617070726f766520746f20746865207a65726f2061646472655f8201527f7373000000000000000000000000000000000000000000000000000000000000602082015250565b5f6125df602283611d67565b91506125ea82612585565b604082019050919050565b5f6020820190508181035f83015261260c816125d3565b9050919050565b7f45524332303a20696e73756666696369656e7420616c6c6f77616e63650000005f82015250565b5f612647601d83611d67565b915061265282612613565b602082019050919050565b5f6020820190508181035f8301526126748161263b565b9050919050565b7f45524332303a207472616e736665722066726f6d20746865207a65726f2061645f8201527f6472657373000000000000000000000000000000000000000000000000000000602082015250565b5f6126d5602583611d67565b91506126e08261267b565b604082019050919050565b5f6020820190508181035f830152612702816126c9565b9050919050565b7f45524332303a207472616e7366657220746f20746865207a65726f20616464725f8201527f6573730000000000000000000000000000000000000000000000000000000000602082015250565b5f612763602383611d67565b915061276e82612709565b604082019050919050565b5f6020820190508181035f83015261279081612757565b9050919050565b7f45524332303a207472616e7366657220616d6f756e74206578636565647320625f8201527f616c616e63650000000000000000000000000000000000000000000000000000602082015250565b5f6127f1602683611d67565b91506127fc82612797565b604082019050919050565b5f6020820190508181035f83015261281e816127e5565b9050919050565b61282e81611e26565b82525050565b5f6020820190506128475f830184612825565b92915050565b7f5061757361626c653a20706175736564000000000000000000000000000000005f82015250565b5f612881601083611d67565b915061288c8261284d565b602082019050919050565b5f6020820190508181035f8301526128ae81612875565b9050919050565b7f45524332303a206d696e7420746f20746865207a65726f2061646472657373005f82015250565b5f6128e9601f83611d67565b91506128f4826128b5565b602082019050919050565b5f6020820190508181035f830152612916816128dd565b9050919050565b7f45524332303a206275726e2066726f6d20746865207a65726f206164647265735f8201527f7300000000000000000000000000000000000000000000000000000000000000602082015250565b5f612977602183611d67565b91506129828261291d565b604082019050919050565b5f6020820190508181035f8301526129a48161296b565b9050919050565b7f45524332303a206275726e20616d6f756e7420657863656564732062616c616e5f8201527f6365000000000000000000000000000000000000000000000000000000000000602082015250565b5f612a05602283611d67565b9150612a10826129ab565b604082019050919050565b5f6020820190508181035f830152612a32816129f9565b9050919050565b5f81905092915050565b7f416363657373436f6e74726f6c3a206163636f756e74200000000000000000005f82015250565b5f612a77601783612a39565b9150612a8282612a43565b601782019050919050565b5f612a9782611d5d565b612aa18185612a39565b9350612ab1818560208601611d77565b80840191505092915050565b7f206973206d697373696e6720726f6c65200000000000000000000000000000005f82015250565b5f612af1601183612a39565b9150612afc82612abd565b601182019050919050565b5f612b1182612a6b565b9150612b1d8285612a8d565b9150612b2882612ae5565b9150612b348284612a8d565b91508190509392505050565b7f5061757361626c653a206e6f74207061757365640000000000000000000000005f82015250565b5f612b74601483611d67565b9150612b7f82612b40565b602082019050919050565b5f6020820190508181035f830152612ba181612b68565b9050919050565b7f4e487b71000000000000000000000000000000000000000000000000000000005f52604160045260245ffd5b7f4e487b71000000000000000000000000000000000000000000000000000000005f52603260045260245ffd5b5f612c0c82611e61565b91505f8203612c1e57612c1d612133565b5b600182039050919050565b7f537472696e67733a20686578206c656e67746820696e73756666696369656e745f82015250565b5f612c5d602083611d67565b9150612c6882612c29565b602082019050919050565b5f6020820190508181035f830152612c8a81612c51565b905091905056fea26469706673582212200e5a6a0668d940b5685724f9234faae4c060d8890762dbcd3b129b68bc17003964736f6c63430008140033",
  "linkReferences": {},
  "deployedLinkReferences": {}
}