{
  "_format": "hh-sol-artifact-1",
  "contractName": "MindplexToken",
  "sourceName": "contracts/MindplexToken.sol",
  "abi": [
    {
      "inputs": [
        {
          "internalType": "string",
          "name": "name_",
          "type": "string"
        },
        {
          "internalType": "string",
          "name": "symbol_",
          "type": "string"
        },
        {
          "internalType": "uint256",
          "name": "maxSupply_",
          "type": "uint256"
        },
        {
          "internalType": "uint256",
          "name": "initialSupply",
          "type": "uint256"
        }
      ],
      "stateMutability": "nonpayable",
      "type": "constructor"
    },
    {
      "inputs": [],
      "name": "InvalidShortString",
      "type": "error"
    },
    {
      "inputs": [
        {
          "internalType": "string",
          "name": "str",
          "type": "string"
        }
      ],
      "name": "StringTooLong",
      "type": "error"
    },
    {
      "anonymous": false,
      "inputs": [
        {
          "indexed": true,
          "internalType": "address",
          "name": "owner",
          "type": "address"
        },
        {
          "indexed": true,
          "internalType": "address",
          "name": "spender",
          "type": "address"
        },
        {
          "indexed": false,
          "internalType": "uint256",
          "name": "value",
          "type": "uint256"
        }
      ],
      "name": "Approval",
      "type": "event"
    },
    {
      "anonymous": false,
      "inputs": [
        {
          "indexed": true,
          "internalType": "address",
          "name": "delegator",
          "type": "address"
        },
        {
          "indexed": true,
          "internalType": "address",
          "name": "fromDelegate",
          "type": "address"
        },
        {
          "indexed": true,
          "internalType": "address",
          "name": "toDelegate",
          "type": "address"
        }
      ],
      "name": "DelegateChanged",
      "type": "event"
    },
    {
      "anonymous": false,
      "inputs": [
        {
          "indexed": true,
          "internalType": "address",
          "name": "delegate",
          "type": "address"
        },
        {
          "indexed": false,
          "internalType": "uint256",
          "name": "previousBalance",
          "type": "uint256"
        },
        {
          "indexed": false,
          "internalType": "uint256",
          "name": "newBalance",
          "type": "uint256"
        }
      ],
      "name": "DelegateVotesChanged",
      "type": "event"
    },
    {
      "anonymous": false,
      "inputs": [],
      "name": "EIP712DomainChanged",
      "type": "event"
    },
    {
      "anonymous": false,
      "inputs": [
        {
          "indexed": false,
          "internalType": "address",
          "name": "account",
          "type": "address"
        }
      ],
      "name": "Paused",
      "type": "event"
    },
    {
      "anonymous": false,
      "inputs": [
        {
          "indexed": true,
          "internalType": "bytes32",
          "name": "role",
          "type": "bytes32"
        },
        {
          "indexed": true,
          "internalType": "bytes32",
          "name": "previousAdminRole",
          "type": "bytes32"
        },
        {
          "indexed": true,
          "internalType": "bytes32",
          "name": "newAdminRole",
          "type": "bytes32"
        }
      ],
      "name": "RoleAdminChanged",
      "type": "event"
    },
    {
      "anonymous": false,
      "inputs": [
        {
          "indexed": true,
          "internalType": "bytes32",
          "name": "role",
          "type": "bytes32"
        },
        {
          "indexed": true,
          "internalType": "address",
          "name": "account",
          "type": "address"
        },
        {
          "indexed": true,
          "internalType": "address",
          "name": "sender",
          "type": "address"
        }
      ],
      "name": "RoleGranted",
      "type": "event"
    },
    {
      "anonymous": false,
      "inputs": [
        {
          "indexed": true,
          "internalType": "bytes32",
          "name": "role",
          "type": "bytes32"
        },
        {
          "indexed": true,
          "internalType": "address",
          "name": "account",
          "type": "address"
        },
        {
          "indexed": true,
          "internalType": "address",
          "name": "sender",
          "type": "address"
        }
      ],
      "name": "RoleRevoked",
      "type": "event"
    },
    {
      "anonymous": false,
      "inputs": [
        {
          "indexed": true,
          "internalType": "address",
          "name": "from",
          "type": "address"
        },
        {
          "indexed": true,
          "internalType": "address",
          "name": "to",
          "type": "address"
        },
        {
          "indexed": false,
          "internalType": "uint256",
          "name": "value",
          "type": "uint256"
        }
      ],
      "name": "Transfer",
      "type": "event"
    },
    {
      "anonymous": false,
      "inputs": [
        {
          "indexed": false,
          "internalType": "address",
          "name": "account",
          "type": "address"
        }
      ],
      "name": "Unpaused",
      "type": "event"
    },
    {
      "inputs": [],
      "name": "CLOCK_MODE",
      "outputs": [
        {
          "internalType": "string",
          "name": "",
          "type": "string"
        }
      ],
      "stateMutability": "view",
      "type": "function"
    },
    {
      "inputs": [],
      "name": "DEFAULT_ADMIN_ROLE",
      "outputs": [
        {
          "internalType": "bytes32",
          "name": "",
          "type": "bytes32"
        }
      ],
      "stateMutability": "view",
      "type": "function"
    },
    {
      "inputs": [],
      "name": "DOMAIN_SEPARATOR",
      "outputs": [
        {
          "internalType": "bytes32",
          "name": "",
          "type": "bytes32"
        }
      ],
      "stateMutability": "view",
      "type": "function"
    },
    {
      "inputs": [],
      "name": "MINTER_ROLE",
      "outputs": [
        {
          "internalType": "bytes32",
          "name": "",
          "type": "bytes32"
        }
      ],
      "stateMutability": "view",
      "type": "function"
    },
    {
      "inputs": [],
      "name": "PAUSER_ROLE",
      "outputs": [
        {
          "internalType": "bytes32",
          "name": "",
          "type": "bytes32"
        }
      ],
      "stateMutability": "view",
      "type": "function"
    },
    {
      "inputs": [
        {
          "internalType": "address",
          "name": "owner",
          "type": "address"
        },
        {
          "internalType": "address",
          "name": "spender",
          "type": "address"
        }
      ],
      "name": "allowance",
      "outputs": [
        {
          "internalType": "uint256",
          "name": "",
          "type": "uint256"
        }
      ],
      "stateMutability": "view",
      "type": "function"
    },
    {
      "inputs": [
        {
          "internalType": "address",
          "name": "spender",
          "type": "address"
        },
        {
          "internalType": "uint256",
          "name": "amount",
          "type": "uint256"
        }
      ],
      "name": "approve",
      "outputs": [
        {
          "internalType": "bool",
          "name": "",
          "type": "bool"
        }
      ],
      "stateMutability": "nonpayable",
      "type": "function"
    },
    {
      "inputs": [
        {
          "internalType": "address",
          "name": "account",
          "type": "address"
        }
      ],
      "name": "balanceOf",
      "outputs": [
        {
          "internalType": "uint256",
          "name": "",
          "type": "uint256"
        }
      ],
      "stateMutability": "view",
      "type": "function"
    },
    {
      "inputs": [
        {
          "internalType": "uint256",
          "name": "amount",
          "type": "uint256"
        }
      ],
      "name": "burn",
      "outputs": [],
      "stateMutability": "nonpayable",
      "type": "function"
    },
    {
      "inputs": [
        {
          "internalType": "address",
          "name": "account",
          "type": "address"
        },
        {
          "internalType": "uint256",
          "name": "amount",
          "type": "uint256"
        }
      ],
      "name": "burnFrom",
      "outputs": [],
      "stateMutability": "nonpayable",
      "type": "function"
    },
    {
      "inputs": [
        {
          "internalType": "address",
          "name": "account",
          "type": "address"
        },
        {
          "internalType": "uint32",
          "name": "pos",
          "type": "uint32"
        }
      ],
      "name": "checkpoints",
      "outputs": [
        {
          "components": [
            {
              "internalType": "uint32",
              "name": "fromBlock",
              "type": "uint32"
            },
            {
              "internalType": "uint224",
              "name": "votes",
              "type": "uint224"
            }
          ],
          "internalType": "struct ERC20Votes.Checkpoint",
          "name": "",
          "type": "tuple"
        }
      ],
      "stateMutability": "view",
      "type": "function"
    },
    {
      "inputs": [],
      "name": "clock",
      "outputs": [
        {
          "internalType": "uint48",
          "name": "",
          "type": "uint48"
        }
      ],
      "stateMutability": "view",
      "type": "function"
    },
    {
      "inputs": [],
      "name": "decimals",
      "outputs": [
        {
          "internalType": "uint8",
          "name": "",
          "type": "uint8"
        }
      ],
      "stateMutability": "pure",
      "type": "function"
    },
    {
      "inputs": [
        {
          "internalType": "address",
          "name": "spender",
          "type": "address"
        },
        {
          "internalType": "uint256",
          "name": "subtractedValue",
          "type": "uint256"
        }
      ],
      "name": "decreaseAllowance",
      "outputs": [
        {
          "internalType": "bool",
          "name": "",
          "type": "bool"
        }
      ],
      "stateMutability": "nonpayable",
      "type": "function"
    },
    {
      "inputs": [
        {
          "internalType": "address",
          "name": "delegatee",
          "type": "address"
        }
      ],
      "name": "delegate",
      "outputs": [],
      "stateMutability": "nonpayable",
      "type": "function"
    },
    {
      "inputs": [
        {
          "internalType": "address",
          "name": "delegatee",
          "type": "address"
        },
        {
          "internalType": "uint256",
          "name": "nonce",
          "type": "uint256"
        },
        {
          "internalType": "uint256",
          "name": "expiry",
          "type": "uint256"
        },
        {
          "internalType": "uint8",
          "name": "v",
          "type": "uint8"
        },
        {
          "internalType": "bytes32",
          "name": "r",
          "type": "bytes32"
        },
        {
          "internalType": "bytes32",
          "name": "s",
          "type": "bytes32"
        }
      ],
      "name": "delegateBySig",
      "outputs": [],
      "stateMutability": "nonpayable",
      "type": "function"
    },
    {
      "inputs": [
        {
          "internalType": "address",
          "name": "account",
          "type": "address"
        }
      ],
      "name": "delegates",
      "outputs": [
        {
          "internalType": "address",
          "name": "",
          "type": "address"
        }
      ],
      "stateMutability": "view",
      "type": "function"
    },
    {
      "inputs": [],
      "name": "eip712Domain",
      "outputs": [
        {
          "internalType": "bytes1",
          "name": "fields",
          "type": "bytes1"
        },
        {
          "internalType": "string",
          "name": "name",
          "type": "string"
        },
        {
          "internalType": "string",
          "name": "version",
          "type": "string"
        },
        {
          "internalType": "uint256",
          "name": "chainId",
          "type": "uint256"
        },
        {
          "internalType": "address",
          "name": "verifyingContract",
          "type": "address"
        },
        {
          "internalType": "bytes32",
          "name": "salt",
          "type": "bytes32"
        },
        {
          "internalType": "uint256[]",
          "name": "extensions",
          "type": "uint256[]"
        }
      ],
      "stateMutability": "view",
      "type": "function"
    },
    {
      "inputs": [
        {
          "internalType": "uint256",
          "name": "timepoint",
          "type": "uint256"
        }
      ],
      "name": "getPastTotalSupply",
      "outputs": [
        {
          "internalType": "uint256",
          "name": "",
          "type": "uint256"
        }
      ],
      "stateMutability": "view",
      "type": "function"
    },
    {
      "inputs": [
        {
          "internalType": "address",
          "name": "account",
          "type": "address"
        },
        {
          "internalType": "uint256",
          "name": "timepoint",
          "type": "uint256"
        }
      ],
      "name": "getPastVotes",
      "outputs": [
        {
          "internalType": "uint256",
          "name": "",
          "type": "uint256"
        }
      ],
      "stateMutability": "view",
      "type": "function"
    },
    {
      "inputs": [
        {
          "internalType": "bytes32",
          "name": "role",
          "type": "bytes32"
        }
      ],
      "name": "getRoleAdmin",
      "outputs": [
        {
          "internalType": "bytes32",
          "name": "",
          "type": "bytes32"
        }
      ],
      "stateMutability": "view",
      "type": "function"
    },
    {
      "inputs": [
        {
          "internalType": "address",
          "name": "account",
          "type": "address"
        }
      ],
      "name": "getVotes",
      "outputs": [
        {
          "internalType": "uint256",
          "name": "",
          "type": "uint256"
        }
      ],
      "stateMutability": "view",
      "type": "function"
    },
    {
      "inputs": [
        {
          "internalType": "bytes32",
          "name": "role",
          "type": "bytes32"
        },
        {
          "internalType": "address",
          "name": "account",
          "type": "address"
        }
      ],
      "name": "grantRole",
      "outputs": [],
      "stateMutability": "nonpayable",
      "type": "function"
    },
    {
      "inputs": [
        {
          "internalType": "bytes32",
          "name": "role",
          "type": "bytes32"
        },
        {
          "internalType": "address",
          "name": "account",
          "type": "address"
        }
      ],
      "name": "hasRole",
      "outputs": [
        {
          "internalType": "bool",
          "name": "",
          "type": "bool"
        }
      ],
      "stateMutability": "view",
      "type": "function"
    },
    {
      "inputs": [
        {
          "internalType": "address",
          "name": "spender",
          "type": "address"
        },
        {
          "internalType": "uint256",
          "name": "addedValue",
          "type": "uint256"
        }
      ],
      "name": "increaseAllowance",
      "outputs": [
        {
          "internalType": "bool",
          "name": "",
          "type": "bool"
        }
      ],
      "stateMutability": "nonpayable",
      "type": "function"
    },
    {
      "inputs": [],
      "name": "maxSupply",
      "outputs": [
        {
          "internalType": "uint256",
          "name": "",
          "type": "uint256"
        }
      ],
      "stateMutability": "view",
      "type": "function"
    },
    {
      "inputs": [
        {
          "internalType": "address",
          "name": "to",
          "type": "address"
        },
        {
          "internalType": "uint256",
          "name": "amount",
          "type": "uint256"
        }
      ],
      "name": "mint",
      "outputs": [],
      "stateMutability": "nonpayable",
      "type": "function"
    },
    {
      "inputs": [],
      "name": "name",
      "outputs": [
        {
          "internalType": "string",
          "name": "",
          "type": "string"
        }
      ],
      "stateMutability": "view",
      "type": "function"
    },
    {
      "inputs": [
        {
          "internalType": "address",
          "name": "owner",
          "type": "address"
        }
      ],
      "name": "nonces",
      "outputs": [
        {
          "internalType": "uint256",
          "name": "",
          "type": "uint256"
        }
      ],
      "stateMutability": "view",
      "type": "function"
    },
    {
      "inputs": [
        {
          "internalType": "address",
          "name": "account",
          "type": "address"
        }
      ],
      "name": "numCheckpoints",
      "outputs": [
        {
          "internalType": "uint32",
          "name": "",
          "type": "uint32"
        }
      ],
      "stateMutability": "view",
      "type": "function"
    },
    {
      "inputs": [],
      "name": "pause",
      "outputs": [],
      "stateMutability": "nonpayable",
      "type": "function"
    },
    {
      "inputs": [],
      "name": "paused",
      "outputs": [
        {
          "internalType": "bool",
          "name": "",
          "type": "bool"
        }
      ],
      "stateMutability": "view",
      "type": "function"
    },
    {
      "inputs": [
        {
          "internalType": "address",
          "name": "owner",
          "type": "address"
        },
        {
          "internalType": "address",
          "name": "spender",
          "type": "address"
        },
        {
          "internalType": "uint256",
          "name": "value",
          "type": "uint256"
        },
        {
          "internalType": "uint256",
          "name": "deadline",
          "type": "uint256"
        },
        {
          "internalType": "uint8",
          "name": "v",
          "type": "uint8"
        },
        {
          "internalType": "bytes32",
          "name": "r",
          "type": "bytes32"
        },
        {
          "internalType": "bytes32",
          "name": "s",
          "type": "bytes32"
        }
      ],
      "name": "permit",
      "outputs": [],
      "stateMutability": "nonpayable",
      "type": "function"
    },
    {
      "inputs": [
        {
          "internalType": "bytes32",
          "name": "role",
          "type": "bytes32"
        },
        {
          "internalType": "address",
          "name": "account",
          "type": "address"
        }
      ],
      "name": "renounceRole",
      "outputs": [],
      "stateMutability": "nonpayable",
      "type": "function"
    },
    {
      "inputs": [
        {
          "internalType": "bytes32",
          "name": "role",
          "type": "bytes32"
        },
        {
          "internalType": "address",
          "name": "account",
          "type": "address"
        }
      ],
      "name": "revokeRole",
      "outputs": [],
      "stateMutability": "nonpayable",
      "type": "function"
    },
    {
      "inputs": [
        {
          "internalType": "bytes4",
          "name": "interfaceId",
          "type": "bytes4"
        }
      ],
      "name": "supportsInterface",
      "outputs": [
        {
          "internalType": "bool",
          "name": "",
          "type": "bool"
        }
      ],
      "stateMutability": "view",
      "type": "function"
    },
    {
      "inputs": [],
      "name": "symbol",
      "outputs": [
        {
          "internalType": "string",
          "name": "",
          "type": "string"
        }
      ],
      "stateMutability": "view",
      "type": "function"
    },
    {
      "inputs": [],
      "name": "totalSupply",
      "outputs": [
        {
          "internalType": "uint256",
          "name": "",
          "type": "uint256"
        }
      ],
      "stateMutability": "view",
      "type": "function"
    },
    {
      "inputs": [
        {
          "internalType": "address",
          "name": "to",
          "type": "address"
        },
        {
          "internalType": "uint256",
          "name": "amount",
          "type": "uint256"
        }
      ],
      "name": "transfer",
      "outputs": [
        {
          "internalType": "bool",
          "name": "",
          "type": "bool"
        }
      ],
      "stateMutability": "nonpayable",
      "type": "function"
    },
    {
      "inputs": [
        {
          "internalType": "address",
          "name": "from",
          "type": "address"
        },
        {
          "internalType": "address",
          "name": "to",
          "type": "address"
        },
        {
          "internalType": "uint256",
          "name": "amount",
          "type": "uint256"
        }
      ],
      "name": "transferFrom",
      "outputs": [
        {
          "internalType": "bool",
          "name": "",
          "type": "bool"
        }
      ],
      "stateMutability": "nonpayable",
      "type": "function"
    },
    {
      "inputs": [],
      "name": "unpause",
      "outputs": [],
      "stateMutability": "nonpayable",
      "type": "function"
    }
  ],
  "bytecode": "0x61018060405234801562000011575f80fd5b50604051620073d1380380620073d1833981810160405281019062000037919062001479565b83806040518060400160405280600181526020017f31000000000000000000000000000000000000000000000000000000000000008152508686816003908162000082919062001754565b50806004908162000094919062001754565b505050620000ad600583620003e460201b90919060201c565b6101208181525050620000cb600682620003e460201b90919060201c565b6101408181525050818051906020012060e08181525050808051906020012061010081815250504660a081815250506200010a6200043960201b60201c565b608081815250503073ffffffffffffffffffffffffffffffffffffffff1660c08173ffffffffffffffffffffffffffffffffffffffff16815250505050505f600c5f6101000a81548160ff0219169083151502179055506200017d67467a2b19d701a14d60c01b6200049560201b60201c565b620001996771a4ed2eb9d3109f60c01b6200049560201b60201c565b620001b5675c70189fd78a77fa60c01b6200049560201b60201c565b620001c6826200049860201b60201c565b620001e267bd67e871081f66d760c01b6200049560201b60201c565b620001fe677292e300c6802d1c60c01b6200049560201b60201c565b6200020f816200049860201b60201c565b6200022b67e83e7e30f45778cd60c01b6200049560201b60201c565b8161016081815250506200025067073fd53c1b815d7d60c01b6200049560201b60201c565b6200026c6798cfbb4406e67cef60c01b6200049560201b60201c565b6200028f5f801b620002836200056c60201b60201c565b6200057360201b60201c565b620002ab67e79272cb7a8d844360c01b6200049560201b60201c565b620002c767466f3ac830701a9d60c01b6200049560201b60201c565b620003087f65d7a28e3265b37a6474929f336521b332c1681b933f6cb9f3376673440d862a620002fc6200056c60201b60201c565b6200057360201b60201c565b6200032467abf99fae6e22cd6360c01b6200049560201b60201c565b6200034067e955d90530c43fe960c01b6200049560201b60201c565b620003817f9f2df0fed2c77648de5860a4cc508cd0818c85b8b8a1ab4ceeef8d981c8956a6620003756200056c60201b60201c565b6200057360201b60201c565b6200039d67dae4cfba9da31aea60c01b6200049560201b60201c565b620003b9673bfaf6cc17f0196160c01b6200049560201b60201c565b620003da620003cd6200056c60201b60201c565b826200065f60201b60201c565b5050505062001e92565b5f60208351101562000409576200040183620006c960201b60201c565b905062000433565b826200041b836200073360201b60201c565b5f0190816200042b919062001754565b5060ff5f1b90505b92915050565b5f7f8b73c3c69bb8fe3d512ecc4cf759cc79239f7b179b0ffacaa9a75d522b39400f60e0516101005146306040516020016200047a959493929190620018a6565b60405160208183030381529060405280519060200120905090565b50565b620004b467b8e44a1d43955f0b60c01b6200049560201b60201c565b620004d067cb063b478016107160c01b6200049560201b60201c565b620004ec67c0ce1d75734c0ab260c01b6200049560201b60201c565b62000508670c897dc1f025a36660c01b6200049560201b60201c565b5f81116200054d576040517f08c379a000000000000000000000000000000000000000000000000000000000815260040162000544906200195f565b60405180910390fd5b62000569678960c3c01fe8ee4860c01b6200049560201b60201c565b50565b5f33905090565b6200058582826200073c60201b60201c565b6200065b576001600d5f8481526020019081526020015f205f015f8373ffffffffffffffffffffffffffffffffffffffff1673ffffffffffffffffffffffffffffffffffffffff1681526020019081526020015f205f6101000a81548160ff021916908315150217905550620006006200056c60201b60201c565b73ffffffffffffffffffffffffffffffffffffffff168173ffffffffffffffffffffffffffffffffffffffff16837f2f8788117e7eff1d82e926ec794901d17c78024a50270940304540a733656f0d60405160405180910390a45b5050565b6200067b67955474b51fda83e060c01b6200049560201b60201c565b620006976798f5f66d422df1ed60c01b6200049560201b60201c565b620006b36787a9f30d65a68c1860c01b6200049560201b60201c565b620006c58282620007a060201b60201c565b5050565b5f80829050601f815111156200071857826040517f305a27a90000000000000000000000000000000000000000000000000000000081526004016200070f9190620019bf565b60405180910390fd5b805181620007269062001a10565b5f1c175f1b915050919050565b5f819050919050565b5f600d5f8481526020019081526020015f205f015f8373ffffffffffffffffffffffffffffffffffffffff1673ffffffffffffffffffffffffffffffffffffffff1681526020019081526020015f205f9054906101000a900460ff16905092915050565b620007b282826200085960201b60201c565b620007c2620009be60201b60201c565b7bffffffffffffffffffffffffffffffffffffffffffffffffffffffff16620007f0620009e160201b60201c565b111562000834576040517f08c379a00000000000000000000000000000000000000000000000000000000081526004016200082b9062001af3565b60405180910390fd5b62000853600b620009ea60201b620018bc178362000a0160201b60201c565b50505050565b5f73ffffffffffffffffffffffffffffffffffffffff168273ffffffffffffffffffffffffffffffffffffffff1603620008ca576040517f08c379a0000000000000000000000000000000000000000000000000000000008152600401620008c19062001b61565b60405180910390fd5b620008dd5f838362000d0560201b60201c565b8060025f828254620008f0919062001bae565b92505081905550805f808473ffffffffffffffffffffffffffffffffffffffff1673ffffffffffffffffffffffffffffffffffffffff1681526020019081526020015f205f82825401925050819055508173ffffffffffffffffffffffffffffffffffffffff165f73ffffffffffffffffffffffffffffffffffffffff167fddf252ad1be2c89b69c2b068fc378daa952ba7f163c4a11628f55a4df523b3ef836040516200099f919062001be8565b60405180910390a3620009ba5f838362000db960201b60201c565b5050565b5f7bffffffffffffffffffffffffffffffffffffffffffffffffffffffff905090565b5f600254905090565b5f8183620009f9919062001bae565b905092915050565b5f805f858054905090505f80821462000acb5762000a29876001840362000e2560201b60201c565b6040518060400160405290815f82015f9054906101000a900463ffffffff1663ffffffff1663ffffffff1681526020015f820160049054906101000a90047bffffffffffffffffffffffffffffffffffffffffffffffffffffffff167bffffffffffffffffffffffffffffffffffffffffffffffffffffffff167bffffffffffffffffffffffffffffffffffffffffffffffffffffffff168152505062000b05565b60405180604001604052805f63ffffffff1681526020015f7bffffffffffffffffffffffffffffffffffffffffffffffffffffffff168152505b905080602001517bffffffffffffffffffffffffffffffffffffffffffffffffffffffff16935062000b3884868860201c565b92505f8211801562000b69575062000b5562000e3760201b60201c565b65ffffffffffff16815f015163ffffffff16145b1562000beb5762000b808362000e4e60201b60201c565b62000b95886001850362000e2560201b60201c565b5f0160046101000a8154817bffffffffffffffffffffffffffffffffffffffffffffffffffffffff02191690837bffffffffffffffffffffffffffffffffffffffffffffffffffffffff16021790555062000cfb565b86604051806040016040528062000c1f62000c0b62000e3760201b60201c565b65ffffffffffff1662000ebb60201b60201c565b63ffffffff16815260200162000c3b8662000e4e60201b60201c565b7bffffffffffffffffffffffffffffffffffffffffffffffffffffffff16815250908060018154018082558091505060019003905f5260205f20015f909190919091505f820151815f015f6101000a81548163ffffffff021916908363ffffffff1602179055506020820151815f0160046101000a8154817bffffffffffffffffffffffffffffffffffffffffffffffffffffffff02191690837bffffffffffffffffffffffffffffffffffffffffffffffffffffffff16021790555050505b5050935093915050565b62000d21677cd2b5a387adca2760c01b6200049560201b60201c565b62000d3162000f1060201b60201c565b62000d4d675e1249963aad49f660c01b6200049560201b60201c565b62000d6967df3296133fb883a360c01b6200049560201b60201c565b62000d8567988b76751bad7caf60c01b6200049560201b60201c565b62000da16717513803c408899760c01b6200049560201b60201c565b62000db483838362000f6560201b60201c565b505050565b62000dd5679b6b68437fe5060b60c01b6200049560201b60201c565b62000df167e0374ab1595aadec60c01b6200049560201b60201c565b62000e0d671376b34b86b9470660c01b6200049560201b60201c565b62000e2083838362000f6a60201b60201c565b505050565b5f825f528160205f2001905092915050565b5f62000e494362000fb560201b60201c565b905090565b5f7bffffffffffffffffffffffffffffffffffffffffffffffffffffffff801682111562000eb3576040517f08c379a000000000000000000000000000000000000000000000000000000000815260040162000eaa9062001c77565b60405180910390fd5b819050919050565b5f63ffffffff801682111562000f08576040517f08c379a000000000000000000000000000000000000000000000000000000000815260040162000eff9062001d0b565b60405180910390fd5b819050919050565b62000f206200100c60201b60201c565b1562000f63576040517f08c379a000000000000000000000000000000000000000000000000000000000815260040162000f5a9062001d79565b60405180910390fd5b565b505050565b62000f7d8383836200102160201b60201c565b62000fb062000f92846200102660201b60201c565b62000fa3846200102660201b60201c565b836200108b60201b60201c565b505050565b5f65ffffffffffff801682111562001004576040517f08c379a000000000000000000000000000000000000000000000000000000000815260040162000ffb9062001e0d565b60405180910390fd5b819050919050565b5f600c5f9054906101000a900460ff16905090565b505050565b5f60095f8373ffffffffffffffffffffffffffffffffffffffff1673ffffffffffffffffffffffffffffffffffffffff1681526020019081526020015f205f9054906101000a900473ffffffffffffffffffffffffffffffffffffffff169050919050565b8173ffffffffffffffffffffffffffffffffffffffff168373ffffffffffffffffffffffffffffffffffffffff1614158015620010c757505f81115b15620012a0575f73ffffffffffffffffffffffffffffffffffffffff168373ffffffffffffffffffffffffffffffffffffffff1614620011b6575f806200115d600a5f8773ffffffffffffffffffffffffffffffffffffffff1673ffffffffffffffffffffffffffffffffffffffff1681526020019081526020015f20620012a560201b620018d1178562000a0160201b60201c565b915091508473ffffffffffffffffffffffffffffffffffffffff167fdec2bacdd2f05b59de34da9b523dff8be42e5e38e818c82fdb0bae774387a7248383604051620011ab92919062001e2d565b60405180910390a250505b5f73ffffffffffffffffffffffffffffffffffffffff168273ffffffffffffffffffffffffffffffffffffffff16146200129f575f8062001246600a5f8673ffffffffffffffffffffffffffffffffffffffff1673ffffffffffffffffffffffffffffffffffffffff1681526020019081526020015f20620009ea60201b620018bc178562000a0160201b60201c565b915091508373ffffffffffffffffffffffffffffffffffffffff167fdec2bacdd2f05b59de34da9b523dff8be42e5e38e818c82fdb0bae774387a72483836040516200129492919062001e2d565b60405180910390a250505b5b505050565b5f8183620012b4919062001e58565b905092915050565b5f604051905090565b5f80fd5b5f80fd5b5f80fd5b5f80fd5b5f601f19601f8301169050919050565b7f4e487b71000000000000000000000000000000000000000000000000000000005f52604160045260245ffd5b6200131d82620012d5565b810181811067ffffffffffffffff821117156200133f576200133e620012e5565b5b80604052505050565b5f62001353620012bc565b905062001361828262001312565b919050565b5f67ffffffffffffffff821115620013835762001382620012e5565b5b6200138e82620012d5565b9050602081019050919050565b5f5b83811015620013ba5780820151818401526020810190506200139d565b5f8484015250505050565b5f620013db620013d58462001366565b62001348565b905082815260208101848484011115620013fa57620013f9620012d1565b5b620014078482856200139b565b509392505050565b5f82601f830112620014265762001425620012cd565b5b815162001438848260208601620013c5565b91505092915050565b5f819050919050565b620014558162001441565b811462001460575f80fd5b50565b5f8151905062001473816200144a565b92915050565b5f805f8060808587031215620014945762001493620012c5565b5b5f85015167ffffffffffffffff811115620014b457620014b3620012c9565b5b620014c2878288016200140f565b945050602085015167ffffffffffffffff811115620014e657620014e5620012c9565b5b620014f4878288016200140f565b9350506040620015078782880162001463565b92505060606200151a8782880162001463565b91505092959194509250565b5f81519050919050565b7f4e487b71000000000000000000000000000000000000000000000000000000005f52602260045260245ffd5b5f60028204905060018216806200157557607f821691505b6020821081036200158b576200158a62001530565b5b50919050565b5f819050815f5260205f209050919050565b5f6020601f8301049050919050565b5f82821b905092915050565b5f60088302620015ef7fffffffffffffffffffffffffffffffffffffffffffffffffffffffffffffffff82620015b2565b620015fb8683620015b2565b95508019841693508086168417925050509392505050565b5f819050919050565b5f6200163c62001636620016308462001441565b62001613565b62001441565b9050919050565b5f819050919050565b62001657836200161c565b6200166f620016668262001643565b848454620015be565b825550505050565b5f90565b6200168562001677565b620016928184846200164c565b505050565b5b81811015620016b957620016ad5f826200167b565b60018101905062001698565b5050565b601f8211156200170857620016d28162001591565b620016dd84620015a3565b81016020851015620016ed578190505b62001705620016fc85620015a3565b83018262001697565b50505b505050565b5f82821c905092915050565b5f6200172a5f19846008026200170d565b1980831691505092915050565b5f62001744838362001719565b9150826002028217905092915050565b6200175f8262001526565b67ffffffffffffffff8111156200177b576200177a620012e5565b5b6200178782546200155d565b62001794828285620016bd565b5f60209050601f831160018114620017ca575f8415620017b5578287015190505b620017c1858262001737565b86555062001830565b601f198416620017da8662001591565b5f5b828110156200180357848901518255600182019150602085019450602081019050620017dc565b868310156200182357848901516200181f601f89168262001719565b8355505b6001600288020188555050505b505050505050565b5f819050919050565b6200184c8162001838565b82525050565b6200185d8162001441565b82525050565b5f73ffffffffffffffffffffffffffffffffffffffff82169050919050565b5f6200188e8262001863565b9050919050565b620018a08162001882565b82525050565b5f60a082019050620018bb5f83018862001841565b620018ca602083018762001841565b620018d9604083018662001841565b620018e8606083018562001852565b620018f7608083018462001895565b9695505050505050565b5f82825260208201905092915050565b7f5a65726f20616d6f756e740000000000000000000000000000000000000000005f82015250565b5f62001947600b8362001901565b9150620019548262001911565b602082019050919050565b5f6020820190508181035f830152620019788162001939565b9050919050565b5f6200198b8262001526565b62001997818562001901565b9350620019a98185602086016200139b565b620019b481620012d5565b840191505092915050565b5f6020820190508181035f830152620019d981846200197f565b905092915050565b5f81519050919050565b5f819050602082019050919050565b5f62001a07825162001838565b80915050919050565b5f62001a1c82620019e1565b8262001a2884620019eb565b905062001a3581620019fa565b9250602082101562001a785762001a737fffffffffffffffffffffffffffffffffffffffffffffffffffffffffffffffff83602003600802620015b2565b831692505b5050919050565b7f4552433230566f7465733a20746f74616c20737570706c79207269736b73206f5f8201527f766572666c6f77696e6720766f74657300000000000000000000000000000000602082015250565b5f62001adb60308362001901565b915062001ae88262001a7f565b604082019050919050565b5f6020820190508181035f83015262001b0c8162001acd565b9050919050565b7f45524332303a206d696e7420746f20746865207a65726f2061646472657373005f82015250565b5f62001b49601f8362001901565b915062001b568262001b13565b602082019050919050565b5f6020820190508181035f83015262001b7a8162001b3b565b9050919050565b7f4e487b71000000000000000000000000000000000000000000000000000000005f52601160045260245ffd5b5f62001bba8262001441565b915062001bc78362001441565b925082820190508082111562001be25762001be162001b81565b5b92915050565b5f60208201905062001bfd5f83018462001852565b92915050565b7f53616665436173743a2076616c756520646f65736e27742066697420696e20325f8201527f3234206269747300000000000000000000000000000000000000000000000000602082015250565b5f62001c5f60278362001901565b915062001c6c8262001c03565b604082019050919050565b5f6020820190508181035f83015262001c908162001c51565b9050919050565b7f53616665436173743a2076616c756520646f65736e27742066697420696e20335f8201527f3220626974730000000000000000000000000000000000000000000000000000602082015250565b5f62001cf360268362001901565b915062001d008262001c97565b604082019050919050565b5f6020820190508181035f83015262001d248162001ce5565b9050919050565b7f5061757361626c653a20706175736564000000000000000000000000000000005f82015250565b5f62001d6160108362001901565b915062001d6e8262001d2b565b602082019050919050565b5f6020820190508181035f83015262001d928162001d53565b9050919050565b7f53616665436173743a2076616c756520646f65736e27742066697420696e20345f8201527f3820626974730000000000000000000000000000000000000000000000000000602082015250565b5f62001df560268362001901565b915062001e028262001d99565b604082019050919050565b5f6020820190508181035f83015262001e268162001de7565b9050919050565b5f60408201905062001e425f83018562001852565b62001e51602083018462001852565b9392505050565b5f62001e648262001441565b915062001e718362001441565b925082820390508181111562001e8c5762001e8b62001b81565b5b92915050565b60805160a05160c05160e051610100516101205161014051610160516154dc62001ef55f395f8181610cd901526116eb01525f6110a701525f61107301525f61281301525f6127f201525f611f0501525f611f5b01525f611f8401526154dc5ff3fe608060405234801561000f575f80fd5b5060043610610251575f3560e01c806370a0823111610144578063a217fddf116100c1578063d539139311610085578063d53913931461074b578063d547741f14610769578063d5abeb0114610785578063dd62ed3e146107a3578063e63ab1e9146107d3578063f1127ed8146107f157610251565b8063a217fddf14610695578063a457c2d7146106b3578063a9059cbb146106e3578063c3cda52014610713578063d505accf1461072f57610251565b80638e539e8c116101085780638e539e8c146105c957806391d14854146105f957806391ddadf41461062957806395d89b41146106475780639ab24eb01461066557610251565b806370a082311461051f57806379cc67901461054f5780637ecebe001461056b5780638456cb591461059b57806384b0196e146105a557610251565b806339509351116101d25780634bf5d7e9116101965780634bf5d7e914610467578063587cde1e146104855780635c19a95c146104b55780635c975abb146104d15780636fcfff45146104ef57610251565b806339509351146103c55780633a46b1a8146103f55780633f4ba83a1461042557806340c10f191461042f57806342966c681461044b57610251565b8063248a9ca311610219578063248a9ca3146103215780632f2ff15d14610351578063313ce5671461036d5780633644e5151461038b57806336568abe146103a957610251565b806301ffc9a71461025557806306fdde0314610285578063095ea7b3146102a357806318160ddd146102d357806323b872dd146102f1575b5f80fd5b61026f600480360381019061026a9190613a47565b610821565b60405161027c9190613a8c565b60405180910390f35b61028d61089a565b60405161029a9190613b2f565b60405180910390f35b6102bd60048036038101906102b89190613bdc565b61092a565b6040516102ca9190613a8c565b60405180910390f35b6102db61094c565b6040516102e89190613c29565b60405180910390f35b61030b60048036038101906103069190613c42565b610955565b6040516103189190613a8c565b60405180910390f35b61033b60048036038101906103369190613cc5565b610983565b6040516103489190613cff565b60405180910390f35b61036b60048036038101906103669190613d18565b6109a0565b005b6103756109c1565b6040516103829190613d71565b60405180910390f35b610393610a05565b6040516103a09190613cff565b60405180910390f35b6103c360048036038101906103be9190613d18565b610a13565b005b6103df60048036038101906103da9190613bdc565b610a96565b6040516103ec9190613a8c565b60405180910390f35b61040f600480360381019061040a9190613bdc565b610acc565b60405161041c9190613c29565b60405180910390f35b61042d610b6c565b005b61044960048036038101906104449190613bdc565b610c05565b005b61046560048036038101906104609190613d8a565b610d97565b005b61046f610dab565b60405161047c9190613b2f565b60405180910390f35b61049f600480360381019061049a9190613db5565b610e39565b6040516104ac9190613def565b60405180910390f35b6104cf60048036038101906104ca9190613db5565b610e9e565b005b6104d9610eb2565b6040516104e69190613a8c565b60405180910390f35b61050960048036038101906105049190613db5565b610ec7565b6040516105169190613e26565b60405180910390f35b61053960048036038101906105349190613db5565b610f18565b6040516105469190613c29565b60405180910390f35b61056960048036038101906105649190613bdc565b610f5d565b005b61058560048036038101906105809190613db5565b610f7d565b6040516105929190613c29565b60405180910390f35b6105a3610fca565b005b6105ad611063565b6040516105c09796959493929190613f30565b60405180910390f35b6105e360048036038101906105de9190613d8a565b611160565b6040516105f09190613c29565b60405180910390f35b610613600480360381019061060e9190613d18565b6111c4565b6040516106209190613a8c565b60405180910390f35b610631611228565b60405161063e9190613fd2565b60405180910390f35b61064f611237565b60405161065c9190613b2f565b60405180910390f35b61067f600480360381019061067a9190613db5565b6112c7565b60405161068c9190613c29565b60405180910390f35b61069d6113c5565b6040516106aa9190613cff565b60405180910390f35b6106cd60048036038101906106c89190613bdc565b6113cb565b6040516106da9190613a8c565b60405180910390f35b6106fd60048036038101906106f89190613bdc565b611440565b60405161070a9190613a8c565b60405180910390f35b61072d60048036038101906107289190614015565b611462565b005b6107496004803603810190610744919061409e565b611565565b005b6107536116a4565b6040516107609190613cff565b60405180910390f35b610783600480360381019061077e9190613d18565b6116c8565b005b61078d6116e9565b60405161079a9190613c29565b60405180910390f35b6107bd60048036038101906107b8919061413b565b61170d565b6040516107ca9190613c29565b60405180910390f35b6107db61178f565b6040516107e89190613cff565b60405180910390f35b61080b600480360381019061080691906141a3565b6117b3565b6040516108189190614253565b60405180910390f35b5f7f7965db0b000000000000000000000000000000000000000000000000000000007bffffffffffffffffffffffffffffffffffffffffffffffffffffffff1916827bffffffffffffffffffffffffffffffffffffffffffffffffffffffff191614806108935750610892826118e6565b5b9050919050565b6060600380546108a990614299565b80601f01602080910402602001604051908101604052809291908181526020018280546108d590614299565b80156109205780601f106108f757610100808354040283529160200191610920565b820191905f5260205f20905b81548152906001019060200180831161090357829003601f168201915b5050505050905090565b5f8061093461194f565b9050610941818585611956565b600191505092915050565b5f600254905090565b5f8061095f61194f565b905061096c858285611b19565b610977858585611ba4565b60019150509392505050565b5f600d5f8381526020019081526020015f20600101549050919050565b6109a982610983565b6109b281611e10565b6109bc8383611e24565b505050565b5f6109d66775e9130fa8eb551360c01b611eff565b6109ea6713c57e8401b3632260c01b611eff565b6109fe67a0a685c5d15bfa7c60c01b611eff565b6006905090565b5f610a0e611f02565b905090565b610a1b61194f565b73ffffffffffffffffffffffffffffffffffffffff168173ffffffffffffffffffffffffffffffffffffffff1614610a88576040517f08c379a0000000000000000000000000000000000000000000000000000000008152600401610a7f90614339565b60405180910390fd5b610a928282611fb8565b5050565b5f80610aa061194f565b9050610ac1818585610ab2858961170d565b610abc9190614384565b611956565b600191505092915050565b5f610ad5611228565b65ffffffffffff168210610b1e576040517f08c379a0000000000000000000000000000000000000000000000000000000008152600401610b1590614401565b60405180910390fd5b610b64600a5f8573ffffffffffffffffffffffffffffffffffffffff1673ffffffffffffffffffffffffffffffffffffffff1681526020019081526020015f2083612093565b905092915050565b610b8067ea8b0d68f59c951360c01b611eff565b7f65d7a28e3265b37a6474929f336521b332c1681b933f6cb9f3376673440d862a610baa81611e10565b610bbe674c68c450c173272760c01b611eff565b610bd267c6e28476f6703ffb60c01b611eff565b610be667f1a5bcbb829ffdbe60c01b611eff565b610bfa67b6fb4ac62dde733760c01b611eff565b610c026121d0565b50565b610c1967715b13eb4982d77060c01b611eff565b610c21612231565b610c3567ac80d570e6124de760c01b611eff565b610c4967bf7e58e2dc35247160c01b611eff565b7f9f2df0fed2c77648de5860a4cc508cd0818c85b8b8a1ab4ceeef8d981c8956a6610c7381611e10565b610c87676f71d74080b8499c60c01b611eff565b610c9b670c21064cb7853fc260c01b611eff565b610caf675975644e11a8d4bb60c01b611eff565b610cc36729b8baa9f414b8ac60c01b611eff565b610cd767aa06ed38961fd24660c01b611eff565b7f000000000000000000000000000000000000000000000000000000000000000082610d0161094c565b610d0b9190614384565b1115610d4c576040517f08c379a0000000000000000000000000000000000000000000000000000000008152600401610d439061448f565b60405180910390fd5b610d6067ba267993b89a22d860c01b611eff565b610d74677784542f1845179a60c01b611eff565b610d88677abcee3fa7d0567760c01b611eff565b610d92838361227b565b505050565b610da8610da261194f565b826122c5565b50565b606043610db6611228565b65ffffffffffff1614610dfe576040517f08c379a0000000000000000000000000000000000000000000000000000000008152600401610df5906144f7565b60405180910390fd5b6040518060400160405280601d81526020017f6d6f64653d626c6f636b6e756d6265722666726f6d3d64656661756c74000000815250905090565b5f60095f8373ffffffffffffffffffffffffffffffffffffffff1673ffffffffffffffffffffffffffffffffffffffff1681526020019081526020015f205f9054906101000a900473ffffffffffffffffffffffffffffffffffffffff169050919050565b610eaf610ea961194f565b8261230f565b50565b5f600c5f9054906101000a900460ff16905090565b5f610f11600a5f8473ffffffffffffffffffffffffffffffffffffffff1673ffffffffffffffffffffffffffffffffffffffff1681526020019081526020015f2080549050612424565b9050919050565b5f805f8373ffffffffffffffffffffffffffffffffffffffff1673ffffffffffffffffffffffffffffffffffffffff1681526020019081526020015f20549050919050565b610f6f82610f6961194f565b83611b19565b610f7982826122c5565b5050565b5f610fc360075f8473ffffffffffffffffffffffffffffffffffffffff1673ffffffffffffffffffffffffffffffffffffffff1681526020019081526020015f20612476565b9050919050565b610fde67f747167783b33acf60c01b611eff565b7f65d7a28e3265b37a6474929f336521b332c1681b933f6cb9f3376673440d862a61100881611e10565b61101c67368e0d50d34325b660c01b611eff565b6110306723f441f40d52a06c60c01b611eff565b61104467074e649b0d91a92d60c01b611eff565b61105867987dddad67bcd9d460c01b611eff565b611060612482565b50565b5f6060805f805f60606110a060057f00000000000000000000000000000000000000000000000000000000000000006124e490919063ffffffff16565b6110d460067f00000000000000000000000000000000000000000000000000000000000000006124e490919063ffffffff16565b46305f801b5f67ffffffffffffffff8111156110f3576110f2614515565b5b6040519080825280602002602001820160405280156111215781602001602082028036833780820191505090505b507f0f00000000000000000000000000000000000000000000000000000000000000959493929190965096509650965096509650965090919293949596565b5f611169611228565b65ffffffffffff1682106111b2576040517f08c379a00000000000000000000000000000000000000000000000000000000081526004016111a990614401565b60405180910390fd5b6111bd600b83612093565b9050919050565b5f600d5f8481526020019081526020015f205f015f8373ffffffffffffffffffffffffffffffffffffffff1673ffffffffffffffffffffffffffffffffffffffff1681526020019081526020015f205f9054906101000a900460ff16905092915050565b5f61123243612591565b905090565b60606004805461124690614299565b80601f016020809104026020016040519081016040528092919081815260200182805461127290614299565b80156112bd5780601f10611294576101008083540402835291602001916112bd565b820191905f5260205f20905b8154815290600101906020018083116112a057829003601f168201915b5050505050905090565b5f80600a5f8473ffffffffffffffffffffffffffffffffffffffff1673ffffffffffffffffffffffffffffffffffffffff1681526020019081526020015f208054905090505f811461139d57600a5f8473ffffffffffffffffffffffffffffffffffffffff1673ffffffffffffffffffffffffffffffffffffffff1681526020019081526020015f20600182038154811061136557611364614542565b5b905f5260205f20015f0160049054906101000a90047bffffffffffffffffffffffffffffffffffffffffffffffffffffffff1661139f565b5f5b7bffffffffffffffffffffffffffffffffffffffffffffffffffffffff16915050919050565b5f801b81565b5f806113d561194f565b90505f6113e2828661170d565b905083811015611427576040517f08c379a000000000000000000000000000000000000000000000000000000000815260040161141e906145df565b60405180910390fd5b6114348286868403611956565b60019250505092915050565b5f8061144a61194f565b9050611457818585611ba4565b600191505092915050565b834211156114a5576040517f08c379a000000000000000000000000000000000000000000000000000000000815260040161149c90614647565b60405180910390fd5b5f6115066114fe7fe48329057bfd03d55e49b547132e39cffd9c1820ad7b9d4c5307691425d15adf8989896040516020016114e39493929190614665565b604051602081830303815290604052805190602001206125e5565b8585856125fe565b905061151181612627565b8614611552576040517f08c379a0000000000000000000000000000000000000000000000000000000008152600401611549906146f2565b60405180910390fd5b61155c818861230f565b50505050505050565b834211156115a8576040517f08c379a000000000000000000000000000000000000000000000000000000000815260040161159f9061475a565b60405180910390fd5b5f7f6e71edae12b1b97f4d1f60370fef10105fa2faae0126114a169c64845d6126c98888886115d68c612627565b896040516020016115ec96959493929190614778565b6040516020818303038152906040528051906020012090505f61160e826125e5565b90505f61161d828787876125fe565b90508973ffffffffffffffffffffffffffffffffffffffff168173ffffffffffffffffffffffffffffffffffffffff161461168d576040517f08c379a000000000000000000000000000000000000000000000000000000000815260040161168490614821565b60405180910390fd5b6116988a8a8a611956565b50505050505050505050565b7f9f2df0fed2c77648de5860a4cc508cd0818c85b8b8a1ab4ceeef8d981c8956a681565b6116d182610983565b6116da81611e10565b6116e48383611fb8565b505050565b7f000000000000000000000000000000000000000000000000000000000000000081565b5f60015f8473ffffffffffffffffffffffffffffffffffffffff1673ffffffffffffffffffffffffffffffffffffffff1681526020019081526020015f205f8373ffffffffffffffffffffffffffffffffffffffff1673ffffffffffffffffffffffffffffffffffffffff1681526020019081526020015f2054905092915050565b7f65d7a28e3265b37a6474929f336521b332c1681b933f6cb9f3376673440d862a81565b6117bb6139b2565b600a5f8473ffffffffffffffffffffffffffffffffffffffff1673ffffffffffffffffffffffffffffffffffffffff1681526020019081526020015f208263ffffffff16815481106118105761180f614542565b5b905f5260205f20016040518060400160405290815f82015f9054906101000a900463ffffffff1663ffffffff1663ffffffff1681526020015f820160049054906101000a90047bffffffffffffffffffffffffffffffffffffffffffffffffffffffff167bffffffffffffffffffffffffffffffffffffffffffffffffffffffff167bffffffffffffffffffffffffffffffffffffffffffffffffffffffff1681525050905092915050565b5f81836118c99190614384565b905092915050565b5f81836118de919061483f565b905092915050565b5f7f01ffc9a7000000000000000000000000000000000000000000000000000000007bffffffffffffffffffffffffffffffffffffffffffffffffffffffff1916827bffffffffffffffffffffffffffffffffffffffffffffffffffffffff1916149050919050565b5f33905090565b5f73ffffffffffffffffffffffffffffffffffffffff168373ffffffffffffffffffffffffffffffffffffffff16036119c4576040517f08c379a00000000000000000000000000000000000000000000000000000000081526004016119bb906148e2565b60405180910390fd5b5f73ffffffffffffffffffffffffffffffffffffffff168273ffffffffffffffffffffffffffffffffffffffff1603611a32576040517f08c379a0000000000000000000000000000000000000000000000000000000008152600401611a2990614970565b60405180910390fd5b8060015f8573ffffffffffffffffffffffffffffffffffffffff1673ffffffffffffffffffffffffffffffffffffffff1681526020019081526020015f205f8473ffffffffffffffffffffffffffffffffffffffff1673ffffffffffffffffffffffffffffffffffffffff1681526020019081526020015f20819055508173ffffffffffffffffffffffffffffffffffffffff168373ffffffffffffffffffffffffffffffffffffffff167f8c5be1e5ebec7d5bd14f71427d1e84f3dd0314c0f7b2291e5b200ac8c7c3b92583604051611b0c9190613c29565b60405180910390a3505050565b5f611b24848461170d565b90507fffffffffffffffffffffffffffffffffffffffffffffffffffffffffffffffff8114611b9e5781811015611b90576040517f08c379a0000000000000000000000000000000000000000000000000000000008152600401611b87906149d8565b60405180910390fd5b611b9d8484848403611956565b5b50505050565b5f73ffffffffffffffffffffffffffffffffffffffff168373ffffffffffffffffffffffffffffffffffffffff1603611c12576040517f08c379a0000000000000000000000000000000000000000000000000000000008152600401611c0990614a66565b60405180910390fd5b5f73ffffffffffffffffffffffffffffffffffffffff168273ffffffffffffffffffffffffffffffffffffffff1603611c80576040517f08c379a0000000000000000000000000000000000000000000000000000000008152600401611c7790614af4565b60405180910390fd5b611c8b838383612682565b5f805f8573ffffffffffffffffffffffffffffffffffffffff1673ffffffffffffffffffffffffffffffffffffffff1681526020019081526020015f2054905081811015611d0e576040517f08c379a0000000000000000000000000000000000000000000000000000000008152600401611d0590614b82565b60405180910390fd5b8181035f808673ffffffffffffffffffffffffffffffffffffffff1673ffffffffffffffffffffffffffffffffffffffff1681526020019081526020015f2081905550815f808573ffffffffffffffffffffffffffffffffffffffff1673ffffffffffffffffffffffffffffffffffffffff1681526020019081526020015f205f82825401925050819055508273ffffffffffffffffffffffffffffffffffffffff168473ffffffffffffffffffffffffffffffffffffffff167fddf252ad1be2c89b69c2b068fc378daa952ba7f163c4a11628f55a4df523b3ef84604051611df79190613c29565b60405180910390a3611e0a8484846126fe565b50505050565b611e2181611e1c61194f565b61274a565b50565b611e2e82826111c4565b611efb576001600d5f8481526020019081526020015f205f015f8373ffffffffffffffffffffffffffffffffffffffff1673ffffffffffffffffffffffffffffffffffffffff1681526020019081526020015f205f6101000a81548160ff021916908315150217905550611ea061194f565b73ffffffffffffffffffffffffffffffffffffffff168173ffffffffffffffffffffffffffffffffffffffff16837f2f8788117e7eff1d82e926ec794901d17c78024a50270940304540a733656f0d60405160405180910390a45b5050565b50565b5f7f000000000000000000000000000000000000000000000000000000000000000073ffffffffffffffffffffffffffffffffffffffff163073ffffffffffffffffffffffffffffffffffffffff16148015611f7d57507f000000000000000000000000000000000000000000000000000000000000000046145b15611faa577f00000000000000000000000000000000000000000000000000000000000000009050611fb5565b611fb26127ce565b90505b90565b611fc282826111c4565b1561208f575f600d5f8481526020019081526020015f205f015f8373ffffffffffffffffffffffffffffffffffffffff1673ffffffffffffffffffffffffffffffffffffffff1681526020019081526020015f205f6101000a81548160ff02191690831515021790555061203461194f565b73ffffffffffffffffffffffffffffffffffffffff168173ffffffffffffffffffffffffffffffffffffffff16837ff6391f5c32d9c69d2a47ea670b442974b53935d1edc7fd64eb21e047a839171b60405160405180910390a45b5050565b5f80838054905090505f808290506005831115612104575f6120b484612863565b846120bf919061483f565b9050856120cc8883612959565b5f015f9054906101000a900463ffffffff1663ffffffff1611156120f257809150612102565b6001816120ff9190614384565b92505b505b5b80821015612161575f612118838361296b565b9050856121258883612959565b5f015f9054906101000a900463ffffffff1663ffffffff16111561214b5780915061215b565b6001816121589190614384565b92505b50612105565b5f81146121a5576121758660018303612959565b5f0160049054906101000a90047bffffffffffffffffffffffffffffffffffffffffffffffffffffffff166121a7565b5f5b7bffffffffffffffffffffffffffffffffffffffffffffffffffffffff16935050505092915050565b6121d8612990565b5f600c5f6101000a81548160ff0219169083151502179055507f5db9ee0a495bf2e6ff9c91a7834c1ba4fdd244a5e8aa4e537bd38aeae4b073aa61221a61194f565b6040516122279190613def565b60405180910390a1565b612239610eb2565b15612279576040517f08c379a000000000000000000000000000000000000000000000000000000000815260040161227090614bea565b60405180910390fd5b565b61228f67955474b51fda83e060c01b611eff565b6122a36798f5f66d422df1ed60c01b611eff565b6122b76787a9f30d65a68c1860c01b611eff565b6122c182826129d9565b5050565b6122d96719d619e80a771fdc60c01b611eff565b6122ed6737b46b5d73772aa660c01b611eff565b61230167c5307e5685fc210160c01b611eff565b61230b8282612a66565b5050565b5f61231983610e39565b90505f61232584610f18565b90508260095f8673ffffffffffffffffffffffffffffffffffffffff1673ffffffffffffffffffffffffffffffffffffffff1681526020019081526020015f205f6101000a81548173ffffffffffffffffffffffffffffffffffffffff021916908373ffffffffffffffffffffffffffffffffffffffff1602179055508273ffffffffffffffffffffffffffffffffffffffff168273ffffffffffffffffffffffffffffffffffffffff168573ffffffffffffffffffffffffffffffffffffffff167f3134e8a2e6d97e929a7e54011ea5485d7d196dd5f0ba4d4ef95803e8e3fc257f60405160405180910390a461241e828483612a84565b50505050565b5f63ffffffff801682111561246e576040517f08c379a000000000000000000000000000000000000000000000000000000000815260040161246590614c78565b60405180910390fd5b819050919050565b5f815f01549050919050565b61248a612231565b6001600c5f6101000a81548160ff0219169083151502179055507f62e78cea01bee320cd4e420270b5ea74000d11b0c9f74754ebdbfc544b05a2586124cd61194f565b6040516124da9190613def565b60405180910390a1565b606060ff5f1b8314612500576124f983612c74565b905061258b565b81805461250c90614299565b80601f016020809104026020016040519081016040528092919081815260200182805461253890614299565b80156125835780601f1061255a57610100808354040283529160200191612583565b820191905f5260205f20905b81548152906001019060200180831161256657829003601f168201915b505050505090505b92915050565b5f65ffffffffffff80168211156125dd576040517f08c379a00000000000000000000000000000000000000000000000000000000081526004016125d490614d06565b60405180910390fd5b819050919050565b5f6125f76125f1611f02565b83612ce6565b9050919050565b5f805f61260d87878787612d26565b9150915061261a81612dfe565b8192505050949350505050565b5f8060075f8473ffffffffffffffffffffffffffffffffffffffff1673ffffffffffffffffffffffffffffffffffffffff1681526020019081526020015f20905061267181612476565b915061267c81612f63565b50919050565b612696677cd2b5a387adca2760c01b611eff565b61269e612231565b6126b2675e1249963aad49f660c01b611eff565b6126c667df3296133fb883a360c01b611eff565b6126da67988b76751bad7caf60c01b611eff565b6126ee6717513803c408899760c01b611eff565b6126f9838383612f77565b505050565b612712679b6b68437fe5060b60c01b611eff565b61272667e0374ab1595aadec60c01b611eff565b61273a671376b34b86b9470660c01b611eff565b612745838383612f7c565b505050565b61275482826111c4565b6127ca5761276181612fa7565b61276e835f1c6020612fd4565b60405160200161277f929190614df2565b6040516020818303038152906040526040517f08c379a00000000000000000000000000000000000000000000000000000000081526004016127c19190613b2f565b60405180910390fd5b5050565b5f7f8b73c3c69bb8fe3d512ecc4cf759cc79239f7b179b0ffacaa9a75d522b39400f7f00000000000000000000000000000000000000000000000000000000000000007f00000000000000000000000000000000000000000000000000000000000000004630604051602001612848959493929190614e2b565b60405160208183030381529060405280519060200120905090565b5f808203612873575f9050612954565b5f600161287f84613209565b901c6001901b9050600181848161289957612898614e7c565b5b048201901c905060018184816128b2576128b1614e7c565b5b048201901c905060018184816128cb576128ca614e7c565b5b048201901c905060018184816128e4576128e3614e7c565b5b048201901c905060018184816128fd576128fc614e7c565b5b048201901c9050600181848161291657612915614e7c565b5b048201901c9050600181848161292f5761292e614e7c565b5b048201901c90506129508182858161294a57612949614e7c565b5b046132e0565b9150505b919050565b5f825f528160205f2001905092915050565b5f600282841861297b9190614ea9565b8284166129889190614384565b905092915050565b612998610eb2565b6129d7576040517f08c379a00000000000000000000000000000000000000000000000000000000081526004016129ce90614f23565b60405180910390fd5b565b6129e382826132f8565b6129eb613446565b7bffffffffffffffffffffffffffffffffffffffffffffffffffffffff16612a1161094c565b1115612a52576040517f08c379a0000000000000000000000000000000000000000000000000000000008152600401612a4990614fb1565b60405180910390fd5b612a60600b6118bc83613469565b50505050565b612a708282613732565b612a7e600b6118d183613469565b50505050565b8173ffffffffffffffffffffffffffffffffffffffff168373ffffffffffffffffffffffffffffffffffffffff1614158015612abf57505f81115b15612c6f575f73ffffffffffffffffffffffffffffffffffffffff168373ffffffffffffffffffffffffffffffffffffffff1614612b99575f80612b42600a5f8773ffffffffffffffffffffffffffffffffffffffff1673ffffffffffffffffffffffffffffffffffffffff1681526020019081526020015f206118d185613469565b915091508473ffffffffffffffffffffffffffffffffffffffff167fdec2bacdd2f05b59de34da9b523dff8be42e5e38e818c82fdb0bae774387a7248383604051612b8e929190614fcf565b60405180910390a250505b5f73ffffffffffffffffffffffffffffffffffffffff168273ffffffffffffffffffffffffffffffffffffffff1614612c6e575f80612c17600a5f8673ffffffffffffffffffffffffffffffffffffffff1673ffffffffffffffffffffffffffffffffffffffff1681526020019081526020015f206118bc85613469565b915091508373ffffffffffffffffffffffffffffffffffffffff167fdec2bacdd2f05b59de34da9b523dff8be42e5e38e818c82fdb0bae774387a7248383604051612c63929190614fcf565b60405180910390a250505b5b505050565b60605f612c80836138f5565b90505f602067ffffffffffffffff811115612c9e57612c9d614515565b5b6040519080825280601f01601f191660200182016040528015612cd05781602001600182028036833780820191505090505b5090508181528360208201528092505050919050565b5f6040517f190100000000000000000000000000000000000000000000000000000000000081528360028201528260228201526042812091505092915050565b5f807f7fffffffffffffffffffffffffffffff5d576e7357a4501ddfe92f46681b20a0835f1c1115612d5e575f600391509150612df5565b5f6001878787876040515f8152602001604052604051612d819493929190614ff6565b6020604051602081039080840390855afa158015612da1573d5f803e3d5ffd5b5050506020604051035190505f73ffffffffffffffffffffffffffffffffffffffff168173ffffffffffffffffffffffffffffffffffffffff1603612ded575f60019250925050612df5565b805f92509250505b94509492505050565b5f6004811115612e1157612e10615039565b5b816004811115612e2457612e23615039565b5b0315612f605760016004811115612e3e57612e3d615039565b5b816004811115612e5157612e50615039565b5b03612e91576040517f08c379a0000000000000000000000000000000000000000000000000000000008152600401612e88906150b0565b60405180910390fd5b60026004811115612ea557612ea4615039565b5b816004811115612eb857612eb7615039565b5b03612ef8576040517f08c379a0000000000000000000000000000000000000000000000000000000008152600401612eef90615118565b60405180910390fd5b60036004811115612f0c57612f0b615039565b5b816004811115612f1f57612f1e615039565b5b03612f5f576040517f08c379a0000000000000000000000000000000000000000000000000000000008152600401612f56906151a6565b60405180910390fd5b5b50565b6001815f015f828254019250508190555050565b505050565b612f87838383613943565b612fa2612f9384610e39565b612f9c84610e39565b83612a84565b505050565b6060612fcd8273ffffffffffffffffffffffffffffffffffffffff16601460ff16612fd4565b9050919050565b60605f6002836002612fe691906151c4565b612ff09190614384565b67ffffffffffffffff81111561300957613008614515565b5b6040519080825280601f01601f19166020018201604052801561303b5781602001600182028036833780820191505090505b5090507f3000000000000000000000000000000000000000000000000000000000000000815f8151811061307257613071614542565b5b60200101907effffffffffffffffffffffffffffffffffffffffffffffffffffffffffffff191690815f1a9053507f7800000000000000000000000000000000000000000000000000000000000000816001815181106130d5576130d4614542565b5b60200101907effffffffffffffffffffffffffffffffffffffffffffffffffffffffffffff191690815f1a9053505f600184600261311391906151c4565b61311d9190614384565b90505b60018111156131bc577f3031323334353637383961626364656600000000000000000000000000000000600f86166010811061315f5761315e614542565b5b1a60f81b82828151811061317657613175614542565b5b60200101907effffffffffffffffffffffffffffffffffffffffffffffffffffffffffffff191690815f1a905350600485901c9450806131b590615205565b9050613120565b505f84146131ff576040517f08c379a00000000000000000000000000000000000000000000000000000000081526004016131f690615276565b60405180910390fd5b8091505092915050565b5f805f90505f608084901c111561322857608083901c92506080810190505b5f604084901c111561324257604083901c92506040810190505b5f602084901c111561325c57602083901c92506020810190505b5f601084901c111561327657601083901c92506010810190505b5f600884901c111561329057600883901c92506008810190505b5f600484901c11156132aa57600483901c92506004810190505b5f600284901c11156132c457600283901c92506002810190505b5f600184901c11156132d7576001810190505b80915050919050565b5f8183106132ee57816132f0565b825b905092915050565b5f73ffffffffffffffffffffffffffffffffffffffff168273ffffffffffffffffffffffffffffffffffffffff1603613366576040517f08c379a000000000000000000000000000000000000000000000000000000000815260040161335d906152de565b60405180910390fd5b6133715f8383612682565b8060025f8282546133829190614384565b92505081905550805f808473ffffffffffffffffffffffffffffffffffffffff1673ffffffffffffffffffffffffffffffffffffffff1681526020019081526020015f205f82825401925050819055508173ffffffffffffffffffffffffffffffffffffffff165f73ffffffffffffffffffffffffffffffffffffffff167fddf252ad1be2c89b69c2b068fc378daa952ba7f163c4a11628f55a4df523b3ef8360405161342f9190613c29565b60405180910390a36134425f83836126fe565b5050565b5f7bffffffffffffffffffffffffffffffffffffffffffffffffffffffff905090565b5f805f858054905090505f808214613529576134888760018403612959565b6040518060400160405290815f82015f9054906101000a900463ffffffff1663ffffffff1663ffffffff1681526020015f820160049054906101000a90047bffffffffffffffffffffffffffffffffffffffffffffffffffffffff167bffffffffffffffffffffffffffffffffffffffffffffffffffffffff167bffffffffffffffffffffffffffffffffffffffffffffffffffffffff1681525050613563565b60405180604001604052805f63ffffffff1681526020015f7bffffffffffffffffffffffffffffffffffffffffffffffffffffffff168152505b905080602001517bffffffffffffffffffffffffffffffffffffffffffffffffffffffff16935061359884868863ffffffff16565b92505f821180156135c057506135ac611228565b65ffffffffffff16815f015163ffffffff16145b15613630576135ce83613948565b6135db8860018503612959565b5f0160046101000a8154817bffffffffffffffffffffffffffffffffffffffffffffffffffffffff02191690837bffffffffffffffffffffffffffffffffffffffffffffffffffffffff160217905550613728565b866040518060400160405280613654613647611228565b65ffffffffffff16612424565b63ffffffff16815260200161366886613948565b7bffffffffffffffffffffffffffffffffffffffffffffffffffffffff16815250908060018154018082558091505060019003905f5260205f20015f909190919091505f820151815f015f6101000a81548163ffffffff021916908363ffffffff1602179055506020820151815f0160046101000a8154817bffffffffffffffffffffffffffffffffffffffffffffffffffffffff02191690837bffffffffffffffffffffffffffffffffffffffffffffffffffffffff16021790555050505b5050935093915050565b5f73ffffffffffffffffffffffffffffffffffffffff168273ffffffffffffffffffffffffffffffffffffffff16036137a0576040517f08c379a00000000000000000000000000000000000000000000000000000000081526004016137979061536c565b60405180910390fd5b6137ab825f83612682565b5f805f8473ffffffffffffffffffffffffffffffffffffffff1673ffffffffffffffffffffffffffffffffffffffff1681526020019081526020015f205490508181101561382e576040517f08c379a0000000000000000000000000000000000000000000000000000000008152600401613825906153fa565b60405180910390fd5b8181035f808573ffffffffffffffffffffffffffffffffffffffff1673ffffffffffffffffffffffffffffffffffffffff1681526020019081526020015f20819055508160025f82825403925050819055505f73ffffffffffffffffffffffffffffffffffffffff168373ffffffffffffffffffffffffffffffffffffffff167fddf252ad1be2c89b69c2b068fc378daa952ba7f163c4a11628f55a4df523b3ef846040516138dd9190613c29565b60405180910390a36138f0835f846126fe565b505050565b5f8060ff835f1c169050601f81111561393a576040517fb3512b0c00000000000000000000000000000000000000000000000000000000815260040160405180910390fd5b80915050919050565b505050565b5f7bffffffffffffffffffffffffffffffffffffffffffffffffffffffff80168211156139aa576040517f08c379a00000000000000000000000000000000000000000000000000000000081526004016139a190615488565b60405180910390fd5b819050919050565b60405180604001604052805f63ffffffff1681526020015f7bffffffffffffffffffffffffffffffffffffffffffffffffffffffff1681525090565b5f80fd5b5f7fffffffff0000000000000000000000000000000000000000000000000000000082169050919050565b613a26816139f2565b8114613a30575f80fd5b50565b5f81359050613a4181613a1d565b92915050565b5f60208284031215613a5c57613a5b6139ee565b5b5f613a6984828501613a33565b91505092915050565b5f8115159050919050565b613a8681613a72565b82525050565b5f602082019050613a9f5f830184613a7d565b92915050565b5f81519050919050565b5f82825260208201905092915050565b5f5b83811015613adc578082015181840152602081019050613ac1565b5f8484015250505050565b5f601f19601f8301169050919050565b5f613b0182613aa5565b613b0b8185613aaf565b9350613b1b818560208601613abf565b613b2481613ae7565b840191505092915050565b5f6020820190508181035f830152613b478184613af7565b905092915050565b5f73ffffffffffffffffffffffffffffffffffffffff82169050919050565b5f613b7882613b4f565b9050919050565b613b8881613b6e565b8114613b92575f80fd5b50565b5f81359050613ba381613b7f565b92915050565b5f819050919050565b613bbb81613ba9565b8114613bc5575f80fd5b50565b5f81359050613bd681613bb2565b92915050565b5f8060408385031215613bf257613bf16139ee565b5b5f613bff85828601613b95565b9250506020613c1085828601613bc8565b9150509250929050565b613c2381613ba9565b82525050565b5f602082019050613c3c5f830184613c1a565b92915050565b5f805f60608486031215613c5957613c586139ee565b5b5f613c6686828701613b95565b9350506020613c7786828701613b95565b9250506040613c8886828701613bc8565b9150509250925092565b5f819050919050565b613ca481613c92565b8114613cae575f80fd5b50565b5f81359050613cbf81613c9b565b92915050565b5f60208284031215613cda57613cd96139ee565b5b5f613ce784828501613cb1565b91505092915050565b613cf981613c92565b82525050565b5f602082019050613d125f830184613cf0565b92915050565b5f8060408385031215613d2e57613d2d6139ee565b5b5f613d3b85828601613cb1565b9250506020613d4c85828601613b95565b9150509250929050565b5f60ff82169050919050565b613d6b81613d56565b82525050565b5f602082019050613d845f830184613d62565b92915050565b5f60208284031215613d9f57613d9e6139ee565b5b5f613dac84828501613bc8565b91505092915050565b5f60208284031215613dca57613dc96139ee565b5b5f613dd784828501613b95565b91505092915050565b613de981613b6e565b82525050565b5f602082019050613e025f830184613de0565b92915050565b5f63ffffffff82169050919050565b613e2081613e08565b82525050565b5f602082019050613e395f830184613e17565b92915050565b5f7fff0000000000000000000000000000000000000000000000000000000000000082169050919050565b613e7381613e3f565b82525050565b5f81519050919050565b5f82825260208201905092915050565b5f819050602082019050919050565b613eab81613ba9565b82525050565b5f613ebc8383613ea2565b60208301905092915050565b5f602082019050919050565b5f613ede82613e79565b613ee88185613e83565b9350613ef383613e93565b805f5b83811015613f23578151613f0a8882613eb1565b9750613f1583613ec8565b925050600181019050613ef6565b5085935050505092915050565b5f60e082019050613f435f83018a613e6a565b8181036020830152613f558189613af7565b90508181036040830152613f698188613af7565b9050613f786060830187613c1a565b613f856080830186613de0565b613f9260a0830185613cf0565b81810360c0830152613fa48184613ed4565b905098975050505050505050565b5f65ffffffffffff82169050919050565b613fcc81613fb2565b82525050565b5f602082019050613fe55f830184613fc3565b92915050565b613ff481613d56565b8114613ffe575f80fd5b50565b5f8135905061400f81613feb565b92915050565b5f805f805f8060c0878903121561402f5761402e6139ee565b5b5f61403c89828a01613b95565b965050602061404d89828a01613bc8565b955050604061405e89828a01613bc8565b945050606061406f89828a01614001565b935050608061408089828a01613cb1565b92505060a061409189828a01613cb1565b9150509295509295509295565b5f805f805f805f60e0888a0312156140b9576140b86139ee565b5b5f6140c68a828b01613b95565b97505060206140d78a828b01613b95565b96505060406140e88a828b01613bc8565b95505060606140f98a828b01613bc8565b945050608061410a8a828b01614001565b93505060a061411b8a828b01613cb1565b92505060c061412c8a828b01613cb1565b91505092959891949750929550565b5f8060408385031215614151576141506139ee565b5b5f61415e85828601613b95565b925050602061416f85828601613b95565b9150509250929050565b61418281613e08565b811461418c575f80fd5b50565b5f8135905061419d81614179565b92915050565b5f80604083850312156141b9576141b86139ee565b5b5f6141c685828601613b95565b92505060206141d78582860161418f565b9150509250929050565b6141ea81613e08565b82525050565b5f7bffffffffffffffffffffffffffffffffffffffffffffffffffffffff82169050919050565b614220816141f0565b82525050565b604082015f82015161423a5f8501826141e1565b50602082015161424d6020850182614217565b50505050565b5f6040820190506142665f830184614226565b92915050565b7f4e487b71000000000000000000000000000000000000000000000000000000005f52602260045260245ffd5b5f60028204905060018216806142b057607f821691505b6020821081036142c3576142c261426c565b5b50919050565b7f416363657373436f6e74726f6c3a2063616e206f6e6c792072656e6f756e63655f8201527f20726f6c657320666f722073656c660000000000000000000000000000000000602082015250565b5f614323602f83613aaf565b915061432e826142c9565b604082019050919050565b5f6020820190508181035f83015261435081614317565b9050919050565b7f4e487b71000000000000000000000000000000000000000000000000000000005f52601160045260245ffd5b5f61438e82613ba9565b915061439983613ba9565b92508282019050808211156143b1576143b0614357565b5b92915050565b7f4552433230566f7465733a20667574757265206c6f6f6b7570000000000000005f82015250565b5f6143eb601983613aaf565b91506143f6826143b7565b602082019050919050565b5f6020820190508181035f830152614418816143df565b9050919050565b7f546f6b656e20746f206265206d696e7465642073686f756c64206e6f742065785f8201527f63656564204d617820737570706c790000000000000000000000000000000000602082015250565b5f614479602f83613aaf565b91506144848261441f565b604082019050919050565b5f6020820190508181035f8301526144a68161446d565b9050919050565b7f4552433230566f7465733a2062726f6b656e20636c6f636b206d6f64650000005f82015250565b5f6144e1601d83613aaf565b91506144ec826144ad565b602082019050919050565b5f6020820190508181035f83015261450e816144d5565b9050919050565b7f4e487b71000000000000000000000000000000000000000000000000000000005f52604160045260245ffd5b7f4e487b71000000000000000000000000000000000000000000000000000000005f52603260045260245ffd5b7f45524332303a2064656372656173656420616c6c6f77616e63652062656c6f775f8201527f207a65726f000000000000000000000000000000000000000000000000000000602082015250565b5f6145c9602583613aaf565b91506145d48261456f565b604082019050919050565b5f6020820190508181035f8301526145f6816145bd565b9050919050565b7f4552433230566f7465733a207369676e617475726520657870697265640000005f82015250565b5f614631601d83613aaf565b915061463c826145fd565b602082019050919050565b5f6020820190508181035f83015261465e81614625565b9050919050565b5f6080820190506146785f830187613cf0565b6146856020830186613de0565b6146926040830185613c1a565b61469f6060830184613c1a565b95945050505050565b7f4552433230566f7465733a20696e76616c6964206e6f6e6365000000000000005f82015250565b5f6146dc601983613aaf565b91506146e7826146a8565b602082019050919050565b5f6020820190508181035f830152614709816146d0565b9050919050565b7f45524332305065726d69743a206578706972656420646561646c696e650000005f82015250565b5f614744601d83613aaf565b915061474f82614710565b602082019050919050565b5f6020820190508181035f83015261477181614738565b9050919050565b5f60c08201905061478b5f830189613cf0565b6147986020830188613de0565b6147a56040830187613de0565b6147b26060830186613c1a565b6147bf6080830185613c1a565b6147cc60a0830184613c1a565b979650505050505050565b7f45524332305065726d69743a20696e76616c6964207369676e617475726500005f82015250565b5f61480b601e83613aaf565b9150614816826147d7565b602082019050919050565b5f6020820190508181035f830152614838816147ff565b9050919050565b5f61484982613ba9565b915061485483613ba9565b925082820390508181111561486c5761486b614357565b5b92915050565b7f45524332303a20617070726f76652066726f6d20746865207a65726f206164645f8201527f7265737300000000000000000000000000000000000000000000000000000000602082015250565b5f6148cc602483613aaf565b91506148d782614872565b604082019050919050565b5f6020820190508181035f8301526148f9816148c0565b9050919050565b7f45524332303a20617070726f766520746f20746865207a65726f2061646472655f8201527f7373000000000000000000000000000000000000000000000000000000000000602082015250565b5f61495a602283613aaf565b915061496582614900565b604082019050919050565b5f6020820190508181035f8301526149878161494e565b9050919050565b7f45524332303a20696e73756666696369656e7420616c6c6f77616e63650000005f82015250565b5f6149c2601d83613aaf565b91506149cd8261498e565b602082019050919050565b5f6020820190508181035f8301526149ef816149b6565b9050919050565b7f45524332303a207472616e736665722066726f6d20746865207a65726f2061645f8201527f6472657373000000000000000000000000000000000000000000000000000000602082015250565b5f614a50602583613aaf565b9150614a5b826149f6565b604082019050919050565b5f6020820190508181035f830152614a7d81614a44565b9050919050565b7f45524332303a207472616e7366657220746f20746865207a65726f20616464725f8201527f6573730000000000000000000000000000000000000000000000000000000000602082015250565b5f614ade602383613aaf565b9150614ae982614a84565b604082019050919050565b5f6020820190508181035f830152614b0b81614ad2565b9050919050565b7f45524332303a207472616e7366657220616d6f756e74206578636565647320625f8201527f616c616e63650000000000000000000000000000000000000000000000000000602082015250565b5f614b6c602683613aaf565b9150614b7782614b12565b604082019050919050565b5f6020820190508181035f830152614b9981614b60565b9050919050565b7f5061757361626c653a20706175736564000000000000000000000000000000005f82015250565b5f614bd4601083613aaf565b9150614bdf82614ba0565b602082019050919050565b5f6020820190508181035f830152614c0181614bc8565b9050919050565b7f53616665436173743a2076616c756520646f65736e27742066697420696e20335f8201527f3220626974730000000000000000000000000000000000000000000000000000602082015250565b5f614c62602683613aaf565b9150614c6d82614c08565b604082019050919050565b5f6020820190508181035f830152614c8f81614c56565b9050919050565b7f53616665436173743a2076616c756520646f65736e27742066697420696e20345f8201527f3820626974730000000000000000000000000000000000000000000000000000602082015250565b5f614cf0602683613aaf565b9150614cfb82614c96565b604082019050919050565b5f6020820190508181035f830152614d1d81614ce4565b9050919050565b5f81905092915050565b7f416363657373436f6e74726f6c3a206163636f756e74200000000000000000005f82015250565b5f614d62601783614d24565b9150614d6d82614d2e565b601782019050919050565b5f614d8282613aa5565b614d8c8185614d24565b9350614d9c818560208601613abf565b80840191505092915050565b7f206973206d697373696e6720726f6c65200000000000000000000000000000005f82015250565b5f614ddc601183614d24565b9150614de782614da8565b601182019050919050565b5f614dfc82614d56565b9150614e088285614d78565b9150614e1382614dd0565b9150614e1f8284614d78565b91508190509392505050565b5f60a082019050614e3e5f830188613cf0565b614e4b6020830187613cf0565b614e586040830186613cf0565b614e656060830185613c1a565b614e726080830184613de0565b9695505050505050565b7f4e487b71000000000000000000000000000000000000000000000000000000005f52601260045260245ffd5b5f614eb382613ba9565b9150614ebe83613ba9565b925082614ece57614ecd614e7c565b5b828204905092915050565b7f5061757361626c653a206e6f74207061757365640000000000000000000000005f82015250565b5f614f0d601483613aaf565b9150614f1882614ed9565b602082019050919050565b5f6020820190508181035f830152614f3a81614f01565b9050919050565b7f4552433230566f7465733a20746f74616c20737570706c79207269736b73206f5f8201527f766572666c6f77696e6720766f74657300000000000000000000000000000000602082015250565b5f614f9b603083613aaf565b9150614fa682614f41565b604082019050919050565b5f6020820190508181035f830152614fc881614f8f565b9050919050565b5f604082019050614fe25f830185613c1a565b614fef6020830184613c1a565b9392505050565b5f6080820190506150095f830187613cf0565b6150166020830186613d62565b6150236040830185613cf0565b6150306060830184613cf0565b95945050505050565b7f4e487b71000000000000000000000000000000000000000000000000000000005f52602160045260245ffd5b7f45434453413a20696e76616c6964207369676e617475726500000000000000005f82015250565b5f61509a601883613aaf565b91506150a582615066565b602082019050919050565b5f6020820190508181035f8301526150c78161508e565b9050919050565b7f45434453413a20696e76616c6964207369676e6174757265206c656e677468005f82015250565b5f615102601f83613aaf565b915061510d826150ce565b602082019050919050565b5f6020820190508181035f83015261512f816150f6565b9050919050565b7f45434453413a20696e76616c6964207369676e6174757265202773272076616c5f8201527f7565000000000000000000000000000000000000000000000000000000000000602082015250565b5f615190602283613aaf565b915061519b82615136565b604082019050919050565b5f6020820190508181035f8301526151bd81615184565b9050919050565b5f6151ce82613ba9565b91506151d983613ba9565b92508282026151e781613ba9565b915082820484148315176151fe576151fd614357565b5b5092915050565b5f61520f82613ba9565b91505f820361522157615220614357565b5b600182039050919050565b7f537472696e67733a20686578206c656e67746820696e73756666696369656e745f82015250565b5f615260602083613aaf565b915061526b8261522c565b602082019050919050565b5f6020820190508181035f83015261528d81615254565b9050919050565b7f45524332303a206d696e7420746f20746865207a65726f2061646472657373005f82015250565b5f6152c8601f83613aaf565b91506152d382615294565b602082019050919050565b5f6020820190508181035f8301526152f5816152bc565b9050919050565b7f45524332303a206275726e2066726f6d20746865207a65726f206164647265735f8201527f7300000000000000000000000000000000000000000000000000000000000000602082015250565b5f615356602183613aaf565b9150615361826152fc565b604082019050919050565b5f6020820190508181035f8301526153838161534a565b9050919050565b7f45524332303a206275726e20616d6f756e7420657863656564732062616c616e5f8201527f6365000000000000000000000000000000000000000000000000000000000000602082015250565b5f6153e4602283613aaf565b91506153ef8261538a565b604082019050919050565b5f6020820190508181035f830152615411816153d8565b9050919050565b7f53616665436173743a2076616c756520646f65736e27742066697420696e20325f8201527f3234206269747300000000000000000000000000000000000000000000000000602082015250565b5f615472602783613aaf565b915061547d82615418565b604082019050919050565b5f6020820190508181035f83015261549f81615466565b905091905056fea26469706673582212207fc989fe311a8944a324ce8147fe684d7e4f5dd0522f77eeae7967925b8c289364736f6c63430008140033",
  "linkReferences": {},
  "deployedLinkReferences": {}
}