{
  "_format": "hh-sol-artifact-1",
  "contractName": "MindplexToken",
  "sourceName": "contracts/MindplexToken.sol",
  "abi": [
    {
      "inputs": [
        {
          "internalType": "string",
          "name": "name_",
          "type": "string"
        },
        {
          "internalType": "string",
          "name": "symbol_",
          "type": "string"
        }
      ],
      "stateMutability": "nonpayable",
      "type": "constructor"
    },
    {
      "inputs": [],
      "name": "InvalidShortString",
      "type": "error"
    },
    {
      "inputs": [
        {
          "internalType": "string",
          "name": "str",
          "type": "string"
        }
      ],
      "name": "StringTooLong",
      "type": "error"
    },
    {
      "anonymous": false,
      "inputs": [
        {
          "indexed": true,
          "internalType": "address",
          "name": "owner",
          "type": "address"
        },
        {
          "indexed": true,
          "internalType": "address",
          "name": "spender",
          "type": "address"
        },
        {
          "indexed": false,
          "internalType": "uint256",
          "name": "value",
          "type": "uint256"
        }
      ],
      "name": "Approval",
      "type": "event"
    },
    {
      "anonymous": false,
      "inputs": [
        {
          "indexed": true,
          "internalType": "address",
          "name": "delegator",
          "type": "address"
        },
        {
          "indexed": true,
          "internalType": "address",
          "name": "fromDelegate",
          "type": "address"
        },
        {
          "indexed": true,
          "internalType": "address",
          "name": "toDelegate",
          "type": "address"
        }
      ],
      "name": "DelegateChanged",
      "type": "event"
    },
    {
      "anonymous": false,
      "inputs": [
        {
          "indexed": true,
          "internalType": "address",
          "name": "delegate",
          "type": "address"
        },
        {
          "indexed": false,
          "internalType": "uint256",
          "name": "previousBalance",
          "type": "uint256"
        },
        {
          "indexed": false,
          "internalType": "uint256",
          "name": "newBalance",
          "type": "uint256"
        }
      ],
      "name": "DelegateVotesChanged",
      "type": "event"
    },
    {
      "anonymous": false,
      "inputs": [],
      "name": "EIP712DomainChanged",
      "type": "event"
    },
    {
      "anonymous": false,
      "inputs": [
        {
          "indexed": false,
          "internalType": "address",
          "name": "account",
          "type": "address"
        }
      ],
      "name": "Paused",
      "type": "event"
    },
    {
      "anonymous": false,
      "inputs": [
        {
          "indexed": true,
          "internalType": "bytes32",
          "name": "role",
          "type": "bytes32"
        },
        {
          "indexed": true,
          "internalType": "bytes32",
          "name": "previousAdminRole",
          "type": "bytes32"
        },
        {
          "indexed": true,
          "internalType": "bytes32",
          "name": "newAdminRole",
          "type": "bytes32"
        }
      ],
      "name": "RoleAdminChanged",
      "type": "event"
    },
    {
      "anonymous": false,
      "inputs": [
        {
          "indexed": true,
          "internalType": "bytes32",
          "name": "role",
          "type": "bytes32"
        },
        {
          "indexed": true,
          "internalType": "address",
          "name": "account",
          "type": "address"
        },
        {
          "indexed": true,
          "internalType": "address",
          "name": "sender",
          "type": "address"
        }
      ],
      "name": "RoleGranted",
      "type": "event"
    },
    {
      "anonymous": false,
      "inputs": [
        {
          "indexed": true,
          "internalType": "bytes32",
          "name": "role",
          "type": "bytes32"
        },
        {
          "indexed": true,
          "internalType": "address",
          "name": "account",
          "type": "address"
        },
        {
          "indexed": true,
          "internalType": "address",
          "name": "sender",
          "type": "address"
        }
      ],
      "name": "RoleRevoked",
      "type": "event"
    },
    {
      "anonymous": false,
      "inputs": [
        {
          "indexed": true,
          "internalType": "address",
          "name": "from",
          "type": "address"
        },
        {
          "indexed": true,
          "internalType": "address",
          "name": "to",
          "type": "address"
        },
        {
          "indexed": false,
          "internalType": "uint256",
          "name": "value",
          "type": "uint256"
        }
      ],
      "name": "Transfer",
      "type": "event"
    },
    {
      "anonymous": false,
      "inputs": [
        {
          "indexed": false,
          "internalType": "address",
          "name": "account",
          "type": "address"
        }
      ],
      "name": "Unpaused",
      "type": "event"
    },
    {
      "inputs": [],
      "name": "CLOCK_MODE",
      "outputs": [
        {
          "internalType": "string",
          "name": "",
          "type": "string"
        }
      ],
      "stateMutability": "view",
      "type": "function"
    },
    {
      "inputs": [],
      "name": "DEFAULT_ADMIN_ROLE",
      "outputs": [
        {
          "internalType": "bytes32",
          "name": "",
          "type": "bytes32"
        }
      ],
      "stateMutability": "view",
      "type": "function"
    },
    {
      "inputs": [],
      "name": "DOMAIN_SEPARATOR",
      "outputs": [
        {
          "internalType": "bytes32",
          "name": "",
          "type": "bytes32"
        }
      ],
      "stateMutability": "view",
      "type": "function"
    },
    {
      "inputs": [],
      "name": "MAX_SUPPLY",
      "outputs": [
        {
          "internalType": "uint256",
          "name": "",
          "type": "uint256"
        }
      ],
      "stateMutability": "view",
      "type": "function"
    },
    {
      "inputs": [],
      "name": "MINTER_ROLE",
      "outputs": [
        {
          "internalType": "bytes32",
          "name": "",
          "type": "bytes32"
        }
      ],
      "stateMutability": "view",
      "type": "function"
    },
    {
      "inputs": [],
      "name": "PAUSER_ROLE",
      "outputs": [
        {
          "internalType": "bytes32",
          "name": "",
          "type": "bytes32"
        }
      ],
      "stateMutability": "view",
      "type": "function"
    },
    {
      "inputs": [
        {
          "internalType": "address",
          "name": "owner",
          "type": "address"
        },
        {
          "internalType": "address",
          "name": "spender",
          "type": "address"
        }
      ],
      "name": "allowance",
      "outputs": [
        {
          "internalType": "uint256",
          "name": "",
          "type": "uint256"
        }
      ],
      "stateMutability": "view",
      "type": "function"
    },
    {
      "inputs": [
        {
          "internalType": "address",
          "name": "spender",
          "type": "address"
        },
        {
          "internalType": "uint256",
          "name": "amount",
          "type": "uint256"
        }
      ],
      "name": "approve",
      "outputs": [
        {
          "internalType": "bool",
          "name": "",
          "type": "bool"
        }
      ],
      "stateMutability": "nonpayable",
      "type": "function"
    },
    {
      "inputs": [
        {
          "internalType": "address",
          "name": "account",
          "type": "address"
        }
      ],
      "name": "balanceOf",
      "outputs": [
        {
          "internalType": "uint256",
          "name": "",
          "type": "uint256"
        }
      ],
      "stateMutability": "view",
      "type": "function"
    },
    {
      "inputs": [
        {
          "internalType": "uint256",
          "name": "amount",
          "type": "uint256"
        }
      ],
      "name": "burn",
      "outputs": [],
      "stateMutability": "nonpayable",
      "type": "function"
    },
    {
      "inputs": [
        {
          "internalType": "address",
          "name": "account",
          "type": "address"
        },
        {
          "internalType": "uint256",
          "name": "amount",
          "type": "uint256"
        }
      ],
      "name": "burnFrom",
      "outputs": [],
      "stateMutability": "nonpayable",
      "type": "function"
    },
    {
      "inputs": [
        {
          "internalType": "address",
          "name": "account",
          "type": "address"
        },
        {
          "internalType": "uint32",
          "name": "pos",
          "type": "uint32"
        }
      ],
      "name": "checkpoints",
      "outputs": [
        {
          "components": [
            {
              "internalType": "uint32",
              "name": "fromBlock",
              "type": "uint32"
            },
            {
              "internalType": "uint224",
              "name": "votes",
              "type": "uint224"
            }
          ],
          "internalType": "struct ERC20Votes.Checkpoint",
          "name": "",
          "type": "tuple"
        }
      ],
      "stateMutability": "view",
      "type": "function"
    },
    {
      "inputs": [],
      "name": "clock",
      "outputs": [
        {
          "internalType": "uint48",
          "name": "",
          "type": "uint48"
        }
      ],
      "stateMutability": "view",
      "type": "function"
    },
    {
      "inputs": [],
      "name": "decimals",
      "outputs": [
        {
          "internalType": "uint8",
          "name": "",
          "type": "uint8"
        }
      ],
      "stateMutability": "pure",
      "type": "function"
    },
    {
      "inputs": [
        {
          "internalType": "address",
          "name": "spender",
          "type": "address"
        },
        {
          "internalType": "uint256",
          "name": "subtractedValue",
          "type": "uint256"
        }
      ],
      "name": "decreaseAllowance",
      "outputs": [
        {
          "internalType": "bool",
          "name": "",
          "type": "bool"
        }
      ],
      "stateMutability": "nonpayable",
      "type": "function"
    },
    {
      "inputs": [
        {
          "internalType": "address",
          "name": "delegatee",
          "type": "address"
        }
      ],
      "name": "delegate",
      "outputs": [],
      "stateMutability": "nonpayable",
      "type": "function"
    },
    {
      "inputs": [
        {
          "internalType": "address",
          "name": "delegatee",
          "type": "address"
        },
        {
          "internalType": "uint256",
          "name": "nonce",
          "type": "uint256"
        },
        {
          "internalType": "uint256",
          "name": "expiry",
          "type": "uint256"
        },
        {
          "internalType": "uint8",
          "name": "v",
          "type": "uint8"
        },
        {
          "internalType": "bytes32",
          "name": "r",
          "type": "bytes32"
        },
        {
          "internalType": "bytes32",
          "name": "s",
          "type": "bytes32"
        }
      ],
      "name": "delegateBySig",
      "outputs": [],
      "stateMutability": "nonpayable",
      "type": "function"
    },
    {
      "inputs": [
        {
          "internalType": "address",
          "name": "account",
          "type": "address"
        }
      ],
      "name": "delegates",
      "outputs": [
        {
          "internalType": "address",
          "name": "",
          "type": "address"
        }
      ],
      "stateMutability": "view",
      "type": "function"
    },
    {
      "inputs": [],
      "name": "eip712Domain",
      "outputs": [
        {
          "internalType": "bytes1",
          "name": "fields",
          "type": "bytes1"
        },
        {
          "internalType": "string",
          "name": "name",
          "type": "string"
        },
        {
          "internalType": "string",
          "name": "version",
          "type": "string"
        },
        {
          "internalType": "uint256",
          "name": "chainId",
          "type": "uint256"
        },
        {
          "internalType": "address",
          "name": "verifyingContract",
          "type": "address"
        },
        {
          "internalType": "bytes32",
          "name": "salt",
          "type": "bytes32"
        },
        {
          "internalType": "uint256[]",
          "name": "extensions",
          "type": "uint256[]"
        }
      ],
      "stateMutability": "view",
      "type": "function"
    },
    {
      "inputs": [
        {
          "internalType": "uint256",
          "name": "timepoint",
          "type": "uint256"
        }
      ],
      "name": "getPastTotalSupply",
      "outputs": [
        {
          "internalType": "uint256",
          "name": "",
          "type": "uint256"
        }
      ],
      "stateMutability": "view",
      "type": "function"
    },
    {
      "inputs": [
        {
          "internalType": "address",
          "name": "account",
          "type": "address"
        },
        {
          "internalType": "uint256",
          "name": "timepoint",
          "type": "uint256"
        }
      ],
      "name": "getPastVotes",
      "outputs": [
        {
          "internalType": "uint256",
          "name": "",
          "type": "uint256"
        }
      ],
      "stateMutability": "view",
      "type": "function"
    },
    {
      "inputs": [
        {
          "internalType": "bytes32",
          "name": "role",
          "type": "bytes32"
        }
      ],
      "name": "getRoleAdmin",
      "outputs": [
        {
          "internalType": "bytes32",
          "name": "",
          "type": "bytes32"
        }
      ],
      "stateMutability": "view",
      "type": "function"
    },
    {
      "inputs": [
        {
          "internalType": "address",
          "name": "account",
          "type": "address"
        }
      ],
      "name": "getVotes",
      "outputs": [
        {
          "internalType": "uint256",
          "name": "",
          "type": "uint256"
        }
      ],
      "stateMutability": "view",
      "type": "function"
    },
    {
      "inputs": [
        {
          "internalType": "bytes32",
          "name": "role",
          "type": "bytes32"
        },
        {
          "internalType": "address",
          "name": "account",
          "type": "address"
        }
      ],
      "name": "grantRole",
      "outputs": [],
      "stateMutability": "nonpayable",
      "type": "function"
    },
    {
      "inputs": [
        {
          "internalType": "bytes32",
          "name": "role",
          "type": "bytes32"
        },
        {
          "internalType": "address",
          "name": "account",
          "type": "address"
        }
      ],
      "name": "hasRole",
      "outputs": [
        {
          "internalType": "bool",
          "name": "",
          "type": "bool"
        }
      ],
      "stateMutability": "view",
      "type": "function"
    },
    {
      "inputs": [
        {
          "internalType": "address",
          "name": "spender",
          "type": "address"
        },
        {
          "internalType": "uint256",
          "name": "addedValue",
          "type": "uint256"
        }
      ],
      "name": "increaseAllowance",
      "outputs": [
        {
          "internalType": "bool",
          "name": "",
          "type": "bool"
        }
      ],
      "stateMutability": "nonpayable",
      "type": "function"
    },
    {
      "inputs": [
        {
          "internalType": "address",
          "name": "to",
          "type": "address"
        },
        {
          "internalType": "uint256",
          "name": "amount",
          "type": "uint256"
        }
      ],
      "name": "mint",
      "outputs": [],
      "stateMutability": "nonpayable",
      "type": "function"
    },
    {
      "inputs": [],
      "name": "name",
      "outputs": [
        {
          "internalType": "string",
          "name": "",
          "type": "string"
        }
      ],
      "stateMutability": "view",
      "type": "function"
    },
    {
      "inputs": [
        {
          "internalType": "address",
          "name": "owner",
          "type": "address"
        }
      ],
      "name": "nonces",
      "outputs": [
        {
          "internalType": "uint256",
          "name": "",
          "type": "uint256"
        }
      ],
      "stateMutability": "view",
      "type": "function"
    },
    {
      "inputs": [
        {
          "internalType": "address",
          "name": "account",
          "type": "address"
        }
      ],
      "name": "numCheckpoints",
      "outputs": [
        {
          "internalType": "uint32",
          "name": "",
          "type": "uint32"
        }
      ],
      "stateMutability": "view",
      "type": "function"
    },
    {
      "inputs": [],
      "name": "pause",
      "outputs": [],
      "stateMutability": "nonpayable",
      "type": "function"
    },
    {
      "inputs": [],
      "name": "paused",
      "outputs": [
        {
          "internalType": "bool",
          "name": "",
          "type": "bool"
        }
      ],
      "stateMutability": "view",
      "type": "function"
    },
    {
      "inputs": [
        {
          "internalType": "address",
          "name": "owner",
          "type": "address"
        },
        {
          "internalType": "address",
          "name": "spender",
          "type": "address"
        },
        {
          "internalType": "uint256",
          "name": "value",
          "type": "uint256"
        },
        {
          "internalType": "uint256",
          "name": "deadline",
          "type": "uint256"
        },
        {
          "internalType": "uint8",
          "name": "v",
          "type": "uint8"
        },
        {
          "internalType": "bytes32",
          "name": "r",
          "type": "bytes32"
        },
        {
          "internalType": "bytes32",
          "name": "s",
          "type": "bytes32"
        }
      ],
      "name": "permit",
      "outputs": [],
      "stateMutability": "nonpayable",
      "type": "function"
    },
    {
      "inputs": [
        {
          "internalType": "bytes32",
          "name": "role",
          "type": "bytes32"
        },
        {
          "internalType": "address",
          "name": "account",
          "type": "address"
        }
      ],
      "name": "renounceRole",
      "outputs": [],
      "stateMutability": "nonpayable",
      "type": "function"
    },
    {
      "inputs": [
        {
          "internalType": "bytes32",
          "name": "role",
          "type": "bytes32"
        },
        {
          "internalType": "address",
          "name": "account",
          "type": "address"
        }
      ],
      "name": "revokeRole",
      "outputs": [],
      "stateMutability": "nonpayable",
      "type": "function"
    },
    {
      "inputs": [
        {
          "internalType": "bytes4",
          "name": "interfaceId",
          "type": "bytes4"
        }
      ],
      "name": "supportsInterface",
      "outputs": [
        {
          "internalType": "bool",
          "name": "",
          "type": "bool"
        }
      ],
      "stateMutability": "view",
      "type": "function"
    },
    {
      "inputs": [],
      "name": "symbol",
      "outputs": [
        {
          "internalType": "string",
          "name": "",
          "type": "string"
        }
      ],
      "stateMutability": "view",
      "type": "function"
    },
    {
      "inputs": [],
      "name": "totalSupply",
      "outputs": [
        {
          "internalType": "uint256",
          "name": "",
          "type": "uint256"
        }
      ],
      "stateMutability": "view",
      "type": "function"
    },
    {
      "inputs": [
        {
          "internalType": "address",
          "name": "to",
          "type": "address"
        },
        {
          "internalType": "uint256",
          "name": "amount",
          "type": "uint256"
        }
      ],
      "name": "transfer",
      "outputs": [
        {
          "internalType": "bool",
          "name": "",
          "type": "bool"
        }
      ],
      "stateMutability": "nonpayable",
      "type": "function"
    },
    {
      "inputs": [
        {
          "internalType": "address",
          "name": "from",
          "type": "address"
        },
        {
          "internalType": "address",
          "name": "to",
          "type": "address"
        },
        {
          "internalType": "uint256",
          "name": "amount",
          "type": "uint256"
        }
      ],
      "name": "transferFrom",
      "outputs": [
        {
          "internalType": "bool",
          "name": "",
          "type": "bool"
        }
      ],
      "stateMutability": "nonpayable",
      "type": "function"
    },
    {
      "inputs": [],
      "name": "unpause",
      "outputs": [],
      "stateMutability": "nonpayable",
      "type": "function"
    }
  ],
  "bytecode": "0x61016060405234801562000011575f80fd5b50604051620074e7380380620074e78339818101604052810190620000379190620012d4565b81806040518060400160405280600181526020017f3100000000000000000000000000000000000000000000000000000000000000815250848481600390816200008291906200158e565b5080600490816200009491906200158e565b505050620000ad6005836200034b60201b90919060201c565b6101208181525050620000cb6006826200034b60201b90919060201c565b6101408181525050818051906020012060e08181525050808051906020012061010081815250504660a081815250506200010a620003a060201b60201c565b608081815250503073ffffffffffffffffffffffffffffffffffffffff1660c08173ffffffffffffffffffffffffffffffffffffffff16815250505050505f600c5f6101000a81548160ff0219169083151502179055506200017d67eba0d8436219ed8560c01b620003fc60201b60201c565b620001996758bf939d88f9fe1e60c01b620003fc60201b60201c565b620001b5676e9e60f73b8a55de60c01b620003fc60201b60201c565b620001d85f801b620001cc620003ff60201b60201c565b6200040660201b60201c565b620001f467f7c2d9a9bbf50a6b60c01b620003fc60201b60201c565b6200021067b99ff1082264cb4460c01b620003fc60201b60201c565b620002517f65d7a28e3265b37a6474929f336521b332c1681b933f6cb9f3376673440d862a62000245620003ff60201b60201c565b6200040660201b60201c565b6200026d67dbf0a4666bc2d4e360c01b620003fc60201b60201c565b6200028967e7ee6ba8480c982660c01b620003fc60201b60201c565b620002ca7f9f2df0fed2c77648de5860a4cc508cd0818c85b8b8a1ab4ceeef8d981c8956a6620002be620003ff60201b60201c565b6200040660201b60201c565b620002e66712c6de024a999eae60c01b620003fc60201b60201c565b6200030267689918b0a1b78f1a60c01b620003fc60201b60201c565b6200034362000316620003ff60201b60201c565b6006600a620003269190620017ef565b633b9aca006200033791906200183f565b620004f260201b60201c565b505062001e48565b5f602083511015620003705762000368836200055c60201b60201c565b90506200039a565b826200038283620005c660201b60201c565b5f0190816200039291906200158e565b5060ff5f1b90505b92915050565b5f7f8b73c3c69bb8fe3d512ecc4cf759cc79239f7b179b0ffacaa9a75d522b39400f60e051610100514630604051602001620003e1959493929190620018f7565b60405160208183030381529060405280519060200120905090565b50565b5f33905090565b620004188282620005cf60201b60201c565b620004ee576001600d5f8481526020019081526020015f205f015f8373ffffffffffffffffffffffffffffffffffffffff1673ffffffffffffffffffffffffffffffffffffffff1681526020019081526020015f205f6101000a81548160ff02191690831515021790555062000493620003ff60201b60201c565b73ffffffffffffffffffffffffffffffffffffffff168173ffffffffffffffffffffffffffffffffffffffff16837f2f8788117e7eff1d82e926ec794901d17c78024a50270940304540a733656f0d60405160405180910390a45b5050565b6200050e67387313e8392f807860c01b620003fc60201b60201c565b6200052a67a8d134d5181650e360c01b620003fc60201b60201c565b62000546675a4458da72185b2060c01b620003fc60201b60201c565b6200055882826200063360201b60201c565b5050565b5f80829050601f81511115620005ab57826040517f305a27a9000000000000000000000000000000000000000000000000000000008152600401620005a29190620019a2565b60405180910390fd5b805181620005b990620019f3565b5f1c175f1b915050919050565b5f819050919050565b5f600d5f8481526020019081526020015f205f015f8373ffffffffffffffffffffffffffffffffffffffff1673ffffffffffffffffffffffffffffffffffffffff1681526020019081526020015f205f9054906101000a900460ff16905092915050565b620006458282620006ec60201b60201c565b620006556200085160201b60201c565b7bffffffffffffffffffffffffffffffffffffffffffffffffffffffff16620006836200087460201b60201c565b1115620006c7576040517f08c379a0000000000000000000000000000000000000000000000000000000008152600401620006be9062001ad6565b60405180910390fd5b620006e6600b6200087d60201b620018b417836200089460201b60201c565b50505050565b5f73ffffffffffffffffffffffffffffffffffffffff168273ffffffffffffffffffffffffffffffffffffffff16036200075d576040517f08c379a0000000000000000000000000000000000000000000000000000000008152600401620007549062001b44565b60405180910390fd5b620007705f838362000b9860201b60201c565b8060025f82825462000783919062001b64565b92505081905550805f808473ffffffffffffffffffffffffffffffffffffffff1673ffffffffffffffffffffffffffffffffffffffff1681526020019081526020015f205f82825401925050819055508173ffffffffffffffffffffffffffffffffffffffff165f73ffffffffffffffffffffffffffffffffffffffff167fddf252ad1be2c89b69c2b068fc378daa952ba7f163c4a11628f55a4df523b3ef8360405162000832919062001b9e565b60405180910390a36200084d5f838362000c4c60201b60201c565b5050565b5f7bffffffffffffffffffffffffffffffffffffffffffffffffffffffff905090565b5f600254905090565b5f81836200088c919062001b64565b905092915050565b5f805f858054905090505f8082146200095e57620008bc876001840362000cb860201b60201c565b6040518060400160405290815f82015f9054906101000a900463ffffffff1663ffffffff1663ffffffff1681526020015f820160049054906101000a90047bffffffffffffffffffffffffffffffffffffffffffffffffffffffff167bffffffffffffffffffffffffffffffffffffffffffffffffffffffff167bffffffffffffffffffffffffffffffffffffffffffffffffffffffff168152505062000998565b60405180604001604052805f63ffffffff1681526020015f7bffffffffffffffffffffffffffffffffffffffffffffffffffffffff168152505b905080602001517bffffffffffffffffffffffffffffffffffffffffffffffffffffffff169350620009cb84868860201c565b92505f82118015620009fc5750620009e862000cca60201b60201c565b65ffffffffffff16815f015163ffffffff16145b1562000a7e5762000a138362000ce160201b60201c565b62000a28886001850362000cb860201b60201c565b5f0160046101000a8154817bffffffffffffffffffffffffffffffffffffffffffffffffffffffff02191690837bffffffffffffffffffffffffffffffffffffffffffffffffffffffff16021790555062000b8e565b86604051806040016040528062000ab262000a9e62000cca60201b60201c565b65ffffffffffff1662000d4e60201b60201c565b63ffffffff16815260200162000ace8662000ce160201b60201c565b7bffffffffffffffffffffffffffffffffffffffffffffffffffffffff16815250908060018154018082558091505060019003905f5260205f20015f909190919091505f820151815f015f6101000a81548163ffffffff021916908363ffffffff1602179055506020820151815f0160046101000a8154817bffffffffffffffffffffffffffffffffffffffffffffffffffffffff02191690837bffffffffffffffffffffffffffffffffffffffffffffffffffffffff16021790555050505b5050935093915050565b62000bb4672f5ad4669bd321e060c01b620003fc60201b60201c565b62000bc462000da360201b60201c565b62000be067e7799f75aa74b71b60c01b620003fc60201b60201c565b62000bfc67fc80a80801390eff60c01b620003fc60201b60201c565b62000c18677ee51835770edb0960c01b620003fc60201b60201c565b62000c3467d598313a3f39905e60c01b620003fc60201b60201c565b62000c4783838362000df860201b60201c565b505050565b62000c68673fcd046526a50e6b60c01b620003fc60201b60201c565b62000c8467d352e7a2ac74bdd060c01b620003fc60201b60201c565b62000ca067cfeac663810cc1d760c01b620003fc60201b60201c565b62000cb383838362000dfd60201b60201c565b505050565b5f825f528160205f2001905092915050565b5f62000cdc4362000e4860201b60201c565b905090565b5f7bffffffffffffffffffffffffffffffffffffffffffffffffffffffff801682111562000d46576040517f08c379a000000000000000000000000000000000000000000000000000000000815260040162000d3d9062001c2d565b60405180910390fd5b819050919050565b5f63ffffffff801682111562000d9b576040517f08c379a000000000000000000000000000000000000000000000000000000000815260040162000d929062001cc1565b60405180910390fd5b819050919050565b62000db362000e9f60201b60201c565b1562000df6576040517f08c379a000000000000000000000000000000000000000000000000000000000815260040162000ded9062001d2f565b60405180910390fd5b565b505050565b62000e1083838362000eb460201b60201c565b62000e4362000e258462000eb960201b60201c565b62000e368462000eb960201b60201c565b8362000f1e60201b60201c565b505050565b5f65ffffffffffff801682111562000e97576040517f08c379a000000000000000000000000000000000000000000000000000000000815260040162000e8e9062001dc3565b60405180910390fd5b819050919050565b5f600c5f9054906101000a900460ff16905090565b505050565b5f60095f8373ffffffffffffffffffffffffffffffffffffffff1673ffffffffffffffffffffffffffffffffffffffff1681526020019081526020015f205f9054906101000a900473ffffffffffffffffffffffffffffffffffffffff169050919050565b8173ffffffffffffffffffffffffffffffffffffffff168373ffffffffffffffffffffffffffffffffffffffff161415801562000f5a57505f81115b1562001133575f73ffffffffffffffffffffffffffffffffffffffff168373ffffffffffffffffffffffffffffffffffffffff161462001049575f8062000ff0600a5f8773ffffffffffffffffffffffffffffffffffffffff1673ffffffffffffffffffffffffffffffffffffffff1681526020019081526020015f206200113860201b620018c917856200089460201b60201c565b915091508473ffffffffffffffffffffffffffffffffffffffff167fdec2bacdd2f05b59de34da9b523dff8be42e5e38e818c82fdb0bae774387a72483836040516200103e92919062001de3565b60405180910390a250505b5f73ffffffffffffffffffffffffffffffffffffffff168273ffffffffffffffffffffffffffffffffffffffff161462001132575f80620010d9600a5f8673ffffffffffffffffffffffffffffffffffffffff1673ffffffffffffffffffffffffffffffffffffffff1681526020019081526020015f206200087d60201b620018b417856200089460201b60201c565b915091508373ffffffffffffffffffffffffffffffffffffffff167fdec2bacdd2f05b59de34da9b523dff8be42e5e38e818c82fdb0bae774387a72483836040516200112792919062001de3565b60405180910390a250505b5b505050565b5f818362001147919062001e0e565b905092915050565b5f604051905090565b5f80fd5b5f80fd5b5f80fd5b5f80fd5b5f601f19601f8301169050919050565b7f4e487b71000000000000000000000000000000000000000000000000000000005f52604160045260245ffd5b620011b08262001168565b810181811067ffffffffffffffff82111715620011d257620011d162001178565b5b80604052505050565b5f620011e66200114f565b9050620011f48282620011a5565b919050565b5f67ffffffffffffffff82111562001216576200121562001178565b5b620012218262001168565b9050602081019050919050565b5f5b838110156200124d57808201518184015260208101905062001230565b5f8484015250505050565b5f6200126e6200126884620011f9565b620011db565b9050828152602081018484840111156200128d576200128c62001164565b5b6200129a8482856200122e565b509392505050565b5f82601f830112620012b957620012b862001160565b5b8151620012cb84826020860162001258565b91505092915050565b5f8060408385031215620012ed57620012ec62001158565b5b5f83015167ffffffffffffffff8111156200130d576200130c6200115c565b5b6200131b85828601620012a2565b925050602083015167ffffffffffffffff8111156200133f576200133e6200115c565b5b6200134d85828601620012a2565b9150509250929050565b5f81519050919050565b7f4e487b71000000000000000000000000000000000000000000000000000000005f52602260045260245ffd5b5f6002820490506001821680620013a657607f821691505b602082108103620013bc57620013bb62001361565b5b50919050565b5f819050815f5260205f209050919050565b5f6020601f8301049050919050565b5f82821b905092915050565b5f60088302620014207fffffffffffffffffffffffffffffffffffffffffffffffffffffffffffffffff82620013e3565b6200142c8683620013e3565b95508019841693508086168417925050509392505050565b5f819050919050565b5f819050919050565b5f62001476620014706200146a8462001444565b6200144d565b62001444565b9050919050565b5f819050919050565b620014918362001456565b620014a9620014a0826200147d565b848454620013ef565b825550505050565b5f90565b620014bf620014b1565b620014cc81848462001486565b505050565b5b81811015620014f357620014e75f82620014b5565b600181019050620014d2565b5050565b601f82111562001542576200150c81620013c2565b6200151784620013d4565b8101602085101562001527578190505b6200153f6200153685620013d4565b830182620014d1565b50505b505050565b5f82821c905092915050565b5f620015645f198460080262001547565b1980831691505092915050565b5f6200157e838362001553565b9150826002028217905092915050565b620015998262001357565b67ffffffffffffffff811115620015b557620015b462001178565b5b620015c182546200138e565b620015ce828285620014f7565b5f60209050601f83116001811462001604575f8415620015ef578287015190505b620015fb858262001571565b8655506200166a565b601f1984166200161486620013c2565b5f5b828110156200163d5784890151825560018201915060208501945060208101905062001616565b868310156200165d578489015162001659601f89168262001553565b8355505b6001600288020188555050505b505050505050565b7f4e487b71000000000000000000000000000000000000000000000000000000005f52601160045260245ffd5b5f8160011c9050919050565b5f808291508390505b6001851115620016fc57808604811115620016d457620016d362001672565b5b6001851615620016e45780820291505b8081029050620016f4856200169f565b9450620016b4565b94509492505050565b5f82620017165760019050620017e8565b8162001725575f9050620017e8565b81600181146200173e576002811462001749576200177f565b6001915050620017e8565b60ff8411156200175e576200175d62001672565b5b8360020a91508482111562001778576200177762001672565b5b50620017e8565b5060208310610133831016604e8410600b8410161715620017b95782820a905083811115620017b357620017b262001672565b5b620017e8565b620017c88484846001620016ab565b92509050818404811115620017e257620017e162001672565b5b81810290505b9392505050565b5f620017fb8262001444565b9150620018088362001444565b9250620018377fffffffffffffffffffffffffffffffffffffffffffffffffffffffffffffffff848462001705565b905092915050565b5f6200184b8262001444565b9150620018588362001444565b9250828202620018688162001444565b9150828204841483151762001882576200188162001672565b5b5092915050565b5f819050919050565b6200189d8162001889565b82525050565b620018ae8162001444565b82525050565b5f73ffffffffffffffffffffffffffffffffffffffff82169050919050565b5f620018df82620018b4565b9050919050565b620018f181620018d3565b82525050565b5f60a0820190506200190c5f83018862001892565b6200191b602083018762001892565b6200192a604083018662001892565b620019396060830185620018a3565b620019486080830184620018e6565b9695505050505050565b5f82825260208201905092915050565b5f6200196e8262001357565b6200197a818562001952565b93506200198c8185602086016200122e565b620019978162001168565b840191505092915050565b5f6020820190508181035f830152620019bc818462001962565b905092915050565b5f81519050919050565b5f819050602082019050919050565b5f620019ea825162001889565b80915050919050565b5f620019ff82620019c4565b8262001a0b84620019ce565b905062001a1881620019dd565b9250602082101562001a5b5762001a567fffffffffffffffffffffffffffffffffffffffffffffffffffffffffffffffff83602003600802620013e3565b831692505b5050919050565b7f4552433230566f7465733a20746f74616c20737570706c79207269736b73206f5f8201527f766572666c6f77696e6720766f74657300000000000000000000000000000000602082015250565b5f62001abe60308362001952565b915062001acb8262001a62565b604082019050919050565b5f6020820190508181035f83015262001aef8162001ab0565b9050919050565b7f45524332303a206d696e7420746f20746865207a65726f2061646472657373005f82015250565b5f62001b2c601f8362001952565b915062001b398262001af6565b602082019050919050565b5f6020820190508181035f83015262001b5d8162001b1e565b9050919050565b5f62001b708262001444565b915062001b7d8362001444565b925082820190508082111562001b985762001b9762001672565b5b92915050565b5f60208201905062001bb35f830184620018a3565b92915050565b7f53616665436173743a2076616c756520646f65736e27742066697420696e20325f8201527f3234206269747300000000000000000000000000000000000000000000000000602082015250565b5f62001c1560278362001952565b915062001c228262001bb9565b604082019050919050565b5f6020820190508181035f83015262001c468162001c07565b9050919050565b7f53616665436173743a2076616c756520646f65736e27742066697420696e20335f8201527f3220626974730000000000000000000000000000000000000000000000000000602082015250565b5f62001ca960268362001952565b915062001cb68262001c4d565b604082019050919050565b5f6020820190508181035f83015262001cda8162001c9b565b9050919050565b7f5061757361626c653a20706175736564000000000000000000000000000000005f82015250565b5f62001d1760108362001952565b915062001d248262001ce1565b602082019050919050565b5f6020820190508181035f83015262001d488162001d09565b9050919050565b7f53616665436173743a2076616c756520646f65736e27742066697420696e20345f8201527f3820626974730000000000000000000000000000000000000000000000000000602082015250565b5f62001dab60268362001952565b915062001db88262001d4f565b604082019050919050565b5f6020820190508181035f83015262001ddc8162001d9d565b9050919050565b5f60408201905062001df85f830185620018a3565b62001e076020830184620018a3565b9392505050565b5f62001e1a8262001444565b915062001e278362001444565b925082820390508181111562001e425762001e4162001672565b5b92915050565b60805160a05160c05160e05161010051610120516101405161564d62001e9a5f395f6110c301525f61108f01525f61280b01525f6127ea01525f611efd01525f611f5301525f611f7c015261564d5ff3fe608060405234801561000f575f80fd5b5060043610610251575f3560e01c80636fcfff45116101445780639ab24eb0116100c1578063d505accf11610085578063d505accf1461074d578063d539139314610769578063d547741f14610787578063dd62ed3e146107a3578063e63ab1e9146107d3578063f1127ed8146107f157610251565b80639ab24eb014610683578063a217fddf146106b3578063a457c2d7146106d1578063a9059cbb14610701578063c3cda5201461073157610251565b806384b0196e1161010857806384b0196e146105c35780638e539e8c146105e757806391d148541461061757806391ddadf41461064757806395d89b411461066557610251565b80636fcfff451461050d57806370a082311461053d57806379cc67901461056d5780637ecebe00146105895780638456cb59146105b957610251565b806336568abe116101d257806342966c681161019657806342966c68146104695780634bf5d7e914610485578063587cde1e146104a35780635c19a95c146104d35780635c975abb146104ef57610251565b806336568abe146103c757806339509351146103e35780633a46b1a8146104135780633f4ba83a1461044357806340c10f191461044d57610251565b8063248a9ca311610219578063248a9ca3146103215780632f2ff15d14610351578063313ce5671461036d57806332cb6b0c1461038b5780633644e515146103a957610251565b806301ffc9a71461025557806306fdde0314610285578063095ea7b3146102a357806318160ddd146102d357806323b872dd146102f1575b5f80fd5b61026f600480360381019061026a9190613a3f565b610821565b60405161027c9190613a84565b60405180910390f35b61028d61089a565b60405161029a9190613b27565b60405180910390f35b6102bd60048036038101906102b89190613bd4565b61092a565b6040516102ca9190613a84565b60405180910390f35b6102db61094c565b6040516102e89190613c21565b60405180910390f35b61030b60048036038101906103069190613c3a565b610955565b6040516103189190613a84565b60405180910390f35b61033b60048036038101906103369190613cbd565b610983565b6040516103489190613cf7565b60405180910390f35b61036b60048036038101906103669190613d10565b6109a0565b005b6103756109c1565b6040516103829190613d69565b60405180910390f35b610393610a05565b6040516103a09190613c21565b60405180910390f35b6103b1610a25565b6040516103be9190613cf7565b60405180910390f35b6103e160048036038101906103dc9190613d10565b610a33565b005b6103fd60048036038101906103f89190613bd4565b610ab6565b60405161040a9190613a84565b60405180910390f35b61042d60048036038101906104289190613bd4565b610aec565b60405161043a9190613c21565b60405180910390f35b61044b610b8c565b005b61046760048036038101906104629190613bd4565b610c25565b005b610483600480360381019061047e9190613d82565b610db3565b005b61048d610dc7565b60405161049a9190613b27565b60405180910390f35b6104bd60048036038101906104b89190613dad565b610e55565b6040516104ca9190613de7565b60405180910390f35b6104ed60048036038101906104e89190613dad565b610eba565b005b6104f7610ece565b6040516105049190613a84565b60405180910390f35b61052760048036038101906105229190613dad565b610ee3565b6040516105349190613e1e565b60405180910390f35b61055760048036038101906105529190613dad565b610f34565b6040516105649190613c21565b60405180910390f35b61058760048036038101906105829190613bd4565b610f79565b005b6105a3600480360381019061059e9190613dad565b610f99565b6040516105b09190613c21565b60405180910390f35b6105c1610fe6565b005b6105cb61107f565b6040516105de9796959493929190613f28565b60405180910390f35b61060160048036038101906105fc9190613d82565b61117c565b60405161060e9190613c21565b60405180910390f35b610631600480360381019061062c9190613d10565b6111e0565b60405161063e9190613a84565b60405180910390f35b61064f611244565b60405161065c9190613fca565b60405180910390f35b61066d611253565b60405161067a9190613b27565b60405180910390f35b61069d60048036038101906106989190613dad565b6112e3565b6040516106aa9190613c21565b60405180910390f35b6106bb6113e1565b6040516106c89190613cf7565b60405180910390f35b6106eb60048036038101906106e69190613bd4565b6113e7565b6040516106f89190613a84565b60405180910390f35b61071b60048036038101906107169190613bd4565b61145c565b6040516107289190613a84565b60405180910390f35b61074b6004803603810190610746919061400d565b61147e565b005b61076760048036038101906107629190614096565b611581565b005b6107716116c0565b60405161077e9190613cf7565b60405180910390f35b6107a1600480360381019061079c9190613d10565b6116e4565b005b6107bd60048036038101906107b89190614133565b611705565b6040516107ca9190613c21565b60405180910390f35b6107db611787565b6040516107e89190613cf7565b60405180910390f35b61080b6004803603810190610806919061419b565b6117ab565b604051610818919061424b565b60405180910390f35b5f7f7965db0b000000000000000000000000000000000000000000000000000000007bffffffffffffffffffffffffffffffffffffffffffffffffffffffff1916827bffffffffffffffffffffffffffffffffffffffffffffffffffffffff191614806108935750610892826118de565b5b9050919050565b6060600380546108a990614291565b80601f01602080910402602001604051908101604052809291908181526020018280546108d590614291565b80156109205780601f106108f757610100808354040283529160200191610920565b820191905f5260205f20905b81548152906001019060200180831161090357829003601f168201915b5050505050905090565b5f80610934611947565b905061094181858561194e565b600191505092915050565b5f600254905090565b5f8061095f611947565b905061096c858285611b11565b610977858585611b9c565b60019150509392505050565b5f600d5f8381526020019081526020015f20600101549050919050565b6109a982610983565b6109b281611e08565b6109bc8383611e1c565b505050565b5f6109d66711a8dfff866ee39760c01b611ef7565b6109ea670d43225a74de2d3a60c01b611ef7565b6109fe672ac7bc60210945db60c01b611ef7565b6006905090565b6006600a610a13919061441d565b633b9aca00610a229190614467565b81565b5f610a2e611efa565b905090565b610a3b611947565b73ffffffffffffffffffffffffffffffffffffffff168173ffffffffffffffffffffffffffffffffffffffff1614610aa8576040517f08c379a0000000000000000000000000000000000000000000000000000000008152600401610a9f90614518565b60405180910390fd5b610ab28282611fb0565b5050565b5f80610ac0611947565b9050610ae1818585610ad28589611705565b610adc9190614536565b61194e565b600191505092915050565b5f610af5611244565b65ffffffffffff168210610b3e576040517f08c379a0000000000000000000000000000000000000000000000000000000008152600401610b35906145b3565b60405180910390fd5b610b84600a5f8573ffffffffffffffffffffffffffffffffffffffff1673ffffffffffffffffffffffffffffffffffffffff1681526020019081526020015f208361208b565b905092915050565b610ba067e92d42db38907ad660c01b611ef7565b7f65d7a28e3265b37a6474929f336521b332c1681b933f6cb9f3376673440d862a610bca81611e08565b610bde67276455260c16655d60c01b611ef7565b610bf267036e936efaed435c60c01b611ef7565b610c06672aa604e1c28f718f60c01b611ef7565b610c1a67552e728a203151f460c01b611ef7565b610c226121c8565b50565b610c3967f4e7492f9daf180e60c01b611ef7565b610c41612229565b610c55675c94a4b4954cf76560c01b611ef7565b610c69678191c84fdd98c68e60c01b611ef7565b7f9f2df0fed2c77648de5860a4cc508cd0818c85b8b8a1ab4ceeef8d981c8956a6610c9381611e08565b610ca7678398169f875f39bd60c01b611ef7565b610cbb67d186fc3c7d5c085760c01b611ef7565b610ccf67bbccc91f5edd3dfd60c01b611ef7565b610ce367e04a6d1d34b3bc5360c01b611ef7565b610cf7674093e13d0685255260c01b611ef7565b6006600a610d05919061441d565b633b9aca00610d149190614467565b82610d1d61094c565b610d279190614536565b1115610d68576040517f08c379a0000000000000000000000000000000000000000000000000000000008152600401610d5f90614641565b60405180910390fd5b610d7c679dbeb46d1393cd3f60c01b611ef7565b610d9067d1fb9ed397c21e5560c01b611ef7565b610da467197095a704d8fbc660c01b611ef7565b610dae8383612273565b505050565b610dc4610dbe611947565b826122bd565b50565b606043610dd2611244565b65ffffffffffff1614610e1a576040517f08c379a0000000000000000000000000000000000000000000000000000000008152600401610e11906146a9565b60405180910390fd5b6040518060400160405280601d81526020017f6d6f64653d626c6f636b6e756d6265722666726f6d3d64656661756c74000000815250905090565b5f60095f8373ffffffffffffffffffffffffffffffffffffffff1673ffffffffffffffffffffffffffffffffffffffff1681526020019081526020015f205f9054906101000a900473ffffffffffffffffffffffffffffffffffffffff169050919050565b610ecb610ec5611947565b82612307565b50565b5f600c5f9054906101000a900460ff16905090565b5f610f2d600a5f8473ffffffffffffffffffffffffffffffffffffffff1673ffffffffffffffffffffffffffffffffffffffff1681526020019081526020015f208054905061241c565b9050919050565b5f805f8373ffffffffffffffffffffffffffffffffffffffff1673ffffffffffffffffffffffffffffffffffffffff1681526020019081526020015f20549050919050565b610f8b82610f85611947565b83611b11565b610f9582826122bd565b5050565b5f610fdf60075f8473ffffffffffffffffffffffffffffffffffffffff1673ffffffffffffffffffffffffffffffffffffffff1681526020019081526020015f2061246e565b9050919050565b610ffa67e425eb11adc8483d60c01b611ef7565b7f65d7a28e3265b37a6474929f336521b332c1681b933f6cb9f3376673440d862a61102481611e08565b61103867af518162f0bae07760c01b611ef7565b61104c67b53283ada1a9a05a60c01b611ef7565b61106067adffed96f4d632c260c01b611ef7565b61107467c6dbfa490cfdb46960c01b611ef7565b61107c61247a565b50565b5f6060805f805f60606110bc60057f00000000000000000000000000000000000000000000000000000000000000006124dc90919063ffffffff16565b6110f060067f00000000000000000000000000000000000000000000000000000000000000006124dc90919063ffffffff16565b46305f801b5f67ffffffffffffffff81111561110f5761110e6146c7565b5b60405190808252806020026020018201604052801561113d5781602001602082028036833780820191505090505b507f0f00000000000000000000000000000000000000000000000000000000000000959493929190965096509650965096509650965090919293949596565b5f611185611244565b65ffffffffffff1682106111ce576040517f08c379a00000000000000000000000000000000000000000000000000000000081526004016111c5906145b3565b60405180910390fd5b6111d9600b8361208b565b9050919050565b5f600d5f8481526020019081526020015f205f015f8373ffffffffffffffffffffffffffffffffffffffff1673ffffffffffffffffffffffffffffffffffffffff1681526020019081526020015f205f9054906101000a900460ff16905092915050565b5f61124e43612589565b905090565b60606004805461126290614291565b80601f016020809104026020016040519081016040528092919081815260200182805461128e90614291565b80156112d95780601f106112b0576101008083540402835291602001916112d9565b820191905f5260205f20905b8154815290600101906020018083116112bc57829003601f168201915b5050505050905090565b5f80600a5f8473ffffffffffffffffffffffffffffffffffffffff1673ffffffffffffffffffffffffffffffffffffffff1681526020019081526020015f208054905090505f81146113b957600a5f8473ffffffffffffffffffffffffffffffffffffffff1673ffffffffffffffffffffffffffffffffffffffff1681526020019081526020015f206001820381548110611381576113806146f4565b5b905f5260205f20015f0160049054906101000a90047bffffffffffffffffffffffffffffffffffffffffffffffffffffffff166113bb565b5f5b7bffffffffffffffffffffffffffffffffffffffffffffffffffffffff16915050919050565b5f801b81565b5f806113f1611947565b90505f6113fe8286611705565b905083811015611443576040517f08c379a000000000000000000000000000000000000000000000000000000000815260040161143a90614791565b60405180910390fd5b611450828686840361194e565b60019250505092915050565b5f80611466611947565b9050611473818585611b9c565b600191505092915050565b834211156114c1576040517f08c379a00000000000000000000000000000000000000000000000000000000081526004016114b8906147f9565b60405180910390fd5b5f61152261151a7fe48329057bfd03d55e49b547132e39cffd9c1820ad7b9d4c5307691425d15adf8989896040516020016114ff9493929190614817565b604051602081830303815290604052805190602001206125dd565b8585856125f6565b905061152d8161261f565b861461156e576040517f08c379a0000000000000000000000000000000000000000000000000000000008152600401611565906148a4565b60405180910390fd5b6115788188612307565b50505050505050565b834211156115c4576040517f08c379a00000000000000000000000000000000000000000000000000000000081526004016115bb9061490c565b60405180910390fd5b5f7f6e71edae12b1b97f4d1f60370fef10105fa2faae0126114a169c64845d6126c98888886115f28c61261f565b896040516020016116089695949392919061492a565b6040516020818303038152906040528051906020012090505f61162a826125dd565b90505f611639828787876125f6565b90508973ffffffffffffffffffffffffffffffffffffffff168173ffffffffffffffffffffffffffffffffffffffff16146116a9576040517f08c379a00000000000000000000000000000000000000000000000000000000081526004016116a0906149d3565b60405180910390fd5b6116b48a8a8a61194e565b50505050505050505050565b7f9f2df0fed2c77648de5860a4cc508cd0818c85b8b8a1ab4ceeef8d981c8956a681565b6116ed82610983565b6116f681611e08565b6117008383611fb0565b505050565b5f60015f8473ffffffffffffffffffffffffffffffffffffffff1673ffffffffffffffffffffffffffffffffffffffff1681526020019081526020015f205f8373ffffffffffffffffffffffffffffffffffffffff1673ffffffffffffffffffffffffffffffffffffffff1681526020019081526020015f2054905092915050565b7f65d7a28e3265b37a6474929f336521b332c1681b933f6cb9f3376673440d862a81565b6117b36139aa565b600a5f8473ffffffffffffffffffffffffffffffffffffffff1673ffffffffffffffffffffffffffffffffffffffff1681526020019081526020015f208263ffffffff1681548110611808576118076146f4565b5b905f5260205f20016040518060400160405290815f82015f9054906101000a900463ffffffff1663ffffffff1663ffffffff1681526020015f820160049054906101000a90047bffffffffffffffffffffffffffffffffffffffffffffffffffffffff167bffffffffffffffffffffffffffffffffffffffffffffffffffffffff167bffffffffffffffffffffffffffffffffffffffffffffffffffffffff1681525050905092915050565b5f81836118c19190614536565b905092915050565b5f81836118d691906149f1565b905092915050565b5f7f01ffc9a7000000000000000000000000000000000000000000000000000000007bffffffffffffffffffffffffffffffffffffffffffffffffffffffff1916827bffffffffffffffffffffffffffffffffffffffffffffffffffffffff1916149050919050565b5f33905090565b5f73ffffffffffffffffffffffffffffffffffffffff168373ffffffffffffffffffffffffffffffffffffffff16036119bc576040517f08c379a00000000000000000000000000000000000000000000000000000000081526004016119b390614a94565b60405180910390fd5b5f73ffffffffffffffffffffffffffffffffffffffff168273ffffffffffffffffffffffffffffffffffffffff1603611a2a576040517f08c379a0000000000000000000000000000000000000000000000000000000008152600401611a2190614b22565b60405180910390fd5b8060015f8573ffffffffffffffffffffffffffffffffffffffff1673ffffffffffffffffffffffffffffffffffffffff1681526020019081526020015f205f8473ffffffffffffffffffffffffffffffffffffffff1673ffffffffffffffffffffffffffffffffffffffff1681526020019081526020015f20819055508173ffffffffffffffffffffffffffffffffffffffff168373ffffffffffffffffffffffffffffffffffffffff167f8c5be1e5ebec7d5bd14f71427d1e84f3dd0314c0f7b2291e5b200ac8c7c3b92583604051611b049190613c21565b60405180910390a3505050565b5f611b1c8484611705565b90507fffffffffffffffffffffffffffffffffffffffffffffffffffffffffffffffff8114611b965781811015611b88576040517f08c379a0000000000000000000000000000000000000000000000000000000008152600401611b7f90614b8a565b60405180910390fd5b611b95848484840361194e565b5b50505050565b5f73ffffffffffffffffffffffffffffffffffffffff168373ffffffffffffffffffffffffffffffffffffffff1603611c0a576040517f08c379a0000000000000000000000000000000000000000000000000000000008152600401611c0190614c18565b60405180910390fd5b5f73ffffffffffffffffffffffffffffffffffffffff168273ffffffffffffffffffffffffffffffffffffffff1603611c78576040517f08c379a0000000000000000000000000000000000000000000000000000000008152600401611c6f90614ca6565b60405180910390fd5b611c8383838361267a565b5f805f8573ffffffffffffffffffffffffffffffffffffffff1673ffffffffffffffffffffffffffffffffffffffff1681526020019081526020015f2054905081811015611d06576040517f08c379a0000000000000000000000000000000000000000000000000000000008152600401611cfd90614d34565b60405180910390fd5b8181035f808673ffffffffffffffffffffffffffffffffffffffff1673ffffffffffffffffffffffffffffffffffffffff1681526020019081526020015f2081905550815f808573ffffffffffffffffffffffffffffffffffffffff1673ffffffffffffffffffffffffffffffffffffffff1681526020019081526020015f205f82825401925050819055508273ffffffffffffffffffffffffffffffffffffffff168473ffffffffffffffffffffffffffffffffffffffff167fddf252ad1be2c89b69c2b068fc378daa952ba7f163c4a11628f55a4df523b3ef84604051611def9190613c21565b60405180910390a3611e028484846126f6565b50505050565b611e1981611e14611947565b612742565b50565b611e2682826111e0565b611ef3576001600d5f8481526020019081526020015f205f015f8373ffffffffffffffffffffffffffffffffffffffff1673ffffffffffffffffffffffffffffffffffffffff1681526020019081526020015f205f6101000a81548160ff021916908315150217905550611e98611947565b73ffffffffffffffffffffffffffffffffffffffff168173ffffffffffffffffffffffffffffffffffffffff16837f2f8788117e7eff1d82e926ec794901d17c78024a50270940304540a733656f0d60405160405180910390a45b5050565b50565b5f7f000000000000000000000000000000000000000000000000000000000000000073ffffffffffffffffffffffffffffffffffffffff163073ffffffffffffffffffffffffffffffffffffffff16148015611f7557507f000000000000000000000000000000000000000000000000000000000000000046145b15611fa2577f00000000000000000000000000000000000000000000000000000000000000009050611fad565b611faa6127c6565b90505b90565b611fba82826111e0565b15612087575f600d5f8481526020019081526020015f205f015f8373ffffffffffffffffffffffffffffffffffffffff1673ffffffffffffffffffffffffffffffffffffffff1681526020019081526020015f205f6101000a81548160ff02191690831515021790555061202c611947565b73ffffffffffffffffffffffffffffffffffffffff168173ffffffffffffffffffffffffffffffffffffffff16837ff6391f5c32d9c69d2a47ea670b442974b53935d1edc7fd64eb21e047a839171b60405160405180910390a45b5050565b5f80838054905090505f8082905060058311156120fc575f6120ac8461285b565b846120b791906149f1565b9050856120c48883612951565b5f015f9054906101000a900463ffffffff1663ffffffff1611156120ea578091506120fa565b6001816120f79190614536565b92505b505b5b80821015612159575f6121108383612963565b90508561211d8883612951565b5f015f9054906101000a900463ffffffff1663ffffffff16111561214357809150612153565b6001816121509190614536565b92505b506120fd565b5f811461219d5761216d8660018303612951565b5f0160049054906101000a90047bffffffffffffffffffffffffffffffffffffffffffffffffffffffff1661219f565b5f5b7bffffffffffffffffffffffffffffffffffffffffffffffffffffffff16935050505092915050565b6121d0612988565b5f600c5f6101000a81548160ff0219169083151502179055507f5db9ee0a495bf2e6ff9c91a7834c1ba4fdd244a5e8aa4e537bd38aeae4b073aa612212611947565b60405161221f9190613de7565b60405180910390a1565b612231610ece565b15612271576040517f08c379a000000000000000000000000000000000000000000000000000000000815260040161226890614d9c565b60405180910390fd5b565b61228767387313e8392f807860c01b611ef7565b61229b67a8d134d5181650e360c01b611ef7565b6122af675a4458da72185b2060c01b611ef7565b6122b982826129d1565b5050565b6122d1679a48b9048b92444760c01b611ef7565b6122e56725868aeced47b2e360c01b611ef7565b6122f967a9ff7514cae174a360c01b611ef7565b6123038282612a5e565b5050565b5f61231183610e55565b90505f61231d84610f34565b90508260095f8673ffffffffffffffffffffffffffffffffffffffff1673ffffffffffffffffffffffffffffffffffffffff1681526020019081526020015f205f6101000a81548173ffffffffffffffffffffffffffffffffffffffff021916908373ffffffffffffffffffffffffffffffffffffffff1602179055508273ffffffffffffffffffffffffffffffffffffffff168273ffffffffffffffffffffffffffffffffffffffff168573ffffffffffffffffffffffffffffffffffffffff167f3134e8a2e6d97e929a7e54011ea5485d7d196dd5f0ba4d4ef95803e8e3fc257f60405160405180910390a4612416828483612a7c565b50505050565b5f63ffffffff8016821115612466576040517f08c379a000000000000000000000000000000000000000000000000000000000815260040161245d90614e2a565b60405180910390fd5b819050919050565b5f815f01549050919050565b612482612229565b6001600c5f6101000a81548160ff0219169083151502179055507f62e78cea01bee320cd4e420270b5ea74000d11b0c9f74754ebdbfc544b05a2586124c5611947565b6040516124d29190613de7565b60405180910390a1565b606060ff5f1b83146124f8576124f183612c6c565b9050612583565b81805461250490614291565b80601f016020809104026020016040519081016040528092919081815260200182805461253090614291565b801561257b5780601f106125525761010080835404028352916020019161257b565b820191905f5260205f20905b81548152906001019060200180831161255e57829003601f168201915b505050505090505b92915050565b5f65ffffffffffff80168211156125d5576040517f08c379a00000000000000000000000000000000000000000000000000000000081526004016125cc90614eb8565b60405180910390fd5b819050919050565b5f6125ef6125e9611efa565b83612cde565b9050919050565b5f805f61260587878787612d1e565b9150915061261281612df6565b8192505050949350505050565b5f8060075f8473ffffffffffffffffffffffffffffffffffffffff1673ffffffffffffffffffffffffffffffffffffffff1681526020019081526020015f2090506126698161246e565b915061267481612f5b565b50919050565b61268e672f5ad4669bd321e060c01b611ef7565b612696612229565b6126aa67e7799f75aa74b71b60c01b611ef7565b6126be67fc80a80801390eff60c01b611ef7565b6126d2677ee51835770edb0960c01b611ef7565b6126e667d598313a3f39905e60c01b611ef7565b6126f1838383612f6f565b505050565b61270a673fcd046526a50e6b60c01b611ef7565b61271e67d352e7a2ac74bdd060c01b611ef7565b61273267cfeac663810cc1d760c01b611ef7565b61273d838383612f74565b505050565b61274c82826111e0565b6127c25761275981612f9f565b612766835f1c6020612fcc565b604051602001612777929190614fa4565b6040516020818303038152906040526040517f08c379a00000000000000000000000000000000000000000000000000000000081526004016127b99190613b27565b60405180910390fd5b5050565b5f7f8b73c3c69bb8fe3d512ecc4cf759cc79239f7b179b0ffacaa9a75d522b39400f7f00000000000000000000000000000000000000000000000000000000000000007f00000000000000000000000000000000000000000000000000000000000000004630604051602001612840959493929190614fdd565b60405160208183030381529060405280519060200120905090565b5f80820361286b575f905061294c565b5f600161287784613201565b901c6001901b905060018184816128915761289061502e565b5b048201901c905060018184816128aa576128a961502e565b5b048201901c905060018184816128c3576128c261502e565b5b048201901c905060018184816128dc576128db61502e565b5b048201901c905060018184816128f5576128f461502e565b5b048201901c9050600181848161290e5761290d61502e565b5b048201901c905060018184816129275761292661502e565b5b048201901c9050612948818285816129425761294161502e565b5b046132d8565b9150505b919050565b5f825f528160205f2001905092915050565b5f6002828418612973919061505b565b8284166129809190614536565b905092915050565b612990610ece565b6129cf576040517f08c379a00000000000000000000000000000000000000000000000000000000081526004016129c6906150d5565b60405180910390fd5b565b6129db82826132f0565b6129e361343e565b7bffffffffffffffffffffffffffffffffffffffffffffffffffffffff16612a0961094c565b1115612a4a576040517f08c379a0000000000000000000000000000000000000000000000000000000008152600401612a4190615163565b60405180910390fd5b612a58600b6118b483613461565b50505050565b612a68828261372a565b612a76600b6118c983613461565b50505050565b8173ffffffffffffffffffffffffffffffffffffffff168373ffffffffffffffffffffffffffffffffffffffff1614158015612ab757505f81115b15612c67575f73ffffffffffffffffffffffffffffffffffffffff168373ffffffffffffffffffffffffffffffffffffffff1614612b91575f80612b3a600a5f8773ffffffffffffffffffffffffffffffffffffffff1673ffffffffffffffffffffffffffffffffffffffff1681526020019081526020015f206118c985613461565b915091508473ffffffffffffffffffffffffffffffffffffffff167fdec2bacdd2f05b59de34da9b523dff8be42e5e38e818c82fdb0bae774387a7248383604051612b86929190615181565b60405180910390a250505b5f73ffffffffffffffffffffffffffffffffffffffff168273ffffffffffffffffffffffffffffffffffffffff1614612c66575f80612c0f600a5f8673ffffffffffffffffffffffffffffffffffffffff1673ffffffffffffffffffffffffffffffffffffffff1681526020019081526020015f206118b485613461565b915091508373ffffffffffffffffffffffffffffffffffffffff167fdec2bacdd2f05b59de34da9b523dff8be42e5e38e818c82fdb0bae774387a7248383604051612c5b929190615181565b60405180910390a250505b5b505050565b60605f612c78836138ed565b90505f602067ffffffffffffffff811115612c9657612c956146c7565b5b6040519080825280601f01601f191660200182016040528015612cc85781602001600182028036833780820191505090505b5090508181528360208201528092505050919050565b5f6040517f190100000000000000000000000000000000000000000000000000000000000081528360028201528260228201526042812091505092915050565b5f807f7fffffffffffffffffffffffffffffff5d576e7357a4501ddfe92f46681b20a0835f1c1115612d56575f600391509150612ded565b5f6001878787876040515f8152602001604052604051612d7994939291906151a8565b6020604051602081039080840390855afa158015612d99573d5f803e3d5ffd5b5050506020604051035190505f73ffffffffffffffffffffffffffffffffffffffff168173ffffffffffffffffffffffffffffffffffffffff1603612de5575f60019250925050612ded565b805f92509250505b94509492505050565b5f6004811115612e0957612e086151eb565b5b816004811115612e1c57612e1b6151eb565b5b0315612f585760016004811115612e3657612e356151eb565b5b816004811115612e4957612e486151eb565b5b03612e89576040517f08c379a0000000000000000000000000000000000000000000000000000000008152600401612e8090615262565b60405180910390fd5b60026004811115612e9d57612e9c6151eb565b5b816004811115612eb057612eaf6151eb565b5b03612ef0576040517f08c379a0000000000000000000000000000000000000000000000000000000008152600401612ee7906152ca565b60405180910390fd5b60036004811115612f0457612f036151eb565b5b816004811115612f1757612f166151eb565b5b03612f57576040517f08c379a0000000000000000000000000000000000000000000000000000000008152600401612f4e90615358565b60405180910390fd5b5b50565b6001815f015f828254019250508190555050565b505050565b612f7f83838361393b565b612f9a612f8b84610e55565b612f9484610e55565b83612a7c565b505050565b6060612fc58273ffffffffffffffffffffffffffffffffffffffff16601460ff16612fcc565b9050919050565b60605f6002836002612fde9190614467565b612fe89190614536565b67ffffffffffffffff811115613001576130006146c7565b5b6040519080825280601f01601f1916602001820160405280156130335781602001600182028036833780820191505090505b5090507f3000000000000000000000000000000000000000000000000000000000000000815f8151811061306a576130696146f4565b5b60200101907effffffffffffffffffffffffffffffffffffffffffffffffffffffffffffff191690815f1a9053507f7800000000000000000000000000000000000000000000000000000000000000816001815181106130cd576130cc6146f4565b5b60200101907effffffffffffffffffffffffffffffffffffffffffffffffffffffffffffff191690815f1a9053505f600184600261310b9190614467565b6131159190614536565b90505b60018111156131b4577f3031323334353637383961626364656600000000000000000000000000000000600f861660108110613157576131566146f4565b5b1a60f81b82828151811061316e5761316d6146f4565b5b60200101907effffffffffffffffffffffffffffffffffffffffffffffffffffffffffffff191690815f1a905350600485901c9450806131ad90615376565b9050613118565b505f84146131f7576040517f08c379a00000000000000000000000000000000000000000000000000000000081526004016131ee906153e7565b60405180910390fd5b8091505092915050565b5f805f90505f608084901c111561322057608083901c92506080810190505b5f604084901c111561323a57604083901c92506040810190505b5f602084901c111561325457602083901c92506020810190505b5f601084901c111561326e57601083901c92506010810190505b5f600884901c111561328857600883901c92506008810190505b5f600484901c11156132a257600483901c92506004810190505b5f600284901c11156132bc57600283901c92506002810190505b5f600184901c11156132cf576001810190505b80915050919050565b5f8183106132e657816132e8565b825b905092915050565b5f73ffffffffffffffffffffffffffffffffffffffff168273ffffffffffffffffffffffffffffffffffffffff160361335e576040517f08c379a00000000000000000000000000000000000000000000000000000000081526004016133559061544f565b60405180910390fd5b6133695f838361267a565b8060025f82825461337a9190614536565b92505081905550805f808473ffffffffffffffffffffffffffffffffffffffff1673ffffffffffffffffffffffffffffffffffffffff1681526020019081526020015f205f82825401925050819055508173ffffffffffffffffffffffffffffffffffffffff165f73ffffffffffffffffffffffffffffffffffffffff167fddf252ad1be2c89b69c2b068fc378daa952ba7f163c4a11628f55a4df523b3ef836040516134279190613c21565b60405180910390a361343a5f83836126f6565b5050565b5f7bffffffffffffffffffffffffffffffffffffffffffffffffffffffff905090565b5f805f858054905090505f808214613521576134808760018403612951565b6040518060400160405290815f82015f9054906101000a900463ffffffff1663ffffffff1663ffffffff1681526020015f820160049054906101000a90047bffffffffffffffffffffffffffffffffffffffffffffffffffffffff167bffffffffffffffffffffffffffffffffffffffffffffffffffffffff167bffffffffffffffffffffffffffffffffffffffffffffffffffffffff168152505061355b565b60405180604001604052805f63ffffffff1681526020015f7bffffffffffffffffffffffffffffffffffffffffffffffffffffffff168152505b905080602001517bffffffffffffffffffffffffffffffffffffffffffffffffffffffff16935061359084868863ffffffff16565b92505f821180156135b857506135a4611244565b65ffffffffffff16815f015163ffffffff16145b15613628576135c683613940565b6135d38860018503612951565b5f0160046101000a8154817bffffffffffffffffffffffffffffffffffffffffffffffffffffffff02191690837bffffffffffffffffffffffffffffffffffffffffffffffffffffffff160217905550613720565b86604051806040016040528061364c61363f611244565b65ffffffffffff1661241c565b63ffffffff16815260200161366086613940565b7bffffffffffffffffffffffffffffffffffffffffffffffffffffffff16815250908060018154018082558091505060019003905f5260205f20015f909190919091505f820151815f015f6101000a81548163ffffffff021916908363ffffffff1602179055506020820151815f0160046101000a8154817bffffffffffffffffffffffffffffffffffffffffffffffffffffffff02191690837bffffffffffffffffffffffffffffffffffffffffffffffffffffffff16021790555050505b5050935093915050565b5f73ffffffffffffffffffffffffffffffffffffffff168273ffffffffffffffffffffffffffffffffffffffff1603613798576040517f08c379a000000000000000000000000000000000000000000000000000000000815260040161378f906154dd565b60405180910390fd5b6137a3825f8361267a565b5f805f8473ffffffffffffffffffffffffffffffffffffffff1673ffffffffffffffffffffffffffffffffffffffff1681526020019081526020015f2054905081811015613826576040517f08c379a000000000000000000000000000000000000000000000000000000000815260040161381d9061556b565b60405180910390fd5b8181035f808573ffffffffffffffffffffffffffffffffffffffff1673ffffffffffffffffffffffffffffffffffffffff1681526020019081526020015f20819055508160025f82825403925050819055505f73ffffffffffffffffffffffffffffffffffffffff168373ffffffffffffffffffffffffffffffffffffffff167fddf252ad1be2c89b69c2b068fc378daa952ba7f163c4a11628f55a4df523b3ef846040516138d59190613c21565b60405180910390a36138e8835f846126f6565b505050565b5f8060ff835f1c169050601f811115613932576040517fb3512b0c00000000000000000000000000000000000000000000000000000000815260040160405180910390fd5b80915050919050565b505050565b5f7bffffffffffffffffffffffffffffffffffffffffffffffffffffffff80168211156139a2576040517f08c379a0000000000000000000000000000000000000000000000000000000008152600401613999906155f9565b60405180910390fd5b819050919050565b60405180604001604052805f63ffffffff1681526020015f7bffffffffffffffffffffffffffffffffffffffffffffffffffffffff1681525090565b5f80fd5b5f7fffffffff0000000000000000000000000000000000000000000000000000000082169050919050565b613a1e816139ea565b8114613a28575f80fd5b50565b5f81359050613a3981613a15565b92915050565b5f60208284031215613a5457613a536139e6565b5b5f613a6184828501613a2b565b91505092915050565b5f8115159050919050565b613a7e81613a6a565b82525050565b5f602082019050613a975f830184613a75565b92915050565b5f81519050919050565b5f82825260208201905092915050565b5f5b83811015613ad4578082015181840152602081019050613ab9565b5f8484015250505050565b5f601f19601f8301169050919050565b5f613af982613a9d565b613b038185613aa7565b9350613b13818560208601613ab7565b613b1c81613adf565b840191505092915050565b5f6020820190508181035f830152613b3f8184613aef565b905092915050565b5f73ffffffffffffffffffffffffffffffffffffffff82169050919050565b5f613b7082613b47565b9050919050565b613b8081613b66565b8114613b8a575f80fd5b50565b5f81359050613b9b81613b77565b92915050565b5f819050919050565b613bb381613ba1565b8114613bbd575f80fd5b50565b5f81359050613bce81613baa565b92915050565b5f8060408385031215613bea57613be96139e6565b5b5f613bf785828601613b8d565b9250506020613c0885828601613bc0565b9150509250929050565b613c1b81613ba1565b82525050565b5f602082019050613c345f830184613c12565b92915050565b5f805f60608486031215613c5157613c506139e6565b5b5f613c5e86828701613b8d565b9350506020613c6f86828701613b8d565b9250506040613c8086828701613bc0565b9150509250925092565b5f819050919050565b613c9c81613c8a565b8114613ca6575f80fd5b50565b5f81359050613cb781613c93565b92915050565b5f60208284031215613cd257613cd16139e6565b5b5f613cdf84828501613ca9565b91505092915050565b613cf181613c8a565b82525050565b5f602082019050613d0a5f830184613ce8565b92915050565b5f8060408385031215613d2657613d256139e6565b5b5f613d3385828601613ca9565b9250506020613d4485828601613b8d565b9150509250929050565b5f60ff82169050919050565b613d6381613d4e565b82525050565b5f602082019050613d7c5f830184613d5a565b92915050565b5f60208284031215613d9757613d966139e6565b5b5f613da484828501613bc0565b91505092915050565b5f60208284031215613dc257613dc16139e6565b5b5f613dcf84828501613b8d565b91505092915050565b613de181613b66565b82525050565b5f602082019050613dfa5f830184613dd8565b92915050565b5f63ffffffff82169050919050565b613e1881613e00565b82525050565b5f602082019050613e315f830184613e0f565b92915050565b5f7fff0000000000000000000000000000000000000000000000000000000000000082169050919050565b613e6b81613e37565b82525050565b5f81519050919050565b5f82825260208201905092915050565b5f819050602082019050919050565b613ea381613ba1565b82525050565b5f613eb48383613e9a565b60208301905092915050565b5f602082019050919050565b5f613ed682613e71565b613ee08185613e7b565b9350613eeb83613e8b565b805f5b83811015613f1b578151613f028882613ea9565b9750613f0d83613ec0565b925050600181019050613eee565b5085935050505092915050565b5f60e082019050613f3b5f83018a613e62565b8181036020830152613f4d8189613aef565b90508181036040830152613f618188613aef565b9050613f706060830187613c12565b613f7d6080830186613dd8565b613f8a60a0830185613ce8565b81810360c0830152613f9c8184613ecc565b905098975050505050505050565b5f65ffffffffffff82169050919050565b613fc481613faa565b82525050565b5f602082019050613fdd5f830184613fbb565b92915050565b613fec81613d4e565b8114613ff6575f80fd5b50565b5f8135905061400781613fe3565b92915050565b5f805f805f8060c08789031215614027576140266139e6565b5b5f61403489828a01613b8d565b965050602061404589828a01613bc0565b955050604061405689828a01613bc0565b945050606061406789828a01613ff9565b935050608061407889828a01613ca9565b92505060a061408989828a01613ca9565b9150509295509295509295565b5f805f805f805f60e0888a0312156140b1576140b06139e6565b5b5f6140be8a828b01613b8d565b97505060206140cf8a828b01613b8d565b96505060406140e08a828b01613bc0565b95505060606140f18a828b01613bc0565b94505060806141028a828b01613ff9565b93505060a06141138a828b01613ca9565b92505060c06141248a828b01613ca9565b91505092959891949750929550565b5f8060408385031215614149576141486139e6565b5b5f61415685828601613b8d565b925050602061416785828601613b8d565b9150509250929050565b61417a81613e00565b8114614184575f80fd5b50565b5f8135905061419581614171565b92915050565b5f80604083850312156141b1576141b06139e6565b5b5f6141be85828601613b8d565b92505060206141cf85828601614187565b9150509250929050565b6141e281613e00565b82525050565b5f7bffffffffffffffffffffffffffffffffffffffffffffffffffffffff82169050919050565b614218816141e8565b82525050565b604082015f8201516142325f8501826141d9565b506020820151614245602085018261420f565b50505050565b5f60408201905061425e5f83018461421e565b92915050565b7f4e487b71000000000000000000000000000000000000000000000000000000005f52602260045260245ffd5b5f60028204905060018216806142a857607f821691505b6020821081036142bb576142ba614264565b5b50919050565b7f4e487b71000000000000000000000000000000000000000000000000000000005f52601160045260245ffd5b5f8160011c9050919050565b5f808291508390505b60018511156143435780860481111561431f5761431e6142c1565b5b600185161561432e5780820291505b808102905061433c856142ee565b9450614303565b94509492505050565b5f8261435b5760019050614416565b81614368575f9050614416565b816001811461437e5760028114614388576143b7565b6001915050614416565b60ff84111561439a576143996142c1565b5b8360020a9150848211156143b1576143b06142c1565b5b50614416565b5060208310610133831016604e8410600b84101617156143ec5782820a9050838111156143e7576143e66142c1565b5b614416565b6143f984848460016142fa565b925090508184048111156144105761440f6142c1565b5b81810290505b9392505050565b5f61442782613ba1565b915061443283613ba1565b925061445f7fffffffffffffffffffffffffffffffffffffffffffffffffffffffffffffffff848461434c565b905092915050565b5f61447182613ba1565b915061447c83613ba1565b925082820261448a81613ba1565b915082820484148315176144a1576144a06142c1565b5b5092915050565b7f416363657373436f6e74726f6c3a2063616e206f6e6c792072656e6f756e63655f8201527f20726f6c657320666f722073656c660000000000000000000000000000000000602082015250565b5f614502602f83613aa7565b915061450d826144a8565b604082019050919050565b5f6020820190508181035f83015261452f816144f6565b9050919050565b5f61454082613ba1565b915061454b83613ba1565b9250828201905080821115614563576145626142c1565b5b92915050565b7f4552433230566f7465733a20667574757265206c6f6f6b7570000000000000005f82015250565b5f61459d601983613aa7565b91506145a882614569565b602082019050919050565b5f6020820190508181035f8301526145ca81614591565b9050919050565b7f546f6b656e20746f206265206d696e7465642073686f756c64206e6f742065785f8201527f63656564204d617820737570706c790000000000000000000000000000000000602082015250565b5f61462b602f83613aa7565b9150614636826145d1565b604082019050919050565b5f6020820190508181035f8301526146588161461f565b9050919050565b7f4552433230566f7465733a2062726f6b656e20636c6f636b206d6f64650000005f82015250565b5f614693601d83613aa7565b915061469e8261465f565b602082019050919050565b5f6020820190508181035f8301526146c081614687565b9050919050565b7f4e487b71000000000000000000000000000000000000000000000000000000005f52604160045260245ffd5b7f4e487b71000000000000000000000000000000000000000000000000000000005f52603260045260245ffd5b7f45524332303a2064656372656173656420616c6c6f77616e63652062656c6f775f8201527f207a65726f000000000000000000000000000000000000000000000000000000602082015250565b5f61477b602583613aa7565b915061478682614721565b604082019050919050565b5f6020820190508181035f8301526147a88161476f565b9050919050565b7f4552433230566f7465733a207369676e617475726520657870697265640000005f82015250565b5f6147e3601d83613aa7565b91506147ee826147af565b602082019050919050565b5f6020820190508181035f830152614810816147d7565b9050919050565b5f60808201905061482a5f830187613ce8565b6148376020830186613dd8565b6148446040830185613c12565b6148516060830184613c12565b95945050505050565b7f4552433230566f7465733a20696e76616c6964206e6f6e6365000000000000005f82015250565b5f61488e601983613aa7565b91506148998261485a565b602082019050919050565b5f6020820190508181035f8301526148bb81614882565b9050919050565b7f45524332305065726d69743a206578706972656420646561646c696e650000005f82015250565b5f6148f6601d83613aa7565b9150614901826148c2565b602082019050919050565b5f6020820190508181035f830152614923816148ea565b9050919050565b5f60c08201905061493d5f830189613ce8565b61494a6020830188613dd8565b6149576040830187613dd8565b6149646060830186613c12565b6149716080830185613c12565b61497e60a0830184613c12565b979650505050505050565b7f45524332305065726d69743a20696e76616c6964207369676e617475726500005f82015250565b5f6149bd601e83613aa7565b91506149c882614989565b602082019050919050565b5f6020820190508181035f8301526149ea816149b1565b9050919050565b5f6149fb82613ba1565b9150614a0683613ba1565b9250828203905081811115614a1e57614a1d6142c1565b5b92915050565b7f45524332303a20617070726f76652066726f6d20746865207a65726f206164645f8201527f7265737300000000000000000000000000000000000000000000000000000000602082015250565b5f614a7e602483613aa7565b9150614a8982614a24565b604082019050919050565b5f6020820190508181035f830152614aab81614a72565b9050919050565b7f45524332303a20617070726f766520746f20746865207a65726f2061646472655f8201527f7373000000000000000000000000000000000000000000000000000000000000602082015250565b5f614b0c602283613aa7565b9150614b1782614ab2565b604082019050919050565b5f6020820190508181035f830152614b3981614b00565b9050919050565b7f45524332303a20696e73756666696369656e7420616c6c6f77616e63650000005f82015250565b5f614b74601d83613aa7565b9150614b7f82614b40565b602082019050919050565b5f6020820190508181035f830152614ba181614b68565b9050919050565b7f45524332303a207472616e736665722066726f6d20746865207a65726f2061645f8201527f6472657373000000000000000000000000000000000000000000000000000000602082015250565b5f614c02602583613aa7565b9150614c0d82614ba8565b604082019050919050565b5f6020820190508181035f830152614c2f81614bf6565b9050919050565b7f45524332303a207472616e7366657220746f20746865207a65726f20616464725f8201527f6573730000000000000000000000000000000000000000000000000000000000602082015250565b5f614c90602383613aa7565b9150614c9b82614c36565b604082019050919050565b5f6020820190508181035f830152614cbd81614c84565b9050919050565b7f45524332303a207472616e7366657220616d6f756e74206578636565647320625f8201527f616c616e63650000000000000000000000000000000000000000000000000000602082015250565b5f614d1e602683613aa7565b9150614d2982614cc4565b604082019050919050565b5f6020820190508181035f830152614d4b81614d12565b9050919050565b7f5061757361626c653a20706175736564000000000000000000000000000000005f82015250565b5f614d86601083613aa7565b9150614d9182614d52565b602082019050919050565b5f6020820190508181035f830152614db381614d7a565b9050919050565b7f53616665436173743a2076616c756520646f65736e27742066697420696e20335f8201527f3220626974730000000000000000000000000000000000000000000000000000602082015250565b5f614e14602683613aa7565b9150614e1f82614dba565b604082019050919050565b5f6020820190508181035f830152614e4181614e08565b9050919050565b7f53616665436173743a2076616c756520646f65736e27742066697420696e20345f8201527f3820626974730000000000000000000000000000000000000000000000000000602082015250565b5f614ea2602683613aa7565b9150614ead82614e48565b604082019050919050565b5f6020820190508181035f830152614ecf81614e96565b9050919050565b5f81905092915050565b7f416363657373436f6e74726f6c3a206163636f756e74200000000000000000005f82015250565b5f614f14601783614ed6565b9150614f1f82614ee0565b601782019050919050565b5f614f3482613a9d565b614f3e8185614ed6565b9350614f4e818560208601613ab7565b80840191505092915050565b7f206973206d697373696e6720726f6c65200000000000000000000000000000005f82015250565b5f614f8e601183614ed6565b9150614f9982614f5a565b601182019050919050565b5f614fae82614f08565b9150614fba8285614f2a565b9150614fc582614f82565b9150614fd18284614f2a565b91508190509392505050565b5f60a082019050614ff05f830188613ce8565b614ffd6020830187613ce8565b61500a6040830186613ce8565b6150176060830185613c12565b6150246080830184613dd8565b9695505050505050565b7f4e487b71000000000000000000000000000000000000000000000000000000005f52601260045260245ffd5b5f61506582613ba1565b915061507083613ba1565b9250826150805761507f61502e565b5b828204905092915050565b7f5061757361626c653a206e6f74207061757365640000000000000000000000005f82015250565b5f6150bf601483613aa7565b91506150ca8261508b565b602082019050919050565b5f6020820190508181035f8301526150ec816150b3565b9050919050565b7f4552433230566f7465733a20746f74616c20737570706c79207269736b73206f5f8201527f766572666c6f77696e6720766f74657300000000000000000000000000000000602082015250565b5f61514d603083613aa7565b9150615158826150f3565b604082019050919050565b5f6020820190508181035f83015261517a81615141565b9050919050565b5f6040820190506151945f830185613c12565b6151a16020830184613c12565b9392505050565b5f6080820190506151bb5f830187613ce8565b6151c86020830186613d5a565b6151d56040830185613ce8565b6151e26060830184613ce8565b95945050505050565b7f4e487b71000000000000000000000000000000000000000000000000000000005f52602160045260245ffd5b7f45434453413a20696e76616c6964207369676e617475726500000000000000005f82015250565b5f61524c601883613aa7565b915061525782615218565b602082019050919050565b5f6020820190508181035f83015261527981615240565b9050919050565b7f45434453413a20696e76616c6964207369676e6174757265206c656e677468005f82015250565b5f6152b4601f83613aa7565b91506152bf82615280565b602082019050919050565b5f6020820190508181035f8301526152e1816152a8565b9050919050565b7f45434453413a20696e76616c6964207369676e6174757265202773272076616c5f8201527f7565000000000000000000000000000000000000000000000000000000000000602082015250565b5f615342602283613aa7565b915061534d826152e8565b604082019050919050565b5f6020820190508181035f83015261536f81615336565b9050919050565b5f61538082613ba1565b91505f8203615392576153916142c1565b5b600182039050919050565b7f537472696e67733a20686578206c656e67746820696e73756666696369656e745f82015250565b5f6153d1602083613aa7565b91506153dc8261539d565b602082019050919050565b5f6020820190508181035f8301526153fe816153c5565b9050919050565b7f45524332303a206d696e7420746f20746865207a65726f2061646472657373005f82015250565b5f615439601f83613aa7565b915061544482615405565b602082019050919050565b5f6020820190508181035f8301526154668161542d565b9050919050565b7f45524332303a206275726e2066726f6d20746865207a65726f206164647265735f8201527f7300000000000000000000000000000000000000000000000000000000000000602082015250565b5f6154c7602183613aa7565b91506154d28261546d565b604082019050919050565b5f6020820190508181035f8301526154f4816154bb565b9050919050565b7f45524332303a206275726e20616d6f756e7420657863656564732062616c616e5f8201527f6365000000000000000000000000000000000000000000000000000000000000602082015250565b5f615555602283613aa7565b9150615560826154fb565b604082019050919050565b5f6020820190508181035f83015261558281615549565b9050919050565b7f53616665436173743a2076616c756520646f65736e27742066697420696e20325f8201527f3234206269747300000000000000000000000000000000000000000000000000602082015250565b5f6155e3602783613aa7565b91506155ee82615589565b604082019050919050565b5f6020820190508181035f830152615610816155d7565b905091905056fea2646970667358221220b5b98b36a6a636e3f1caf8c75c9374fd2aa2caca0d7fdec828bebd2b848f6a9164736f6c63430008140033",
  "linkReferences": {},
  "deployedLinkReferences": {}
}