{"contracts/MindplexUpgradeableToken.sol":{"MindplexUpgradeableToken":{"abi":[{"anonymous":false,"inputs":[{"indexed":true,"internalType":"address","name":"owner","type":"address"},{"indexed":true,"internalType":"address","name":"spender","type":"address"},{"indexed":false,"internalType":"uint256","name":"value","type":"uint256"}],"name":"Approval","type":"event"},{"anonymous":false,"inputs":[{"indexed":true,"internalType":"address","name":"delegator","type":"address"},{"indexed":true,"internalType":"address","name":"fromDelegate","type":"address"},{"indexed":true,"internalType":"address","name":"toDelegate","type":"address"}],"name":"DelegateChanged","type":"event"},{"anonymous":false,"inputs":[{"indexed":true,"internalType":"address","name":"delegate","type":"address"},{"indexed":false,"internalType":"uint256","name":"previousBalance","type":"uint256"},{"indexed":false,"internalType":"uint256","name":"newBalance","type":"uint256"}],"name":"DelegateVotesChanged","type":"event"},{"anonymous":false,"inputs":[],"name":"EIP712DomainChanged","type":"event"},{"anonymous":false,"inputs":[{"indexed":false,"internalType":"uint8","name":"version","type":"uint8"}],"name":"Initialized","type":"event"},{"anonymous":false,"inputs":[{"indexed":false,"internalType":"address","name":"account","type":"address"}],"name":"Paused","type":"event"},{"anonymous":false,"inputs":[{"indexed":true,"internalType":"bytes32","name":"role","type":"bytes32"},{"indexed":true,"internalType":"bytes32","name":"previousAdminRole","type":"bytes32"},{"indexed":true,"internalType":"bytes32","name":"newAdminRole","type":"bytes32"}],"name":"RoleAdminChanged","type":"event"},{"anonymous":false,"inputs":[{"indexed":true,"internalType":"bytes32","name":"role","type":"bytes32"},{"indexed":true,"internalType":"address","name":"account","type":"address"},{"indexed":true,"internalType":"address","name":"sender","type":"address"}],"name":"RoleGranted","type":"event"},{"anonymous":false,"inputs":[{"indexed":true,"internalType":"bytes32","name":"role","type":"bytes32"},{"indexed":true,"internalType":"address","name":"account","type":"address"},{"indexed":true,"internalType":"address","name":"sender","type":"address"}],"name":"RoleRevoked","type":"event"},{"anonymous":false,"inputs":[{"indexed":true,"internalType":"address","name":"from","type":"address"},{"indexed":true,"internalType":"address","name":"to","type":"address"},{"indexed":false,"internalType":"uint256","name":"value","type":"uint256"}],"name":"Transfer","type":"event"},{"anonymous":false,"inputs":[{"indexed":false,"internalType":"address","name":"account","type":"address"}],"name":"Unpaused","type":"event"},{"inputs":[],"name":"CLOCK_MODE","outputs":[{"internalType":"string","name":"","type":"string"}],"stateMutability":"view","type":"function"},{"inputs":[],"name":"DEFAULT_ADMIN_ROLE","outputs":[{"internalType":"bytes32","name":"","type":"bytes32"}],"stateMutability":"view","type":"function"},{"inputs":[],"name":"DOMAIN_SEPARATOR","outputs":[{"internalType":"bytes32","name":"","type":"bytes32"}],"stateMutability":"view","type":"function"},{"inputs":[],"name":"MAX_SUPPLY","outputs":[{"internalType":"uint256","name":"","type":"uint256"}],"stateMutability":"view","type":"function"},{"inputs":[],"name":"MINTER_ROLE","outputs":[{"internalType":"bytes32","name":"","type":"bytes32"}],"stateMutability":"view","type":"function"},{"inputs":[],"name":"PAUSER_ROLE","outputs":[{"internalType":"bytes32","name":"","type":"bytes32"}],"stateMutability":"view","type":"function"},{"inputs":[{"internalType":"address","name":"owner","type":"address"},{"internalType":"address","name":"spender","type":"address"}],"name":"allowance","outputs":[{"internalType":"uint256","name":"","type":"uint256"}],"stateMutability":"view","type":"function"},{"inputs":[{"internalType":"address","name":"spender","type":"address"},{"internalType":"uint256","name":"amount","type":"uint256"}],"name":"approve","outputs":[{"internalType":"bool","name":"","type":"bool"}],"stateMutability":"nonpayable","type":"function"},{"inputs":[{"internalType":"address","name":"account","type":"address"}],"name":"balanceOf","outputs":[{"internalType":"uint256","name":"","type":"uint256"}],"stateMutability":"view","type":"function"},{"inputs":[{"internalType":"uint256","name":"amount","type":"uint256"}],"name":"burn","outputs":[],"stateMutability":"nonpayable","type":"function"},{"inputs":[{"internalType":"address","name":"account","type":"address"},{"internalType":"uint256","name":"amount","type":"uint256"}],"name":"burnFrom","outputs":[],"stateMutability":"nonpayable","type":"function"},{"inputs":[{"internalType":"address","name":"account","type":"address"},{"internalType":"uint32","name":"pos","type":"uint32"}],"name":"checkpoints","outputs":[{"components":[{"internalType":"uint32","name":"fromBlock","type":"uint32"},{"internalType":"uint224","name":"votes","type":"uint224"}],"internalType":"struct ERC20VotesUpgradeable.Checkpoint","name":"","type":"tuple"}],"stateMutability":"view","type":"function"},{"inputs":[],"name":"clock","outputs":[{"internalType":"uint48","name":"","type":"uint48"}],"stateMutability":"view","type":"function"},{"inputs":[],"name":"decimals","outputs":[{"internalType":"uint8","name":"","type":"uint8"}],"stateMutability":"pure","type":"function"},{"inputs":[{"internalType":"address","name":"spender","type":"address"},{"internalType":"uint256","name":"subtractedValue","type":"uint256"}],"name":"decreaseAllowance","outputs":[{"internalType":"bool","name":"","type":"bool"}],"stateMutability":"nonpayable","type":"function"},{"inputs":[{"internalType":"address","name":"delegatee","type":"address"}],"name":"delegate","outputs":[],"stateMutability":"nonpayable","type":"function"},{"inputs":[{"internalType":"address","name":"delegatee","type":"address"},{"internalType":"uint256","name":"nonce","type":"uint256"},{"internalType":"uint256","name":"expiry","type":"uint256"},{"internalType":"uint8","name":"v","type":"uint8"},{"internalType":"bytes32","name":"r","type":"bytes32"},{"internalType":"bytes32","name":"s","type":"bytes32"}],"name":"delegateBySig","outputs":[],"stateMutability":"nonpayable","type":"function"},{"inputs":[{"internalType":"address","name":"account","type":"address"}],"name":"delegates","outputs":[{"internalType":"address","name":"","type":"address"}],"stateMutability":"view","type":"function"},{"inputs":[],"name":"eip712Domain","outputs":[{"internalType":"bytes1","name":"fields","type":"bytes1"},{"internalType":"string","name":"name","type":"string"},{"internalType":"string","name":"version","type":"string"},{"internalType":"uint256","name":"chainId","type":"uint256"},{"internalType":"address","name":"verifyingContract","type":"address"},{"internalType":"bytes32","name":"salt","type":"bytes32"},{"internalType":"uint256[]","name":"extensions","type":"uint256[]"}],"stateMutability":"view","type":"function"},{"inputs":[{"internalType":"uint256","name":"timepoint","type":"uint256"}],"name":"getPastTotalSupply","outputs":[{"internalType":"uint256","name":"","type":"uint256"}],"stateMutability":"view","type":"function"},{"inputs":[{"internalType":"address","name":"account","type":"address"},{"internalType":"uint256","name":"timepoint","type":"uint256"}],"name":"getPastVotes","outputs":[{"internalType":"uint256","name":"","type":"uint256"}],"stateMutability":"view","type":"function"},{"inputs":[{"internalType":"bytes32","name":"role","type":"bytes32"}],"name":"getRoleAdmin","outputs":[{"internalType":"bytes32","name":"","type":"bytes32"}],"stateMutability":"view","type":"function"},{"inputs":[{"internalType":"address","name":"account","type":"address"}],"name":"getVotes","outputs":[{"internalType":"uint256","name":"","type":"uint256"}],"stateMutability":"view","type":"function"},{"inputs":[{"internalType":"bytes32","name":"role","type":"bytes32"},{"internalType":"address","name":"account","type":"address"}],"name":"grantRole","outputs":[],"stateMutability":"nonpayable","type":"function"},{"inputs":[{"internalType":"bytes32","name":"role","type":"bytes32"},{"internalType":"address","name":"account","type":"address"}],"name":"hasRole","outputs":[{"internalType":"bool","name":"","type":"bool"}],"stateMutability":"view","type":"function"},{"inputs":[{"internalType":"address","name":"spender","type":"address"},{"internalType":"uint256","name":"addedValue","type":"uint256"}],"name":"increaseAllowance","outputs":[{"internalType":"bool","name":"","type":"bool"}],"stateMutability":"nonpayable","type":"function"},{"inputs":[{"internalType":"string","name":"name","type":"string"},{"internalType":"string","name":"symbol","type":"string"}],"name":"initialize","outputs":[],"stateMutability":"nonpayable","type":"function"},{"inputs":[{"internalType":"address","name":"to","type":"address"},{"internalType":"uint256","name":"amount","type":"uint256"}],"name":"mint","outputs":[],"stateMutability":"nonpayable","type":"function"},{"inputs":[],"name":"name","outputs":[{"internalType":"string","name":"","type":"string"}],"stateMutability":"view","type":"function"},{"inputs":[{"internalType":"address","name":"owner","type":"address"}],"name":"nonces","outputs":[{"internalType":"uint256","name":"","type":"uint256"}],"stateMutability":"view","type":"function"},{"inputs":[{"internalType":"address","name":"account","type":"address"}],"name":"numCheckpoints","outputs":[{"internalType":"uint32","name":"","type":"uint32"}],"stateMutability":"view","type":"function"},{"inputs":[],"name":"pause","outputs":[],"stateMutability":"nonpayable","type":"function"},{"inputs":[],"name":"paused","outputs":[{"internalType":"bool","name":"","type":"bool"}],"stateMutability":"view","type":"function"},{"inputs":[{"internalType":"address","name":"owner","type":"address"},{"internalType":"address","name":"spender","type":"address"},{"internalType":"uint256","name":"value","type":"uint256"},{"internalType":"uint256","name":"deadline","type":"uint256"},{"internalType":"uint8","name":"v","type":"uint8"},{"internalType":"bytes32","name":"r","type":"bytes32"},{"internalType":"bytes32","name":"s","type":"bytes32"}],"name":"permit","outputs":[],"stateMutability":"nonpayable","type":"function"},{"inputs":[{"internalType":"bytes32","name":"role","type":"bytes32"},{"internalType":"address","name":"account","type":"address"}],"name":"renounceRole","outputs":[],"stateMutability":"nonpayable","type":"function"},{"inputs":[{"internalType":"bytes32","name":"role","type":"bytes32"},{"internalType":"address","name":"account","type":"address"}],"name":"revokeRole","outputs":[],"stateMutability":"nonpayable","type":"function"},{"inputs":[{"internalType":"bytes4","name":"interfaceId","type":"bytes4"}],"name":"supportsInterface","outputs":[{"internalType":"bool","name":"","type":"bool"}],"stateMutability":"view","type":"function"},{"inputs":[],"name":"symbol","outputs":[{"internalType":"string","name":"","type":"string"}],"stateMutability":"view","type":"function"},{"inputs":[],"name":"totalSupply","outputs":[{"internalType":"uint256","name":"","type":"uint256"}],"stateMutability":"view","type":"function"},{"inputs":[{"internalType":"address","name":"to","type":"address"},{"internalType":"uint256","name":"amount","type":"uint256"}],"name":"transfer","outputs":[{"internalType":"bool","name":"","type":"bool"}],"stateMutability":"nonpayable","type":"function"},{"inputs":[{"internalType":"address","name":"from","type":"address"},{"internalType":"address","name":"to","type":"address"},{"internalType":"uint256","name":"amount","type":"uint256"}],"name":"transferFrom","outputs":[{"internalType":"bool","name":"","type":"bool"}],"stateMutability":"nonpayable","type":"function"},{"inputs":[],"name":"unpause","outputs":[],"stateMutability":"nonpayable","type":"function"}],"evm":{"bytecode":{"linkReferences":{},"object":"608060405234801561000f575f80fd5b5061645e806200001e5f395ff3fe608060405234801561000f575f80fd5b506004361061025c575f3560e01c80636fcfff45116101445780639ab24eb0116100c1578063d505accf11610085578063d505accf14610774578063d539139314610790578063d547741f146107ae578063dd62ed3e146107ca578063e63ab1e9146107fa578063f1127ed8146108185761025c565b80639ab24eb0146106aa578063a217fddf146106da578063a457c2d7146106f8578063a9059cbb14610728578063c3cda520146107585761025c565b806384b0196e1161010857806384b0196e146105ea5780638e539e8c1461060e57806391d148541461063e57806391ddadf41461066e57806395d89b411461068c5761025c565b80636fcfff451461053457806370a082311461056457806379cc6790146105945780637ecebe00146105b05780638456cb59146105e05761025c565b806336568abe116101dd57806342966c68116101a157806342966c68146104745780634bf5d7e9146104905780634cd88b76146104ae578063587cde1e146104ca5780635c19a95c146104fa5780635c975abb146105165761025c565b806336568abe146103d257806339509351146103ee5780633a46b1a81461041e5780633f4ba83a1461044e57806340c10f19146104585761025c565b8063248a9ca311610224578063248a9ca31461032c5780632f2ff15d1461035c578063313ce5671461037857806332cb6b0c146103965780633644e515146103b45761025c565b806301ffc9a71461026057806306fdde0314610290578063095ea7b3146102ae57806318160ddd146102de57806323b872dd146102fc575b5f80fd5b61027a6004803603810190610275919061420b565b610848565b6040516102879190614250565b60405180910390f35b6102986108c1565b6040516102a591906142f3565b60405180910390f35b6102c860048036038101906102c391906143a0565b610951565b6040516102d59190614250565b60405180910390f35b6102e6610973565b6040516102f391906143ed565b60405180910390f35b61031660048036038101906103119190614406565b61097c565b6040516103239190614250565b60405180910390f35b61034660048036038101906103419190614489565b6109aa565b60405161035391906144c3565b60405180910390f35b610376600480360381019061037191906144dc565b6109c7565b005b6103806109e8565b60405161038d9190614535565b60405180910390f35b61039e610a2c565b6040516103ab91906143ed565b60405180910390f35b6103bc610a4c565b6040516103c991906144c3565b60405180910390f35b6103ec60048036038101906103e791906144dc565b610a5a565b005b610408600480360381019061040391906143a0565b610add565b6040516104159190614250565b60405180910390f35b610438600480360381019061043391906143a0565b610b13565b60405161044591906143ed565b60405180910390f35b610456610bb4565b005b610472600480360381019061046d91906143a0565b610c4d565b005b61048e6004803603810190610489919061454e565b610dab565b005b610498610dfb565b6040516104a591906142f3565b60405180910390f35b6104c860048036038101906104c391906146a5565b610e89565b005b6104e460048036038101906104df919061471b565b6111fc565b6040516104f19190614755565b60405180910390f35b610514600480360381019061050f919061471b565b611262565b005b61051e611276565b60405161052b9190614250565b60405180910390f35b61054e6004803603810190610549919061471b565b61128c565b60405161055b919061478c565b60405180910390f35b61057e6004803603810190610579919061471b565b6112de565b60405161058b91906143ed565b60405180910390f35b6105ae60048036038101906105a991906143a0565b611324565b005b6105ca60048036038101906105c5919061471b565b61148e565b6040516105d791906143ed565b60405180910390f35b6105e86114db565b005b6105f2611573565b6040516106059796959493929190614896565b60405180910390f35b6106286004803603810190610623919061454e565b61166d565b60405161063591906143ed565b60405180910390f35b610658600480360381019061065391906144dc565b6116d2565b6040516106659190614250565b60405180910390f35b610676611736565b6040516106839190614938565b60405180910390f35b610694611745565b6040516106a191906142f3565b60405180910390f35b6106c460048036038101906106bf919061471b565b6117d5565b6040516106d191906143ed565b60405180910390f35b6106e26118d5565b6040516106ef91906144c3565b60405180910390f35b610712600480360381019061070d91906143a0565b6118db565b60405161071f9190614250565b60405180910390f35b610742600480360381019061073d91906143a0565b611950565b60405161074f9190614250565b60405180910390f35b610772600480360381019061076d919061497b565b611972565b005b61078e60048036038101906107899190614a04565b611a75565b005b610798611bb4565b6040516107a591906144c3565b60405180910390f35b6107c860048036038101906107c391906144dc565b611bd8565b005b6107e460048036038101906107df9190614aa1565b611bf9565b6040516107f191906143ed565b60405180910390f35b610802611c7b565b60405161080f91906144c3565b60405180910390f35b610832600480360381019061082d9190614b09565b611c9f565b60405161083f9190614bb9565b60405180910390f35b5f7f7965db0b000000000000000000000000000000000000000000000000000000007bffffffffffffffffffffffffffffffffffffffffffffffffffffffff1916827bffffffffffffffffffffffffffffffffffffffffffffffffffffffff191614806108ba57506108b982611da9565b5b9050919050565b6060609a80546108d090614bff565b80601f01602080910402602001604051908101604052809291908181526020018280546108fc90614bff565b80156109475780601f1061091e57610100808354040283529160200191610947565b820191905f5260205f20905b81548152906001019060200180831161092a57829003601f168201915b5050505050905090565b5f8061095b611e12565b9050610968818585611e19565b600191505092915050565b5f609954905090565b5f80610986611e12565b9050610993858285611fdc565b61099e858585612067565b60019150509392505050565b5f60655f8381526020019081526020015f20600101549050919050565b6109d0826109aa565b6109d9816122d6565b6109e383836122ea565b505050565b5f6109fd676ceffb00f5b8f42460c01b6123c5565b610a11676f181a4c156b28df60c01b6123c5565b610a25672fd4b306738ce29960c01b6123c5565b6006905090565b6006600a610a3a9190614d8b565b633b9aca00610a499190614dd5565b81565b5f610a556123c8565b905090565b610a62611e12565b73ffffffffffffffffffffffffffffffffffffffff168173ffffffffffffffffffffffffffffffffffffffff1614610acf576040517f08c379a0000000000000000000000000000000000000000000000000000000008152600401610ac690614e86565b60405180910390fd5b610ad982826123d6565b5050565b5f80610ae7611e12565b9050610b08818585610af98589611bf9565b610b039190614ea4565b611e19565b600191505092915050565b5f610b1c611736565b65ffffffffffff168210610b65576040517f08c379a0000000000000000000000000000000000000000000000000000000008152600401610b5c90614f21565b60405180910390fd5b610bac6101315f8573ffffffffffffffffffffffffffffffffffffffff1673ffffffffffffffffffffffffffffffffffffffff1681526020019081526020015f20836124b1565b905092915050565b610bc867609999f02b3d32d560c01b6123c5565b7f65d7a28e3265b37a6474929f336521b332c1681b933f6cb9f3376673440d862a610bf2816122d6565b610c0667abe91030000d1ac060c01b6123c5565b610c1a67c59fe76821dd927a60c01b6123c5565b610c2e67bc1dee6fafac93db60c01b6123c5565b610c4267159893534c8de7e060c01b6123c5565b610c4a6125ee565b50565b610c61677e144a1024e2676860c01b6123c5565b7f9f2df0fed2c77648de5860a4cc508cd0818c85b8b8a1ab4ceeef8d981c8956a6610c8b816122d6565b610c9f67e002f4a7f1138ae860c01b6123c5565b610cb367633c34d81d9c2e7a60c01b6123c5565b610cc767c5f2d1228bc0d60d60c01b6123c5565b610cdb67ef978fb6da0fd80560c01b6123c5565b610cef674fdafa4b0cddd4d360c01b6123c5565b6006600a610cfd9190614d8b565b633b9aca00610d0c9190614dd5565b82610d15610973565b610d1f9190614ea4565b1115610d60576040517f08c379a0000000000000000000000000000000000000000000000000000000008152600401610d5790614faf565b60405180910390fd5b610d7467d53c72cad467e7ba60c01b6123c5565b610d8867344ed792e6fd2a1460c01b6123c5565b610d9c67690192438dc8036160c01b6123c5565b610da68383612650565b505050565b610dbf6777e3700c135e6c4e60c01b6123c5565b610dd367dabd11cca3d2544d60c01b6123c5565b610de767c7f8ab0a5c0665d460c01b6123c5565b610df8610df2611e12565b8261269a565b50565b606043610e06611736565b65ffffffffffff1614610e4e576040517f08c379a0000000000000000000000000000000000000000000000000000000008152600401610e4590615017565b60405180910390fd5b6040518060400160405280601d81526020017f6d6f64653d626c6f636b6e756d6265722666726f6d3d64656661756c74000000815250905090565b610e9d677d1353b017bd2acb60c01b6123c5565b5f8060019054906101000a900460ff16159050808015610ecc575060015f8054906101000a900460ff1660ff16105b80610ef85750610edb306126e4565b158015610ef7575060015f8054906101000a900460ff1660ff16145b5b610f37576040517f08c379a0000000000000000000000000000000000000000000000000000000008152600401610f2e906150a5565b60405180910390fd5b60015f806101000a81548160ff021916908360ff1602179055508015610f725760015f60016101000a81548160ff0219169083151502179055505b610f8667807a5faab267db3e60c01b6123c5565b610f9a671b87ec61cb2af8fd60c01b6123c5565b610fae6775fb0fffe85d5ba060c01b6123c5565b610fc2676e9287142fa2bf5d60c01b6123c5565b610fcc8383612706565b610fe0675362e89620d126dd60c01b6123c5565b610ff467dc3081c3b05d8e2860c01b6123c5565b610ffd83612762565b61101167535585d7b1c7d4bc60c01b6123c5565b611025674b157aa2e3b72fba60c01b6123c5565b61102d6127f2565b611041670e7a7141161bee4260c01b6123c5565b6110556754aeeb5a2d5cc81460c01b6123c5565b61105d61284a565b61107167c7ef261c6b52e84060c01b6123c5565b61108567ed8bf8d8aa09f5a860c01b6123c5565b6110985f801b611093611e12565b6122ea565b6110ac679fef610354934c3660c01b6123c5565b6110c0675642366cad1df8b960c01b6123c5565b6110f17f65d7a28e3265b37a6474929f336521b332c1681b933f6cb9f3376673440d862a6110ec611e12565b6122ea565b61110567631d5a374bcef4dc60c01b6123c5565b611119672508c509e3bc1ea660c01b6123c5565b61114a7f9f2df0fed2c77648de5860a4cc508cd0818c85b8b8a1ab4ceeef8d981c8956a6611145611e12565b6122ea565b61115e67b2e403d7374d65aa60c01b6123c5565b61117267130d054c74f7230f60c01b6123c5565b61119f61117d611e12565b6006600a61118b9190614d8b565b633b9aca0061119a9190614dd5565b612650565b80156111f7575f8060016101000a81548160ff0219169083151502179055507f7f26b83ff96e1f2b6a682f133852f6798a09c465da95921460cefb384740249860016040516111ee9190615105565b60405180910390a15b505050565b5f6101305f8373ffffffffffffffffffffffffffffffffffffffff1673ffffffffffffffffffffffffffffffffffffffff1681526020019081526020015f205f9054906101000a900473ffffffffffffffffffffffffffffffffffffffff169050919050565b61127361126d611e12565b8261289a565b50565b5f6101625f9054906101000a900460ff16905090565b5f6112d76101315f8473ffffffffffffffffffffffffffffffffffffffff1673ffffffffffffffffffffffffffffffffffffffff1681526020019081526020015f20805490506129b0565b9050919050565b5f60975f8373ffffffffffffffffffffffffffffffffffffffff1673ffffffffffffffffffffffffffffffffffffffff1681526020019081526020015f20549050919050565b61133867607442f905452daa60c01b6123c5565b61134c671395f68543aa27f460c01b6123c5565b611360670827047d6b13681e60c01b6123c5565b5f6113728361136d611e12565b611bf9565b90506113886744f3479ec179ef0560c01b6123c5565b61139c67bc481ed37c3138b060c01b6123c5565b6113b067486fc6494b6c978860c01b6123c5565b818110156113f3576040517f08c379a00000000000000000000000000000000000000000000000000000000081526004016113ea9061518e565b60405180910390fd5b611407678e6de9144bd4ddf760c01b6123c5565b61141b676e67c260954339a060c01b6123c5565b61142f672e7c51116fbfe06f60c01b6123c5565b611443672fa744005f173f6360c01b6123c5565b6114578361144f611e12565b848403611e19565b61146b671af6ea53ee18c33f60c01b6123c5565b61147f6779063f61dd07465460c01b6123c5565b611489838361269a565b505050565b5f6114d460fd5f8473ffffffffffffffffffffffffffffffffffffffff1673ffffffffffffffffffffffffffffffffffffffff1681526020019081526020015f20612a02565b9050919050565b6114ef67ebb165517487136f60c01b6123c5565b7f65d7a28e3265b37a6474929f336521b332c1681b933f6cb9f3376673440d862a611519816122d6565b61152c668adad4de1c304a60c01b6123c5565b611540675f719cafd3ed6c9360c01b6123c5565b611554673cbaca61587caa0f60c01b6123c5565b611568670fe0ea4ed91e2d2c60c01b6123c5565b611570612a0e565b50565b5f6060805f805f60605f801b60c95414801561159257505f801b60ca54145b6115d1576040517f08c379a00000000000000000000000000000000000000000000000000000000081526004016115c8906151f6565b60405180910390fd5b6115d9612a71565b6115e1612b01565b46305f801b5f67ffffffffffffffff811115611600576115ff614581565b5b60405190808252806020026020018201604052801561162e5781602001602082028036833780820191505090505b507f0f00000000000000000000000000000000000000000000000000000000000000959493929190965096509650965096509650965090919293949596565b5f611676611736565b65ffffffffffff1682106116bf576040517f08c379a00000000000000000000000000000000000000000000000000000000081526004016116b690614f21565b60405180910390fd5b6116cb610132836124b1565b9050919050565b5f60655f8481526020019081526020015f205f015f8373ffffffffffffffffffffffffffffffffffffffff1673ffffffffffffffffffffffffffffffffffffffff1681526020019081526020015f205f9054906101000a900460ff16905092915050565b5f61174043612b91565b905090565b6060609b805461175490614bff565b80601f016020809104026020016040519081016040528092919081815260200182805461178090614bff565b80156117cb5780601f106117a2576101008083540402835291602001916117cb565b820191905f5260205f20905b8154815290600101906020018083116117ae57829003601f168201915b5050505050905090565b5f806101315f8473ffffffffffffffffffffffffffffffffffffffff1673ffffffffffffffffffffffffffffffffffffffff1681526020019081526020015f208054905090505f81146118ad576101315f8473ffffffffffffffffffffffffffffffffffffffff1673ffffffffffffffffffffffffffffffffffffffff1681526020019081526020015f20600182038154811061187557611874615214565b5b905f5260205f20015f0160049054906101000a90047bffffffffffffffffffffffffffffffffffffffffffffffffffffffff166118af565b5f5b7bffffffffffffffffffffffffffffffffffffffffffffffffffffffff16915050919050565b5f801b81565b5f806118e5611e12565b90505f6118f28286611bf9565b905083811015611937576040517f08c379a000000000000000000000000000000000000000000000000000000000815260040161192e906152b1565b60405180910390fd5b6119448286868403611e19565b60019250505092915050565b5f8061195a611e12565b9050611967818585612067565b600191505092915050565b834211156119b5576040517f08c379a00000000000000000000000000000000000000000000000000000000081526004016119ac90615319565b60405180910390fd5b5f611a16611a0e7fe48329057bfd03d55e49b547132e39cffd9c1820ad7b9d4c5307691425d15adf8989896040516020016119f39493929190615337565b60405160208183030381529060405280519060200120612be5565b858585612bfe565b9050611a2181612c27565b8614611a62576040517f08c379a0000000000000000000000000000000000000000000000000000000008152600401611a59906153c4565b60405180910390fd5b611a6c818861289a565b50505050505050565b83421115611ab8576040517f08c379a0000000000000000000000000000000000000000000000000000000008152600401611aaf9061542c565b60405180910390fd5b5f7f6e71edae12b1b97f4d1f60370fef10105fa2faae0126114a169c64845d6126c9888888611ae68c612c27565b89604051602001611afc9695949392919061544a565b6040516020818303038152906040528051906020012090505f611b1e82612be5565b90505f611b2d82878787612bfe565b90508973ffffffffffffffffffffffffffffffffffffffff168173ffffffffffffffffffffffffffffffffffffffff1614611b9d576040517f08c379a0000000000000000000000000000000000000000000000000000000008152600401611b94906154f3565b60405180910390fd5b611ba88a8a8a611e19565b50505050505050505050565b7f9f2df0fed2c77648de5860a4cc508cd0818c85b8b8a1ab4ceeef8d981c8956a681565b611be1826109aa565b611bea816122d6565b611bf483836123d6565b505050565b5f60985f8473ffffffffffffffffffffffffffffffffffffffff1673ffffffffffffffffffffffffffffffffffffffff1681526020019081526020015f205f8373ffffffffffffffffffffffffffffffffffffffff1673ffffffffffffffffffffffffffffffffffffffff1681526020019081526020015f2054905092915050565b7f65d7a28e3265b37a6474929f336521b332c1681b933f6cb9f3376673440d862a81565b611ca7614169565b6101315f8473ffffffffffffffffffffffffffffffffffffffff1673ffffffffffffffffffffffffffffffffffffffff1681526020019081526020015f208263ffffffff1681548110611cfd57611cfc615214565b5b905f5260205f20016040518060400160405290815f82015f9054906101000a900463ffffffff1663ffffffff1663ffffffff1681526020015f820160049054906101000a90047bffffffffffffffffffffffffffffffffffffffffffffffffffffffff167bffffffffffffffffffffffffffffffffffffffffffffffffffffffff167bffffffffffffffffffffffffffffffffffffffffffffffffffffffff1681525050905092915050565b5f7f01ffc9a7000000000000000000000000000000000000000000000000000000007bffffffffffffffffffffffffffffffffffffffffffffffffffffffff1916827bffffffffffffffffffffffffffffffffffffffffffffffffffffffff1916149050919050565b5f33905090565b5f73ffffffffffffffffffffffffffffffffffffffff168373ffffffffffffffffffffffffffffffffffffffff1603611e87576040517f08c379a0000000000000000000000000000000000000000000000000000000008152600401611e7e90615581565b60405180910390fd5b5f73ffffffffffffffffffffffffffffffffffffffff168273ffffffffffffffffffffffffffffffffffffffff1603611ef5576040517f08c379a0000000000000000000000000000000000000000000000000000000008152600401611eec9061560f565b60405180910390fd5b8060985f8573ffffffffffffffffffffffffffffffffffffffff1673ffffffffffffffffffffffffffffffffffffffff1681526020019081526020015f205f8473ffffffffffffffffffffffffffffffffffffffff1673ffffffffffffffffffffffffffffffffffffffff1681526020019081526020015f20819055508173ffffffffffffffffffffffffffffffffffffffff168373ffffffffffffffffffffffffffffffffffffffff167f8c5be1e5ebec7d5bd14f71427d1e84f3dd0314c0f7b2291e5b200ac8c7c3b92583604051611fcf91906143ed565b60405180910390a3505050565b5f611fe78484611bf9565b90507fffffffffffffffffffffffffffffffffffffffffffffffffffffffffffffffff81146120615781811015612053576040517f08c379a000000000000000000000000000000000000000000000000000000000815260040161204a90615677565b60405180910390fd5b6120608484848403611e19565b5b50505050565b5f73ffffffffffffffffffffffffffffffffffffffff168373ffffffffffffffffffffffffffffffffffffffff16036120d5576040517f08c379a00000000000000000000000000000000000000000000000000000000081526004016120cc90615705565b60405180910390fd5b5f73ffffffffffffffffffffffffffffffffffffffff168273ffffffffffffffffffffffffffffffffffffffff1603612143576040517f08c379a000000000000000000000000000000000000000000000000000000000815260040161213a90615793565b60405180910390fd5b61214e838383612c82565b5f60975f8573ffffffffffffffffffffffffffffffffffffffff1673ffffffffffffffffffffffffffffffffffffffff1681526020019081526020015f20549050818110156121d2576040517f08c379a00000000000000000000000000000000000000000000000000000000081526004016121c990615821565b60405180910390fd5b81810360975f8673ffffffffffffffffffffffffffffffffffffffff1673ffffffffffffffffffffffffffffffffffffffff1681526020019081526020015f20819055508160975f8573ffffffffffffffffffffffffffffffffffffffff1673ffffffffffffffffffffffffffffffffffffffff1681526020019081526020015f205f82825401925050819055508273ffffffffffffffffffffffffffffffffffffffff168473ffffffffffffffffffffffffffffffffffffffff167fddf252ad1be2c89b69c2b068fc378daa952ba7f163c4a11628f55a4df523b3ef846040516122bd91906143ed565b60405180910390a36122d0848484612cfe565b50505050565b6122e7816122e2611e12565b612d4a565b50565b6122f482826116d2565b6123c157600160655f8481526020019081526020015f205f015f8373ffffffffffffffffffffffffffffffffffffffff1673ffffffffffffffffffffffffffffffffffffffff1681526020019081526020015f205f6101000a81548160ff021916908315150217905550612366611e12565b73ffffffffffffffffffffffffffffffffffffffff168173ffffffffffffffffffffffffffffffffffffffff16837f2f8788117e7eff1d82e926ec794901d17c78024a50270940304540a733656f0d60405160405180910390a45b5050565b50565b5f6123d1612dce565b905090565b6123e082826116d2565b156124ad575f60655f8481526020019081526020015f205f015f8373ffffffffffffffffffffffffffffffffffffffff1673ffffffffffffffffffffffffffffffffffffffff1681526020019081526020015f205f6101000a81548160ff021916908315150217905550612452611e12565b73ffffffffffffffffffffffffffffffffffffffff168173ffffffffffffffffffffffffffffffffffffffff16837ff6391f5c32d9c69d2a47ea670b442974b53935d1edc7fd64eb21e047a839171b60405160405180910390a45b5050565b5f80838054905090505f808290506005831115612522575f6124d284612e31565b846124dd919061583f565b9050856124ea8883612f27565b5f015f9054906101000a900463ffffffff1663ffffffff16111561251057809150612520565b60018161251d9190614ea4565b92505b505b5b8082101561257f575f6125368383612f39565b9050856125438883612f27565b5f015f9054906101000a900463ffffffff1663ffffffff16111561256957809150612579565b6001816125769190614ea4565b92505b50612523565b5f81146125c3576125938660018303612f27565b5f0160049054906101000a90047bffffffffffffffffffffffffffffffffffffffffffffffffffffffff166125c5565b5f5b7bffffffffffffffffffffffffffffffffffffffffffffffffffffffff16935050505092915050565b6125f6612f5e565b5f6101625f6101000a81548160ff0219169083151502179055507f5db9ee0a495bf2e6ff9c91a7834c1ba4fdd244a5e8aa4e537bd38aeae4b073aa612639611e12565b6040516126469190614755565b60405180910390a1565b6126646715060568254823a060c01b6123c5565b612678678c6c359bba103ede60c01b6123c5565b61268c6741eb3bcee080785a60c01b6123c5565b6126968282612fa7565b5050565b6126ae675f0acf80ee14088e60c01b6123c5565b6126c267657c1cdd7dd3eef060c01b6123c5565b6126d667a2ae61bcf032aa4160c01b6123c5565b6126e08282613035565b5050565b5f808273ffffffffffffffffffffffffffffffffffffffff163b119050919050565b5f60019054906101000a900460ff16612754576040517f08c379a000000000000000000000000000000000000000000000000000000000815260040161274b906158e2565b60405180910390fd5b61275e8282613054565b5050565b5f60019054906101000a900460ff166127b0576040517f08c379a00000000000000000000000000000000000000000000000000000000081526004016127a7906158e2565b60405180910390fd5b6127ef816040518060400160405280600181526020017f31000000000000000000000000000000000000000000000000000000000000008152506130c6565b50565b5f60019054906101000a900460ff16612840576040517f08c379a0000000000000000000000000000000000000000000000000000000008152600401612837906158e2565b60405180910390fd5b61284861314a565b565b5f60019054906101000a900460ff16612898576040517f08c379a000000000000000000000000000000000000000000000000000000000815260040161288f906158e2565b60405180910390fd5b565b5f6128a4836111fc565b90505f6128b0846112de565b9050826101305f8673ffffffffffffffffffffffffffffffffffffffff1673ffffffffffffffffffffffffffffffffffffffff1681526020019081526020015f205f6101000a81548173ffffffffffffffffffffffffffffffffffffffff021916908373ffffffffffffffffffffffffffffffffffffffff1602179055508273ffffffffffffffffffffffffffffffffffffffff168273ffffffffffffffffffffffffffffffffffffffff168573ffffffffffffffffffffffffffffffffffffffff167f3134e8a2e6d97e929a7e54011ea5485d7d196dd5f0ba4d4ef95803e8e3fc257f60405160405180910390a46129aa8284836131b4565b50505050565b5f63ffffffff80168211156129fa576040517f08c379a00000000000000000000000000000000000000000000000000000000081526004016129f190615970565b60405180910390fd5b819050919050565b5f815f01549050919050565b612a166133a6565b60016101625f6101000a81548160ff0219169083151502179055507f62e78cea01bee320cd4e420270b5ea74000d11b0c9f74754ebdbfc544b05a258612a5a611e12565b604051612a679190614755565b60405180910390a1565b606060cb8054612a8090614bff565b80601f0160208091040260200160405190810160405280929190818152602001828054612aac90614bff565b8015612af75780601f10612ace57610100808354040283529160200191612af7565b820191905f5260205f20905b815481529060010190602001808311612ada57829003601f168201915b5050505050905090565b606060cc8054612b1090614bff565b80601f0160208091040260200160405190810160405280929190818152602001828054612b3c90614bff565b8015612b875780601f10612b5e57610100808354040283529160200191612b87565b820191905f5260205f20905b815481529060010190602001808311612b6a57829003601f168201915b5050505050905090565b5f65ffffffffffff8016821115612bdd576040517f08c379a0000000000000000000000000000000000000000000000000000000008152600401612bd4906159fe565b60405180910390fd5b819050919050565b5f612bf7612bf16123c8565b836133f0565b9050919050565b5f805f612c0d87878787613430565b91509150612c1a81613508565b8192505050949350505050565b5f8060fd5f8473ffffffffffffffffffffffffffffffffffffffff1673ffffffffffffffffffffffffffffffffffffffff1681526020019081526020015f209050612c7181612a02565b9150612c7c8161366d565b50919050565b612c9667444cc09b6123a02460c01b6123c5565b612c9e6133a6565b612cb26762ff3d194fb103ec60c01b6123c5565b612cc667938a90d94264968d60c01b6123c5565b612cda67d4b19e2bd3ddc3ea60c01b6123c5565b612cee6734e741239a9f760c60c01b6123c5565b612cf9838383613681565b505050565b612d1267bbeee96de4b55cf760c01b6123c5565b612d266797e889cf08d5d19d60c01b6123c5565b612d3a6781f53f79b57312d360c01b6123c5565b612d45838383613686565b505050565b612d5482826116d2565b612dca57612d61816136b1565b612d6e835f1c60206136de565b604051602001612d7f929190615aea565b6040516020818303038152906040526040517f08c379a0000000000000000000000000000000000000000000000000000000008152600401612dc191906142f3565b60405180910390fd5b5050565b5f7f8b73c3c69bb8fe3d512ecc4cf759cc79239f7b179b0ffacaa9a75d522b39400f612df8613913565b612e0061397a565b4630604051602001612e16959493929190615b23565b60405160208183030381529060405280519060200120905090565b5f808203612e41575f9050612f22565b5f6001612e4d846139e1565b901c6001901b90506001818481612e6757612e66615b74565b5b048201901c90506001818481612e8057612e7f615b74565b5b048201901c90506001818481612e9957612e98615b74565b5b048201901c90506001818481612eb257612eb1615b74565b5b048201901c90506001818481612ecb57612eca615b74565b5b048201901c90506001818481612ee457612ee3615b74565b5b048201901c90506001818481612efd57612efc615b74565b5b048201901c9050612f1e81828581612f1857612f17615b74565b5b04613ab8565b9150505b919050565b5f825f528160205f2001905092915050565b5f6002828418612f499190615ba1565b828416612f569190614ea4565b905092915050565b612f66611276565b612fa5576040517f08c379a0000000000000000000000000000000000000000000000000000000008152600401612f9c90615c1b565b60405180910390fd5b565b612fb18282613ad0565b612fb9613c1f565b7bffffffffffffffffffffffffffffffffffffffffffffffffffffffff16612fdf610973565b1115613020576040517f08c379a000000000000000000000000000000000000000000000000000000000815260040161301790615ca9565b60405180910390fd5b61302f610132613c4283613c57565b50505050565b61303f8282613f20565b61304e6101326140e583613c57565b50505050565b5f60019054906101000a900460ff166130a2576040517f08c379a0000000000000000000000000000000000000000000000000000000008152600401613099906158e2565b60405180910390fd5b81609a90816130b19190615e5b565b5080609b90816130c19190615e5b565b505050565b5f60019054906101000a900460ff16613114576040517f08c379a000000000000000000000000000000000000000000000000000000000815260040161310b906158e2565b60405180910390fd5b8160cb90816131239190615e5b565b508060cc90816131339190615e5b565b505f801b60c9819055505f801b60ca819055505050565b5f60019054906101000a900460ff16613198576040517f08c379a000000000000000000000000000000000000000000000000000000000815260040161318f906158e2565b60405180910390fd5b5f6101625f6101000a81548160ff021916908315150217905550565b8173ffffffffffffffffffffffffffffffffffffffff168373ffffffffffffffffffffffffffffffffffffffff16141580156131ef57505f81115b156133a1575f73ffffffffffffffffffffffffffffffffffffffff168373ffffffffffffffffffffffffffffffffffffffff16146132ca575f806132736101315f8773ffffffffffffffffffffffffffffffffffffffff1673ffffffffffffffffffffffffffffffffffffffff1681526020019081526020015f206140e585613c57565b915091508473ffffffffffffffffffffffffffffffffffffffff167fdec2bacdd2f05b59de34da9b523dff8be42e5e38e818c82fdb0bae774387a72483836040516132bf929190615f2a565b60405180910390a250505b5f73ffffffffffffffffffffffffffffffffffffffff168273ffffffffffffffffffffffffffffffffffffffff16146133a0575f806133496101315f8673ffffffffffffffffffffffffffffffffffffffff1673ffffffffffffffffffffffffffffffffffffffff1681526020019081526020015f20613c4285613c57565b915091508373ffffffffffffffffffffffffffffffffffffffff167fdec2bacdd2f05b59de34da9b523dff8be42e5e38e818c82fdb0bae774387a7248383604051613395929190615f2a565b60405180910390a250505b5b505050565b6133ae611276565b156133ee576040517f08c379a00000000000000000000000000000000000000000000000000000000081526004016133e590615f9b565b60405180910390fd5b565b5f6040517f190100000000000000000000000000000000000000000000000000000000000081528360028201528260228201526042812091505092915050565b5f807f7fffffffffffffffffffffffffffffff5d576e7357a4501ddfe92f46681b20a0835f1c1115613468575f6003915091506134ff565b5f6001878787876040515f815260200160405260405161348b9493929190615fb9565b6020604051602081039080840390855afa1580156134ab573d5f803e3d5ffd5b5050506020604051035190505f73ffffffffffffffffffffffffffffffffffffffff168173ffffffffffffffffffffffffffffffffffffffff16036134f7575f600192509250506134ff565b805f92509250505b94509492505050565b5f600481111561351b5761351a615ffc565b5b81600481111561352e5761352d615ffc565b5b031561366a576001600481111561354857613547615ffc565b5b81600481111561355b5761355a615ffc565b5b0361359b576040517f08c379a000000000000000000000000000000000000000000000000000000000815260040161359290616073565b60405180910390fd5b600260048111156135af576135ae615ffc565b5b8160048111156135c2576135c1615ffc565b5b03613602576040517f08c379a00000000000000000000000000000000000000000000000000000000081526004016135f9906160db565b60405180910390fd5b6003600481111561361657613615615ffc565b5b81600481111561362957613628615ffc565b5b03613669576040517f08c379a000000000000000000000000000000000000000000000000000000000815260040161366090616169565b60405180910390fd5b5b50565b6001815f015f828254019250508190555050565b505050565b6136918383836140fa565b6136ac61369d846111fc565b6136a6846111fc565b836131b4565b505050565b60606136d78273ffffffffffffffffffffffffffffffffffffffff16601460ff166136de565b9050919050565b60605f60028360026136f09190614dd5565b6136fa9190614ea4565b67ffffffffffffffff81111561371357613712614581565b5b6040519080825280601f01601f1916602001820160405280156137455781602001600182028036833780820191505090505b5090507f3000000000000000000000000000000000000000000000000000000000000000815f8151811061377c5761377b615214565b5b60200101907effffffffffffffffffffffffffffffffffffffffffffffffffffffffffffff191690815f1a9053507f7800000000000000000000000000000000000000000000000000000000000000816001815181106137df576137de615214565b5b60200101907effffffffffffffffffffffffffffffffffffffffffffffffffffffffffffff191690815f1a9053505f600184600261381d9190614dd5565b6138279190614ea4565b90505b60018111156138c6577f3031323334353637383961626364656600000000000000000000000000000000600f86166010811061386957613868615214565b5b1a60f81b8282815181106138805761387f615214565b5b60200101907effffffffffffffffffffffffffffffffffffffffffffffffffffffffffffff191690815f1a905350600485901c9450806138bf90616187565b905061382a565b505f8414613909576040517f08c379a0000000000000000000000000000000000000000000000000000000008152600401613900906161f8565b60405180910390fd5b8091505092915050565b5f8061391d612a71565b90505f81511115613938578080519060200120915050613977565b5f60c95490505f801b8114613951578092505050613977565b7fc5d2460186f7233c927e7db2dcc703c0e500b653ca82273b7bfad8045d85a470925050505b90565b5f80613984612b01565b90505f8151111561399f5780805190602001209150506139de565b5f60ca5490505f801b81146139b85780925050506139de565b7fc5d2460186f7233c927e7db2dcc703c0e500b653ca82273b7bfad8045d85a470925050505b90565b5f805f90505f608084901c1115613a0057608083901c92506080810190505b5f604084901c1115613a1a57604083901c92506040810190505b5f602084901c1115613a3457602083901c92506020810190505b5f601084901c1115613a4e57601083901c92506010810190505b5f600884901c1115613a6857600883901c92506008810190505b5f600484901c1115613a8257600483901c92506004810190505b5f600284901c1115613a9c57600283901c92506002810190505b5f600184901c1115613aaf576001810190505b80915050919050565b5f818310613ac65781613ac8565b825b905092915050565b5f73ffffffffffffffffffffffffffffffffffffffff168273ffffffffffffffffffffffffffffffffffffffff1603613b3e576040517f08c379a0000000000000000000000000000000000000000000000000000000008152600401613b3590616260565b60405180910390fd5b613b495f8383612c82565b8060995f828254613b5a9190614ea4565b925050819055508060975f8473ffffffffffffffffffffffffffffffffffffffff1673ffffffffffffffffffffffffffffffffffffffff1681526020019081526020015f205f82825401925050819055508173ffffffffffffffffffffffffffffffffffffffff165f73ffffffffffffffffffffffffffffffffffffffff167fddf252ad1be2c89b69c2b068fc378daa952ba7f163c4a11628f55a4df523b3ef83604051613c0891906143ed565b60405180910390a3613c1b5f8383612cfe565b5050565b5f7bffffffffffffffffffffffffffffffffffffffffffffffffffffffff905090565b5f8183613c4f9190614ea4565b905092915050565b5f805f858054905090505f808214613d1757613c768760018403612f27565b6040518060400160405290815f82015f9054906101000a900463ffffffff1663ffffffff1663ffffffff1681526020015f820160049054906101000a90047bffffffffffffffffffffffffffffffffffffffffffffffffffffffff167bffffffffffffffffffffffffffffffffffffffffffffffffffffffff167bffffffffffffffffffffffffffffffffffffffffffffffffffffffff1681525050613d51565b60405180604001604052805f63ffffffff1681526020015f7bffffffffffffffffffffffffffffffffffffffffffffffffffffffff168152505b905080602001517bffffffffffffffffffffffffffffffffffffffffffffffffffffffff169350613d8684868863ffffffff16565b92505f82118015613dae5750613d9a611736565b65ffffffffffff16815f015163ffffffff16145b15613e1e57613dbc836140ff565b613dc98860018503612f27565b5f0160046101000a8154817bffffffffffffffffffffffffffffffffffffffffffffffffffffffff02191690837bffffffffffffffffffffffffffffffffffffffffffffffffffffffff160217905550613f16565b866040518060400160405280613e42613e35611736565b65ffffffffffff166129b0565b63ffffffff168152602001613e56866140ff565b7bffffffffffffffffffffffffffffffffffffffffffffffffffffffff16815250908060018154018082558091505060019003905f5260205f20015f909190919091505f820151815f015f6101000a81548163ffffffff021916908363ffffffff1602179055506020820151815f0160046101000a8154817bffffffffffffffffffffffffffffffffffffffffffffffffffffffff02191690837bffffffffffffffffffffffffffffffffffffffffffffffffffffffff16021790555050505b5050935093915050565b5f73ffffffffffffffffffffffffffffffffffffffff168273ffffffffffffffffffffffffffffffffffffffff1603613f8e576040517f08c379a0000000000000000000000000000000000000000000000000000000008152600401613f85906162ee565b60405180910390fd5b613f99825f83612c82565b5f60975f8473ffffffffffffffffffffffffffffffffffffffff1673ffffffffffffffffffffffffffffffffffffffff1681526020019081526020015f205490508181101561401d576040517f08c379a00000000000000000000000000000000000000000000000000000000081526004016140149061637c565b60405180910390fd5b81810360975f8573ffffffffffffffffffffffffffffffffffffffff1673ffffffffffffffffffffffffffffffffffffffff1681526020019081526020015f20819055508160995f82825403925050819055505f73ffffffffffffffffffffffffffffffffffffffff168373ffffffffffffffffffffffffffffffffffffffff167fddf252ad1be2c89b69c2b068fc378daa952ba7f163c4a11628f55a4df523b3ef846040516140cd91906143ed565b60405180910390a36140e0835f84612cfe565b505050565b5f81836140f2919061583f565b905092915050565b505050565b5f7bffffffffffffffffffffffffffffffffffffffffffffffffffffffff8016821115614161576040517f08c379a00000000000000000000000000000000000000000000000000000000081526004016141589061640a565b60405180910390fd5b819050919050565b60405180604001604052805f63ffffffff1681526020015f7bffffffffffffffffffffffffffffffffffffffffffffffffffffffff1681525090565b5f604051905090565b5f80fd5b5f80fd5b5f7fffffffff0000000000000000000000000000000000000000000000000000000082169050919050565b6141ea816141b6565b81146141f4575f80fd5b50565b5f81359050614205816141e1565b92915050565b5f602082840312156142205761421f6141ae565b5b5f61422d848285016141f7565b91505092915050565b5f8115159050919050565b61424a81614236565b82525050565b5f6020820190506142635f830184614241565b92915050565b5f81519050919050565b5f82825260208201905092915050565b5f5b838110156142a0578082015181840152602081019050614285565b5f8484015250505050565b5f601f19601f8301169050919050565b5f6142c582614269565b6142cf8185614273565b93506142df818560208601614283565b6142e8816142ab565b840191505092915050565b5f6020820190508181035f83015261430b81846142bb565b905092915050565b5f73ffffffffffffffffffffffffffffffffffffffff82169050919050565b5f61433c82614313565b9050919050565b61434c81614332565b8114614356575f80fd5b50565b5f8135905061436781614343565b92915050565b5f819050919050565b61437f8161436d565b8114614389575f80fd5b50565b5f8135905061439a81614376565b92915050565b5f80604083850312156143b6576143b56141ae565b5b5f6143c385828601614359565b92505060206143d48582860161438c565b9150509250929050565b6143e78161436d565b82525050565b5f6020820190506144005f8301846143de565b92915050565b5f805f6060848603121561441d5761441c6141ae565b5b5f61442a86828701614359565b935050602061443b86828701614359565b925050604061444c8682870161438c565b9150509250925092565b5f819050919050565b61446881614456565b8114614472575f80fd5b50565b5f813590506144838161445f565b92915050565b5f6020828403121561449e5761449d6141ae565b5b5f6144ab84828501614475565b91505092915050565b6144bd81614456565b82525050565b5f6020820190506144d65f8301846144b4565b92915050565b5f80604083850312156144f2576144f16141ae565b5b5f6144ff85828601614475565b925050602061451085828601614359565b9150509250929050565b5f60ff82169050919050565b61452f8161451a565b82525050565b5f6020820190506145485f830184614526565b92915050565b5f60208284031215614563576145626141ae565b5b5f6145708482850161438c565b91505092915050565b5f80fd5b5f80fd5b7f4e487b71000000000000000000000000000000000000000000000000000000005f52604160045260245ffd5b6145b7826142ab565b810181811067ffffffffffffffff821117156145d6576145d5614581565b5b80604052505050565b5f6145e86141a5565b90506145f482826145ae565b919050565b5f67ffffffffffffffff82111561461357614612614581565b5b61461c826142ab565b9050602081019050919050565b828183375f83830152505050565b5f614649614644846145f9565b6145df565b9050828152602081018484840111156146655761466461457d565b5b614670848285614629565b509392505050565b5f82601f83011261468c5761468b614579565b5b813561469c848260208601614637565b91505092915050565b5f80604083850312156146bb576146ba6141ae565b5b5f83013567ffffffffffffffff8111156146d8576146d76141b2565b5b6146e485828601614678565b925050602083013567ffffffffffffffff811115614705576147046141b2565b5b61471185828601614678565b9150509250929050565b5f602082840312156147305761472f6141ae565b5b5f61473d84828501614359565b91505092915050565b61474f81614332565b82525050565b5f6020820190506147685f830184614746565b92915050565b5f63ffffffff82169050919050565b6147868161476e565b82525050565b5f60208201905061479f5f83018461477d565b92915050565b5f7fff0000000000000000000000000000000000000000000000000000000000000082169050919050565b6147d9816147a5565b82525050565b5f81519050919050565b5f82825260208201905092915050565b5f819050602082019050919050565b6148118161436d565b82525050565b5f6148228383614808565b60208301905092915050565b5f602082019050919050565b5f614844826147df565b61484e81856147e9565b9350614859836147f9565b805f5b838110156148895781516148708882614817565b975061487b8361482e565b92505060018101905061485c565b5085935050505092915050565b5f60e0820190506148a95f83018a6147d0565b81810360208301526148bb81896142bb565b905081810360408301526148cf81886142bb565b90506148de60608301876143de565b6148eb6080830186614746565b6148f860a08301856144b4565b81810360c083015261490a818461483a565b905098975050505050505050565b5f65ffffffffffff82169050919050565b61493281614918565b82525050565b5f60208201905061494b5f830184614929565b92915050565b61495a8161451a565b8114614964575f80fd5b50565b5f8135905061497581614951565b92915050565b5f805f805f8060c08789031215614995576149946141ae565b5b5f6149a289828a01614359565b96505060206149b389828a0161438c565b95505060406149c489828a0161438c565b94505060606149d589828a01614967565b93505060806149e689828a01614475565b92505060a06149f789828a01614475565b9150509295509295509295565b5f805f805f805f60e0888a031215614a1f57614a1e6141ae565b5b5f614a2c8a828b01614359565b9750506020614a3d8a828b01614359565b9650506040614a4e8a828b0161438c565b9550506060614a5f8a828b0161438c565b9450506080614a708a828b01614967565b93505060a0614a818a828b01614475565b92505060c0614a928a828b01614475565b91505092959891949750929550565b5f8060408385031215614ab757614ab66141ae565b5b5f614ac485828601614359565b9250506020614ad585828601614359565b9150509250929050565b614ae88161476e565b8114614af2575f80fd5b50565b5f81359050614b0381614adf565b92915050565b5f8060408385031215614b1f57614b1e6141ae565b5b5f614b2c85828601614359565b9250506020614b3d85828601614af5565b9150509250929050565b614b508161476e565b82525050565b5f7bffffffffffffffffffffffffffffffffffffffffffffffffffffffff82169050919050565b614b8681614b56565b82525050565b604082015f820151614ba05f850182614b47565b506020820151614bb36020850182614b7d565b50505050565b5f604082019050614bcc5f830184614b8c565b92915050565b7f4e487b71000000000000000000000000000000000000000000000000000000005f52602260045260245ffd5b5f6002820490506001821680614c1657607f821691505b602082108103614c2957614c28614bd2565b5b50919050565b7f4e487b71000000000000000000000000000000000000000000000000000000005f52601160045260245ffd5b5f8160011c9050919050565b5f808291508390505b6001851115614cb157808604811115614c8d57614c8c614c2f565b5b6001851615614c9c5780820291505b8081029050614caa85614c5c565b9450614c71565b94509492505050565b5f82614cc95760019050614d84565b81614cd6575f9050614d84565b8160018114614cec5760028114614cf657614d25565b6001915050614d84565b60ff841115614d0857614d07614c2f565b5b8360020a915084821115614d1f57614d1e614c2f565b5b50614d84565b5060208310610133831016604e8410600b8410161715614d5a5782820a905083811115614d5557614d54614c2f565b5b614d84565b614d678484846001614c68565b92509050818404811115614d7e57614d7d614c2f565b5b81810290505b9392505050565b5f614d958261436d565b9150614da08361436d565b9250614dcd7fffffffffffffffffffffffffffffffffffffffffffffffffffffffffffffffff8484614cba565b905092915050565b5f614ddf8261436d565b9150614dea8361436d565b9250828202614df88161436d565b91508282048414831517614e0f57614e0e614c2f565b5b5092915050565b7f416363657373436f6e74726f6c3a2063616e206f6e6c792072656e6f756e63655f8201527f20726f6c657320666f722073656c660000000000000000000000000000000000602082015250565b5f614e70602f83614273565b9150614e7b82614e16565b604082019050919050565b5f6020820190508181035f830152614e9d81614e64565b9050919050565b5f614eae8261436d565b9150614eb98361436d565b9250828201905080821115614ed157614ed0614c2f565b5b92915050565b7f4552433230566f7465733a20667574757265206c6f6f6b7570000000000000005f82015250565b5f614f0b601983614273565b9150614f1682614ed7565b602082019050919050565b5f6020820190508181035f830152614f3881614eff565b9050919050565b7f546f6b656e20746f206265206d696e7465642073686f756c64206e6f742065785f8201527f63656564204d617820737570706c790000000000000000000000000000000000602082015250565b5f614f99602f83614273565b9150614fa482614f3f565b604082019050919050565b5f6020820190508181035f830152614fc681614f8d565b9050919050565b7f4552433230566f7465733a2062726f6b656e20636c6f636b206d6f64650000005f82015250565b5f615001601d83614273565b915061500c82614fcd565b602082019050919050565b5f6020820190508181035f83015261502e81614ff5565b9050919050565b7f496e697469616c697a61626c653a20636f6e747261637420697320616c7265615f8201527f647920696e697469616c697a6564000000000000000000000000000000000000602082015250565b5f61508f602e83614273565b915061509a82615035565b604082019050919050565b5f6020820190508181035f8301526150bc81615083565b9050919050565b5f819050919050565b5f819050919050565b5f6150ef6150ea6150e5846150c3565b6150cc565b61451a565b9050919050565b6150ff816150d5565b82525050565b5f6020820190506151185f8301846150f6565b92915050565b7f45524332303a206275726e20616d6f756e74206578636565647320616c6c6f775f8201527f616e636500000000000000000000000000000000000000000000000000000000602082015250565b5f615178602483614273565b91506151838261511e565b604082019050919050565b5f6020820190508181035f8301526151a58161516c565b9050919050565b7f4549503731323a20556e696e697469616c697a656400000000000000000000005f82015250565b5f6151e0601583614273565b91506151eb826151ac565b602082019050919050565b5f6020820190508181035f83015261520d816151d4565b9050919050565b7f4e487b71000000000000000000000000000000000000000000000000000000005f52603260045260245ffd5b7f45524332303a2064656372656173656420616c6c6f77616e63652062656c6f775f8201527f207a65726f000000000000000000000000000000000000000000000000000000602082015250565b5f61529b602583614273565b91506152a682615241565b604082019050919050565b5f6020820190508181035f8301526152c88161528f565b9050919050565b7f4552433230566f7465733a207369676e617475726520657870697265640000005f82015250565b5f615303601d83614273565b915061530e826152cf565b602082019050919050565b5f6020820190508181035f830152615330816152f7565b9050919050565b5f60808201905061534a5f8301876144b4565b6153576020830186614746565b61536460408301856143de565b61537160608301846143de565b95945050505050565b7f4552433230566f7465733a20696e76616c6964206e6f6e6365000000000000005f82015250565b5f6153ae601983614273565b91506153b98261537a565b602082019050919050565b5f6020820190508181035f8301526153db816153a2565b9050919050565b7f45524332305065726d69743a206578706972656420646561646c696e650000005f82015250565b5f615416601d83614273565b9150615421826153e2565b602082019050919050565b5f6020820190508181035f8301526154438161540a565b9050919050565b5f60c08201905061545d5f8301896144b4565b61546a6020830188614746565b6154776040830187614746565b61548460608301866143de565b61549160808301856143de565b61549e60a08301846143de565b979650505050505050565b7f45524332305065726d69743a20696e76616c6964207369676e617475726500005f82015250565b5f6154dd601e83614273565b91506154e8826154a9565b602082019050919050565b5f6020820190508181035f83015261550a816154d1565b9050919050565b7f45524332303a20617070726f76652066726f6d20746865207a65726f206164645f8201527f7265737300000000000000000000000000000000000000000000000000000000602082015250565b5f61556b602483614273565b915061557682615511565b604082019050919050565b5f6020820190508181035f8301526155988161555f565b9050919050565b7f45524332303a20617070726f766520746f20746865207a65726f2061646472655f8201527f7373000000000000000000000000000000000000000000000000000000000000602082015250565b5f6155f9602283614273565b91506156048261559f565b604082019050919050565b5f6020820190508181035f830152615626816155ed565b9050919050565b7f45524332303a20696e73756666696369656e7420616c6c6f77616e63650000005f82015250565b5f615661601d83614273565b915061566c8261562d565b602082019050919050565b5f6020820190508181035f83015261568e81615655565b9050919050565b7f45524332303a207472616e736665722066726f6d20746865207a65726f2061645f8201527f6472657373000000000000000000000000000000000000000000000000000000602082015250565b5f6156ef602583614273565b91506156fa82615695565b604082019050919050565b5f6020820190508181035f83015261571c816156e3565b9050919050565b7f45524332303a207472616e7366657220746f20746865207a65726f20616464725f8201527f6573730000000000000000000000000000000000000000000000000000000000602082015250565b5f61577d602383614273565b915061578882615723565b604082019050919050565b5f6020820190508181035f8301526157aa81615771565b9050919050565b7f45524332303a207472616e7366657220616d6f756e74206578636565647320625f8201527f616c616e63650000000000000000000000000000000000000000000000000000602082015250565b5f61580b602683614273565b9150615816826157b1565b604082019050919050565b5f6020820190508181035f830152615838816157ff565b9050919050565b5f6158498261436d565b91506158548361436d565b925082820390508181111561586c5761586b614c2f565b5b92915050565b7f496e697469616c697a61626c653a20636f6e7472616374206973206e6f7420695f8201527f6e697469616c697a696e67000000000000000000000000000000000000000000602082015250565b5f6158cc602b83614273565b91506158d782615872565b604082019050919050565b5f6020820190508181035f8301526158f9816158c0565b9050919050565b7f53616665436173743a2076616c756520646f65736e27742066697420696e20335f8201527f3220626974730000000000000000000000000000000000000000000000000000602082015250565b5f61595a602683614273565b915061596582615900565b604082019050919050565b5f6020820190508181035f8301526159878161594e565b9050919050565b7f53616665436173743a2076616c756520646f65736e27742066697420696e20345f8201527f3820626974730000000000000000000000000000000000000000000000000000602082015250565b5f6159e8602683614273565b91506159f38261598e565b604082019050919050565b5f6020820190508181035f830152615a15816159dc565b9050919050565b5f81905092915050565b7f416363657373436f6e74726f6c3a206163636f756e74200000000000000000005f82015250565b5f615a5a601783615a1c565b9150615a6582615a26565b601782019050919050565b5f615a7a82614269565b615a848185615a1c565b9350615a94818560208601614283565b80840191505092915050565b7f206973206d697373696e6720726f6c65200000000000000000000000000000005f82015250565b5f615ad4601183615a1c565b9150615adf82615aa0565b601182019050919050565b5f615af482615a4e565b9150615b008285615a70565b9150615b0b82615ac8565b9150615b178284615a70565b91508190509392505050565b5f60a082019050615b365f8301886144b4565b615b4360208301876144b4565b615b5060408301866144b4565b615b5d60608301856143de565b615b6a6080830184614746565b9695505050505050565b7f4e487b71000000000000000000000000000000000000000000000000000000005f52601260045260245ffd5b5f615bab8261436d565b9150615bb68361436d565b925082615bc657615bc5615b74565b5b828204905092915050565b7f5061757361626c653a206e6f74207061757365640000000000000000000000005f82015250565b5f615c05601483614273565b9150615c1082615bd1565b602082019050919050565b5f6020820190508181035f830152615c3281615bf9565b9050919050565b7f4552433230566f7465733a20746f74616c20737570706c79207269736b73206f5f8201527f766572666c6f77696e6720766f74657300000000000000000000000000000000602082015250565b5f615c93603083614273565b9150615c9e82615c39565b604082019050919050565b5f6020820190508181035f830152615cc081615c87565b9050919050565b5f819050815f5260205f209050919050565b5f6020601f8301049050919050565b5f82821b905092915050565b5f60088302615d237fffffffffffffffffffffffffffffffffffffffffffffffffffffffffffffffff82615ce8565b615d2d8683615ce8565b95508019841693508086168417925050509392505050565b5f615d5f615d5a615d558461436d565b6150cc565b61436d565b9050919050565b5f819050919050565b615d7883615d45565b615d8c615d8482615d66565b848454615cf4565b825550505050565b5f90565b615da0615d94565b615dab818484615d6f565b505050565b5b81811015615dce57615dc35f82615d98565b600181019050615db1565b5050565b601f821115615e1357615de481615cc7565b615ded84615cd9565b81016020851015615dfc578190505b615e10615e0885615cd9565b830182615db0565b50505b505050565b5f82821c905092915050565b5f615e335f1984600802615e18565b1980831691505092915050565b5f615e4b8383615e24565b9150826002028217905092915050565b615e6482614269565b67ffffffffffffffff811115615e7d57615e7c614581565b5b615e878254614bff565b615e92828285615dd2565b5f60209050601f831160018114615ec3575f8415615eb1578287015190505b615ebb8582615e40565b865550615f22565b601f198416615ed186615cc7565b5f5b82811015615ef857848901518255600182019150602085019450602081019050615ed3565b86831015615f155784890151615f11601f891682615e24565b8355505b6001600288020188555050505b505050505050565b5f604082019050615f3d5f8301856143de565b615f4a60208301846143de565b9392505050565b7f5061757361626c653a20706175736564000000000000000000000000000000005f82015250565b5f615f85601083614273565b9150615f9082615f51565b602082019050919050565b5f6020820190508181035f830152615fb281615f79565b9050919050565b5f608082019050615fcc5f8301876144b4565b615fd96020830186614526565b615fe660408301856144b4565b615ff360608301846144b4565b95945050505050565b7f4e487b71000000000000000000000000000000000000000000000000000000005f52602160045260245ffd5b7f45434453413a20696e76616c6964207369676e617475726500000000000000005f82015250565b5f61605d601883614273565b915061606882616029565b602082019050919050565b5f6020820190508181035f83015261608a81616051565b9050919050565b7f45434453413a20696e76616c6964207369676e6174757265206c656e677468005f82015250565b5f6160c5601f83614273565b91506160d082616091565b602082019050919050565b5f6020820190508181035f8301526160f2816160b9565b9050919050565b7f45434453413a20696e76616c6964207369676e6174757265202773272076616c5f8201527f7565000000000000000000000000000000000000000000000000000000000000602082015250565b5f616153602283614273565b915061615e826160f9565b604082019050919050565b5f6020820190508181035f83015261618081616147565b9050919050565b5f6161918261436d565b91505f82036161a3576161a2614c2f565b5b600182039050919050565b7f537472696e67733a20686578206c656e67746820696e73756666696369656e745f82015250565b5f6161e2602083614273565b91506161ed826161ae565b602082019050919050565b5f6020820190508181035f83015261620f816161d6565b9050919050565b7f45524332303a206d696e7420746f20746865207a65726f2061646472657373005f82015250565b5f61624a601f83614273565b915061625582616216565b602082019050919050565b5f6020820190508181035f8301526162778161623e565b9050919050565b7f45524332303a206275726e2066726f6d20746865207a65726f206164647265735f8201527f7300000000000000000000000000000000000000000000000000000000000000602082015250565b5f6162d8602183614273565b91506162e38261627e565b604082019050919050565b5f6020820190508181035f830152616305816162cc565b9050919050565b7f45524332303a206275726e20616d6f756e7420657863656564732062616c616e5f8201527f6365000000000000000000000000000000000000000000000000000000000000602082015250565b5f616366602283614273565b91506163718261630c565b604082019050919050565b5f6020820190508181035f8301526163938161635a565b9050919050565b7f53616665436173743a2076616c756520646f65736e27742066697420696e20325f8201527f3234206269747300000000000000000000000000000000000000000000000000602082015250565b5f6163f4602783614273565b91506163ff8261639a565b604082019050919050565b5f6020820190508181035f830152616421816163e8565b905091905056fea264697066735822122073ff06046c08d0cd853c758c631fa806bb26088007b12365805c4921e9369b6664736f6c63430008140033","opcodes":"PUSH1 0x80 PUSH1 0x40 MSTORE CALLVALUE DUP1 ISZERO PUSH2 0xF JUMPI PUSH0 DUP1 REVERT JUMPDEST POP PUSH2 0x645E DUP1 PUSH3 0x1E PUSH0 CODECOPY PUSH0 RETURN INVALID PUSH1 0x80 PUSH1 0x40 MSTORE CALLVALUE DUP1 ISZERO PUSH2 0xF JUMPI PUSH0 DUP1 REVERT JUMPDEST POP PUSH1 0x4 CALLDATASIZE LT PUSH2 0x25C JUMPI PUSH0 CALLDATALOAD PUSH1 0xE0 SHR DUP1 PUSH4 0x6FCFFF45 GT PUSH2 0x144 JUMPI DUP1 PUSH4 0x9AB24EB0 GT PUSH2 0xC1 JUMPI DUP1 PUSH4 0xD505ACCF GT PUSH2 0x85 JUMPI DUP1 PUSH4 0xD505ACCF EQ PUSH2 0x774 JUMPI DUP1 PUSH4 0xD5391393 EQ PUSH2 0x790 JUMPI DUP1 PUSH4 0xD547741F EQ PUSH2 0x7AE JUMPI DUP1 PUSH4 0xDD62ED3E EQ PUSH2 0x7CA JUMPI DUP1 PUSH4 0xE63AB1E9 EQ PUSH2 0x7FA JUMPI DUP1 PUSH4 0xF1127ED8 EQ PUSH2 0x818 JUMPI PUSH2 0x25C JUMP JUMPDEST DUP1 PUSH4 0x9AB24EB0 EQ PUSH2 0x6AA JUMPI DUP1 PUSH4 0xA217FDDF EQ PUSH2 0x6DA JUMPI DUP1 PUSH4 0xA457C2D7 EQ PUSH2 0x6F8 JUMPI DUP1 PUSH4 0xA9059CBB EQ PUSH2 0x728 JUMPI DUP1 PUSH4 0xC3CDA520 EQ PUSH2 0x758 JUMPI PUSH2 0x25C JUMP JUMPDEST DUP1 PUSH4 0x84B0196E GT PUSH2 0x108 JUMPI DUP1 PUSH4 0x84B0196E EQ PUSH2 0x5EA JUMPI DUP1 PUSH4 0x8E539E8C EQ PUSH2 0x60E JUMPI DUP1 PUSH4 0x91D14854 EQ PUSH2 0x63E JUMPI DUP1 PUSH4 0x91DDADF4 EQ PUSH2 0x66E JUMPI DUP1 PUSH4 0x95D89B41 EQ PUSH2 0x68C JUMPI PUSH2 0x25C JUMP JUMPDEST DUP1 PUSH4 0x6FCFFF45 EQ PUSH2 0x534 JUMPI DUP1 PUSH4 0x70A08231 EQ PUSH2 0x564 JUMPI DUP1 PUSH4 0x79CC6790 EQ PUSH2 0x594 JUMPI DUP1 PUSH4 0x7ECEBE00 EQ PUSH2 0x5B0 JUMPI DUP1 PUSH4 0x8456CB59 EQ PUSH2 0x5E0 JUMPI PUSH2 0x25C JUMP JUMPDEST DUP1 PUSH4 0x36568ABE GT PUSH2 0x1DD JUMPI DUP1 PUSH4 0x42966C68 GT PUSH2 0x1A1 JUMPI DUP1 PUSH4 0x42966C68 EQ PUSH2 0x474 JUMPI DUP1 PUSH4 0x4BF5D7E9 EQ PUSH2 0x490 JUMPI DUP1 PUSH4 0x4CD88B76 EQ PUSH2 0x4AE JUMPI DUP1 PUSH4 0x587CDE1E EQ PUSH2 0x4CA JUMPI DUP1 PUSH4 0x5C19A95C EQ PUSH2 0x4FA JUMPI DUP1 PUSH4 0x5C975ABB EQ PUSH2 0x516 JUMPI PUSH2 0x25C JUMP JUMPDEST DUP1 PUSH4 0x36568ABE EQ PUSH2 0x3D2 JUMPI DUP1 PUSH4 0x39509351 EQ PUSH2 0x3EE JUMPI DUP1 PUSH4 0x3A46B1A8 EQ PUSH2 0x41E JUMPI DUP1 PUSH4 0x3F4BA83A EQ PUSH2 0x44E JUMPI DUP1 PUSH4 0x40C10F19 EQ PUSH2 0x458 JUMPI PUSH2 0x25C JUMP JUMPDEST DUP1 PUSH4 0x248A9CA3 GT PUSH2 0x224 JUMPI DUP1 PUSH4 0x248A9CA3 EQ PUSH2 0x32C JUMPI DUP1 PUSH4 0x2F2FF15D EQ PUSH2 0x35C JUMPI DUP1 PUSH4 0x313CE567 EQ PUSH2 0x378 JUMPI DUP1 PUSH4 0x32CB6B0C EQ PUSH2 0x396 JUMPI DUP1 PUSH4 0x3644E515 EQ PUSH2 0x3B4 JUMPI PUSH2 0x25C JUMP JUMPDEST DUP1 PUSH4 0x1FFC9A7 EQ PUSH2 0x260 JUMPI DUP1 PUSH4 0x6FDDE03 EQ PUSH2 0x290 JUMPI DUP1 PUSH4 0x95EA7B3 EQ PUSH2 0x2AE JUMPI DUP1 PUSH4 0x18160DDD EQ PUSH2 0x2DE JUMPI DUP1 PUSH4 0x23B872DD EQ PUSH2 0x2FC JUMPI JUMPDEST PUSH0 DUP1 REVERT JUMPDEST PUSH2 0x27A PUSH1 0x4 DUP1 CALLDATASIZE SUB DUP2 ADD SWAP1 PUSH2 0x275 SWAP2 SWAP1 PUSH2 0x420B JUMP JUMPDEST PUSH2 0x848 JUMP JUMPDEST PUSH1 0x40 MLOAD PUSH2 0x287 SWAP2 SWAP1 PUSH2 0x4250 JUMP JUMPDEST PUSH1 0x40 MLOAD DUP1 SWAP2 SUB SWAP1 RETURN JUMPDEST PUSH2 0x298 PUSH2 0x8C1 JUMP JUMPDEST PUSH1 0x40 MLOAD PUSH2 0x2A5 SWAP2 SWAP1 PUSH2 0x42F3 JUMP JUMPDEST PUSH1 0x40 MLOAD DUP1 SWAP2 SUB SWAP1 RETURN JUMPDEST PUSH2 0x2C8 PUSH1 0x4 DUP1 CALLDATASIZE SUB DUP2 ADD SWAP1 PUSH2 0x2C3 SWAP2 SWAP1 PUSH2 0x43A0 JUMP JUMPDEST PUSH2 0x951 JUMP JUMPDEST PUSH1 0x40 MLOAD PUSH2 0x2D5 SWAP2 SWAP1 PUSH2 0x4250 JUMP JUMPDEST PUSH1 0x40 MLOAD DUP1 SWAP2 SUB SWAP1 RETURN JUMPDEST PUSH2 0x2E6 PUSH2 0x973 JUMP JUMPDEST PUSH1 0x40 MLOAD PUSH2 0x2F3 SWAP2 SWAP1 PUSH2 0x43ED JUMP JUMPDEST PUSH1 0x40 MLOAD DUP1 SWAP2 SUB SWAP1 RETURN JUMPDEST PUSH2 0x316 PUSH1 0x4 DUP1 CALLDATASIZE SUB DUP2 ADD SWAP1 PUSH2 0x311 SWAP2 SWAP1 PUSH2 0x4406 JUMP JUMPDEST PUSH2 0x97C JUMP JUMPDEST PUSH1 0x40 MLOAD PUSH2 0x323 SWAP2 SWAP1 PUSH2 0x4250 JUMP JUMPDEST PUSH1 0x40 MLOAD DUP1 SWAP2 SUB SWAP1 RETURN JUMPDEST PUSH2 0x346 PUSH1 0x4 DUP1 CALLDATASIZE SUB DUP2 ADD SWAP1 PUSH2 0x341 SWAP2 SWAP1 PUSH2 0x4489 JUMP JUMPDEST PUSH2 0x9AA JUMP JUMPDEST PUSH1 0x40 MLOAD PUSH2 0x353 SWAP2 SWAP1 PUSH2 0x44C3 JUMP JUMPDEST PUSH1 0x40 MLOAD DUP1 SWAP2 SUB SWAP1 RETURN JUMPDEST PUSH2 0x376 PUSH1 0x4 DUP1 CALLDATASIZE SUB DUP2 ADD SWAP1 PUSH2 0x371 SWAP2 SWAP1 PUSH2 0x44DC JUMP JUMPDEST PUSH2 0x9C7 JUMP JUMPDEST STOP JUMPDEST PUSH2 0x380 PUSH2 0x9E8 JUMP JUMPDEST PUSH1 0x40 MLOAD PUSH2 0x38D SWAP2 SWAP1 PUSH2 0x4535 JUMP JUMPDEST PUSH1 0x40 MLOAD DUP1 SWAP2 SUB SWAP1 RETURN JUMPDEST PUSH2 0x39E PUSH2 0xA2C JUMP JUMPDEST PUSH1 0x40 MLOAD PUSH2 0x3AB SWAP2 SWAP1 PUSH2 0x43ED JUMP JUMPDEST PUSH1 0x40 MLOAD DUP1 SWAP2 SUB SWAP1 RETURN JUMPDEST PUSH2 0x3BC PUSH2 0xA4C JUMP JUMPDEST PUSH1 0x40 MLOAD PUSH2 0x3C9 SWAP2 SWAP1 PUSH2 0x44C3 JUMP JUMPDEST PUSH1 0x40 MLOAD DUP1 SWAP2 SUB SWAP1 RETURN JUMPDEST PUSH2 0x3EC PUSH1 0x4 DUP1 CALLDATASIZE SUB DUP2 ADD SWAP1 PUSH2 0x3E7 SWAP2 SWAP1 PUSH2 0x44DC JUMP JUMPDEST PUSH2 0xA5A JUMP JUMPDEST STOP JUMPDEST PUSH2 0x408 PUSH1 0x4 DUP1 CALLDATASIZE SUB DUP2 ADD SWAP1 PUSH2 0x403 SWAP2 SWAP1 PUSH2 0x43A0 JUMP JUMPDEST PUSH2 0xADD JUMP JUMPDEST PUSH1 0x40 MLOAD PUSH2 0x415 SWAP2 SWAP1 PUSH2 0x4250 JUMP JUMPDEST PUSH1 0x40 MLOAD DUP1 SWAP2 SUB SWAP1 RETURN JUMPDEST PUSH2 0x438 PUSH1 0x4 DUP1 CALLDATASIZE SUB DUP2 ADD SWAP1 PUSH2 0x433 SWAP2 SWAP1 PUSH2 0x43A0 JUMP JUMPDEST PUSH2 0xB13 JUMP JUMPDEST PUSH1 0x40 MLOAD PUSH2 0x445 SWAP2 SWAP1 PUSH2 0x43ED JUMP JUMPDEST PUSH1 0x40 MLOAD DUP1 SWAP2 SUB SWAP1 RETURN JUMPDEST PUSH2 0x456 PUSH2 0xBB4 JUMP JUMPDEST STOP JUMPDEST PUSH2 0x472 PUSH1 0x4 DUP1 CALLDATASIZE SUB DUP2 ADD SWAP1 PUSH2 0x46D SWAP2 SWAP1 PUSH2 0x43A0 JUMP JUMPDEST PUSH2 0xC4D JUMP JUMPDEST STOP JUMPDEST PUSH2 0x48E PUSH1 0x4 DUP1 CALLDATASIZE SUB DUP2 ADD SWAP1 PUSH2 0x489 SWAP2 SWAP1 PUSH2 0x454E JUMP JUMPDEST PUSH2 0xDAB JUMP JUMPDEST STOP JUMPDEST PUSH2 0x498 PUSH2 0xDFB JUMP JUMPDEST PUSH1 0x40 MLOAD PUSH2 0x4A5 SWAP2 SWAP1 PUSH2 0x42F3 JUMP JUMPDEST PUSH1 0x40 MLOAD DUP1 SWAP2 SUB SWAP1 RETURN JUMPDEST PUSH2 0x4C8 PUSH1 0x4 DUP1 CALLDATASIZE SUB DUP2 ADD SWAP1 PUSH2 0x4C3 SWAP2 SWAP1 PUSH2 0x46A5 JUMP JUMPDEST PUSH2 0xE89 JUMP JUMPDEST STOP JUMPDEST PUSH2 0x4E4 PUSH1 0x4 DUP1 CALLDATASIZE SUB DUP2 ADD SWAP1 PUSH2 0x4DF SWAP2 SWAP1 PUSH2 0x471B JUMP JUMPDEST PUSH2 0x11FC JUMP JUMPDEST PUSH1 0x40 MLOAD PUSH2 0x4F1 SWAP2 SWAP1 PUSH2 0x4755 JUMP JUMPDEST PUSH1 0x40 MLOAD DUP1 SWAP2 SUB SWAP1 RETURN JUMPDEST PUSH2 0x514 PUSH1 0x4 DUP1 CALLDATASIZE SUB DUP2 ADD SWAP1 PUSH2 0x50F SWAP2 SWAP1 PUSH2 0x471B JUMP JUMPDEST PUSH2 0x1262 JUMP JUMPDEST STOP JUMPDEST PUSH2 0x51E PUSH2 0x1276 JUMP JUMPDEST PUSH1 0x40 MLOAD PUSH2 0x52B SWAP2 SWAP1 PUSH2 0x4250 JUMP JUMPDEST PUSH1 0x40 MLOAD DUP1 SWAP2 SUB SWAP1 RETURN JUMPDEST PUSH2 0x54E PUSH1 0x4 DUP1 CALLDATASIZE SUB DUP2 ADD SWAP1 PUSH2 0x549 SWAP2 SWAP1 PUSH2 0x471B JUMP JUMPDEST PUSH2 0x128C JUMP JUMPDEST PUSH1 0x40 MLOAD PUSH2 0x55B SWAP2 SWAP1 PUSH2 0x478C JUMP JUMPDEST PUSH1 0x40 MLOAD DUP1 SWAP2 SUB SWAP1 RETURN JUMPDEST PUSH2 0x57E PUSH1 0x4 DUP1 CALLDATASIZE SUB DUP2 ADD SWAP1 PUSH2 0x579 SWAP2 SWAP1 PUSH2 0x471B JUMP JUMPDEST PUSH2 0x12DE JUMP JUMPDEST PUSH1 0x40 MLOAD PUSH2 0x58B SWAP2 SWAP1 PUSH2 0x43ED JUMP JUMPDEST PUSH1 0x40 MLOAD DUP1 SWAP2 SUB SWAP1 RETURN JUMPDEST PUSH2 0x5AE PUSH1 0x4 DUP1 CALLDATASIZE SUB DUP2 ADD SWAP1 PUSH2 0x5A9 SWAP2 SWAP1 PUSH2 0x43A0 JUMP JUMPDEST PUSH2 0x1324 JUMP JUMPDEST STOP JUMPDEST PUSH2 0x5CA PUSH1 0x4 DUP1 CALLDATASIZE SUB DUP2 ADD SWAP1 PUSH2 0x5C5 SWAP2 SWAP1 PUSH2 0x471B JUMP JUMPDEST PUSH2 0x148E JUMP JUMPDEST PUSH1 0x40 MLOAD PUSH2 0x5D7 SWAP2 SWAP1 PUSH2 0x43ED JUMP JUMPDEST PUSH1 0x40 MLOAD DUP1 SWAP2 SUB SWAP1 RETURN JUMPDEST PUSH2 0x5E8 PUSH2 0x14DB JUMP JUMPDEST STOP JUMPDEST PUSH2 0x5F2 PUSH2 0x1573 JUMP JUMPDEST PUSH1 0x40 MLOAD PUSH2 0x605 SWAP8 SWAP7 SWAP6 SWAP5 SWAP4 SWAP3 SWAP2 SWAP1 PUSH2 0x4896 JUMP JUMPDEST PUSH1 0x40 MLOAD DUP1 SWAP2 SUB SWAP1 RETURN JUMPDEST PUSH2 0x628 PUSH1 0x4 DUP1 CALLDATASIZE SUB DUP2 ADD SWAP1 PUSH2 0x623 SWAP2 SWAP1 PUSH2 0x454E JUMP JUMPDEST PUSH2 0x166D JUMP JUMPDEST PUSH1 0x40 MLOAD PUSH2 0x635 SWAP2 SWAP1 PUSH2 0x43ED JUMP JUMPDEST PUSH1 0x40 MLOAD DUP1 SWAP2 SUB SWAP1 RETURN JUMPDEST PUSH2 0x658 PUSH1 0x4 DUP1 CALLDATASIZE SUB DUP2 ADD SWAP1 PUSH2 0x653 SWAP2 SWAP1 PUSH2 0x44DC JUMP JUMPDEST PUSH2 0x16D2 JUMP JUMPDEST PUSH1 0x40 MLOAD PUSH2 0x665 SWAP2 SWAP1 PUSH2 0x4250 JUMP JUMPDEST PUSH1 0x40 MLOAD DUP1 SWAP2 SUB SWAP1 RETURN JUMPDEST PUSH2 0x676 PUSH2 0x1736 JUMP JUMPDEST PUSH1 0x40 MLOAD PUSH2 0x683 SWAP2 SWAP1 PUSH2 0x4938 JUMP JUMPDEST PUSH1 0x40 MLOAD DUP1 SWAP2 SUB SWAP1 RETURN JUMPDEST PUSH2 0x694 PUSH2 0x1745 JUMP JUMPDEST PUSH1 0x40 MLOAD PUSH2 0x6A1 SWAP2 SWAP1 PUSH2 0x42F3 JUMP JUMPDEST PUSH1 0x40 MLOAD DUP1 SWAP2 SUB SWAP1 RETURN JUMPDEST PUSH2 0x6C4 PUSH1 0x4 DUP1 CALLDATASIZE SUB DUP2 ADD SWAP1 PUSH2 0x6BF SWAP2 SWAP1 PUSH2 0x471B JUMP JUMPDEST PUSH2 0x17D5 JUMP JUMPDEST PUSH1 0x40 MLOAD PUSH2 0x6D1 SWAP2 SWAP1 PUSH2 0x43ED JUMP JUMPDEST PUSH1 0x40 MLOAD DUP1 SWAP2 SUB SWAP1 RETURN JUMPDEST PUSH2 0x6E2 PUSH2 0x18D5 JUMP JUMPDEST PUSH1 0x40 MLOAD PUSH2 0x6EF SWAP2 SWAP1 PUSH2 0x44C3 JUMP JUMPDEST PUSH1 0x40 MLOAD DUP1 SWAP2 SUB SWAP1 RETURN JUMPDEST PUSH2 0x712 PUSH1 0x4 DUP1 CALLDATASIZE SUB DUP2 ADD SWAP1 PUSH2 0x70D SWAP2 SWAP1 PUSH2 0x43A0 JUMP JUMPDEST PUSH2 0x18DB JUMP JUMPDEST PUSH1 0x40 MLOAD PUSH2 0x71F SWAP2 SWAP1 PUSH2 0x4250 JUMP JUMPDEST PUSH1 0x40 MLOAD DUP1 SWAP2 SUB SWAP1 RETURN JUMPDEST PUSH2 0x742 PUSH1 0x4 DUP1 CALLDATASIZE SUB DUP2 ADD SWAP1 PUSH2 0x73D SWAP2 SWAP1 PUSH2 0x43A0 JUMP JUMPDEST PUSH2 0x1950 JUMP JUMPDEST PUSH1 0x40 MLOAD PUSH2 0x74F SWAP2 SWAP1 PUSH2 0x4250 JUMP JUMPDEST PUSH1 0x40 MLOAD DUP1 SWAP2 SUB SWAP1 RETURN JUMPDEST PUSH2 0x772 PUSH1 0x4 DUP1 CALLDATASIZE SUB DUP2 ADD SWAP1 PUSH2 0x76D SWAP2 SWAP1 PUSH2 0x497B JUMP JUMPDEST PUSH2 0x1972 JUMP JUMPDEST STOP JUMPDEST PUSH2 0x78E PUSH1 0x4 DUP1 CALLDATASIZE SUB DUP2 ADD SWAP1 PUSH2 0x789 SWAP2 SWAP1 PUSH2 0x4A04 JUMP JUMPDEST PUSH2 0x1A75 JUMP JUMPDEST STOP JUMPDEST PUSH2 0x798 PUSH2 0x1BB4 JUMP JUMPDEST PUSH1 0x40 MLOAD PUSH2 0x7A5 SWAP2 SWAP1 PUSH2 0x44C3 JUMP JUMPDEST PUSH1 0x40 MLOAD DUP1 SWAP2 SUB SWAP1 RETURN JUMPDEST PUSH2 0x7C8 PUSH1 0x4 DUP1 CALLDATASIZE SUB DUP2 ADD SWAP1 PUSH2 0x7C3 SWAP2 SWAP1 PUSH2 0x44DC JUMP JUMPDEST PUSH2 0x1BD8 JUMP JUMPDEST STOP JUMPDEST PUSH2 0x7E4 PUSH1 0x4 DUP1 CALLDATASIZE SUB DUP2 ADD SWAP1 PUSH2 0x7DF SWAP2 SWAP1 PUSH2 0x4AA1 JUMP JUMPDEST PUSH2 0x1BF9 JUMP JUMPDEST PUSH1 0x40 MLOAD PUSH2 0x7F1 SWAP2 SWAP1 PUSH2 0x43ED JUMP JUMPDEST PUSH1 0x40 MLOAD DUP1 SWAP2 SUB SWAP1 RETURN JUMPDEST PUSH2 0x802 PUSH2 0x1C7B JUMP JUMPDEST PUSH1 0x40 MLOAD PUSH2 0x80F SWAP2 SWAP1 PUSH2 0x44C3 JUMP JUMPDEST PUSH1 0x40 MLOAD DUP1 SWAP2 SUB SWAP1 RETURN JUMPDEST PUSH2 0x832 PUSH1 0x4 DUP1 CALLDATASIZE SUB DUP2 ADD SWAP1 PUSH2 0x82D SWAP2 SWAP1 PUSH2 0x4B09 JUMP JUMPDEST PUSH2 0x1C9F JUMP JUMPDEST PUSH1 0x40 MLOAD PUSH2 0x83F SWAP2 SWAP1 PUSH2 0x4BB9 JUMP JUMPDEST PUSH1 0x40 MLOAD DUP1 SWAP2 SUB SWAP1 RETURN JUMPDEST PUSH0 PUSH32 0x7965DB0B00000000000000000000000000000000000000000000000000000000 PUSH28 0xFFFFFFFFFFFFFFFFFFFFFFFFFFFFFFFFFFFFFFFFFFFFFFFFFFFFFFFF NOT AND DUP3 PUSH28 0xFFFFFFFFFFFFFFFFFFFFFFFFFFFFFFFFFFFFFFFFFFFFFFFFFFFFFFFF NOT AND EQ DUP1 PUSH2 0x8BA JUMPI POP PUSH2 0x8B9 DUP3 PUSH2 0x1DA9 JUMP JUMPDEST JUMPDEST SWAP1 POP SWAP2 SWAP1 POP JUMP JUMPDEST PUSH1 0x60 PUSH1 0x9A DUP1 SLOAD PUSH2 0x8D0 SWAP1 PUSH2 0x4BFF JUMP JUMPDEST DUP1 PUSH1 0x1F ADD PUSH1 0x20 DUP1 SWAP2 DIV MUL PUSH1 0x20 ADD PUSH1 0x40 MLOAD SWAP1 DUP2 ADD PUSH1 0x40 MSTORE DUP1 SWAP3 SWAP2 SWAP1 DUP2 DUP2 MSTORE PUSH1 0x20 ADD DUP3 DUP1 SLOAD PUSH2 0x8FC SWAP1 PUSH2 0x4BFF JUMP JUMPDEST DUP1 ISZERO PUSH2 0x947 JUMPI DUP1 PUSH1 0x1F LT PUSH2 0x91E JUMPI PUSH2 0x100 DUP1 DUP4 SLOAD DIV MUL DUP4 MSTORE SWAP2 PUSH1 0x20 ADD SWAP2 PUSH2 0x947 JUMP JUMPDEST DUP3 ADD SWAP2 SWAP1 PUSH0 MSTORE PUSH1 0x20 PUSH0 KECCAK256 SWAP1 JUMPDEST DUP2 SLOAD DUP2 MSTORE SWAP1 PUSH1 0x1 ADD SWAP1 PUSH1 0x20 ADD DUP1 DUP4 GT PUSH2 0x92A JUMPI DUP3 SWAP1 SUB PUSH1 0x1F AND DUP3 ADD SWAP2 JUMPDEST POP POP POP POP POP SWAP1 POP SWAP1 JUMP JUMPDEST PUSH0 DUP1 PUSH2 0x95B PUSH2 0x1E12 JUMP JUMPDEST SWAP1 POP PUSH2 0x968 DUP2 DUP6 DUP6 PUSH2 0x1E19 JUMP JUMPDEST PUSH1 0x1 SWAP2 POP POP SWAP3 SWAP2 POP POP JUMP JUMPDEST PUSH0 PUSH1 0x99 SLOAD SWAP1 POP SWAP1 JUMP JUMPDEST PUSH0 DUP1 PUSH2 0x986 PUSH2 0x1E12 JUMP JUMPDEST SWAP1 POP PUSH2 0x993 DUP6 DUP3 DUP6 PUSH2 0x1FDC JUMP JUMPDEST PUSH2 0x99E DUP6 DUP6 DUP6 PUSH2 0x2067 JUMP JUMPDEST PUSH1 0x1 SWAP2 POP POP SWAP4 SWAP3 POP POP POP JUMP JUMPDEST PUSH0 PUSH1 0x65 PUSH0 DUP4 DUP2 MSTORE PUSH1 0x20 ADD SWAP1 DUP2 MSTORE PUSH1 0x20 ADD PUSH0 KECCAK256 PUSH1 0x1 ADD SLOAD SWAP1 POP SWAP2 SWAP1 POP JUMP JUMPDEST PUSH2 0x9D0 DUP3 PUSH2 0x9AA JUMP JUMPDEST PUSH2 0x9D9 DUP2 PUSH2 0x22D6 JUMP JUMPDEST PUSH2 0x9E3 DUP4 DUP4 PUSH2 0x22EA JUMP JUMPDEST POP POP POP JUMP JUMPDEST PUSH0 PUSH2 0x9FD PUSH8 0x6CEFFB00F5B8F424 PUSH1 0xC0 SHL PUSH2 0x23C5 JUMP JUMPDEST PUSH2 0xA11 PUSH8 0x6F181A4C156B28DF PUSH1 0xC0 SHL PUSH2 0x23C5 JUMP JUMPDEST PUSH2 0xA25 PUSH8 0x2FD4B306738CE299 PUSH1 0xC0 SHL PUSH2 0x23C5 JUMP JUMPDEST PUSH1 0x6 SWAP1 POP SWAP1 JUMP JUMPDEST PUSH1 0x6 PUSH1 0xA PUSH2 0xA3A SWAP2 SWAP1 PUSH2 0x4D8B JUMP JUMPDEST PUSH4 0x3B9ACA00 PUSH2 0xA49 SWAP2 SWAP1 PUSH2 0x4DD5 JUMP JUMPDEST DUP2 JUMP JUMPDEST PUSH0 PUSH2 0xA55 PUSH2 0x23C8 JUMP JUMPDEST SWAP1 POP SWAP1 JUMP JUMPDEST PUSH2 0xA62 PUSH2 0x1E12 JUMP JUMPDEST PUSH20 0xFFFFFFFFFFFFFFFFFFFFFFFFFFFFFFFFFFFFFFFF AND DUP2 PUSH20 0xFFFFFFFFFFFFFFFFFFFFFFFFFFFFFFFFFFFFFFFF AND EQ PUSH2 0xACF JUMPI PUSH1 0x40 MLOAD PUSH32 0x8C379A000000000000000000000000000000000000000000000000000000000 DUP2 MSTORE PUSH1 0x4 ADD PUSH2 0xAC6 SWAP1 PUSH2 0x4E86 JUMP JUMPDEST PUSH1 0x40 MLOAD DUP1 SWAP2 SUB SWAP1 REVERT JUMPDEST PUSH2 0xAD9 DUP3 DUP3 PUSH2 0x23D6 JUMP JUMPDEST POP POP JUMP JUMPDEST PUSH0 DUP1 PUSH2 0xAE7 PUSH2 0x1E12 JUMP JUMPDEST SWAP1 POP PUSH2 0xB08 DUP2 DUP6 DUP6 PUSH2 0xAF9 DUP6 DUP10 PUSH2 0x1BF9 JUMP JUMPDEST PUSH2 0xB03 SWAP2 SWAP1 PUSH2 0x4EA4 JUMP JUMPDEST PUSH2 0x1E19 JUMP JUMPDEST PUSH1 0x1 SWAP2 POP POP SWAP3 SWAP2 POP POP JUMP JUMPDEST PUSH0 PUSH2 0xB1C PUSH2 0x1736 JUMP JUMPDEST PUSH6 0xFFFFFFFFFFFF AND DUP3 LT PUSH2 0xB65 JUMPI PUSH1 0x40 MLOAD PUSH32 0x8C379A000000000000000000000000000000000000000000000000000000000 DUP2 MSTORE PUSH1 0x4 ADD PUSH2 0xB5C SWAP1 PUSH2 0x4F21 JUMP JUMPDEST PUSH1 0x40 MLOAD DUP1 SWAP2 SUB SWAP1 REVERT JUMPDEST PUSH2 0xBAC PUSH2 0x131 PUSH0 DUP6 PUSH20 0xFFFFFFFFFFFFFFFFFFFFFFFFFFFFFFFFFFFFFFFF AND PUSH20 0xFFFFFFFFFFFFFFFFFFFFFFFFFFFFFFFFFFFFFFFF AND DUP2 MSTORE PUSH1 0x20 ADD SWAP1 DUP2 MSTORE PUSH1 0x20 ADD PUSH0 KECCAK256 DUP4 PUSH2 0x24B1 JUMP JUMPDEST SWAP1 POP SWAP3 SWAP2 POP POP JUMP JUMPDEST PUSH2 0xBC8 PUSH8 0x609999F02B3D32D5 PUSH1 0xC0 SHL PUSH2 0x23C5 JUMP JUMPDEST PUSH32 0x65D7A28E3265B37A6474929F336521B332C1681B933F6CB9F3376673440D862A PUSH2 0xBF2 DUP2 PUSH2 0x22D6 JUMP JUMPDEST PUSH2 0xC06 PUSH8 0xABE91030000D1AC0 PUSH1 0xC0 SHL PUSH2 0x23C5 JUMP JUMPDEST PUSH2 0xC1A PUSH8 0xC59FE76821DD927A PUSH1 0xC0 SHL PUSH2 0x23C5 JUMP JUMPDEST PUSH2 0xC2E PUSH8 0xBC1DEE6FAFAC93DB PUSH1 0xC0 SHL PUSH2 0x23C5 JUMP JUMPDEST PUSH2 0xC42 PUSH8 0x159893534C8DE7E0 PUSH1 0xC0 SHL PUSH2 0x23C5 JUMP JUMPDEST PUSH2 0xC4A PUSH2 0x25EE JUMP JUMPDEST POP JUMP JUMPDEST PUSH2 0xC61 PUSH8 0x7E144A1024E26768 PUSH1 0xC0 SHL PUSH2 0x23C5 JUMP JUMPDEST PUSH32 0x9F2DF0FED2C77648DE5860A4CC508CD0818C85B8B8A1AB4CEEEF8D981C8956A6 PUSH2 0xC8B DUP2 PUSH2 0x22D6 JUMP JUMPDEST PUSH2 0xC9F PUSH8 0xE002F4A7F1138AE8 PUSH1 0xC0 SHL PUSH2 0x23C5 JUMP JUMPDEST PUSH2 0xCB3 PUSH8 0x633C34D81D9C2E7A PUSH1 0xC0 SHL PUSH2 0x23C5 JUMP JUMPDEST PUSH2 0xCC7 PUSH8 0xC5F2D1228BC0D60D PUSH1 0xC0 SHL PUSH2 0x23C5 JUMP JUMPDEST PUSH2 0xCDB PUSH8 0xEF978FB6DA0FD805 PUSH1 0xC0 SHL PUSH2 0x23C5 JUMP JUMPDEST PUSH2 0xCEF PUSH8 0x4FDAFA4B0CDDD4D3 PUSH1 0xC0 SHL PUSH2 0x23C5 JUMP JUMPDEST PUSH1 0x6 PUSH1 0xA PUSH2 0xCFD SWAP2 SWAP1 PUSH2 0x4D8B JUMP JUMPDEST PUSH4 0x3B9ACA00 PUSH2 0xD0C SWAP2 SWAP1 PUSH2 0x4DD5 JUMP JUMPDEST DUP3 PUSH2 0xD15 PUSH2 0x973 JUMP JUMPDEST PUSH2 0xD1F SWAP2 SWAP1 PUSH2 0x4EA4 JUMP JUMPDEST GT ISZERO PUSH2 0xD60 JUMPI PUSH1 0x40 MLOAD PUSH32 0x8C379A000000000000000000000000000000000000000000000000000000000 DUP2 MSTORE PUSH1 0x4 ADD PUSH2 0xD57 SWAP1 PUSH2 0x4FAF JUMP JUMPDEST PUSH1 0x40 MLOAD DUP1 SWAP2 SUB SWAP1 REVERT JUMPDEST PUSH2 0xD74 PUSH8 0xD53C72CAD467E7BA PUSH1 0xC0 SHL PUSH2 0x23C5 JUMP JUMPDEST PUSH2 0xD88 PUSH8 0x344ED792E6FD2A14 PUSH1 0xC0 SHL PUSH2 0x23C5 JUMP JUMPDEST PUSH2 0xD9C PUSH8 0x690192438DC80361 PUSH1 0xC0 SHL PUSH2 0x23C5 JUMP JUMPDEST PUSH2 0xDA6 DUP4 DUP4 PUSH2 0x2650 JUMP JUMPDEST POP POP POP JUMP JUMPDEST PUSH2 0xDBF PUSH8 0x77E3700C135E6C4E PUSH1 0xC0 SHL PUSH2 0x23C5 JUMP JUMPDEST PUSH2 0xDD3 PUSH8 0xDABD11CCA3D2544D PUSH1 0xC0 SHL PUSH2 0x23C5 JUMP JUMPDEST PUSH2 0xDE7 PUSH8 0xC7F8AB0A5C0665D4 PUSH1 0xC0 SHL PUSH2 0x23C5 JUMP JUMPDEST PUSH2 0xDF8 PUSH2 0xDF2 PUSH2 0x1E12 JUMP JUMPDEST DUP3 PUSH2 0x269A JUMP JUMPDEST POP JUMP JUMPDEST PUSH1 0x60 NUMBER PUSH2 0xE06 PUSH2 0x1736 JUMP JUMPDEST PUSH6 0xFFFFFFFFFFFF AND EQ PUSH2 0xE4E JUMPI PUSH1 0x40 MLOAD PUSH32 0x8C379A000000000000000000000000000000000000000000000000000000000 DUP2 MSTORE PUSH1 0x4 ADD PUSH2 0xE45 SWAP1 PUSH2 0x5017 JUMP JUMPDEST PUSH1 0x40 MLOAD DUP1 SWAP2 SUB SWAP1 REVERT JUMPDEST PUSH1 0x40 MLOAD DUP1 PUSH1 0x40 ADD PUSH1 0x40 MSTORE DUP1 PUSH1 0x1D DUP2 MSTORE PUSH1 0x20 ADD PUSH32 0x6D6F64653D626C6F636B6E756D6265722666726F6D3D64656661756C74000000 DUP2 MSTORE POP SWAP1 POP SWAP1 JUMP JUMPDEST PUSH2 0xE9D PUSH8 0x7D1353B017BD2ACB PUSH1 0xC0 SHL PUSH2 0x23C5 JUMP JUMPDEST PUSH0 DUP1 PUSH1 0x1 SWAP1 SLOAD SWAP1 PUSH2 0x100 EXP SWAP1 DIV PUSH1 0xFF AND ISZERO SWAP1 POP DUP1 DUP1 ISZERO PUSH2 0xECC JUMPI POP PUSH1 0x1 PUSH0 DUP1 SLOAD SWAP1 PUSH2 0x100 EXP SWAP1 DIV PUSH1 0xFF AND PUSH1 0xFF AND LT JUMPDEST DUP1 PUSH2 0xEF8 JUMPI POP PUSH2 0xEDB ADDRESS PUSH2 0x26E4 JUMP JUMPDEST ISZERO DUP1 ISZERO PUSH2 0xEF7 JUMPI POP PUSH1 0x1 PUSH0 DUP1 SLOAD SWAP1 PUSH2 0x100 EXP SWAP1 DIV PUSH1 0xFF AND PUSH1 0xFF AND EQ JUMPDEST JUMPDEST PUSH2 0xF37 JUMPI PUSH1 0x40 MLOAD PUSH32 0x8C379A000000000000000000000000000000000000000000000000000000000 DUP2 MSTORE PUSH1 0x4 ADD PUSH2 0xF2E SWAP1 PUSH2 0x50A5 JUMP JUMPDEST PUSH1 0x40 MLOAD DUP1 SWAP2 SUB SWAP1 REVERT JUMPDEST PUSH1 0x1 PUSH0 DUP1 PUSH2 0x100 EXP DUP2 SLOAD DUP2 PUSH1 0xFF MUL NOT AND SWAP1 DUP4 PUSH1 0xFF AND MUL OR SWAP1 SSTORE POP DUP1 ISZERO PUSH2 0xF72 JUMPI PUSH1 0x1 PUSH0 PUSH1 0x1 PUSH2 0x100 EXP DUP2 SLOAD DUP2 PUSH1 0xFF MUL NOT AND SWAP1 DUP4 ISZERO ISZERO MUL OR SWAP1 SSTORE POP JUMPDEST PUSH2 0xF86 PUSH8 0x807A5FAAB267DB3E PUSH1 0xC0 SHL PUSH2 0x23C5 JUMP JUMPDEST PUSH2 0xF9A PUSH8 0x1B87EC61CB2AF8FD PUSH1 0xC0 SHL PUSH2 0x23C5 JUMP JUMPDEST PUSH2 0xFAE PUSH8 0x75FB0FFFE85D5BA0 PUSH1 0xC0 SHL PUSH2 0x23C5 JUMP JUMPDEST PUSH2 0xFC2 PUSH8 0x6E9287142FA2BF5D PUSH1 0xC0 SHL PUSH2 0x23C5 JUMP JUMPDEST PUSH2 0xFCC DUP4 DUP4 PUSH2 0x2706 JUMP JUMPDEST PUSH2 0xFE0 PUSH8 0x5362E89620D126DD PUSH1 0xC0 SHL PUSH2 0x23C5 JUMP JUMPDEST PUSH2 0xFF4 PUSH8 0xDC3081C3B05D8E28 PUSH1 0xC0 SHL PUSH2 0x23C5 JUMP JUMPDEST PUSH2 0xFFD DUP4 PUSH2 0x2762 JUMP JUMPDEST PUSH2 0x1011 PUSH8 0x535585D7B1C7D4BC PUSH1 0xC0 SHL PUSH2 0x23C5 JUMP JUMPDEST PUSH2 0x1025 PUSH8 0x4B157AA2E3B72FBA PUSH1 0xC0 SHL PUSH2 0x23C5 JUMP JUMPDEST PUSH2 0x102D PUSH2 0x27F2 JUMP JUMPDEST PUSH2 0x1041 PUSH8 0xE7A7141161BEE42 PUSH1 0xC0 SHL PUSH2 0x23C5 JUMP JUMPDEST PUSH2 0x1055 PUSH8 0x54AEEB5A2D5CC814 PUSH1 0xC0 SHL PUSH2 0x23C5 JUMP JUMPDEST PUSH2 0x105D PUSH2 0x284A JUMP JUMPDEST PUSH2 0x1071 PUSH8 0xC7EF261C6B52E840 PUSH1 0xC0 SHL PUSH2 0x23C5 JUMP JUMPDEST PUSH2 0x1085 PUSH8 0xED8BF8D8AA09F5A8 PUSH1 0xC0 SHL PUSH2 0x23C5 JUMP JUMPDEST PUSH2 0x1098 PUSH0 DUP1 SHL PUSH2 0x1093 PUSH2 0x1E12 JUMP JUMPDEST PUSH2 0x22EA JUMP JUMPDEST PUSH2 0x10AC PUSH8 0x9FEF610354934C36 PUSH1 0xC0 SHL PUSH2 0x23C5 JUMP JUMPDEST PUSH2 0x10C0 PUSH8 0x5642366CAD1DF8B9 PUSH1 0xC0 SHL PUSH2 0x23C5 JUMP JUMPDEST PUSH2 0x10F1 PUSH32 0x65D7A28E3265B37A6474929F336521B332C1681B933F6CB9F3376673440D862A PUSH2 0x10EC PUSH2 0x1E12 JUMP JUMPDEST PUSH2 0x22EA JUMP JUMPDEST PUSH2 0x1105 PUSH8 0x631D5A374BCEF4DC PUSH1 0xC0 SHL PUSH2 0x23C5 JUMP JUMPDEST PUSH2 0x1119 PUSH8 0x2508C509E3BC1EA6 PUSH1 0xC0 SHL PUSH2 0x23C5 JUMP JUMPDEST PUSH2 0x114A PUSH32 0x9F2DF0FED2C77648DE5860A4CC508CD0818C85B8B8A1AB4CEEEF8D981C8956A6 PUSH2 0x1145 PUSH2 0x1E12 JUMP JUMPDEST PUSH2 0x22EA JUMP JUMPDEST PUSH2 0x115E PUSH8 0xB2E403D7374D65AA PUSH1 0xC0 SHL PUSH2 0x23C5 JUMP JUMPDEST PUSH2 0x1172 PUSH8 0x130D054C74F7230F PUSH1 0xC0 SHL PUSH2 0x23C5 JUMP JUMPDEST PUSH2 0x119F PUSH2 0x117D PUSH2 0x1E12 JUMP JUMPDEST PUSH1 0x6 PUSH1 0xA PUSH2 0x118B SWAP2 SWAP1 PUSH2 0x4D8B JUMP JUMPDEST PUSH4 0x3B9ACA00 PUSH2 0x119A SWAP2 SWAP1 PUSH2 0x4DD5 JUMP JUMPDEST PUSH2 0x2650 JUMP JUMPDEST DUP1 ISZERO PUSH2 0x11F7 JUMPI PUSH0 DUP1 PUSH1 0x1 PUSH2 0x100 EXP DUP2 SLOAD DUP2 PUSH1 0xFF MUL NOT AND SWAP1 DUP4 ISZERO ISZERO MUL OR SWAP1 SSTORE POP PUSH32 0x7F26B83FF96E1F2B6A682F133852F6798A09C465DA95921460CEFB3847402498 PUSH1 0x1 PUSH1 0x40 MLOAD PUSH2 0x11EE SWAP2 SWAP1 PUSH2 0x5105 JUMP JUMPDEST PUSH1 0x40 MLOAD DUP1 SWAP2 SUB SWAP1 LOG1 JUMPDEST POP POP POP JUMP JUMPDEST PUSH0 PUSH2 0x130 PUSH0 DUP4 PUSH20 0xFFFFFFFFFFFFFFFFFFFFFFFFFFFFFFFFFFFFFFFF AND PUSH20 0xFFFFFFFFFFFFFFFFFFFFFFFFFFFFFFFFFFFFFFFF AND DUP2 MSTORE PUSH1 0x20 ADD SWAP1 DUP2 MSTORE PUSH1 0x20 ADD PUSH0 KECCAK256 PUSH0 SWAP1 SLOAD SWAP1 PUSH2 0x100 EXP SWAP1 DIV PUSH20 0xFFFFFFFFFFFFFFFFFFFFFFFFFFFFFFFFFFFFFFFF AND SWAP1 POP SWAP2 SWAP1 POP JUMP JUMPDEST PUSH2 0x1273 PUSH2 0x126D PUSH2 0x1E12 JUMP JUMPDEST DUP3 PUSH2 0x289A JUMP JUMPDEST POP JUMP JUMPDEST PUSH0 PUSH2 0x162 PUSH0 SWAP1 SLOAD SWAP1 PUSH2 0x100 EXP SWAP1 DIV PUSH1 0xFF AND SWAP1 POP SWAP1 JUMP JUMPDEST PUSH0 PUSH2 0x12D7 PUSH2 0x131 PUSH0 DUP5 PUSH20 0xFFFFFFFFFFFFFFFFFFFFFFFFFFFFFFFFFFFFFFFF AND PUSH20 0xFFFFFFFFFFFFFFFFFFFFFFFFFFFFFFFFFFFFFFFF AND DUP2 MSTORE PUSH1 0x20 ADD SWAP1 DUP2 MSTORE PUSH1 0x20 ADD PUSH0 KECCAK256 DUP1 SLOAD SWAP1 POP PUSH2 0x29B0 JUMP JUMPDEST SWAP1 POP SWAP2 SWAP1 POP JUMP JUMPDEST PUSH0 PUSH1 0x97 PUSH0 DUP4 PUSH20 0xFFFFFFFFFFFFFFFFFFFFFFFFFFFFFFFFFFFFFFFF AND PUSH20 0xFFFFFFFFFFFFFFFFFFFFFFFFFFFFFFFFFFFFFFFF AND DUP2 MSTORE PUSH1 0x20 ADD SWAP1 DUP2 MSTORE PUSH1 0x20 ADD PUSH0 KECCAK256 SLOAD SWAP1 POP SWAP2 SWAP1 POP JUMP JUMPDEST PUSH2 0x1338 PUSH8 0x607442F905452DAA PUSH1 0xC0 SHL PUSH2 0x23C5 JUMP JUMPDEST PUSH2 0x134C PUSH8 0x1395F68543AA27F4 PUSH1 0xC0 SHL PUSH2 0x23C5 JUMP JUMPDEST PUSH2 0x1360 PUSH8 0x827047D6B13681E PUSH1 0xC0 SHL PUSH2 0x23C5 JUMP JUMPDEST PUSH0 PUSH2 0x1372 DUP4 PUSH2 0x136D PUSH2 0x1E12 JUMP JUMPDEST PUSH2 0x1BF9 JUMP JUMPDEST SWAP1 POP PUSH2 0x1388 PUSH8 0x44F3479EC179EF05 PUSH1 0xC0 SHL PUSH2 0x23C5 JUMP JUMPDEST PUSH2 0x139C PUSH8 0xBC481ED37C3138B0 PUSH1 0xC0 SHL PUSH2 0x23C5 JUMP JUMPDEST PUSH2 0x13B0 PUSH8 0x486FC6494B6C9788 PUSH1 0xC0 SHL PUSH2 0x23C5 JUMP JUMPDEST DUP2 DUP2 LT ISZERO PUSH2 0x13F3 JUMPI PUSH1 0x40 MLOAD PUSH32 0x8C379A000000000000000000000000000000000000000000000000000000000 DUP2 MSTORE PUSH1 0x4 ADD PUSH2 0x13EA SWAP1 PUSH2 0x518E JUMP JUMPDEST PUSH1 0x40 MLOAD DUP1 SWAP2 SUB SWAP1 REVERT JUMPDEST PUSH2 0x1407 PUSH8 0x8E6DE9144BD4DDF7 PUSH1 0xC0 SHL PUSH2 0x23C5 JUMP JUMPDEST PUSH2 0x141B PUSH8 0x6E67C260954339A0 PUSH1 0xC0 SHL PUSH2 0x23C5 JUMP JUMPDEST PUSH2 0x142F PUSH8 0x2E7C51116FBFE06F PUSH1 0xC0 SHL PUSH2 0x23C5 JUMP JUMPDEST PUSH2 0x1443 PUSH8 0x2FA744005F173F63 PUSH1 0xC0 SHL PUSH2 0x23C5 JUMP JUMPDEST PUSH2 0x1457 DUP4 PUSH2 0x144F PUSH2 0x1E12 JUMP JUMPDEST DUP5 DUP5 SUB PUSH2 0x1E19 JUMP JUMPDEST PUSH2 0x146B PUSH8 0x1AF6EA53EE18C33F PUSH1 0xC0 SHL PUSH2 0x23C5 JUMP JUMPDEST PUSH2 0x147F PUSH8 0x79063F61DD074654 PUSH1 0xC0 SHL PUSH2 0x23C5 JUMP JUMPDEST PUSH2 0x1489 DUP4 DUP4 PUSH2 0x269A JUMP JUMPDEST POP POP POP JUMP JUMPDEST PUSH0 PUSH2 0x14D4 PUSH1 0xFD PUSH0 DUP5 PUSH20 0xFFFFFFFFFFFFFFFFFFFFFFFFFFFFFFFFFFFFFFFF AND PUSH20 0xFFFFFFFFFFFFFFFFFFFFFFFFFFFFFFFFFFFFFFFF AND DUP2 MSTORE PUSH1 0x20 ADD SWAP1 DUP2 MSTORE PUSH1 0x20 ADD PUSH0 KECCAK256 PUSH2 0x2A02 JUMP JUMPDEST SWAP1 POP SWAP2 SWAP1 POP JUMP JUMPDEST PUSH2 0x14EF PUSH8 0xEBB165517487136F PUSH1 0xC0 SHL PUSH2 0x23C5 JUMP JUMPDEST PUSH32 0x65D7A28E3265B37A6474929F336521B332C1681B933F6CB9F3376673440D862A PUSH2 0x1519 DUP2 PUSH2 0x22D6 JUMP JUMPDEST PUSH2 0x152C PUSH7 0x8ADAD4DE1C304A PUSH1 0xC0 SHL PUSH2 0x23C5 JUMP JUMPDEST PUSH2 0x1540 PUSH8 0x5F719CAFD3ED6C93 PUSH1 0xC0 SHL PUSH2 0x23C5 JUMP JUMPDEST PUSH2 0x1554 PUSH8 0x3CBACA61587CAA0F PUSH1 0xC0 SHL PUSH2 0x23C5 JUMP JUMPDEST PUSH2 0x1568 PUSH8 0xFE0EA4ED91E2D2C PUSH1 0xC0 SHL PUSH2 0x23C5 JUMP JUMPDEST PUSH2 0x1570 PUSH2 0x2A0E JUMP JUMPDEST POP JUMP JUMPDEST PUSH0 PUSH1 0x60 DUP1 PUSH0 DUP1 PUSH0 PUSH1 0x60 PUSH0 DUP1 SHL PUSH1 0xC9 SLOAD EQ DUP1 ISZERO PUSH2 0x1592 JUMPI POP PUSH0 DUP1 SHL PUSH1 0xCA SLOAD EQ JUMPDEST PUSH2 0x15D1 JUMPI PUSH1 0x40 MLOAD PUSH32 0x8C379A000000000000000000000000000000000000000000000000000000000 DUP2 MSTORE PUSH1 0x4 ADD PUSH2 0x15C8 SWAP1 PUSH2 0x51F6 JUMP JUMPDEST PUSH1 0x40 MLOAD DUP1 SWAP2 SUB SWAP1 REVERT JUMPDEST PUSH2 0x15D9 PUSH2 0x2A71 JUMP JUMPDEST PUSH2 0x15E1 PUSH2 0x2B01 JUMP JUMPDEST CHAINID ADDRESS PUSH0 DUP1 SHL PUSH0 PUSH8 0xFFFFFFFFFFFFFFFF DUP2 GT ISZERO PUSH2 0x1600 JUMPI PUSH2 0x15FF PUSH2 0x4581 JUMP JUMPDEST JUMPDEST PUSH1 0x40 MLOAD SWAP1 DUP1 DUP3 MSTORE DUP1 PUSH1 0x20 MUL PUSH1 0x20 ADD DUP3 ADD PUSH1 0x40 MSTORE DUP1 ISZERO PUSH2 0x162E JUMPI DUP2 PUSH1 0x20 ADD PUSH1 0x20 DUP3 MUL DUP1 CALLDATASIZE DUP4 CALLDATACOPY DUP1 DUP3 ADD SWAP2 POP POP SWAP1 POP JUMPDEST POP PUSH32 0xF00000000000000000000000000000000000000000000000000000000000000 SWAP6 SWAP5 SWAP4 SWAP3 SWAP2 SWAP1 SWAP7 POP SWAP7 POP SWAP7 POP SWAP7 POP SWAP7 POP SWAP7 POP SWAP7 POP SWAP1 SWAP2 SWAP3 SWAP4 SWAP5 SWAP6 SWAP7 JUMP JUMPDEST PUSH0 PUSH2 0x1676 PUSH2 0x1736 JUMP JUMPDEST PUSH6 0xFFFFFFFFFFFF AND DUP3 LT PUSH2 0x16BF JUMPI PUSH1 0x40 MLOAD PUSH32 0x8C379A000000000000000000000000000000000000000000000000000000000 DUP2 MSTORE PUSH1 0x4 ADD PUSH2 0x16B6 SWAP1 PUSH2 0x4F21 JUMP JUMPDEST PUSH1 0x40 MLOAD DUP1 SWAP2 SUB SWAP1 REVERT JUMPDEST PUSH2 0x16CB PUSH2 0x132 DUP4 PUSH2 0x24B1 JUMP JUMPDEST SWAP1 POP SWAP2 SWAP1 POP JUMP JUMPDEST PUSH0 PUSH1 0x65 PUSH0 DUP5 DUP2 MSTORE PUSH1 0x20 ADD SWAP1 DUP2 MSTORE PUSH1 0x20 ADD PUSH0 KECCAK256 PUSH0 ADD PUSH0 DUP4 PUSH20 0xFFFFFFFFFFFFFFFFFFFFFFFFFFFFFFFFFFFFFFFF AND PUSH20 0xFFFFFFFFFFFFFFFFFFFFFFFFFFFFFFFFFFFFFFFF AND DUP2 MSTORE PUSH1 0x20 ADD SWAP1 DUP2 MSTORE PUSH1 0x20 ADD PUSH0 KECCAK256 PUSH0 SWAP1 SLOAD SWAP1 PUSH2 0x100 EXP SWAP1 DIV PUSH1 0xFF AND SWAP1 POP SWAP3 SWAP2 POP POP JUMP JUMPDEST PUSH0 PUSH2 0x1740 NUMBER PUSH2 0x2B91 JUMP JUMPDEST SWAP1 POP SWAP1 JUMP JUMPDEST PUSH1 0x60 PUSH1 0x9B DUP1 SLOAD PUSH2 0x1754 SWAP1 PUSH2 0x4BFF JUMP JUMPDEST DUP1 PUSH1 0x1F ADD PUSH1 0x20 DUP1 SWAP2 DIV MUL PUSH1 0x20 ADD PUSH1 0x40 MLOAD SWAP1 DUP2 ADD PUSH1 0x40 MSTORE DUP1 SWAP3 SWAP2 SWAP1 DUP2 DUP2 MSTORE PUSH1 0x20 ADD DUP3 DUP1 SLOAD PUSH2 0x1780 SWAP1 PUSH2 0x4BFF JUMP JUMPDEST DUP1 ISZERO PUSH2 0x17CB JUMPI DUP1 PUSH1 0x1F LT PUSH2 0x17A2 JUMPI PUSH2 0x100 DUP1 DUP4 SLOAD DIV MUL DUP4 MSTORE SWAP2 PUSH1 0x20 ADD SWAP2 PUSH2 0x17CB JUMP JUMPDEST DUP3 ADD SWAP2 SWAP1 PUSH0 MSTORE PUSH1 0x20 PUSH0 KECCAK256 SWAP1 JUMPDEST DUP2 SLOAD DUP2 MSTORE SWAP1 PUSH1 0x1 ADD SWAP1 PUSH1 0x20 ADD DUP1 DUP4 GT PUSH2 0x17AE JUMPI DUP3 SWAP1 SUB PUSH1 0x1F AND DUP3 ADD SWAP2 JUMPDEST POP POP POP POP POP SWAP1 POP SWAP1 JUMP JUMPDEST PUSH0 DUP1 PUSH2 0x131 PUSH0 DUP5 PUSH20 0xFFFFFFFFFFFFFFFFFFFFFFFFFFFFFFFFFFFFFFFF AND PUSH20 0xFFFFFFFFFFFFFFFFFFFFFFFFFFFFFFFFFFFFFFFF AND DUP2 MSTORE PUSH1 0x20 ADD SWAP1 DUP2 MSTORE PUSH1 0x20 ADD PUSH0 KECCAK256 DUP1 SLOAD SWAP1 POP SWAP1 POP PUSH0 DUP2 EQ PUSH2 0x18AD JUMPI PUSH2 0x131 PUSH0 DUP5 PUSH20 0xFFFFFFFFFFFFFFFFFFFFFFFFFFFFFFFFFFFFFFFF AND PUSH20 0xFFFFFFFFFFFFFFFFFFFFFFFFFFFFFFFFFFFFFFFF AND DUP2 MSTORE PUSH1 0x20 ADD SWAP1 DUP2 MSTORE PUSH1 0x20 ADD PUSH0 KECCAK256 PUSH1 0x1 DUP3 SUB DUP2 SLOAD DUP2 LT PUSH2 0x1875 JUMPI PUSH2 0x1874 PUSH2 0x5214 JUMP JUMPDEST JUMPDEST SWAP1 PUSH0 MSTORE PUSH1 0x20 PUSH0 KECCAK256 ADD PUSH0 ADD PUSH1 0x4 SWAP1 SLOAD SWAP1 PUSH2 0x100 EXP SWAP1 DIV PUSH28 0xFFFFFFFFFFFFFFFFFFFFFFFFFFFFFFFFFFFFFFFFFFFFFFFFFFFFFFFF AND PUSH2 0x18AF JUMP JUMPDEST PUSH0 JUMPDEST PUSH28 0xFFFFFFFFFFFFFFFFFFFFFFFFFFFFFFFFFFFFFFFFFFFFFFFFFFFFFFFF AND SWAP2 POP POP SWAP2 SWAP1 POP JUMP JUMPDEST PUSH0 DUP1 SHL DUP2 JUMP JUMPDEST PUSH0 DUP1 PUSH2 0x18E5 PUSH2 0x1E12 JUMP JUMPDEST SWAP1 POP PUSH0 PUSH2 0x18F2 DUP3 DUP7 PUSH2 0x1BF9 JUMP JUMPDEST SWAP1 POP DUP4 DUP2 LT ISZERO PUSH2 0x1937 JUMPI PUSH1 0x40 MLOAD PUSH32 0x8C379A000000000000000000000000000000000000000000000000000000000 DUP2 MSTORE PUSH1 0x4 ADD PUSH2 0x192E SWAP1 PUSH2 0x52B1 JUMP JUMPDEST PUSH1 0x40 MLOAD DUP1 SWAP2 SUB SWAP1 REVERT JUMPDEST PUSH2 0x1944 DUP3 DUP7 DUP7 DUP5 SUB PUSH2 0x1E19 JUMP JUMPDEST PUSH1 0x1 SWAP3 POP POP POP SWAP3 SWAP2 POP POP JUMP JUMPDEST PUSH0 DUP1 PUSH2 0x195A PUSH2 0x1E12 JUMP JUMPDEST SWAP1 POP PUSH2 0x1967 DUP2 DUP6 DUP6 PUSH2 0x2067 JUMP JUMPDEST PUSH1 0x1 SWAP2 POP POP SWAP3 SWAP2 POP POP JUMP JUMPDEST DUP4 TIMESTAMP GT ISZERO PUSH2 0x19B5 JUMPI PUSH1 0x40 MLOAD PUSH32 0x8C379A000000000000000000000000000000000000000000000000000000000 DUP2 MSTORE PUSH1 0x4 ADD PUSH2 0x19AC SWAP1 PUSH2 0x5319 JUMP JUMPDEST PUSH1 0x40 MLOAD DUP1 SWAP2 SUB SWAP1 REVERT JUMPDEST PUSH0 PUSH2 0x1A16 PUSH2 0x1A0E PUSH32 0xE48329057BFD03D55E49B547132E39CFFD9C1820AD7B9D4C5307691425D15ADF DUP10 DUP10 DUP10 PUSH1 0x40 MLOAD PUSH1 0x20 ADD PUSH2 0x19F3 SWAP5 SWAP4 SWAP3 SWAP2 SWAP1 PUSH2 0x5337 JUMP JUMPDEST PUSH1 0x40 MLOAD PUSH1 0x20 DUP2 DUP4 SUB SUB DUP2 MSTORE SWAP1 PUSH1 0x40 MSTORE DUP1 MLOAD SWAP1 PUSH1 0x20 ADD KECCAK256 PUSH2 0x2BE5 JUMP JUMPDEST DUP6 DUP6 DUP6 PUSH2 0x2BFE JUMP JUMPDEST SWAP1 POP PUSH2 0x1A21 DUP2 PUSH2 0x2C27 JUMP JUMPDEST DUP7 EQ PUSH2 0x1A62 JUMPI PUSH1 0x40 MLOAD PUSH32 0x8C379A000000000000000000000000000000000000000000000000000000000 DUP2 MSTORE PUSH1 0x4 ADD PUSH2 0x1A59 SWAP1 PUSH2 0x53C4 JUMP JUMPDEST PUSH1 0x40 MLOAD DUP1 SWAP2 SUB SWAP1 REVERT JUMPDEST PUSH2 0x1A6C DUP2 DUP9 PUSH2 0x289A JUMP JUMPDEST POP POP POP POP POP POP POP JUMP JUMPDEST DUP4 TIMESTAMP GT ISZERO PUSH2 0x1AB8 JUMPI PUSH1 0x40 MLOAD PUSH32 0x8C379A000000000000000000000000000000000000000000000000000000000 DUP2 MSTORE PUSH1 0x4 ADD PUSH2 0x1AAF SWAP1 PUSH2 0x542C JUMP JUMPDEST PUSH1 0x40 MLOAD DUP1 SWAP2 SUB SWAP1 REVERT JUMPDEST PUSH0 PUSH32 0x6E71EDAE12B1B97F4D1F60370FEF10105FA2FAAE0126114A169C64845D6126C9 DUP9 DUP9 DUP9 PUSH2 0x1AE6 DUP13 PUSH2 0x2C27 JUMP JUMPDEST DUP10 PUSH1 0x40 MLOAD PUSH1 0x20 ADD PUSH2 0x1AFC SWAP7 SWAP6 SWAP5 SWAP4 SWAP3 SWAP2 SWAP1 PUSH2 0x544A JUMP JUMPDEST PUSH1 0x40 MLOAD PUSH1 0x20 DUP2 DUP4 SUB SUB DUP2 MSTORE SWAP1 PUSH1 0x40 MSTORE DUP1 MLOAD SWAP1 PUSH1 0x20 ADD KECCAK256 SWAP1 POP PUSH0 PUSH2 0x1B1E DUP3 PUSH2 0x2BE5 JUMP JUMPDEST SWAP1 POP PUSH0 PUSH2 0x1B2D DUP3 DUP8 DUP8 DUP8 PUSH2 0x2BFE JUMP JUMPDEST SWAP1 POP DUP10 PUSH20 0xFFFFFFFFFFFFFFFFFFFFFFFFFFFFFFFFFFFFFFFF AND DUP2 PUSH20 0xFFFFFFFFFFFFFFFFFFFFFFFFFFFFFFFFFFFFFFFF AND EQ PUSH2 0x1B9D JUMPI PUSH1 0x40 MLOAD PUSH32 0x8C379A000000000000000000000000000000000000000000000000000000000 DUP2 MSTORE PUSH1 0x4 ADD PUSH2 0x1B94 SWAP1 PUSH2 0x54F3 JUMP JUMPDEST PUSH1 0x40 MLOAD DUP1 SWAP2 SUB SWAP1 REVERT JUMPDEST PUSH2 0x1BA8 DUP11 DUP11 DUP11 PUSH2 0x1E19 JUMP JUMPDEST POP POP POP POP POP POP POP POP POP POP JUMP JUMPDEST PUSH32 0x9F2DF0FED2C77648DE5860A4CC508CD0818C85B8B8A1AB4CEEEF8D981C8956A6 DUP2 JUMP JUMPDEST PUSH2 0x1BE1 DUP3 PUSH2 0x9AA JUMP JUMPDEST PUSH2 0x1BEA DUP2 PUSH2 0x22D6 JUMP JUMPDEST PUSH2 0x1BF4 DUP4 DUP4 PUSH2 0x23D6 JUMP JUMPDEST POP POP POP JUMP JUMPDEST PUSH0 PUSH1 0x98 PUSH0 DUP5 PUSH20 0xFFFFFFFFFFFFFFFFFFFFFFFFFFFFFFFFFFFFFFFF AND PUSH20 0xFFFFFFFFFFFFFFFFFFFFFFFFFFFFFFFFFFFFFFFF AND DUP2 MSTORE PUSH1 0x20 ADD SWAP1 DUP2 MSTORE PUSH1 0x20 ADD PUSH0 KECCAK256 PUSH0 DUP4 PUSH20 0xFFFFFFFFFFFFFFFFFFFFFFFFFFFFFFFFFFFFFFFF AND PUSH20 0xFFFFFFFFFFFFFFFFFFFFFFFFFFFFFFFFFFFFFFFF AND DUP2 MSTORE PUSH1 0x20 ADD SWAP1 DUP2 MSTORE PUSH1 0x20 ADD PUSH0 KECCAK256 SLOAD SWAP1 POP SWAP3 SWAP2 POP POP JUMP JUMPDEST PUSH32 0x65D7A28E3265B37A6474929F336521B332C1681B933F6CB9F3376673440D862A DUP2 JUMP JUMPDEST PUSH2 0x1CA7 PUSH2 0x4169 JUMP JUMPDEST PUSH2 0x131 PUSH0 DUP5 PUSH20 0xFFFFFFFFFFFFFFFFFFFFFFFFFFFFFFFFFFFFFFFF AND PUSH20 0xFFFFFFFFFFFFFFFFFFFFFFFFFFFFFFFFFFFFFFFF AND DUP2 MSTORE PUSH1 0x20 ADD SWAP1 DUP2 MSTORE PUSH1 0x20 ADD PUSH0 KECCAK256 DUP3 PUSH4 0xFFFFFFFF AND DUP2 SLOAD DUP2 LT PUSH2 0x1CFD JUMPI PUSH2 0x1CFC PUSH2 0x5214 JUMP JUMPDEST JUMPDEST SWAP1 PUSH0 MSTORE PUSH1 0x20 PUSH0 KECCAK256 ADD PUSH1 0x40 MLOAD DUP1 PUSH1 0x40 ADD PUSH1 0x40 MSTORE SWAP1 DUP2 PUSH0 DUP3 ADD PUSH0 SWAP1 SLOAD SWAP1 PUSH2 0x100 EXP SWAP1 DIV PUSH4 0xFFFFFFFF AND PUSH4 0xFFFFFFFF AND PUSH4 0xFFFFFFFF AND DUP2 MSTORE PUSH1 0x20 ADD PUSH0 DUP3 ADD PUSH1 0x4 SWAP1 SLOAD SWAP1 PUSH2 0x100 EXP SWAP1 DIV PUSH28 0xFFFFFFFFFFFFFFFFFFFFFFFFFFFFFFFFFFFFFFFFFFFFFFFFFFFFFFFF AND PUSH28 0xFFFFFFFFFFFFFFFFFFFFFFFFFFFFFFFFFFFFFFFFFFFFFFFFFFFFFFFF AND PUSH28 0xFFFFFFFFFFFFFFFFFFFFFFFFFFFFFFFFFFFFFFFFFFFFFFFFFFFFFFFF AND DUP2 MSTORE POP POP SWAP1 POP SWAP3 SWAP2 POP POP JUMP JUMPDEST PUSH0 PUSH32 0x1FFC9A700000000000000000000000000000000000000000000000000000000 PUSH28 0xFFFFFFFFFFFFFFFFFFFFFFFFFFFFFFFFFFFFFFFFFFFFFFFFFFFFFFFF NOT AND DUP3 PUSH28 0xFFFFFFFFFFFFFFFFFFFFFFFFFFFFFFFFFFFFFFFFFFFFFFFFFFFFFFFF NOT AND EQ SWAP1 POP SWAP2 SWAP1 POP JUMP JUMPDEST PUSH0 CALLER SWAP1 POP SWAP1 JUMP JUMPDEST PUSH0 PUSH20 0xFFFFFFFFFFFFFFFFFFFFFFFFFFFFFFFFFFFFFFFF AND DUP4 PUSH20 0xFFFFFFFFFFFFFFFFFFFFFFFFFFFFFFFFFFFFFFFF AND SUB PUSH2 0x1E87 JUMPI PUSH1 0x40 MLOAD PUSH32 0x8C379A000000000000000000000000000000000000000000000000000000000 DUP2 MSTORE PUSH1 0x4 ADD PUSH2 0x1E7E SWAP1 PUSH2 0x5581 JUMP JUMPDEST PUSH1 0x40 MLOAD DUP1 SWAP2 SUB SWAP1 REVERT JUMPDEST PUSH0 PUSH20 0xFFFFFFFFFFFFFFFFFFFFFFFFFFFFFFFFFFFFFFFF AND DUP3 PUSH20 0xFFFFFFFFFFFFFFFFFFFFFFFFFFFFFFFFFFFFFFFF AND SUB PUSH2 0x1EF5 JUMPI PUSH1 0x40 MLOAD PUSH32 0x8C379A000000000000000000000000000000000000000000000000000000000 DUP2 MSTORE PUSH1 0x4 ADD PUSH2 0x1EEC SWAP1 PUSH2 0x560F JUMP JUMPDEST PUSH1 0x40 MLOAD DUP1 SWAP2 SUB SWAP1 REVERT JUMPDEST DUP1 PUSH1 0x98 PUSH0 DUP6 PUSH20 0xFFFFFFFFFFFFFFFFFFFFFFFFFFFFFFFFFFFFFFFF AND PUSH20 0xFFFFFFFFFFFFFFFFFFFFFFFFFFFFFFFFFFFFFFFF AND DUP2 MSTORE PUSH1 0x20 ADD SWAP1 DUP2 MSTORE PUSH1 0x20 ADD PUSH0 KECCAK256 PUSH0 DUP5 PUSH20 0xFFFFFFFFFFFFFFFFFFFFFFFFFFFFFFFFFFFFFFFF AND PUSH20 0xFFFFFFFFFFFFFFFFFFFFFFFFFFFFFFFFFFFFFFFF AND DUP2 MSTORE PUSH1 0x20 ADD SWAP1 DUP2 MSTORE PUSH1 0x20 ADD PUSH0 KECCAK256 DUP2 SWAP1 SSTORE POP DUP2 PUSH20 0xFFFFFFFFFFFFFFFFFFFFFFFFFFFFFFFFFFFFFFFF AND DUP4 PUSH20 0xFFFFFFFFFFFFFFFFFFFFFFFFFFFFFFFFFFFFFFFF AND PUSH32 0x8C5BE1E5EBEC7D5BD14F71427D1E84F3DD0314C0F7B2291E5B200AC8C7C3B925 DUP4 PUSH1 0x40 MLOAD PUSH2 0x1FCF SWAP2 SWAP1 PUSH2 0x43ED JUMP JUMPDEST PUSH1 0x40 MLOAD DUP1 SWAP2 SUB SWAP1 LOG3 POP POP POP JUMP JUMPDEST PUSH0 PUSH2 0x1FE7 DUP5 DUP5 PUSH2 0x1BF9 JUMP JUMPDEST SWAP1 POP PUSH32 0xFFFFFFFFFFFFFFFFFFFFFFFFFFFFFFFFFFFFFFFFFFFFFFFFFFFFFFFFFFFFFFFF DUP2 EQ PUSH2 0x2061 JUMPI DUP2 DUP2 LT ISZERO PUSH2 0x2053 JUMPI PUSH1 0x40 MLOAD PUSH32 0x8C379A000000000000000000000000000000000000000000000000000000000 DUP2 MSTORE PUSH1 0x4 ADD PUSH2 0x204A SWAP1 PUSH2 0x5677 JUMP JUMPDEST PUSH1 0x40 MLOAD DUP1 SWAP2 SUB SWAP1 REVERT JUMPDEST PUSH2 0x2060 DUP5 DUP5 DUP5 DUP5 SUB PUSH2 0x1E19 JUMP JUMPDEST JUMPDEST POP POP POP POP JUMP JUMPDEST PUSH0 PUSH20 0xFFFFFFFFFFFFFFFFFFFFFFFFFFFFFFFFFFFFFFFF AND DUP4 PUSH20 0xFFFFFFFFFFFFFFFFFFFFFFFFFFFFFFFFFFFFFFFF AND SUB PUSH2 0x20D5 JUMPI PUSH1 0x40 MLOAD PUSH32 0x8C379A000000000000000000000000000000000000000000000000000000000 DUP2 MSTORE PUSH1 0x4 ADD PUSH2 0x20CC SWAP1 PUSH2 0x5705 JUMP JUMPDEST PUSH1 0x40 MLOAD DUP1 SWAP2 SUB SWAP1 REVERT JUMPDEST PUSH0 PUSH20 0xFFFFFFFFFFFFFFFFFFFFFFFFFFFFFFFFFFFFFFFF AND DUP3 PUSH20 0xFFFFFFFFFFFFFFFFFFFFFFFFFFFFFFFFFFFFFFFF AND SUB PUSH2 0x2143 JUMPI PUSH1 0x40 MLOAD PUSH32 0x8C379A000000000000000000000000000000000000000000000000000000000 DUP2 MSTORE PUSH1 0x4 ADD PUSH2 0x213A SWAP1 PUSH2 0x5793 JUMP JUMPDEST PUSH1 0x40 MLOAD DUP1 SWAP2 SUB SWAP1 REVERT JUMPDEST PUSH2 0x214E DUP4 DUP4 DUP4 PUSH2 0x2C82 JUMP JUMPDEST PUSH0 PUSH1 0x97 PUSH0 DUP6 PUSH20 0xFFFFFFFFFFFFFFFFFFFFFFFFFFFFFFFFFFFFFFFF AND PUSH20 0xFFFFFFFFFFFFFFFFFFFFFFFFFFFFFFFFFFFFFFFF AND DUP2 MSTORE PUSH1 0x20 ADD SWAP1 DUP2 MSTORE PUSH1 0x20 ADD PUSH0 KECCAK256 SLOAD SWAP1 POP DUP2 DUP2 LT ISZERO PUSH2 0x21D2 JUMPI PUSH1 0x40 MLOAD PUSH32 0x8C379A000000000000000000000000000000000000000000000000000000000 DUP2 MSTORE PUSH1 0x4 ADD PUSH2 0x21C9 SWAP1 PUSH2 0x5821 JUMP JUMPDEST PUSH1 0x40 MLOAD DUP1 SWAP2 SUB SWAP1 REVERT JUMPDEST DUP2 DUP2 SUB PUSH1 0x97 PUSH0 DUP7 PUSH20 0xFFFFFFFFFFFFFFFFFFFFFFFFFFFFFFFFFFFFFFFF AND PUSH20 0xFFFFFFFFFFFFFFFFFFFFFFFFFFFFFFFFFFFFFFFF AND DUP2 MSTORE PUSH1 0x20 ADD SWAP1 DUP2 MSTORE PUSH1 0x20 ADD PUSH0 KECCAK256 DUP2 SWAP1 SSTORE POP DUP2 PUSH1 0x97 PUSH0 DUP6 PUSH20 0xFFFFFFFFFFFFFFFFFFFFFFFFFFFFFFFFFFFFFFFF AND PUSH20 0xFFFFFFFFFFFFFFFFFFFFFFFFFFFFFFFFFFFFFFFF AND DUP2 MSTORE PUSH1 0x20 ADD SWAP1 DUP2 MSTORE PUSH1 0x20 ADD PUSH0 KECCAK256 PUSH0 DUP3 DUP3 SLOAD ADD SWAP3 POP POP DUP2 SWAP1 SSTORE POP DUP3 PUSH20 0xFFFFFFFFFFFFFFFFFFFFFFFFFFFFFFFFFFFFFFFF AND DUP5 PUSH20 0xFFFFFFFFFFFFFFFFFFFFFFFFFFFFFFFFFFFFFFFF AND PUSH32 0xDDF252AD1BE2C89B69C2B068FC378DAA952BA7F163C4A11628F55A4DF523B3EF DUP5 PUSH1 0x40 MLOAD PUSH2 0x22BD SWAP2 SWAP1 PUSH2 0x43ED JUMP JUMPDEST PUSH1 0x40 MLOAD DUP1 SWAP2 SUB SWAP1 LOG3 PUSH2 0x22D0 DUP5 DUP5 DUP5 PUSH2 0x2CFE JUMP JUMPDEST POP POP POP POP JUMP JUMPDEST PUSH2 0x22E7 DUP2 PUSH2 0x22E2 PUSH2 0x1E12 JUMP JUMPDEST PUSH2 0x2D4A JUMP JUMPDEST POP JUMP JUMPDEST PUSH2 0x22F4 DUP3 DUP3 PUSH2 0x16D2 JUMP JUMPDEST PUSH2 0x23C1 JUMPI PUSH1 0x1 PUSH1 0x65 PUSH0 DUP5 DUP2 MSTORE PUSH1 0x20 ADD SWAP1 DUP2 MSTORE PUSH1 0x20 ADD PUSH0 KECCAK256 PUSH0 ADD PUSH0 DUP4 PUSH20 0xFFFFFFFFFFFFFFFFFFFFFFFFFFFFFFFFFFFFFFFF AND PUSH20 0xFFFFFFFFFFFFFFFFFFFFFFFFFFFFFFFFFFFFFFFF AND DUP2 MSTORE PUSH1 0x20 ADD SWAP1 DUP2 MSTORE PUSH1 0x20 ADD PUSH0 KECCAK256 PUSH0 PUSH2 0x100 EXP DUP2 SLOAD DUP2 PUSH1 0xFF MUL NOT AND SWAP1 DUP4 ISZERO ISZERO MUL OR SWAP1 SSTORE POP PUSH2 0x2366 PUSH2 0x1E12 JUMP JUMPDEST PUSH20 0xFFFFFFFFFFFFFFFFFFFFFFFFFFFFFFFFFFFFFFFF AND DUP2 PUSH20 0xFFFFFFFFFFFFFFFFFFFFFFFFFFFFFFFFFFFFFFFF AND DUP4 PUSH32 0x2F8788117E7EFF1D82E926EC794901D17C78024A50270940304540A733656F0D PUSH1 0x40 MLOAD PUSH1 0x40 MLOAD DUP1 SWAP2 SUB SWAP1 LOG4 JUMPDEST POP POP JUMP JUMPDEST POP JUMP JUMPDEST PUSH0 PUSH2 0x23D1 PUSH2 0x2DCE JUMP JUMPDEST SWAP1 POP SWAP1 JUMP JUMPDEST PUSH2 0x23E0 DUP3 DUP3 PUSH2 0x16D2 JUMP JUMPDEST ISZERO PUSH2 0x24AD JUMPI PUSH0 PUSH1 0x65 PUSH0 DUP5 DUP2 MSTORE PUSH1 0x20 ADD SWAP1 DUP2 MSTORE PUSH1 0x20 ADD PUSH0 KECCAK256 PUSH0 ADD PUSH0 DUP4 PUSH20 0xFFFFFFFFFFFFFFFFFFFFFFFFFFFFFFFFFFFFFFFF AND PUSH20 0xFFFFFFFFFFFFFFFFFFFFFFFFFFFFFFFFFFFFFFFF AND DUP2 MSTORE PUSH1 0x20 ADD SWAP1 DUP2 MSTORE PUSH1 0x20 ADD PUSH0 KECCAK256 PUSH0 PUSH2 0x100 EXP DUP2 SLOAD DUP2 PUSH1 0xFF MUL NOT AND SWAP1 DUP4 ISZERO ISZERO MUL OR SWAP1 SSTORE POP PUSH2 0x2452 PUSH2 0x1E12 JUMP JUMPDEST PUSH20 0xFFFFFFFFFFFFFFFFFFFFFFFFFFFFFFFFFFFFFFFF AND DUP2 PUSH20 0xFFFFFFFFFFFFFFFFFFFFFFFFFFFFFFFFFFFFFFFF AND DUP4 PUSH32 0xF6391F5C32D9C69D2A47EA670B442974B53935D1EDC7FD64EB21E047A839171B PUSH1 0x40 MLOAD PUSH1 0x40 MLOAD DUP1 SWAP2 SUB SWAP1 LOG4 JUMPDEST POP POP JUMP JUMPDEST PUSH0 DUP1 DUP4 DUP1 SLOAD SWAP1 POP SWAP1 POP PUSH0 DUP1 DUP3 SWAP1 POP PUSH1 0x5 DUP4 GT ISZERO PUSH2 0x2522 JUMPI PUSH0 PUSH2 0x24D2 DUP5 PUSH2 0x2E31 JUMP JUMPDEST DUP5 PUSH2 0x24DD SWAP2 SWAP1 PUSH2 0x583F JUMP JUMPDEST SWAP1 POP DUP6 PUSH2 0x24EA DUP9 DUP4 PUSH2 0x2F27 JUMP JUMPDEST PUSH0 ADD PUSH0 SWAP1 SLOAD SWAP1 PUSH2 0x100 EXP SWAP1 DIV PUSH4 0xFFFFFFFF AND PUSH4 0xFFFFFFFF AND GT ISZERO PUSH2 0x2510 JUMPI DUP1 SWAP2 POP PUSH2 0x2520 JUMP JUMPDEST PUSH1 0x1 DUP2 PUSH2 0x251D SWAP2 SWAP1 PUSH2 0x4EA4 JUMP JUMPDEST SWAP3 POP JUMPDEST POP JUMPDEST JUMPDEST DUP1 DUP3 LT ISZERO PUSH2 0x257F JUMPI PUSH0 PUSH2 0x2536 DUP4 DUP4 PUSH2 0x2F39 JUMP JUMPDEST SWAP1 POP DUP6 PUSH2 0x2543 DUP9 DUP4 PUSH2 0x2F27 JUMP JUMPDEST PUSH0 ADD PUSH0 SWAP1 SLOAD SWAP1 PUSH2 0x100 EXP SWAP1 DIV PUSH4 0xFFFFFFFF AND PUSH4 0xFFFFFFFF AND GT ISZERO PUSH2 0x2569 JUMPI DUP1 SWAP2 POP PUSH2 0x2579 JUMP JUMPDEST PUSH1 0x1 DUP2 PUSH2 0x2576 SWAP2 SWAP1 PUSH2 0x4EA4 JUMP JUMPDEST SWAP3 POP JUMPDEST POP PUSH2 0x2523 JUMP JUMPDEST PUSH0 DUP2 EQ PUSH2 0x25C3 JUMPI PUSH2 0x2593 DUP7 PUSH1 0x1 DUP4 SUB PUSH2 0x2F27 JUMP JUMPDEST PUSH0 ADD PUSH1 0x4 SWAP1 SLOAD SWAP1 PUSH2 0x100 EXP SWAP1 DIV PUSH28 0xFFFFFFFFFFFFFFFFFFFFFFFFFFFFFFFFFFFFFFFFFFFFFFFFFFFFFFFF AND PUSH2 0x25C5 JUMP JUMPDEST PUSH0 JUMPDEST PUSH28 0xFFFFFFFFFFFFFFFFFFFFFFFFFFFFFFFFFFFFFFFFFFFFFFFFFFFFFFFF AND SWAP4 POP POP POP POP SWAP3 SWAP2 POP POP JUMP JUMPDEST PUSH2 0x25F6 PUSH2 0x2F5E JUMP JUMPDEST PUSH0 PUSH2 0x162 PUSH0 PUSH2 0x100 EXP DUP2 SLOAD DUP2 PUSH1 0xFF MUL NOT AND SWAP1 DUP4 ISZERO ISZERO MUL OR SWAP1 SSTORE POP PUSH32 0x5DB9EE0A495BF2E6FF9C91A7834C1BA4FDD244A5E8AA4E537BD38AEAE4B073AA PUSH2 0x2639 PUSH2 0x1E12 JUMP JUMPDEST PUSH1 0x40 MLOAD PUSH2 0x2646 SWAP2 SWAP1 PUSH2 0x4755 JUMP JUMPDEST PUSH1 0x40 MLOAD DUP1 SWAP2 SUB SWAP1 LOG1 JUMP JUMPDEST PUSH2 0x2664 PUSH8 0x15060568254823A0 PUSH1 0xC0 SHL PUSH2 0x23C5 JUMP JUMPDEST PUSH2 0x2678 PUSH8 0x8C6C359BBA103EDE PUSH1 0xC0 SHL PUSH2 0x23C5 JUMP JUMPDEST PUSH2 0x268C PUSH8 0x41EB3BCEE080785A PUSH1 0xC0 SHL PUSH2 0x23C5 JUMP JUMPDEST PUSH2 0x2696 DUP3 DUP3 PUSH2 0x2FA7 JUMP JUMPDEST POP POP JUMP JUMPDEST PUSH2 0x26AE PUSH8 0x5F0ACF80EE14088E PUSH1 0xC0 SHL PUSH2 0x23C5 JUMP JUMPDEST PUSH2 0x26C2 PUSH8 0x657C1CDD7DD3EEF0 PUSH1 0xC0 SHL PUSH2 0x23C5 JUMP JUMPDEST PUSH2 0x26D6 PUSH8 0xA2AE61BCF032AA41 PUSH1 0xC0 SHL PUSH2 0x23C5 JUMP JUMPDEST PUSH2 0x26E0 DUP3 DUP3 PUSH2 0x3035 JUMP JUMPDEST POP POP JUMP JUMPDEST PUSH0 DUP1 DUP3 PUSH20 0xFFFFFFFFFFFFFFFFFFFFFFFFFFFFFFFFFFFFFFFF AND EXTCODESIZE GT SWAP1 POP SWAP2 SWAP1 POP JUMP JUMPDEST PUSH0 PUSH1 0x1 SWAP1 SLOAD SWAP1 PUSH2 0x100 EXP SWAP1 DIV PUSH1 0xFF AND PUSH2 0x2754 JUMPI PUSH1 0x40 MLOAD PUSH32 0x8C379A000000000000000000000000000000000000000000000000000000000 DUP2 MSTORE PUSH1 0x4 ADD PUSH2 0x274B SWAP1 PUSH2 0x58E2 JUMP JUMPDEST PUSH1 0x40 MLOAD DUP1 SWAP2 SUB SWAP1 REVERT JUMPDEST PUSH2 0x275E DUP3 DUP3 PUSH2 0x3054 JUMP JUMPDEST POP POP JUMP JUMPDEST PUSH0 PUSH1 0x1 SWAP1 SLOAD SWAP1 PUSH2 0x100 EXP SWAP1 DIV PUSH1 0xFF AND PUSH2 0x27B0 JUMPI PUSH1 0x40 MLOAD PUSH32 0x8C379A000000000000000000000000000000000000000000000000000000000 DUP2 MSTORE PUSH1 0x4 ADD PUSH2 0x27A7 SWAP1 PUSH2 0x58E2 JUMP JUMPDEST PUSH1 0x40 MLOAD DUP1 SWAP2 SUB SWAP1 REVERT JUMPDEST PUSH2 0x27EF DUP2 PUSH1 0x40 MLOAD DUP1 PUSH1 0x40 ADD PUSH1 0x40 MSTORE DUP1 PUSH1 0x1 DUP2 MSTORE PUSH1 0x20 ADD PUSH32 0x3100000000000000000000000000000000000000000000000000000000000000 DUP2 MSTORE POP PUSH2 0x30C6 JUMP JUMPDEST POP JUMP JUMPDEST PUSH0 PUSH1 0x1 SWAP1 SLOAD SWAP1 PUSH2 0x100 EXP SWAP1 DIV PUSH1 0xFF AND PUSH2 0x2840 JUMPI PUSH1 0x40 MLOAD PUSH32 0x8C379A000000000000000000000000000000000000000000000000000000000 DUP2 MSTORE PUSH1 0x4 ADD PUSH2 0x2837 SWAP1 PUSH2 0x58E2 JUMP JUMPDEST PUSH1 0x40 MLOAD DUP1 SWAP2 SUB SWAP1 REVERT JUMPDEST PUSH2 0x2848 PUSH2 0x314A JUMP JUMPDEST JUMP JUMPDEST PUSH0 PUSH1 0x1 SWAP1 SLOAD SWAP1 PUSH2 0x100 EXP SWAP1 DIV PUSH1 0xFF AND PUSH2 0x2898 JUMPI PUSH1 0x40 MLOAD PUSH32 0x8C379A000000000000000000000000000000000000000000000000000000000 DUP2 MSTORE PUSH1 0x4 ADD PUSH2 0x288F SWAP1 PUSH2 0x58E2 JUMP JUMPDEST PUSH1 0x40 MLOAD DUP1 SWAP2 SUB SWAP1 REVERT JUMPDEST JUMP JUMPDEST PUSH0 PUSH2 0x28A4 DUP4 PUSH2 0x11FC JUMP JUMPDEST SWAP1 POP PUSH0 PUSH2 0x28B0 DUP5 PUSH2 0x12DE JUMP JUMPDEST SWAP1 POP DUP3 PUSH2 0x130 PUSH0 DUP7 PUSH20 0xFFFFFFFFFFFFFFFFFFFFFFFFFFFFFFFFFFFFFFFF AND PUSH20 0xFFFFFFFFFFFFFFFFFFFFFFFFFFFFFFFFFFFFFFFF AND DUP2 MSTORE PUSH1 0x20 ADD SWAP1 DUP2 MSTORE PUSH1 0x20 ADD PUSH0 KECCAK256 PUSH0 PUSH2 0x100 EXP DUP2 SLOAD DUP2 PUSH20 0xFFFFFFFFFFFFFFFFFFFFFFFFFFFFFFFFFFFFFFFF MUL NOT AND SWAP1 DUP4 PUSH20 0xFFFFFFFFFFFFFFFFFFFFFFFFFFFFFFFFFFFFFFFF AND MUL OR SWAP1 SSTORE POP DUP3 PUSH20 0xFFFFFFFFFFFFFFFFFFFFFFFFFFFFFFFFFFFFFFFF AND DUP3 PUSH20 0xFFFFFFFFFFFFFFFFFFFFFFFFFFFFFFFFFFFFFFFF AND DUP6 PUSH20 0xFFFFFFFFFFFFFFFFFFFFFFFFFFFFFFFFFFFFFFFF AND PUSH32 0x3134E8A2E6D97E929A7E54011EA5485D7D196DD5F0BA4D4EF95803E8E3FC257F PUSH1 0x40 MLOAD PUSH1 0x40 MLOAD DUP1 SWAP2 SUB SWAP1 LOG4 PUSH2 0x29AA DUP3 DUP5 DUP4 PUSH2 0x31B4 JUMP JUMPDEST POP POP POP POP JUMP JUMPDEST PUSH0 PUSH4 0xFFFFFFFF DUP1 AND DUP3 GT ISZERO PUSH2 0x29FA JUMPI PUSH1 0x40 MLOAD PUSH32 0x8C379A000000000000000000000000000000000000000000000000000000000 DUP2 MSTORE PUSH1 0x4 ADD PUSH2 0x29F1 SWAP1 PUSH2 0x5970 JUMP JUMPDEST PUSH1 0x40 MLOAD DUP1 SWAP2 SUB SWAP1 REVERT JUMPDEST DUP2 SWAP1 POP SWAP2 SWAP1 POP JUMP JUMPDEST PUSH0 DUP2 PUSH0 ADD SLOAD SWAP1 POP SWAP2 SWAP1 POP JUMP JUMPDEST PUSH2 0x2A16 PUSH2 0x33A6 JUMP JUMPDEST PUSH1 0x1 PUSH2 0x162 PUSH0 PUSH2 0x100 EXP DUP2 SLOAD DUP2 PUSH1 0xFF MUL NOT AND SWAP1 DUP4 ISZERO ISZERO MUL OR SWAP1 SSTORE POP PUSH32 0x62E78CEA01BEE320CD4E420270B5EA74000D11B0C9F74754EBDBFC544B05A258 PUSH2 0x2A5A PUSH2 0x1E12 JUMP JUMPDEST PUSH1 0x40 MLOAD PUSH2 0x2A67 SWAP2 SWAP1 PUSH2 0x4755 JUMP JUMPDEST PUSH1 0x40 MLOAD DUP1 SWAP2 SUB SWAP1 LOG1 JUMP JUMPDEST PUSH1 0x60 PUSH1 0xCB DUP1 SLOAD PUSH2 0x2A80 SWAP1 PUSH2 0x4BFF JUMP JUMPDEST DUP1 PUSH1 0x1F ADD PUSH1 0x20 DUP1 SWAP2 DIV MUL PUSH1 0x20 ADD PUSH1 0x40 MLOAD SWAP1 DUP2 ADD PUSH1 0x40 MSTORE DUP1 SWAP3 SWAP2 SWAP1 DUP2 DUP2 MSTORE PUSH1 0x20 ADD DUP3 DUP1 SLOAD PUSH2 0x2AAC SWAP1 PUSH2 0x4BFF JUMP JUMPDEST DUP1 ISZERO PUSH2 0x2AF7 JUMPI DUP1 PUSH1 0x1F LT PUSH2 0x2ACE JUMPI PUSH2 0x100 DUP1 DUP4 SLOAD DIV MUL DUP4 MSTORE SWAP2 PUSH1 0x20 ADD SWAP2 PUSH2 0x2AF7 JUMP JUMPDEST DUP3 ADD SWAP2 SWAP1 PUSH0 MSTORE PUSH1 0x20 PUSH0 KECCAK256 SWAP1 JUMPDEST DUP2 SLOAD DUP2 MSTORE SWAP1 PUSH1 0x1 ADD SWAP1 PUSH1 0x20 ADD DUP1 DUP4 GT PUSH2 0x2ADA JUMPI DUP3 SWAP1 SUB PUSH1 0x1F AND DUP3 ADD SWAP2 JUMPDEST POP POP POP POP POP SWAP1 POP SWAP1 JUMP JUMPDEST PUSH1 0x60 PUSH1 0xCC DUP1 SLOAD PUSH2 0x2B10 SWAP1 PUSH2 0x4BFF JUMP JUMPDEST DUP1 PUSH1 0x1F ADD PUSH1 0x20 DUP1 SWAP2 DIV MUL PUSH1 0x20 ADD PUSH1 0x40 MLOAD SWAP1 DUP2 ADD PUSH1 0x40 MSTORE DUP1 SWAP3 SWAP2 SWAP1 DUP2 DUP2 MSTORE PUSH1 0x20 ADD DUP3 DUP1 SLOAD PUSH2 0x2B3C SWAP1 PUSH2 0x4BFF JUMP JUMPDEST DUP1 ISZERO PUSH2 0x2B87 JUMPI DUP1 PUSH1 0x1F LT PUSH2 0x2B5E JUMPI PUSH2 0x100 DUP1 DUP4 SLOAD DIV MUL DUP4 MSTORE SWAP2 PUSH1 0x20 ADD SWAP2 PUSH2 0x2B87 JUMP JUMPDEST DUP3 ADD SWAP2 SWAP1 PUSH0 MSTORE PUSH1 0x20 PUSH0 KECCAK256 SWAP1 JUMPDEST DUP2 SLOAD DUP2 MSTORE SWAP1 PUSH1 0x1 ADD SWAP1 PUSH1 0x20 ADD DUP1 DUP4 GT PUSH2 0x2B6A JUMPI DUP3 SWAP1 SUB PUSH1 0x1F AND DUP3 ADD SWAP2 JUMPDEST POP POP POP POP POP SWAP1 POP SWAP1 JUMP JUMPDEST PUSH0 PUSH6 0xFFFFFFFFFFFF DUP1 AND DUP3 GT ISZERO PUSH2 0x2BDD JUMPI PUSH1 0x40 MLOAD PUSH32 0x8C379A000000000000000000000000000000000000000000000000000000000 DUP2 MSTORE PUSH1 0x4 ADD PUSH2 0x2BD4 SWAP1 PUSH2 0x59FE JUMP JUMPDEST PUSH1 0x40 MLOAD DUP1 SWAP2 SUB SWAP1 REVERT JUMPDEST DUP2 SWAP1 POP SWAP2 SWAP1 POP JUMP JUMPDEST PUSH0 PUSH2 0x2BF7 PUSH2 0x2BF1 PUSH2 0x23C8 JUMP JUMPDEST DUP4 PUSH2 0x33F0 JUMP JUMPDEST SWAP1 POP SWAP2 SWAP1 POP JUMP JUMPDEST PUSH0 DUP1 PUSH0 PUSH2 0x2C0D DUP8 DUP8 DUP8 DUP8 PUSH2 0x3430 JUMP JUMPDEST SWAP2 POP SWAP2 POP PUSH2 0x2C1A DUP2 PUSH2 0x3508 JUMP JUMPDEST DUP2 SWAP3 POP POP POP SWAP5 SWAP4 POP POP POP POP JUMP JUMPDEST PUSH0 DUP1 PUSH1 0xFD PUSH0 DUP5 PUSH20 0xFFFFFFFFFFFFFFFFFFFFFFFFFFFFFFFFFFFFFFFF AND PUSH20 0xFFFFFFFFFFFFFFFFFFFFFFFFFFFFFFFFFFFFFFFF AND DUP2 MSTORE PUSH1 0x20 ADD SWAP1 DUP2 MSTORE PUSH1 0x20 ADD PUSH0 KECCAK256 SWAP1 POP PUSH2 0x2C71 DUP2 PUSH2 0x2A02 JUMP JUMPDEST SWAP2 POP PUSH2 0x2C7C DUP2 PUSH2 0x366D JUMP JUMPDEST POP SWAP2 SWAP1 POP JUMP JUMPDEST PUSH2 0x2C96 PUSH8 0x444CC09B6123A024 PUSH1 0xC0 SHL PUSH2 0x23C5 JUMP JUMPDEST PUSH2 0x2C9E PUSH2 0x33A6 JUMP JUMPDEST PUSH2 0x2CB2 PUSH8 0x62FF3D194FB103EC PUSH1 0xC0 SHL PUSH2 0x23C5 JUMP JUMPDEST PUSH2 0x2CC6 PUSH8 0x938A90D94264968D PUSH1 0xC0 SHL PUSH2 0x23C5 JUMP JUMPDEST PUSH2 0x2CDA PUSH8 0xD4B19E2BD3DDC3EA PUSH1 0xC0 SHL PUSH2 0x23C5 JUMP JUMPDEST PUSH2 0x2CEE PUSH8 0x34E741239A9F760C PUSH1 0xC0 SHL PUSH2 0x23C5 JUMP JUMPDEST PUSH2 0x2CF9 DUP4 DUP4 DUP4 PUSH2 0x3681 JUMP JUMPDEST POP POP POP JUMP JUMPDEST PUSH2 0x2D12 PUSH8 0xBBEEE96DE4B55CF7 PUSH1 0xC0 SHL PUSH2 0x23C5 JUMP JUMPDEST PUSH2 0x2D26 PUSH8 0x97E889CF08D5D19D PUSH1 0xC0 SHL PUSH2 0x23C5 JUMP JUMPDEST PUSH2 0x2D3A PUSH8 0x81F53F79B57312D3 PUSH1 0xC0 SHL PUSH2 0x23C5 JUMP JUMPDEST PUSH2 0x2D45 DUP4 DUP4 DUP4 PUSH2 0x3686 JUMP JUMPDEST POP POP POP JUMP JUMPDEST PUSH2 0x2D54 DUP3 DUP3 PUSH2 0x16D2 JUMP JUMPDEST PUSH2 0x2DCA JUMPI PUSH2 0x2D61 DUP2 PUSH2 0x36B1 JUMP JUMPDEST PUSH2 0x2D6E DUP4 PUSH0 SHR PUSH1 0x20 PUSH2 0x36DE JUMP JUMPDEST PUSH1 0x40 MLOAD PUSH1 0x20 ADD PUSH2 0x2D7F SWAP3 SWAP2 SWAP1 PUSH2 0x5AEA JUMP JUMPDEST PUSH1 0x40 MLOAD PUSH1 0x20 DUP2 DUP4 SUB SUB DUP2 MSTORE SWAP1 PUSH1 0x40 MSTORE PUSH1 0x40 MLOAD PUSH32 0x8C379A000000000000000000000000000000000000000000000000000000000 DUP2 MSTORE PUSH1 0x4 ADD PUSH2 0x2DC1 SWAP2 SWAP1 PUSH2 0x42F3 JUMP JUMPDEST PUSH1 0x40 MLOAD DUP1 SWAP2 SUB SWAP1 REVERT JUMPDEST POP POP JUMP JUMPDEST PUSH0 PUSH32 0x8B73C3C69BB8FE3D512ECC4CF759CC79239F7B179B0FFACAA9A75D522B39400F PUSH2 0x2DF8 PUSH2 0x3913 JUMP JUMPDEST PUSH2 0x2E00 PUSH2 0x397A JUMP JUMPDEST CHAINID ADDRESS PUSH1 0x40 MLOAD PUSH1 0x20 ADD PUSH2 0x2E16 SWAP6 SWAP5 SWAP4 SWAP3 SWAP2 SWAP1 PUSH2 0x5B23 JUMP JUMPDEST PUSH1 0x40 MLOAD PUSH1 0x20 DUP2 DUP4 SUB SUB DUP2 MSTORE SWAP1 PUSH1 0x40 MSTORE DUP1 MLOAD SWAP1 PUSH1 0x20 ADD KECCAK256 SWAP1 POP SWAP1 JUMP JUMPDEST PUSH0 DUP1 DUP3 SUB PUSH2 0x2E41 JUMPI PUSH0 SWAP1 POP PUSH2 0x2F22 JUMP JUMPDEST PUSH0 PUSH1 0x1 PUSH2 0x2E4D DUP5 PUSH2 0x39E1 JUMP JUMPDEST SWAP1 SHR PUSH1 0x1 SWAP1 SHL SWAP1 POP PUSH1 0x1 DUP2 DUP5 DUP2 PUSH2 0x2E67 JUMPI PUSH2 0x2E66 PUSH2 0x5B74 JUMP JUMPDEST JUMPDEST DIV DUP3 ADD SWAP1 SHR SWAP1 POP PUSH1 0x1 DUP2 DUP5 DUP2 PUSH2 0x2E80 JUMPI PUSH2 0x2E7F PUSH2 0x5B74 JUMP JUMPDEST JUMPDEST DIV DUP3 ADD SWAP1 SHR SWAP1 POP PUSH1 0x1 DUP2 DUP5 DUP2 PUSH2 0x2E99 JUMPI PUSH2 0x2E98 PUSH2 0x5B74 JUMP JUMPDEST JUMPDEST DIV DUP3 ADD SWAP1 SHR SWAP1 POP PUSH1 0x1 DUP2 DUP5 DUP2 PUSH2 0x2EB2 JUMPI PUSH2 0x2EB1 PUSH2 0x5B74 JUMP JUMPDEST JUMPDEST DIV DUP3 ADD SWAP1 SHR SWAP1 POP PUSH1 0x1 DUP2 DUP5 DUP2 PUSH2 0x2ECB JUMPI PUSH2 0x2ECA PUSH2 0x5B74 JUMP JUMPDEST JUMPDEST DIV DUP3 ADD SWAP1 SHR SWAP1 POP PUSH1 0x1 DUP2 DUP5 DUP2 PUSH2 0x2EE4 JUMPI PUSH2 0x2EE3 PUSH2 0x5B74 JUMP JUMPDEST JUMPDEST DIV DUP3 ADD SWAP1 SHR SWAP1 POP PUSH1 0x1 DUP2 DUP5 DUP2 PUSH2 0x2EFD JUMPI PUSH2 0x2EFC PUSH2 0x5B74 JUMP JUMPDEST JUMPDEST DIV DUP3 ADD SWAP1 SHR SWAP1 POP PUSH2 0x2F1E DUP2 DUP3 DUP6 DUP2 PUSH2 0x2F18 JUMPI PUSH2 0x2F17 PUSH2 0x5B74 JUMP JUMPDEST JUMPDEST DIV PUSH2 0x3AB8 JUMP JUMPDEST SWAP2 POP POP JUMPDEST SWAP2 SWAP1 POP JUMP JUMPDEST PUSH0 DUP3 PUSH0 MSTORE DUP2 PUSH1 0x20 PUSH0 KECCAK256 ADD SWAP1 POP SWAP3 SWAP2 POP POP JUMP JUMPDEST PUSH0 PUSH1 0x2 DUP3 DUP5 XOR PUSH2 0x2F49 SWAP2 SWAP1 PUSH2 0x5BA1 JUMP JUMPDEST DUP3 DUP5 AND PUSH2 0x2F56 SWAP2 SWAP1 PUSH2 0x4EA4 JUMP JUMPDEST SWAP1 POP SWAP3 SWAP2 POP POP JUMP JUMPDEST PUSH2 0x2F66 PUSH2 0x1276 JUMP JUMPDEST PUSH2 0x2FA5 JUMPI PUSH1 0x40 MLOAD PUSH32 0x8C379A000000000000000000000000000000000000000000000000000000000 DUP2 MSTORE PUSH1 0x4 ADD PUSH2 0x2F9C SWAP1 PUSH2 0x5C1B JUMP JUMPDEST PUSH1 0x40 MLOAD DUP1 SWAP2 SUB SWAP1 REVERT JUMPDEST JUMP JUMPDEST PUSH2 0x2FB1 DUP3 DUP3 PUSH2 0x3AD0 JUMP JUMPDEST PUSH2 0x2FB9 PUSH2 0x3C1F JUMP JUMPDEST PUSH28 0xFFFFFFFFFFFFFFFFFFFFFFFFFFFFFFFFFFFFFFFFFFFFFFFFFFFFFFFF AND PUSH2 0x2FDF PUSH2 0x973 JUMP JUMPDEST GT ISZERO PUSH2 0x3020 JUMPI PUSH1 0x40 MLOAD PUSH32 0x8C379A000000000000000000000000000000000000000000000000000000000 DUP2 MSTORE PUSH1 0x4 ADD PUSH2 0x3017 SWAP1 PUSH2 0x5CA9 JUMP JUMPDEST PUSH1 0x40 MLOAD DUP1 SWAP2 SUB SWAP1 REVERT JUMPDEST PUSH2 0x302F PUSH2 0x132 PUSH2 0x3C42 DUP4 PUSH2 0x3C57 JUMP JUMPDEST POP POP POP POP JUMP JUMPDEST PUSH2 0x303F DUP3 DUP3 PUSH2 0x3F20 JUMP JUMPDEST PUSH2 0x304E PUSH2 0x132 PUSH2 0x40E5 DUP4 PUSH2 0x3C57 JUMP JUMPDEST POP POP POP POP JUMP JUMPDEST PUSH0 PUSH1 0x1 SWAP1 SLOAD SWAP1 PUSH2 0x100 EXP SWAP1 DIV PUSH1 0xFF AND PUSH2 0x30A2 JUMPI PUSH1 0x40 MLOAD PUSH32 0x8C379A000000000000000000000000000000000000000000000000000000000 DUP2 MSTORE PUSH1 0x4 ADD PUSH2 0x3099 SWAP1 PUSH2 0x58E2 JUMP JUMPDEST PUSH1 0x40 MLOAD DUP1 SWAP2 SUB SWAP1 REVERT JUMPDEST DUP2 PUSH1 0x9A SWAP1 DUP2 PUSH2 0x30B1 SWAP2 SWAP1 PUSH2 0x5E5B JUMP JUMPDEST POP DUP1 PUSH1 0x9B SWAP1 DUP2 PUSH2 0x30C1 SWAP2 SWAP1 PUSH2 0x5E5B JUMP JUMPDEST POP POP POP JUMP JUMPDEST PUSH0 PUSH1 0x1 SWAP1 SLOAD SWAP1 PUSH2 0x100 EXP SWAP1 DIV PUSH1 0xFF AND PUSH2 0x3114 JUMPI PUSH1 0x40 MLOAD PUSH32 0x8C379A000000000000000000000000000000000000000000000000000000000 DUP2 MSTORE PUSH1 0x4 ADD PUSH2 0x310B SWAP1 PUSH2 0x58E2 JUMP JUMPDEST PUSH1 0x40 MLOAD DUP1 SWAP2 SUB SWAP1 REVERT JUMPDEST DUP2 PUSH1 0xCB SWAP1 DUP2 PUSH2 0x3123 SWAP2 SWAP1 PUSH2 0x5E5B JUMP JUMPDEST POP DUP1 PUSH1 0xCC SWAP1 DUP2 PUSH2 0x3133 SWAP2 SWAP1 PUSH2 0x5E5B JUMP JUMPDEST POP PUSH0 DUP1 SHL PUSH1 0xC9 DUP2 SWAP1 SSTORE POP PUSH0 DUP1 SHL PUSH1 0xCA DUP2 SWAP1 SSTORE POP POP POP JUMP JUMPDEST PUSH0 PUSH1 0x1 SWAP1 SLOAD SWAP1 PUSH2 0x100 EXP SWAP1 DIV PUSH1 0xFF AND PUSH2 0x3198 JUMPI PUSH1 0x40 MLOAD PUSH32 0x8C379A000000000000000000000000000000000000000000000000000000000 DUP2 MSTORE PUSH1 0x4 ADD PUSH2 0x318F SWAP1 PUSH2 0x58E2 JUMP JUMPDEST PUSH1 0x40 MLOAD DUP1 SWAP2 SUB SWAP1 REVERT JUMPDEST PUSH0 PUSH2 0x162 PUSH0 PUSH2 0x100 EXP DUP2 SLOAD DUP2 PUSH1 0xFF MUL NOT AND SWAP1 DUP4 ISZERO ISZERO MUL OR SWAP1 SSTORE POP JUMP JUMPDEST DUP2 PUSH20 0xFFFFFFFFFFFFFFFFFFFFFFFFFFFFFFFFFFFFFFFF AND DUP4 PUSH20 0xFFFFFFFFFFFFFFFFFFFFFFFFFFFFFFFFFFFFFFFF AND EQ ISZERO DUP1 ISZERO PUSH2 0x31EF JUMPI POP PUSH0 DUP2 GT JUMPDEST ISZERO PUSH2 0x33A1 JUMPI PUSH0 PUSH20 0xFFFFFFFFFFFFFFFFFFFFFFFFFFFFFFFFFFFFFFFF AND DUP4 PUSH20 0xFFFFFFFFFFFFFFFFFFFFFFFFFFFFFFFFFFFFFFFF AND EQ PUSH2 0x32CA JUMPI PUSH0 DUP1 PUSH2 0x3273 PUSH2 0x131 PUSH0 DUP8 PUSH20 0xFFFFFFFFFFFFFFFFFFFFFFFFFFFFFFFFFFFFFFFF AND PUSH20 0xFFFFFFFFFFFFFFFFFFFFFFFFFFFFFFFFFFFFFFFF AND DUP2 MSTORE PUSH1 0x20 ADD SWAP1 DUP2 MSTORE PUSH1 0x20 ADD PUSH0 KECCAK256 PUSH2 0x40E5 DUP6 PUSH2 0x3C57 JUMP JUMPDEST SWAP2 POP SWAP2 POP DUP5 PUSH20 0xFFFFFFFFFFFFFFFFFFFFFFFFFFFFFFFFFFFFFFFF AND PUSH32 0xDEC2BACDD2F05B59DE34DA9B523DFF8BE42E5E38E818C82FDB0BAE774387A724 DUP4 DUP4 PUSH1 0x40 MLOAD PUSH2 0x32BF SWAP3 SWAP2 SWAP1 PUSH2 0x5F2A JUMP JUMPDEST PUSH1 0x40 MLOAD DUP1 SWAP2 SUB SWAP1 LOG2 POP POP JUMPDEST PUSH0 PUSH20 0xFFFFFFFFFFFFFFFFFFFFFFFFFFFFFFFFFFFFFFFF AND DUP3 PUSH20 0xFFFFFFFFFFFFFFFFFFFFFFFFFFFFFFFFFFFFFFFF AND EQ PUSH2 0x33A0 JUMPI PUSH0 DUP1 PUSH2 0x3349 PUSH2 0x131 PUSH0 DUP7 PUSH20 0xFFFFFFFFFFFFFFFFFFFFFFFFFFFFFFFFFFFFFFFF AND PUSH20 0xFFFFFFFFFFFFFFFFFFFFFFFFFFFFFFFFFFFFFFFF AND DUP2 MSTORE PUSH1 0x20 ADD SWAP1 DUP2 MSTORE PUSH1 0x20 ADD PUSH0 KECCAK256 PUSH2 0x3C42 DUP6 PUSH2 0x3C57 JUMP JUMPDEST SWAP2 POP SWAP2 POP DUP4 PUSH20 0xFFFFFFFFFFFFFFFFFFFFFFFFFFFFFFFFFFFFFFFF AND PUSH32 0xDEC2BACDD2F05B59DE34DA9B523DFF8BE42E5E38E818C82FDB0BAE774387A724 DUP4 DUP4 PUSH1 0x40 MLOAD PUSH2 0x3395 SWAP3 SWAP2 SWAP1 PUSH2 0x5F2A JUMP JUMPDEST PUSH1 0x40 MLOAD DUP1 SWAP2 SUB SWAP1 LOG2 POP POP JUMPDEST JUMPDEST POP POP POP JUMP JUMPDEST PUSH2 0x33AE PUSH2 0x1276 JUMP JUMPDEST ISZERO PUSH2 0x33EE JUMPI PUSH1 0x40 MLOAD PUSH32 0x8C379A000000000000000000000000000000000000000000000000000000000 DUP2 MSTORE PUSH1 0x4 ADD PUSH2 0x33E5 SWAP1 PUSH2 0x5F9B JUMP JUMPDEST PUSH1 0x40 MLOAD DUP1 SWAP2 SUB SWAP1 REVERT JUMPDEST JUMP JUMPDEST PUSH0 PUSH1 0x40 MLOAD PUSH32 0x1901000000000000000000000000000000000000000000000000000000000000 DUP2 MSTORE DUP4 PUSH1 0x2 DUP3 ADD MSTORE DUP3 PUSH1 0x22 DUP3 ADD MSTORE PUSH1 0x42 DUP2 KECCAK256 SWAP2 POP POP SWAP3 SWAP2 POP POP JUMP JUMPDEST PUSH0 DUP1 PUSH32 0x7FFFFFFFFFFFFFFFFFFFFFFFFFFFFFFF5D576E7357A4501DDFE92F46681B20A0 DUP4 PUSH0 SHR GT ISZERO PUSH2 0x3468 JUMPI PUSH0 PUSH1 0x3 SWAP2 POP SWAP2 POP PUSH2 0x34FF JUMP JUMPDEST PUSH0 PUSH1 0x1 DUP8 DUP8 DUP8 DUP8 PUSH1 0x40 MLOAD PUSH0 DUP2 MSTORE PUSH1 0x20 ADD PUSH1 0x40 MSTORE PUSH1 0x40 MLOAD PUSH2 0x348B SWAP5 SWAP4 SWAP3 SWAP2 SWAP1 PUSH2 0x5FB9 JUMP JUMPDEST PUSH1 0x20 PUSH1 0x40 MLOAD PUSH1 0x20 DUP2 SUB SWAP1 DUP1 DUP5 SUB SWAP1 DUP6 GAS STATICCALL ISZERO DUP1 ISZERO PUSH2 0x34AB JUMPI RETURNDATASIZE PUSH0 DUP1 RETURNDATACOPY RETURNDATASIZE PUSH0 REVERT JUMPDEST POP POP POP PUSH1 0x20 PUSH1 0x40 MLOAD SUB MLOAD SWAP1 POP PUSH0 PUSH20 0xFFFFFFFFFFFFFFFFFFFFFFFFFFFFFFFFFFFFFFFF AND DUP2 PUSH20 0xFFFFFFFFFFFFFFFFFFFFFFFFFFFFFFFFFFFFFFFF AND SUB PUSH2 0x34F7 JUMPI PUSH0 PUSH1 0x1 SWAP3 POP SWAP3 POP POP PUSH2 0x34FF JUMP JUMPDEST DUP1 PUSH0 SWAP3 POP SWAP3 POP POP JUMPDEST SWAP5 POP SWAP5 SWAP3 POP POP POP JUMP JUMPDEST PUSH0 PUSH1 0x4 DUP2 GT ISZERO PUSH2 0x351B JUMPI PUSH2 0x351A PUSH2 0x5FFC JUMP JUMPDEST JUMPDEST DUP2 PUSH1 0x4 DUP2 GT ISZERO PUSH2 0x352E JUMPI PUSH2 0x352D PUSH2 0x5FFC JUMP JUMPDEST JUMPDEST SUB ISZERO PUSH2 0x366A JUMPI PUSH1 0x1 PUSH1 0x4 DUP2 GT ISZERO PUSH2 0x3548 JUMPI PUSH2 0x3547 PUSH2 0x5FFC JUMP JUMPDEST JUMPDEST DUP2 PUSH1 0x4 DUP2 GT ISZERO PUSH2 0x355B JUMPI PUSH2 0x355A PUSH2 0x5FFC JUMP JUMPDEST JUMPDEST SUB PUSH2 0x359B JUMPI PUSH1 0x40 MLOAD PUSH32 0x8C379A000000000000000000000000000000000000000000000000000000000 DUP2 MSTORE PUSH1 0x4 ADD PUSH2 0x3592 SWAP1 PUSH2 0x6073 JUMP JUMPDEST PUSH1 0x40 MLOAD DUP1 SWAP2 SUB SWAP1 REVERT JUMPDEST PUSH1 0x2 PUSH1 0x4 DUP2 GT ISZERO PUSH2 0x35AF JUMPI PUSH2 0x35AE PUSH2 0x5FFC JUMP JUMPDEST JUMPDEST DUP2 PUSH1 0x4 DUP2 GT ISZERO PUSH2 0x35C2 JUMPI PUSH2 0x35C1 PUSH2 0x5FFC JUMP JUMPDEST JUMPDEST SUB PUSH2 0x3602 JUMPI PUSH1 0x40 MLOAD PUSH32 0x8C379A000000000000000000000000000000000000000000000000000000000 DUP2 MSTORE PUSH1 0x4 ADD PUSH2 0x35F9 SWAP1 PUSH2 0x60DB JUMP JUMPDEST PUSH1 0x40 MLOAD DUP1 SWAP2 SUB SWAP1 REVERT JUMPDEST PUSH1 0x3 PUSH1 0x4 DUP2 GT ISZERO PUSH2 0x3616 JUMPI PUSH2 0x3615 PUSH2 0x5FFC JUMP JUMPDEST JUMPDEST DUP2 PUSH1 0x4 DUP2 GT ISZERO PUSH2 0x3629 JUMPI PUSH2 0x3628 PUSH2 0x5FFC JUMP JUMPDEST JUMPDEST SUB PUSH2 0x3669 JUMPI PUSH1 0x40 MLOAD PUSH32 0x8C379A000000000000000000000000000000000000000000000000000000000 DUP2 MSTORE PUSH1 0x4 ADD PUSH2 0x3660 SWAP1 PUSH2 0x6169 JUMP JUMPDEST PUSH1 0x40 MLOAD DUP1 SWAP2 SUB SWAP1 REVERT JUMPDEST JUMPDEST POP JUMP JUMPDEST PUSH1 0x1 DUP2 PUSH0 ADD PUSH0 DUP3 DUP3 SLOAD ADD SWAP3 POP POP DUP2 SWAP1 SSTORE POP POP JUMP JUMPDEST POP POP POP JUMP JUMPDEST PUSH2 0x3691 DUP4 DUP4 DUP4 PUSH2 0x40FA JUMP JUMPDEST PUSH2 0x36AC PUSH2 0x369D DUP5 PUSH2 0x11FC JUMP JUMPDEST PUSH2 0x36A6 DUP5 PUSH2 0x11FC JUMP JUMPDEST DUP4 PUSH2 0x31B4 JUMP JUMPDEST POP POP POP JUMP JUMPDEST PUSH1 0x60 PUSH2 0x36D7 DUP3 PUSH20 0xFFFFFFFFFFFFFFFFFFFFFFFFFFFFFFFFFFFFFFFF AND PUSH1 0x14 PUSH1 0xFF AND PUSH2 0x36DE JUMP JUMPDEST SWAP1 POP SWAP2 SWAP1 POP JUMP JUMPDEST PUSH1 0x60 PUSH0 PUSH1 0x2 DUP4 PUSH1 0x2 PUSH2 0x36F0 SWAP2 SWAP1 PUSH2 0x4DD5 JUMP JUMPDEST PUSH2 0x36FA SWAP2 SWAP1 PUSH2 0x4EA4 JUMP JUMPDEST PUSH8 0xFFFFFFFFFFFFFFFF DUP2 GT ISZERO PUSH2 0x3713 JUMPI PUSH2 0x3712 PUSH2 0x4581 JUMP JUMPDEST JUMPDEST PUSH1 0x40 MLOAD SWAP1 DUP1 DUP3 MSTORE DUP1 PUSH1 0x1F ADD PUSH1 0x1F NOT AND PUSH1 0x20 ADD DUP3 ADD PUSH1 0x40 MSTORE DUP1 ISZERO PUSH2 0x3745 JUMPI DUP2 PUSH1 0x20 ADD PUSH1 0x1 DUP3 MUL DUP1 CALLDATASIZE DUP4 CALLDATACOPY DUP1 DUP3 ADD SWAP2 POP POP SWAP1 POP JUMPDEST POP SWAP1 POP PUSH32 0x3000000000000000000000000000000000000000000000000000000000000000 DUP2 PUSH0 DUP2 MLOAD DUP2 LT PUSH2 0x377C JUMPI PUSH2 0x377B PUSH2 0x5214 JUMP JUMPDEST JUMPDEST PUSH1 0x20 ADD ADD SWAP1 PUSH31 0xFFFFFFFFFFFFFFFFFFFFFFFFFFFFFFFFFFFFFFFFFFFFFFFFFFFFFFFFFFFFFF NOT AND SWAP1 DUP2 PUSH0 BYTE SWAP1 MSTORE8 POP PUSH32 0x7800000000000000000000000000000000000000000000000000000000000000 DUP2 PUSH1 0x1 DUP2 MLOAD DUP2 LT PUSH2 0x37DF JUMPI PUSH2 0x37DE PUSH2 0x5214 JUMP JUMPDEST JUMPDEST PUSH1 0x20 ADD ADD SWAP1 PUSH31 0xFFFFFFFFFFFFFFFFFFFFFFFFFFFFFFFFFFFFFFFFFFFFFFFFFFFFFFFFFFFFFF NOT AND SWAP1 DUP2 PUSH0 BYTE SWAP1 MSTORE8 POP PUSH0 PUSH1 0x1 DUP5 PUSH1 0x2 PUSH2 0x381D SWAP2 SWAP1 PUSH2 0x4DD5 JUMP JUMPDEST PUSH2 0x3827 SWAP2 SWAP1 PUSH2 0x4EA4 JUMP JUMPDEST SWAP1 POP JUMPDEST PUSH1 0x1 DUP2 GT ISZERO PUSH2 0x38C6 JUMPI PUSH32 0x3031323334353637383961626364656600000000000000000000000000000000 PUSH1 0xF DUP7 AND PUSH1 0x10 DUP2 LT PUSH2 0x3869 JUMPI PUSH2 0x3868 PUSH2 0x5214 JUMP JUMPDEST JUMPDEST BYTE PUSH1 0xF8 SHL DUP3 DUP3 DUP2 MLOAD DUP2 LT PUSH2 0x3880 JUMPI PUSH2 0x387F PUSH2 0x5214 JUMP JUMPDEST JUMPDEST PUSH1 0x20 ADD ADD SWAP1 PUSH31 0xFFFFFFFFFFFFFFFFFFFFFFFFFFFFFFFFFFFFFFFFFFFFFFFFFFFFFFFFFFFFFF NOT AND SWAP1 DUP2 PUSH0 BYTE SWAP1 MSTORE8 POP PUSH1 0x4 DUP6 SWAP1 SHR SWAP5 POP DUP1 PUSH2 0x38BF SWAP1 PUSH2 0x6187 JUMP JUMPDEST SWAP1 POP PUSH2 0x382A JUMP JUMPDEST POP PUSH0 DUP5 EQ PUSH2 0x3909 JUMPI PUSH1 0x40 MLOAD PUSH32 0x8C379A000000000000000000000000000000000000000000000000000000000 DUP2 MSTORE PUSH1 0x4 ADD PUSH2 0x3900 SWAP1 PUSH2 0x61F8 JUMP JUMPDEST PUSH1 0x40 MLOAD DUP1 SWAP2 SUB SWAP1 REVERT JUMPDEST DUP1 SWAP2 POP POP SWAP3 SWAP2 POP POP JUMP JUMPDEST PUSH0 DUP1 PUSH2 0x391D PUSH2 0x2A71 JUMP JUMPDEST SWAP1 POP PUSH0 DUP2 MLOAD GT ISZERO PUSH2 0x3938 JUMPI DUP1 DUP1 MLOAD SWAP1 PUSH1 0x20 ADD KECCAK256 SWAP2 POP POP PUSH2 0x3977 JUMP JUMPDEST PUSH0 PUSH1 0xC9 SLOAD SWAP1 POP PUSH0 DUP1 SHL DUP2 EQ PUSH2 0x3951 JUMPI DUP1 SWAP3 POP POP POP PUSH2 0x3977 JUMP JUMPDEST PUSH32 0xC5D2460186F7233C927E7DB2DCC703C0E500B653CA82273B7BFAD8045D85A470 SWAP3 POP POP POP JUMPDEST SWAP1 JUMP JUMPDEST PUSH0 DUP1 PUSH2 0x3984 PUSH2 0x2B01 JUMP JUMPDEST SWAP1 POP PUSH0 DUP2 MLOAD GT ISZERO PUSH2 0x399F JUMPI DUP1 DUP1 MLOAD SWAP1 PUSH1 0x20 ADD KECCAK256 SWAP2 POP POP PUSH2 0x39DE JUMP JUMPDEST PUSH0 PUSH1 0xCA SLOAD SWAP1 POP PUSH0 DUP1 SHL DUP2 EQ PUSH2 0x39B8 JUMPI DUP1 SWAP3 POP POP POP PUSH2 0x39DE JUMP JUMPDEST PUSH32 0xC5D2460186F7233C927E7DB2DCC703C0E500B653CA82273B7BFAD8045D85A470 SWAP3 POP POP POP JUMPDEST SWAP1 JUMP JUMPDEST PUSH0 DUP1 PUSH0 SWAP1 POP PUSH0 PUSH1 0x80 DUP5 SWAP1 SHR GT ISZERO PUSH2 0x3A00 JUMPI PUSH1 0x80 DUP4 SWAP1 SHR SWAP3 POP PUSH1 0x80 DUP2 ADD SWAP1 POP JUMPDEST PUSH0 PUSH1 0x40 DUP5 SWAP1 SHR GT ISZERO PUSH2 0x3A1A JUMPI PUSH1 0x40 DUP4 SWAP1 SHR SWAP3 POP PUSH1 0x40 DUP2 ADD SWAP1 POP JUMPDEST PUSH0 PUSH1 0x20 DUP5 SWAP1 SHR GT ISZERO PUSH2 0x3A34 JUMPI PUSH1 0x20 DUP4 SWAP1 SHR SWAP3 POP PUSH1 0x20 DUP2 ADD SWAP1 POP JUMPDEST PUSH0 PUSH1 0x10 DUP5 SWAP1 SHR GT ISZERO PUSH2 0x3A4E JUMPI PUSH1 0x10 DUP4 SWAP1 SHR SWAP3 POP PUSH1 0x10 DUP2 ADD SWAP1 POP JUMPDEST PUSH0 PUSH1 0x8 DUP5 SWAP1 SHR GT ISZERO PUSH2 0x3A68 JUMPI PUSH1 0x8 DUP4 SWAP1 SHR SWAP3 POP PUSH1 0x8 DUP2 ADD SWAP1 POP JUMPDEST PUSH0 PUSH1 0x4 DUP5 SWAP1 SHR GT ISZERO PUSH2 0x3A82 JUMPI PUSH1 0x4 DUP4 SWAP1 SHR SWAP3 POP PUSH1 0x4 DUP2 ADD SWAP1 POP JUMPDEST PUSH0 PUSH1 0x2 DUP5 SWAP1 SHR GT ISZERO PUSH2 0x3A9C JUMPI PUSH1 0x2 DUP4 SWAP1 SHR SWAP3 POP PUSH1 0x2 DUP2 ADD SWAP1 POP JUMPDEST PUSH0 PUSH1 0x1 DUP5 SWAP1 SHR GT ISZERO PUSH2 0x3AAF JUMPI PUSH1 0x1 DUP2 ADD SWAP1 POP JUMPDEST DUP1 SWAP2 POP POP SWAP2 SWAP1 POP JUMP JUMPDEST PUSH0 DUP2 DUP4 LT PUSH2 0x3AC6 JUMPI DUP2 PUSH2 0x3AC8 JUMP JUMPDEST DUP3 JUMPDEST SWAP1 POP SWAP3 SWAP2 POP POP JUMP JUMPDEST PUSH0 PUSH20 0xFFFFFFFFFFFFFFFFFFFFFFFFFFFFFFFFFFFFFFFF AND DUP3 PUSH20 0xFFFFFFFFFFFFFFFFFFFFFFFFFFFFFFFFFFFFFFFF AND SUB PUSH2 0x3B3E JUMPI PUSH1 0x40 MLOAD PUSH32 0x8C379A000000000000000000000000000000000000000000000000000000000 DUP2 MSTORE PUSH1 0x4 ADD PUSH2 0x3B35 SWAP1 PUSH2 0x6260 JUMP JUMPDEST PUSH1 0x40 MLOAD DUP1 SWAP2 SUB SWAP1 REVERT JUMPDEST PUSH2 0x3B49 PUSH0 DUP4 DUP4 PUSH2 0x2C82 JUMP JUMPDEST DUP1 PUSH1 0x99 PUSH0 DUP3 DUP3 SLOAD PUSH2 0x3B5A SWAP2 SWAP1 PUSH2 0x4EA4 JUMP JUMPDEST SWAP3 POP POP DUP2 SWAP1 SSTORE POP DUP1 PUSH1 0x97 PUSH0 DUP5 PUSH20 0xFFFFFFFFFFFFFFFFFFFFFFFFFFFFFFFFFFFFFFFF AND PUSH20 0xFFFFFFFFFFFFFFFFFFFFFFFFFFFFFFFFFFFFFFFF AND DUP2 MSTORE PUSH1 0x20 ADD SWAP1 DUP2 MSTORE PUSH1 0x20 ADD PUSH0 KECCAK256 PUSH0 DUP3 DUP3 SLOAD ADD SWAP3 POP POP DUP2 SWAP1 SSTORE POP DUP2 PUSH20 0xFFFFFFFFFFFFFFFFFFFFFFFFFFFFFFFFFFFFFFFF AND PUSH0 PUSH20 0xFFFFFFFFFFFFFFFFFFFFFFFFFFFFFFFFFFFFFFFF AND PUSH32 0xDDF252AD1BE2C89B69C2B068FC378DAA952BA7F163C4A11628F55A4DF523B3EF DUP4 PUSH1 0x40 MLOAD PUSH2 0x3C08 SWAP2 SWAP1 PUSH2 0x43ED JUMP JUMPDEST PUSH1 0x40 MLOAD DUP1 SWAP2 SUB SWAP1 LOG3 PUSH2 0x3C1B PUSH0 DUP4 DUP4 PUSH2 0x2CFE JUMP JUMPDEST POP POP JUMP JUMPDEST PUSH0 PUSH28 0xFFFFFFFFFFFFFFFFFFFFFFFFFFFFFFFFFFFFFFFFFFFFFFFFFFFFFFFF SWAP1 POP SWAP1 JUMP JUMPDEST PUSH0 DUP2 DUP4 PUSH2 0x3C4F SWAP2 SWAP1 PUSH2 0x4EA4 JUMP JUMPDEST SWAP1 POP SWAP3 SWAP2 POP POP JUMP JUMPDEST PUSH0 DUP1 PUSH0 DUP6 DUP1 SLOAD SWAP1 POP SWAP1 POP PUSH0 DUP1 DUP3 EQ PUSH2 0x3D17 JUMPI PUSH2 0x3C76 DUP8 PUSH1 0x1 DUP5 SUB PUSH2 0x2F27 JUMP JUMPDEST PUSH1 0x40 MLOAD DUP1 PUSH1 0x40 ADD PUSH1 0x40 MSTORE SWAP1 DUP2 PUSH0 DUP3 ADD PUSH0 SWAP1 SLOAD SWAP1 PUSH2 0x100 EXP SWAP1 DIV PUSH4 0xFFFFFFFF AND PUSH4 0xFFFFFFFF AND PUSH4 0xFFFFFFFF AND DUP2 MSTORE PUSH1 0x20 ADD PUSH0 DUP3 ADD PUSH1 0x4 SWAP1 SLOAD SWAP1 PUSH2 0x100 EXP SWAP1 DIV PUSH28 0xFFFFFFFFFFFFFFFFFFFFFFFFFFFFFFFFFFFFFFFFFFFFFFFFFFFFFFFF AND PUSH28 0xFFFFFFFFFFFFFFFFFFFFFFFFFFFFFFFFFFFFFFFFFFFFFFFFFFFFFFFF AND PUSH28 0xFFFFFFFFFFFFFFFFFFFFFFFFFFFFFFFFFFFFFFFFFFFFFFFFFFFFFFFF AND DUP2 MSTORE POP POP PUSH2 0x3D51 JUMP JUMPDEST PUSH1 0x40 MLOAD DUP1 PUSH1 0x40 ADD PUSH1 0x40 MSTORE DUP1 PUSH0 PUSH4 0xFFFFFFFF AND DUP2 MSTORE PUSH1 0x20 ADD PUSH0 PUSH28 0xFFFFFFFFFFFFFFFFFFFFFFFFFFFFFFFFFFFFFFFFFFFFFFFFFFFFFFFF AND DUP2 MSTORE POP JUMPDEST SWAP1 POP DUP1 PUSH1 0x20 ADD MLOAD PUSH28 0xFFFFFFFFFFFFFFFFFFFFFFFFFFFFFFFFFFFFFFFFFFFFFFFFFFFFFFFF AND SWAP4 POP PUSH2 0x3D86 DUP5 DUP7 DUP9 PUSH4 0xFFFFFFFF AND JUMP JUMPDEST SWAP3 POP PUSH0 DUP3 GT DUP1 ISZERO PUSH2 0x3DAE JUMPI POP PUSH2 0x3D9A PUSH2 0x1736 JUMP JUMPDEST PUSH6 0xFFFFFFFFFFFF AND DUP2 PUSH0 ADD MLOAD PUSH4 0xFFFFFFFF AND EQ JUMPDEST ISZERO PUSH2 0x3E1E JUMPI PUSH2 0x3DBC DUP4 PUSH2 0x40FF JUMP JUMPDEST PUSH2 0x3DC9 DUP9 PUSH1 0x1 DUP6 SUB PUSH2 0x2F27 JUMP JUMPDEST PUSH0 ADD PUSH1 0x4 PUSH2 0x100 EXP DUP2 SLOAD DUP2 PUSH28 0xFFFFFFFFFFFFFFFFFFFFFFFFFFFFFFFFFFFFFFFFFFFFFFFFFFFFFFFF MUL NOT AND SWAP1 DUP4 PUSH28 0xFFFFFFFFFFFFFFFFFFFFFFFFFFFFFFFFFFFFFFFFFFFFFFFFFFFFFFFF AND MUL OR SWAP1 SSTORE POP PUSH2 0x3F16 JUMP JUMPDEST DUP7 PUSH1 0x40 MLOAD DUP1 PUSH1 0x40 ADD PUSH1 0x40 MSTORE DUP1 PUSH2 0x3E42 PUSH2 0x3E35 PUSH2 0x1736 JUMP JUMPDEST PUSH6 0xFFFFFFFFFFFF AND PUSH2 0x29B0 JUMP JUMPDEST PUSH4 0xFFFFFFFF AND DUP2 MSTORE PUSH1 0x20 ADD PUSH2 0x3E56 DUP7 PUSH2 0x40FF JUMP JUMPDEST PUSH28 0xFFFFFFFFFFFFFFFFFFFFFFFFFFFFFFFFFFFFFFFFFFFFFFFFFFFFFFFF AND DUP2 MSTORE POP SWAP1 DUP1 PUSH1 0x1 DUP2 SLOAD ADD DUP1 DUP3 SSTORE DUP1 SWAP2 POP POP PUSH1 0x1 SWAP1 SUB SWAP1 PUSH0 MSTORE PUSH1 0x20 PUSH0 KECCAK256 ADD PUSH0 SWAP1 SWAP2 SWAP1 SWAP2 SWAP1 SWAP2 POP PUSH0 DUP3 ADD MLOAD DUP2 PUSH0 ADD PUSH0 PUSH2 0x100 EXP DUP2 SLOAD DUP2 PUSH4 0xFFFFFFFF MUL NOT AND SWAP1 DUP4 PUSH4 0xFFFFFFFF AND MUL OR SWAP1 SSTORE POP PUSH1 0x20 DUP3 ADD MLOAD DUP2 PUSH0 ADD PUSH1 0x4 PUSH2 0x100 EXP DUP2 SLOAD DUP2 PUSH28 0xFFFFFFFFFFFFFFFFFFFFFFFFFFFFFFFFFFFFFFFFFFFFFFFFFFFFFFFF MUL NOT AND SWAP1 DUP4 PUSH28 0xFFFFFFFFFFFFFFFFFFFFFFFFFFFFFFFFFFFFFFFFFFFFFFFFFFFFFFFF AND MUL OR SWAP1 SSTORE POP POP POP JUMPDEST POP POP SWAP4 POP SWAP4 SWAP2 POP POP JUMP JUMPDEST PUSH0 PUSH20 0xFFFFFFFFFFFFFFFFFFFFFFFFFFFFFFFFFFFFFFFF AND DUP3 PUSH20 0xFFFFFFFFFFFFFFFFFFFFFFFFFFFFFFFFFFFFFFFF AND SUB PUSH2 0x3F8E JUMPI PUSH1 0x40 MLOAD PUSH32 0x8C379A000000000000000000000000000000000000000000000000000000000 DUP2 MSTORE PUSH1 0x4 ADD PUSH2 0x3F85 SWAP1 PUSH2 0x62EE JUMP JUMPDEST PUSH1 0x40 MLOAD DUP1 SWAP2 SUB SWAP1 REVERT JUMPDEST PUSH2 0x3F99 DUP3 PUSH0 DUP4 PUSH2 0x2C82 JUMP JUMPDEST PUSH0 PUSH1 0x97 PUSH0 DUP5 PUSH20 0xFFFFFFFFFFFFFFFFFFFFFFFFFFFFFFFFFFFFFFFF AND PUSH20 0xFFFFFFFFFFFFFFFFFFFFFFFFFFFFFFFFFFFFFFFF AND DUP2 MSTORE PUSH1 0x20 ADD SWAP1 DUP2 MSTORE PUSH1 0x20 ADD PUSH0 KECCAK256 SLOAD SWAP1 POP DUP2 DUP2 LT ISZERO PUSH2 0x401D JUMPI PUSH1 0x40 MLOAD PUSH32 0x8C379A000000000000000000000000000000000000000000000000000000000 DUP2 MSTORE PUSH1 0x4 ADD PUSH2 0x4014 SWAP1 PUSH2 0x637C JUMP JUMPDEST PUSH1 0x40 MLOAD DUP1 SWAP2 SUB SWAP1 REVERT JUMPDEST DUP2 DUP2 SUB PUSH1 0x97 PUSH0 DUP6 PUSH20 0xFFFFFFFFFFFFFFFFFFFFFFFFFFFFFFFFFFFFFFFF AND PUSH20 0xFFFFFFFFFFFFFFFFFFFFFFFFFFFFFFFFFFFFFFFF AND DUP2 MSTORE PUSH1 0x20 ADD SWAP1 DUP2 MSTORE PUSH1 0x20 ADD PUSH0 KECCAK256 DUP2 SWAP1 SSTORE POP DUP2 PUSH1 0x99 PUSH0 DUP3 DUP3 SLOAD SUB SWAP3 POP POP DUP2 SWAP1 SSTORE POP PUSH0 PUSH20 0xFFFFFFFFFFFFFFFFFFFFFFFFFFFFFFFFFFFFFFFF AND DUP4 PUSH20 0xFFFFFFFFFFFFFFFFFFFFFFFFFFFFFFFFFFFFFFFF AND PUSH32 0xDDF252AD1BE2C89B69C2B068FC378DAA952BA7F163C4A11628F55A4DF523B3EF DUP5 PUSH1 0x40 MLOAD PUSH2 0x40CD SWAP2 SWAP1 PUSH2 0x43ED JUMP JUMPDEST PUSH1 0x40 MLOAD DUP1 SWAP2 SUB SWAP1 LOG3 PUSH2 0x40E0 DUP4 PUSH0 DUP5 PUSH2 0x2CFE JUMP JUMPDEST POP POP POP JUMP JUMPDEST PUSH0 DUP2 DUP4 PUSH2 0x40F2 SWAP2 SWAP1 PUSH2 0x583F JUMP JUMPDEST SWAP1 POP SWAP3 SWAP2 POP POP JUMP JUMPDEST POP POP POP JUMP JUMPDEST PUSH0 PUSH28 0xFFFFFFFFFFFFFFFFFFFFFFFFFFFFFFFFFFFFFFFFFFFFFFFFFFFFFFFF DUP1 AND DUP3 GT ISZERO PUSH2 0x4161 JUMPI PUSH1 0x40 MLOAD PUSH32 0x8C379A000000000000000000000000000000000000000000000000000000000 DUP2 MSTORE PUSH1 0x4 ADD PUSH2 0x4158 SWAP1 PUSH2 0x640A JUMP JUMPDEST PUSH1 0x40 MLOAD DUP1 SWAP2 SUB SWAP1 REVERT JUMPDEST DUP2 SWAP1 POP SWAP2 SWAP1 POP JUMP JUMPDEST PUSH1 0x40 MLOAD DUP1 PUSH1 0x40 ADD PUSH1 0x40 MSTORE DUP1 PUSH0 PUSH4 0xFFFFFFFF AND DUP2 MSTORE PUSH1 0x20 ADD PUSH0 PUSH28 0xFFFFFFFFFFFFFFFFFFFFFFFFFFFFFFFFFFFFFFFFFFFFFFFFFFFFFFFF AND DUP2 MSTORE POP SWAP1 JUMP JUMPDEST PUSH0 PUSH1 0x40 MLOAD SWAP1 POP SWAP1 JUMP JUMPDEST PUSH0 DUP1 REVERT JUMPDEST PUSH0 DUP1 REVERT JUMPDEST PUSH0 PUSH32 0xFFFFFFFF00000000000000000000000000000000000000000000000000000000 DUP3 AND SWAP1 POP SWAP2 SWAP1 POP JUMP JUMPDEST PUSH2 0x41EA DUP2 PUSH2 0x41B6 JUMP JUMPDEST DUP2 EQ PUSH2 0x41F4 JUMPI PUSH0 DUP1 REVERT JUMPDEST POP JUMP JUMPDEST PUSH0 DUP2 CALLDATALOAD SWAP1 POP PUSH2 0x4205 DUP2 PUSH2 0x41E1 JUMP JUMPDEST SWAP3 SWAP2 POP POP JUMP JUMPDEST PUSH0 PUSH1 0x20 DUP3 DUP5 SUB SLT ISZERO PUSH2 0x4220 JUMPI PUSH2 0x421F PUSH2 0x41AE JUMP JUMPDEST JUMPDEST PUSH0 PUSH2 0x422D DUP5 DUP3 DUP6 ADD PUSH2 0x41F7 JUMP JUMPDEST SWAP2 POP POP SWAP3 SWAP2 POP POP JUMP JUMPDEST PUSH0 DUP2 ISZERO ISZERO SWAP1 POP SWAP2 SWAP1 POP JUMP JUMPDEST PUSH2 0x424A DUP2 PUSH2 0x4236 JUMP JUMPDEST DUP3 MSTORE POP POP JUMP JUMPDEST PUSH0 PUSH1 0x20 DUP3 ADD SWAP1 POP PUSH2 0x4263 PUSH0 DUP4 ADD DUP5 PUSH2 0x4241 JUMP JUMPDEST SWAP3 SWAP2 POP POP JUMP JUMPDEST PUSH0 DUP2 MLOAD SWAP1 POP SWAP2 SWAP1 POP JUMP JUMPDEST PUSH0 DUP3 DUP3 MSTORE PUSH1 0x20 DUP3 ADD SWAP1 POP SWAP3 SWAP2 POP POP JUMP JUMPDEST PUSH0 JUMPDEST DUP4 DUP2 LT ISZERO PUSH2 0x42A0 JUMPI DUP1 DUP3 ADD MLOAD DUP2 DUP5 ADD MSTORE PUSH1 0x20 DUP2 ADD SWAP1 POP PUSH2 0x4285 JUMP JUMPDEST PUSH0 DUP5 DUP5 ADD MSTORE POP POP POP POP JUMP JUMPDEST PUSH0 PUSH1 0x1F NOT PUSH1 0x1F DUP4 ADD AND SWAP1 POP SWAP2 SWAP1 POP JUMP JUMPDEST PUSH0 PUSH2 0x42C5 DUP3 PUSH2 0x4269 JUMP JUMPDEST PUSH2 0x42CF DUP2 DUP6 PUSH2 0x4273 JUMP JUMPDEST SWAP4 POP PUSH2 0x42DF DUP2 DUP6 PUSH1 0x20 DUP7 ADD PUSH2 0x4283 JUMP JUMPDEST PUSH2 0x42E8 DUP2 PUSH2 0x42AB JUMP JUMPDEST DUP5 ADD SWAP2 POP POP SWAP3 SWAP2 POP POP JUMP JUMPDEST PUSH0 PUSH1 0x20 DUP3 ADD SWAP1 POP DUP2 DUP2 SUB PUSH0 DUP4 ADD MSTORE PUSH2 0x430B DUP2 DUP5 PUSH2 0x42BB JUMP JUMPDEST SWAP1 POP SWAP3 SWAP2 POP POP JUMP JUMPDEST PUSH0 PUSH20 0xFFFFFFFFFFFFFFFFFFFFFFFFFFFFFFFFFFFFFFFF DUP3 AND SWAP1 POP SWAP2 SWAP1 POP JUMP JUMPDEST PUSH0 PUSH2 0x433C DUP3 PUSH2 0x4313 JUMP JUMPDEST SWAP1 POP SWAP2 SWAP1 POP JUMP JUMPDEST PUSH2 0x434C DUP2 PUSH2 0x4332 JUMP JUMPDEST DUP2 EQ PUSH2 0x4356 JUMPI PUSH0 DUP1 REVERT JUMPDEST POP JUMP JUMPDEST PUSH0 DUP2 CALLDATALOAD SWAP1 POP PUSH2 0x4367 DUP2 PUSH2 0x4343 JUMP JUMPDEST SWAP3 SWAP2 POP POP JUMP JUMPDEST PUSH0 DUP2 SWAP1 POP SWAP2 SWAP1 POP JUMP JUMPDEST PUSH2 0x437F DUP2 PUSH2 0x436D JUMP JUMPDEST DUP2 EQ PUSH2 0x4389 JUMPI PUSH0 DUP1 REVERT JUMPDEST POP JUMP JUMPDEST PUSH0 DUP2 CALLDATALOAD SWAP1 POP PUSH2 0x439A DUP2 PUSH2 0x4376 JUMP JUMPDEST SWAP3 SWAP2 POP POP JUMP JUMPDEST PUSH0 DUP1 PUSH1 0x40 DUP4 DUP6 SUB SLT ISZERO PUSH2 0x43B6 JUMPI PUSH2 0x43B5 PUSH2 0x41AE JUMP JUMPDEST JUMPDEST PUSH0 PUSH2 0x43C3 DUP6 DUP3 DUP7 ADD PUSH2 0x4359 JUMP JUMPDEST SWAP3 POP POP PUSH1 0x20 PUSH2 0x43D4 DUP6 DUP3 DUP7 ADD PUSH2 0x438C JUMP JUMPDEST SWAP2 POP POP SWAP3 POP SWAP3 SWAP1 POP JUMP JUMPDEST PUSH2 0x43E7 DUP2 PUSH2 0x436D JUMP JUMPDEST DUP3 MSTORE POP POP JUMP JUMPDEST PUSH0 PUSH1 0x20 DUP3 ADD SWAP1 POP PUSH2 0x4400 PUSH0 DUP4 ADD DUP5 PUSH2 0x43DE JUMP JUMPDEST SWAP3 SWAP2 POP POP JUMP JUMPDEST PUSH0 DUP1 PUSH0 PUSH1 0x60 DUP5 DUP7 SUB SLT ISZERO PUSH2 0x441D JUMPI PUSH2 0x441C PUSH2 0x41AE JUMP JUMPDEST JUMPDEST PUSH0 PUSH2 0x442A DUP7 DUP3 DUP8 ADD PUSH2 0x4359 JUMP JUMPDEST SWAP4 POP POP PUSH1 0x20 PUSH2 0x443B DUP7 DUP3 DUP8 ADD PUSH2 0x4359 JUMP JUMPDEST SWAP3 POP POP PUSH1 0x40 PUSH2 0x444C DUP7 DUP3 DUP8 ADD PUSH2 0x438C JUMP JUMPDEST SWAP2 POP POP SWAP3 POP SWAP3 POP SWAP3 JUMP JUMPDEST PUSH0 DUP2 SWAP1 POP SWAP2 SWAP1 POP JUMP JUMPDEST PUSH2 0x4468 DUP2 PUSH2 0x4456 JUMP JUMPDEST DUP2 EQ PUSH2 0x4472 JUMPI PUSH0 DUP1 REVERT JUMPDEST POP JUMP JUMPDEST PUSH0 DUP2 CALLDATALOAD SWAP1 POP PUSH2 0x4483 DUP2 PUSH2 0x445F JUMP JUMPDEST SWAP3 SWAP2 POP POP JUMP JUMPDEST PUSH0 PUSH1 0x20 DUP3 DUP5 SUB SLT ISZERO PUSH2 0x449E JUMPI PUSH2 0x449D PUSH2 0x41AE JUMP JUMPDEST JUMPDEST PUSH0 PUSH2 0x44AB DUP5 DUP3 DUP6 ADD PUSH2 0x4475 JUMP JUMPDEST SWAP2 POP POP SWAP3 SWAP2 POP POP JUMP JUMPDEST PUSH2 0x44BD DUP2 PUSH2 0x4456 JUMP JUMPDEST DUP3 MSTORE POP POP JUMP JUMPDEST PUSH0 PUSH1 0x20 DUP3 ADD SWAP1 POP PUSH2 0x44D6 PUSH0 DUP4 ADD DUP5 PUSH2 0x44B4 JUMP JUMPDEST SWAP3 SWAP2 POP POP JUMP JUMPDEST PUSH0 DUP1 PUSH1 0x40 DUP4 DUP6 SUB SLT ISZERO PUSH2 0x44F2 JUMPI PUSH2 0x44F1 PUSH2 0x41AE JUMP JUMPDEST JUMPDEST PUSH0 PUSH2 0x44FF DUP6 DUP3 DUP7 ADD PUSH2 0x4475 JUMP JUMPDEST SWAP3 POP POP PUSH1 0x20 PUSH2 0x4510 DUP6 DUP3 DUP7 ADD PUSH2 0x4359 JUMP JUMPDEST SWAP2 POP POP SWAP3 POP SWAP3 SWAP1 POP JUMP JUMPDEST PUSH0 PUSH1 0xFF DUP3 AND SWAP1 POP SWAP2 SWAP1 POP JUMP JUMPDEST PUSH2 0x452F DUP2 PUSH2 0x451A JUMP JUMPDEST DUP3 MSTORE POP POP JUMP JUMPDEST PUSH0 PUSH1 0x20 DUP3 ADD SWAP1 POP PUSH2 0x4548 PUSH0 DUP4 ADD DUP5 PUSH2 0x4526 JUMP JUMPDEST SWAP3 SWAP2 POP POP JUMP JUMPDEST PUSH0 PUSH1 0x20 DUP3 DUP5 SUB SLT ISZERO PUSH2 0x4563 JUMPI PUSH2 0x4562 PUSH2 0x41AE JUMP JUMPDEST JUMPDEST PUSH0 PUSH2 0x4570 DUP5 DUP3 DUP6 ADD PUSH2 0x438C JUMP JUMPDEST SWAP2 POP POP SWAP3 SWAP2 POP POP JUMP JUMPDEST PUSH0 DUP1 REVERT JUMPDEST PUSH0 DUP1 REVERT JUMPDEST PUSH32 0x4E487B7100000000000000000000000000000000000000000000000000000000 PUSH0 MSTORE PUSH1 0x41 PUSH1 0x4 MSTORE PUSH1 0x24 PUSH0 REVERT JUMPDEST PUSH2 0x45B7 DUP3 PUSH2 0x42AB JUMP JUMPDEST DUP2 ADD DUP2 DUP2 LT PUSH8 0xFFFFFFFFFFFFFFFF DUP3 GT OR ISZERO PUSH2 0x45D6 JUMPI PUSH2 0x45D5 PUSH2 0x4581 JUMP JUMPDEST JUMPDEST DUP1 PUSH1 0x40 MSTORE POP POP POP JUMP JUMPDEST PUSH0 PUSH2 0x45E8 PUSH2 0x41A5 JUMP JUMPDEST SWAP1 POP PUSH2 0x45F4 DUP3 DUP3 PUSH2 0x45AE JUMP JUMPDEST SWAP2 SWAP1 POP JUMP JUMPDEST PUSH0 PUSH8 0xFFFFFFFFFFFFFFFF DUP3 GT ISZERO PUSH2 0x4613 JUMPI PUSH2 0x4612 PUSH2 0x4581 JUMP JUMPDEST JUMPDEST PUSH2 0x461C DUP3 PUSH2 0x42AB JUMP JUMPDEST SWAP1 POP PUSH1 0x20 DUP2 ADD SWAP1 POP SWAP2 SWAP1 POP JUMP JUMPDEST DUP3 DUP2 DUP4 CALLDATACOPY PUSH0 DUP4 DUP4 ADD MSTORE POP POP POP JUMP JUMPDEST PUSH0 PUSH2 0x4649 PUSH2 0x4644 DUP5 PUSH2 0x45F9 JUMP JUMPDEST PUSH2 0x45DF JUMP JUMPDEST SWAP1 POP DUP3 DUP2 MSTORE PUSH1 0x20 DUP2 ADD DUP5 DUP5 DUP5 ADD GT ISZERO PUSH2 0x4665 JUMPI PUSH2 0x4664 PUSH2 0x457D JUMP JUMPDEST JUMPDEST PUSH2 0x4670 DUP5 DUP3 DUP6 PUSH2 0x4629 JUMP JUMPDEST POP SWAP4 SWAP3 POP POP POP JUMP JUMPDEST PUSH0 DUP3 PUSH1 0x1F DUP4 ADD SLT PUSH2 0x468C JUMPI PUSH2 0x468B PUSH2 0x4579 JUMP JUMPDEST JUMPDEST DUP2 CALLDATALOAD PUSH2 0x469C DUP5 DUP3 PUSH1 0x20 DUP7 ADD PUSH2 0x4637 JUMP JUMPDEST SWAP2 POP POP SWAP3 SWAP2 POP POP JUMP JUMPDEST PUSH0 DUP1 PUSH1 0x40 DUP4 DUP6 SUB SLT ISZERO PUSH2 0x46BB JUMPI PUSH2 0x46BA PUSH2 0x41AE JUMP JUMPDEST JUMPDEST PUSH0 DUP4 ADD CALLDATALOAD PUSH8 0xFFFFFFFFFFFFFFFF DUP2 GT ISZERO PUSH2 0x46D8 JUMPI PUSH2 0x46D7 PUSH2 0x41B2 JUMP JUMPDEST JUMPDEST PUSH2 0x46E4 DUP6 DUP3 DUP7 ADD PUSH2 0x4678 JUMP JUMPDEST SWAP3 POP POP PUSH1 0x20 DUP4 ADD CALLDATALOAD PUSH8 0xFFFFFFFFFFFFFFFF DUP2 GT ISZERO PUSH2 0x4705 JUMPI PUSH2 0x4704 PUSH2 0x41B2 JUMP JUMPDEST JUMPDEST PUSH2 0x4711 DUP6 DUP3 DUP7 ADD PUSH2 0x4678 JUMP JUMPDEST SWAP2 POP POP SWAP3 POP SWAP3 SWAP1 POP JUMP JUMPDEST PUSH0 PUSH1 0x20 DUP3 DUP5 SUB SLT ISZERO PUSH2 0x4730 JUMPI PUSH2 0x472F PUSH2 0x41AE JUMP JUMPDEST JUMPDEST PUSH0 PUSH2 0x473D DUP5 DUP3 DUP6 ADD PUSH2 0x4359 JUMP JUMPDEST SWAP2 POP POP SWAP3 SWAP2 POP POP JUMP JUMPDEST PUSH2 0x474F DUP2 PUSH2 0x4332 JUMP JUMPDEST DUP3 MSTORE POP POP JUMP JUMPDEST PUSH0 PUSH1 0x20 DUP3 ADD SWAP1 POP PUSH2 0x4768 PUSH0 DUP4 ADD DUP5 PUSH2 0x4746 JUMP JUMPDEST SWAP3 SWAP2 POP POP JUMP JUMPDEST PUSH0 PUSH4 0xFFFFFFFF DUP3 AND SWAP1 POP SWAP2 SWAP1 POP JUMP JUMPDEST PUSH2 0x4786 DUP2 PUSH2 0x476E JUMP JUMPDEST DUP3 MSTORE POP POP JUMP JUMPDEST PUSH0 PUSH1 0x20 DUP3 ADD SWAP1 POP PUSH2 0x479F PUSH0 DUP4 ADD DUP5 PUSH2 0x477D JUMP JUMPDEST SWAP3 SWAP2 POP POP JUMP JUMPDEST PUSH0 PUSH32 0xFF00000000000000000000000000000000000000000000000000000000000000 DUP3 AND SWAP1 POP SWAP2 SWAP1 POP JUMP JUMPDEST PUSH2 0x47D9 DUP2 PUSH2 0x47A5 JUMP JUMPDEST DUP3 MSTORE POP POP JUMP JUMPDEST PUSH0 DUP2 MLOAD SWAP1 POP SWAP2 SWAP1 POP JUMP JUMPDEST PUSH0 DUP3 DUP3 MSTORE PUSH1 0x20 DUP3 ADD SWAP1 POP SWAP3 SWAP2 POP POP JUMP JUMPDEST PUSH0 DUP2 SWAP1 POP PUSH1 0x20 DUP3 ADD SWAP1 POP SWAP2 SWAP1 POP JUMP JUMPDEST PUSH2 0x4811 DUP2 PUSH2 0x436D JUMP JUMPDEST DUP3 MSTORE POP POP JUMP JUMPDEST PUSH0 PUSH2 0x4822 DUP4 DUP4 PUSH2 0x4808 JUMP JUMPDEST PUSH1 0x20 DUP4 ADD SWAP1 POP SWAP3 SWAP2 POP POP JUMP JUMPDEST PUSH0 PUSH1 0x20 DUP3 ADD SWAP1 POP SWAP2 SWAP1 POP JUMP JUMPDEST PUSH0 PUSH2 0x4844 DUP3 PUSH2 0x47DF JUMP JUMPDEST PUSH2 0x484E DUP2 DUP6 PUSH2 0x47E9 JUMP JUMPDEST SWAP4 POP PUSH2 0x4859 DUP4 PUSH2 0x47F9 JUMP JUMPDEST DUP1 PUSH0 JUMPDEST DUP4 DUP2 LT ISZERO PUSH2 0x4889 JUMPI DUP2 MLOAD PUSH2 0x4870 DUP9 DUP3 PUSH2 0x4817 JUMP JUMPDEST SWAP8 POP PUSH2 0x487B DUP4 PUSH2 0x482E JUMP JUMPDEST SWAP3 POP POP PUSH1 0x1 DUP2 ADD SWAP1 POP PUSH2 0x485C JUMP JUMPDEST POP DUP6 SWAP4 POP POP POP POP SWAP3 SWAP2 POP POP JUMP JUMPDEST PUSH0 PUSH1 0xE0 DUP3 ADD SWAP1 POP PUSH2 0x48A9 PUSH0 DUP4 ADD DUP11 PUSH2 0x47D0 JUMP JUMPDEST DUP2 DUP2 SUB PUSH1 0x20 DUP4 ADD MSTORE PUSH2 0x48BB DUP2 DUP10 PUSH2 0x42BB JUMP JUMPDEST SWAP1 POP DUP2 DUP2 SUB PUSH1 0x40 DUP4 ADD MSTORE PUSH2 0x48CF DUP2 DUP9 PUSH2 0x42BB JUMP JUMPDEST SWAP1 POP PUSH2 0x48DE PUSH1 0x60 DUP4 ADD DUP8 PUSH2 0x43DE JUMP JUMPDEST PUSH2 0x48EB PUSH1 0x80 DUP4 ADD DUP7 PUSH2 0x4746 JUMP JUMPDEST PUSH2 0x48F8 PUSH1 0xA0 DUP4 ADD DUP6 PUSH2 0x44B4 JUMP JUMPDEST DUP2 DUP2 SUB PUSH1 0xC0 DUP4 ADD MSTORE PUSH2 0x490A DUP2 DUP5 PUSH2 0x483A JUMP JUMPDEST SWAP1 POP SWAP9 SWAP8 POP POP POP POP POP POP POP POP JUMP JUMPDEST PUSH0 PUSH6 0xFFFFFFFFFFFF DUP3 AND SWAP1 POP SWAP2 SWAP1 POP JUMP JUMPDEST PUSH2 0x4932 DUP2 PUSH2 0x4918 JUMP JUMPDEST DUP3 MSTORE POP POP JUMP JUMPDEST PUSH0 PUSH1 0x20 DUP3 ADD SWAP1 POP PUSH2 0x494B PUSH0 DUP4 ADD DUP5 PUSH2 0x4929 JUMP JUMPDEST SWAP3 SWAP2 POP POP JUMP JUMPDEST PUSH2 0x495A DUP2 PUSH2 0x451A JUMP JUMPDEST DUP2 EQ PUSH2 0x4964 JUMPI PUSH0 DUP1 REVERT JUMPDEST POP JUMP JUMPDEST PUSH0 DUP2 CALLDATALOAD SWAP1 POP PUSH2 0x4975 DUP2 PUSH2 0x4951 JUMP JUMPDEST SWAP3 SWAP2 POP POP JUMP JUMPDEST PUSH0 DUP1 PUSH0 DUP1 PUSH0 DUP1 PUSH1 0xC0 DUP8 DUP10 SUB SLT ISZERO PUSH2 0x4995 JUMPI PUSH2 0x4994 PUSH2 0x41AE JUMP JUMPDEST JUMPDEST PUSH0 PUSH2 0x49A2 DUP10 DUP3 DUP11 ADD PUSH2 0x4359 JUMP JUMPDEST SWAP7 POP POP PUSH1 0x20 PUSH2 0x49B3 DUP10 DUP3 DUP11 ADD PUSH2 0x438C JUMP JUMPDEST SWAP6 POP POP PUSH1 0x40 PUSH2 0x49C4 DUP10 DUP3 DUP11 ADD PUSH2 0x438C JUMP JUMPDEST SWAP5 POP POP PUSH1 0x60 PUSH2 0x49D5 DUP10 DUP3 DUP11 ADD PUSH2 0x4967 JUMP JUMPDEST SWAP4 POP POP PUSH1 0x80 PUSH2 0x49E6 DUP10 DUP3 DUP11 ADD PUSH2 0x4475 JUMP JUMPDEST SWAP3 POP POP PUSH1 0xA0 PUSH2 0x49F7 DUP10 DUP3 DUP11 ADD PUSH2 0x4475 JUMP JUMPDEST SWAP2 POP POP SWAP3 SWAP6 POP SWAP3 SWAP6 POP SWAP3 SWAP6 JUMP JUMPDEST PUSH0 DUP1 PUSH0 DUP1 PUSH0 DUP1 PUSH0 PUSH1 0xE0 DUP9 DUP11 SUB SLT ISZERO PUSH2 0x4A1F JUMPI PUSH2 0x4A1E PUSH2 0x41AE JUMP JUMPDEST JUMPDEST PUSH0 PUSH2 0x4A2C DUP11 DUP3 DUP12 ADD PUSH2 0x4359 JUMP JUMPDEST SWAP8 POP POP PUSH1 0x20 PUSH2 0x4A3D DUP11 DUP3 DUP12 ADD PUSH2 0x4359 JUMP JUMPDEST SWAP7 POP POP PUSH1 0x40 PUSH2 0x4A4E DUP11 DUP3 DUP12 ADD PUSH2 0x438C JUMP JUMPDEST SWAP6 POP POP PUSH1 0x60 PUSH2 0x4A5F DUP11 DUP3 DUP12 ADD PUSH2 0x438C JUMP JUMPDEST SWAP5 POP POP PUSH1 0x80 PUSH2 0x4A70 DUP11 DUP3 DUP12 ADD PUSH2 0x4967 JUMP JUMPDEST SWAP4 POP POP PUSH1 0xA0 PUSH2 0x4A81 DUP11 DUP3 DUP12 ADD PUSH2 0x4475 JUMP JUMPDEST SWAP3 POP POP PUSH1 0xC0 PUSH2 0x4A92 DUP11 DUP3 DUP12 ADD PUSH2 0x4475 JUMP JUMPDEST SWAP2 POP POP SWAP3 SWAP6 SWAP9 SWAP2 SWAP5 SWAP8 POP SWAP3 SWAP6 POP JUMP JUMPDEST PUSH0 DUP1 PUSH1 0x40 DUP4 DUP6 SUB SLT ISZERO PUSH2 0x4AB7 JUMPI PUSH2 0x4AB6 PUSH2 0x41AE JUMP JUMPDEST JUMPDEST PUSH0 PUSH2 0x4AC4 DUP6 DUP3 DUP7 ADD PUSH2 0x4359 JUMP JUMPDEST SWAP3 POP POP PUSH1 0x20 PUSH2 0x4AD5 DUP6 DUP3 DUP7 ADD PUSH2 0x4359 JUMP JUMPDEST SWAP2 POP POP SWAP3 POP SWAP3 SWAP1 POP JUMP JUMPDEST PUSH2 0x4AE8 DUP2 PUSH2 0x476E JUMP JUMPDEST DUP2 EQ PUSH2 0x4AF2 JUMPI PUSH0 DUP1 REVERT JUMPDEST POP JUMP JUMPDEST PUSH0 DUP2 CALLDATALOAD SWAP1 POP PUSH2 0x4B03 DUP2 PUSH2 0x4ADF JUMP JUMPDEST SWAP3 SWAP2 POP POP JUMP JUMPDEST PUSH0 DUP1 PUSH1 0x40 DUP4 DUP6 SUB SLT ISZERO PUSH2 0x4B1F JUMPI PUSH2 0x4B1E PUSH2 0x41AE JUMP JUMPDEST JUMPDEST PUSH0 PUSH2 0x4B2C DUP6 DUP3 DUP7 ADD PUSH2 0x4359 JUMP JUMPDEST SWAP3 POP POP PUSH1 0x20 PUSH2 0x4B3D DUP6 DUP3 DUP7 ADD PUSH2 0x4AF5 JUMP JUMPDEST SWAP2 POP POP SWAP3 POP SWAP3 SWAP1 POP JUMP JUMPDEST PUSH2 0x4B50 DUP2 PUSH2 0x476E JUMP JUMPDEST DUP3 MSTORE POP POP JUMP JUMPDEST PUSH0 PUSH28 0xFFFFFFFFFFFFFFFFFFFFFFFFFFFFFFFFFFFFFFFFFFFFFFFFFFFFFFFF DUP3 AND SWAP1 POP SWAP2 SWAP1 POP JUMP JUMPDEST PUSH2 0x4B86 DUP2 PUSH2 0x4B56 JUMP JUMPDEST DUP3 MSTORE POP POP JUMP JUMPDEST PUSH1 0x40 DUP3 ADD PUSH0 DUP3 ADD MLOAD PUSH2 0x4BA0 PUSH0 DUP6 ADD DUP3 PUSH2 0x4B47 JUMP JUMPDEST POP PUSH1 0x20 DUP3 ADD MLOAD PUSH2 0x4BB3 PUSH1 0x20 DUP6 ADD DUP3 PUSH2 0x4B7D JUMP JUMPDEST POP POP POP POP JUMP JUMPDEST PUSH0 PUSH1 0x40 DUP3 ADD SWAP1 POP PUSH2 0x4BCC PUSH0 DUP4 ADD DUP5 PUSH2 0x4B8C JUMP JUMPDEST SWAP3 SWAP2 POP POP JUMP JUMPDEST PUSH32 0x4E487B7100000000000000000000000000000000000000000000000000000000 PUSH0 MSTORE PUSH1 0x22 PUSH1 0x4 MSTORE PUSH1 0x24 PUSH0 REVERT JUMPDEST PUSH0 PUSH1 0x2 DUP3 DIV SWAP1 POP PUSH1 0x1 DUP3 AND DUP1 PUSH2 0x4C16 JUMPI PUSH1 0x7F DUP3 AND SWAP2 POP JUMPDEST PUSH1 0x20 DUP3 LT DUP2 SUB PUSH2 0x4C29 JUMPI PUSH2 0x4C28 PUSH2 0x4BD2 JUMP JUMPDEST JUMPDEST POP SWAP2 SWAP1 POP JUMP JUMPDEST PUSH32 0x4E487B7100000000000000000000000000000000000000000000000000000000 PUSH0 MSTORE PUSH1 0x11 PUSH1 0x4 MSTORE PUSH1 0x24 PUSH0 REVERT JUMPDEST PUSH0 DUP2 PUSH1 0x1 SHR SWAP1 POP SWAP2 SWAP1 POP JUMP JUMPDEST PUSH0 DUP1 DUP3 SWAP2 POP DUP4 SWAP1 POP JUMPDEST PUSH1 0x1 DUP6 GT ISZERO PUSH2 0x4CB1 JUMPI DUP1 DUP7 DIV DUP2 GT ISZERO PUSH2 0x4C8D JUMPI PUSH2 0x4C8C PUSH2 0x4C2F JUMP JUMPDEST JUMPDEST PUSH1 0x1 DUP6 AND ISZERO PUSH2 0x4C9C JUMPI DUP1 DUP3 MUL SWAP2 POP JUMPDEST DUP1 DUP2 MUL SWAP1 POP PUSH2 0x4CAA DUP6 PUSH2 0x4C5C JUMP JUMPDEST SWAP5 POP PUSH2 0x4C71 JUMP JUMPDEST SWAP5 POP SWAP5 SWAP3 POP POP POP JUMP JUMPDEST PUSH0 DUP3 PUSH2 0x4CC9 JUMPI PUSH1 0x1 SWAP1 POP PUSH2 0x4D84 JUMP JUMPDEST DUP2 PUSH2 0x4CD6 JUMPI PUSH0 SWAP1 POP PUSH2 0x4D84 JUMP JUMPDEST DUP2 PUSH1 0x1 DUP2 EQ PUSH2 0x4CEC JUMPI PUSH1 0x2 DUP2 EQ PUSH2 0x4CF6 JUMPI PUSH2 0x4D25 JUMP JUMPDEST PUSH1 0x1 SWAP2 POP POP PUSH2 0x4D84 JUMP JUMPDEST PUSH1 0xFF DUP5 GT ISZERO PUSH2 0x4D08 JUMPI PUSH2 0x4D07 PUSH2 0x4C2F JUMP JUMPDEST JUMPDEST DUP4 PUSH1 0x2 EXP SWAP2 POP DUP5 DUP3 GT ISZERO PUSH2 0x4D1F JUMPI PUSH2 0x4D1E PUSH2 0x4C2F JUMP JUMPDEST JUMPDEST POP PUSH2 0x4D84 JUMP JUMPDEST POP PUSH1 0x20 DUP4 LT PUSH2 0x133 DUP4 LT AND PUSH1 0x4E DUP5 LT PUSH1 0xB DUP5 LT AND OR ISZERO PUSH2 0x4D5A JUMPI DUP3 DUP3 EXP SWAP1 POP DUP4 DUP2 GT ISZERO PUSH2 0x4D55 JUMPI PUSH2 0x4D54 PUSH2 0x4C2F JUMP JUMPDEST JUMPDEST PUSH2 0x4D84 JUMP JUMPDEST PUSH2 0x4D67 DUP5 DUP5 DUP5 PUSH1 0x1 PUSH2 0x4C68 JUMP JUMPDEST SWAP3 POP SWAP1 POP DUP2 DUP5 DIV DUP2 GT ISZERO PUSH2 0x4D7E JUMPI PUSH2 0x4D7D PUSH2 0x4C2F JUMP JUMPDEST JUMPDEST DUP2 DUP2 MUL SWAP1 POP JUMPDEST SWAP4 SWAP3 POP POP POP JUMP JUMPDEST PUSH0 PUSH2 0x4D95 DUP3 PUSH2 0x436D JUMP JUMPDEST SWAP2 POP PUSH2 0x4DA0 DUP4 PUSH2 0x436D JUMP JUMPDEST SWAP3 POP PUSH2 0x4DCD PUSH32 0xFFFFFFFFFFFFFFFFFFFFFFFFFFFFFFFFFFFFFFFFFFFFFFFFFFFFFFFFFFFFFFFF DUP5 DUP5 PUSH2 0x4CBA JUMP JUMPDEST SWAP1 POP SWAP3 SWAP2 POP POP JUMP JUMPDEST PUSH0 PUSH2 0x4DDF DUP3 PUSH2 0x436D JUMP JUMPDEST SWAP2 POP PUSH2 0x4DEA DUP4 PUSH2 0x436D JUMP JUMPDEST SWAP3 POP DUP3 DUP3 MUL PUSH2 0x4DF8 DUP2 PUSH2 0x436D JUMP JUMPDEST SWAP2 POP DUP3 DUP3 DIV DUP5 EQ DUP4 ISZERO OR PUSH2 0x4E0F JUMPI PUSH2 0x4E0E PUSH2 0x4C2F JUMP JUMPDEST JUMPDEST POP SWAP3 SWAP2 POP POP JUMP JUMPDEST PUSH32 0x416363657373436F6E74726F6C3A2063616E206F6E6C792072656E6F756E6365 PUSH0 DUP3 ADD MSTORE PUSH32 0x20726F6C657320666F722073656C660000000000000000000000000000000000 PUSH1 0x20 DUP3 ADD MSTORE POP JUMP JUMPDEST PUSH0 PUSH2 0x4E70 PUSH1 0x2F DUP4 PUSH2 0x4273 JUMP JUMPDEST SWAP2 POP PUSH2 0x4E7B DUP3 PUSH2 0x4E16 JUMP JUMPDEST PUSH1 0x40 DUP3 ADD SWAP1 POP SWAP2 SWAP1 POP JUMP JUMPDEST PUSH0 PUSH1 0x20 DUP3 ADD SWAP1 POP DUP2 DUP2 SUB PUSH0 DUP4 ADD MSTORE PUSH2 0x4E9D DUP2 PUSH2 0x4E64 JUMP JUMPDEST SWAP1 POP SWAP2 SWAP1 POP JUMP JUMPDEST PUSH0 PUSH2 0x4EAE DUP3 PUSH2 0x436D JUMP JUMPDEST SWAP2 POP PUSH2 0x4EB9 DUP4 PUSH2 0x436D JUMP JUMPDEST SWAP3 POP DUP3 DUP3 ADD SWAP1 POP DUP1 DUP3 GT ISZERO PUSH2 0x4ED1 JUMPI PUSH2 0x4ED0 PUSH2 0x4C2F JUMP JUMPDEST JUMPDEST SWAP3 SWAP2 POP POP JUMP JUMPDEST PUSH32 0x4552433230566F7465733A20667574757265206C6F6F6B757000000000000000 PUSH0 DUP3 ADD MSTORE POP JUMP JUMPDEST PUSH0 PUSH2 0x4F0B PUSH1 0x19 DUP4 PUSH2 0x4273 JUMP JUMPDEST SWAP2 POP PUSH2 0x4F16 DUP3 PUSH2 0x4ED7 JUMP JUMPDEST PUSH1 0x20 DUP3 ADD SWAP1 POP SWAP2 SWAP1 POP JUMP JUMPDEST PUSH0 PUSH1 0x20 DUP3 ADD SWAP1 POP DUP2 DUP2 SUB PUSH0 DUP4 ADD MSTORE PUSH2 0x4F38 DUP2 PUSH2 0x4EFF JUMP JUMPDEST SWAP1 POP SWAP2 SWAP1 POP JUMP JUMPDEST PUSH32 0x546F6B656E20746F206265206D696E7465642073686F756C64206E6F74206578 PUSH0 DUP3 ADD MSTORE PUSH32 0x63656564204D617820737570706C790000000000000000000000000000000000 PUSH1 0x20 DUP3 ADD MSTORE POP JUMP JUMPDEST PUSH0 PUSH2 0x4F99 PUSH1 0x2F DUP4 PUSH2 0x4273 JUMP JUMPDEST SWAP2 POP PUSH2 0x4FA4 DUP3 PUSH2 0x4F3F JUMP JUMPDEST PUSH1 0x40 DUP3 ADD SWAP1 POP SWAP2 SWAP1 POP JUMP JUMPDEST PUSH0 PUSH1 0x20 DUP3 ADD SWAP1 POP DUP2 DUP2 SUB PUSH0 DUP4 ADD MSTORE PUSH2 0x4FC6 DUP2 PUSH2 0x4F8D JUMP JUMPDEST SWAP1 POP SWAP2 SWAP1 POP JUMP JUMPDEST PUSH32 0x4552433230566F7465733A2062726F6B656E20636C6F636B206D6F6465000000 PUSH0 DUP3 ADD MSTORE POP JUMP JUMPDEST PUSH0 PUSH2 0x5001 PUSH1 0x1D DUP4 PUSH2 0x4273 JUMP JUMPDEST SWAP2 POP PUSH2 0x500C DUP3 PUSH2 0x4FCD JUMP JUMPDEST PUSH1 0x20 DUP3 ADD SWAP1 POP SWAP2 SWAP1 POP JUMP JUMPDEST PUSH0 PUSH1 0x20 DUP3 ADD SWAP1 POP DUP2 DUP2 SUB PUSH0 DUP4 ADD MSTORE PUSH2 0x502E DUP2 PUSH2 0x4FF5 JUMP JUMPDEST SWAP1 POP SWAP2 SWAP1 POP JUMP JUMPDEST PUSH32 0x496E697469616C697A61626C653A20636F6E747261637420697320616C726561 PUSH0 DUP3 ADD MSTORE PUSH32 0x647920696E697469616C697A6564000000000000000000000000000000000000 PUSH1 0x20 DUP3 ADD MSTORE POP JUMP JUMPDEST PUSH0 PUSH2 0x508F PUSH1 0x2E DUP4 PUSH2 0x4273 JUMP JUMPDEST SWAP2 POP PUSH2 0x509A DUP3 PUSH2 0x5035 JUMP JUMPDEST PUSH1 0x40 DUP3 ADD SWAP1 POP SWAP2 SWAP1 POP JUMP JUMPDEST PUSH0 PUSH1 0x20 DUP3 ADD SWAP1 POP DUP2 DUP2 SUB PUSH0 DUP4 ADD MSTORE PUSH2 0x50BC DUP2 PUSH2 0x5083 JUMP JUMPDEST SWAP1 POP SWAP2 SWAP1 POP JUMP JUMPDEST PUSH0 DUP2 SWAP1 POP SWAP2 SWAP1 POP JUMP JUMPDEST PUSH0 DUP2 SWAP1 POP SWAP2 SWAP1 POP JUMP JUMPDEST PUSH0 PUSH2 0x50EF PUSH2 0x50EA PUSH2 0x50E5 DUP5 PUSH2 0x50C3 JUMP JUMPDEST PUSH2 0x50CC JUMP JUMPDEST PUSH2 0x451A JUMP JUMPDEST SWAP1 POP SWAP2 SWAP1 POP JUMP JUMPDEST PUSH2 0x50FF DUP2 PUSH2 0x50D5 JUMP JUMPDEST DUP3 MSTORE POP POP JUMP JUMPDEST PUSH0 PUSH1 0x20 DUP3 ADD SWAP1 POP PUSH2 0x5118 PUSH0 DUP4 ADD DUP5 PUSH2 0x50F6 JUMP JUMPDEST SWAP3 SWAP2 POP POP JUMP JUMPDEST PUSH32 0x45524332303A206275726E20616D6F756E74206578636565647320616C6C6F77 PUSH0 DUP3 ADD MSTORE PUSH32 0x616E636500000000000000000000000000000000000000000000000000000000 PUSH1 0x20 DUP3 ADD MSTORE POP JUMP JUMPDEST PUSH0 PUSH2 0x5178 PUSH1 0x24 DUP4 PUSH2 0x4273 JUMP JUMPDEST SWAP2 POP PUSH2 0x5183 DUP3 PUSH2 0x511E JUMP JUMPDEST PUSH1 0x40 DUP3 ADD SWAP1 POP SWAP2 SWAP1 POP JUMP JUMPDEST PUSH0 PUSH1 0x20 DUP3 ADD SWAP1 POP DUP2 DUP2 SUB PUSH0 DUP4 ADD MSTORE PUSH2 0x51A5 DUP2 PUSH2 0x516C JUMP JUMPDEST SWAP1 POP SWAP2 SWAP1 POP JUMP JUMPDEST PUSH32 0x4549503731323A20556E696E697469616C697A65640000000000000000000000 PUSH0 DUP3 ADD MSTORE POP JUMP JUMPDEST PUSH0 PUSH2 0x51E0 PUSH1 0x15 DUP4 PUSH2 0x4273 JUMP JUMPDEST SWAP2 POP PUSH2 0x51EB DUP3 PUSH2 0x51AC JUMP JUMPDEST PUSH1 0x20 DUP3 ADD SWAP1 POP SWAP2 SWAP1 POP JUMP JUMPDEST PUSH0 PUSH1 0x20 DUP3 ADD SWAP1 POP DUP2 DUP2 SUB PUSH0 DUP4 ADD MSTORE PUSH2 0x520D DUP2 PUSH2 0x51D4 JUMP JUMPDEST SWAP1 POP SWAP2 SWAP1 POP JUMP JUMPDEST PUSH32 0x4E487B7100000000000000000000000000000000000000000000000000000000 PUSH0 MSTORE PUSH1 0x32 PUSH1 0x4 MSTORE PUSH1 0x24 PUSH0 REVERT JUMPDEST PUSH32 0x45524332303A2064656372656173656420616C6C6F77616E63652062656C6F77 PUSH0 DUP3 ADD MSTORE PUSH32 0x207A65726F000000000000000000000000000000000000000000000000000000 PUSH1 0x20 DUP3 ADD MSTORE POP JUMP JUMPDEST PUSH0 PUSH2 0x529B PUSH1 0x25 DUP4 PUSH2 0x4273 JUMP JUMPDEST SWAP2 POP PUSH2 0x52A6 DUP3 PUSH2 0x5241 JUMP JUMPDEST PUSH1 0x40 DUP3 ADD SWAP1 POP SWAP2 SWAP1 POP JUMP JUMPDEST PUSH0 PUSH1 0x20 DUP3 ADD SWAP1 POP DUP2 DUP2 SUB PUSH0 DUP4 ADD MSTORE PUSH2 0x52C8 DUP2 PUSH2 0x528F JUMP JUMPDEST SWAP1 POP SWAP2 SWAP1 POP JUMP JUMPDEST PUSH32 0x4552433230566F7465733A207369676E61747572652065787069726564000000 PUSH0 DUP3 ADD MSTORE POP JUMP JUMPDEST PUSH0 PUSH2 0x5303 PUSH1 0x1D DUP4 PUSH2 0x4273 JUMP JUMPDEST SWAP2 POP PUSH2 0x530E DUP3 PUSH2 0x52CF JUMP JUMPDEST PUSH1 0x20 DUP3 ADD SWAP1 POP SWAP2 SWAP1 POP JUMP JUMPDEST PUSH0 PUSH1 0x20 DUP3 ADD SWAP1 POP DUP2 DUP2 SUB PUSH0 DUP4 ADD MSTORE PUSH2 0x5330 DUP2 PUSH2 0x52F7 JUMP JUMPDEST SWAP1 POP SWAP2 SWAP1 POP JUMP JUMPDEST PUSH0 PUSH1 0x80 DUP3 ADD SWAP1 POP PUSH2 0x534A PUSH0 DUP4 ADD DUP8 PUSH2 0x44B4 JUMP JUMPDEST PUSH2 0x5357 PUSH1 0x20 DUP4 ADD DUP7 PUSH2 0x4746 JUMP JUMPDEST PUSH2 0x5364 PUSH1 0x40 DUP4 ADD DUP6 PUSH2 0x43DE JUMP JUMPDEST PUSH2 0x5371 PUSH1 0x60 DUP4 ADD DUP5 PUSH2 0x43DE JUMP JUMPDEST SWAP6 SWAP5 POP POP POP POP POP JUMP JUMPDEST PUSH32 0x4552433230566F7465733A20696E76616C6964206E6F6E636500000000000000 PUSH0 DUP3 ADD MSTORE POP JUMP JUMPDEST PUSH0 PUSH2 0x53AE PUSH1 0x19 DUP4 PUSH2 0x4273 JUMP JUMPDEST SWAP2 POP PUSH2 0x53B9 DUP3 PUSH2 0x537A JUMP JUMPDEST PUSH1 0x20 DUP3 ADD SWAP1 POP SWAP2 SWAP1 POP JUMP JUMPDEST PUSH0 PUSH1 0x20 DUP3 ADD SWAP1 POP DUP2 DUP2 SUB PUSH0 DUP4 ADD MSTORE PUSH2 0x53DB DUP2 PUSH2 0x53A2 JUMP JUMPDEST SWAP1 POP SWAP2 SWAP1 POP JUMP JUMPDEST PUSH32 0x45524332305065726D69743A206578706972656420646561646C696E65000000 PUSH0 DUP3 ADD MSTORE POP JUMP JUMPDEST PUSH0 PUSH2 0x5416 PUSH1 0x1D DUP4 PUSH2 0x4273 JUMP JUMPDEST SWAP2 POP PUSH2 0x5421 DUP3 PUSH2 0x53E2 JUMP JUMPDEST PUSH1 0x20 DUP3 ADD SWAP1 POP SWAP2 SWAP1 POP JUMP JUMPDEST PUSH0 PUSH1 0x20 DUP3 ADD SWAP1 POP DUP2 DUP2 SUB PUSH0 DUP4 ADD MSTORE PUSH2 0x5443 DUP2 PUSH2 0x540A JUMP JUMPDEST SWAP1 POP SWAP2 SWAP1 POP JUMP JUMPDEST PUSH0 PUSH1 0xC0 DUP3 ADD SWAP1 POP PUSH2 0x545D PUSH0 DUP4 ADD DUP10 PUSH2 0x44B4 JUMP JUMPDEST PUSH2 0x546A PUSH1 0x20 DUP4 ADD DUP9 PUSH2 0x4746 JUMP JUMPDEST PUSH2 0x5477 PUSH1 0x40 DUP4 ADD DUP8 PUSH2 0x4746 JUMP JUMPDEST PUSH2 0x5484 PUSH1 0x60 DUP4 ADD DUP7 PUSH2 0x43DE JUMP JUMPDEST PUSH2 0x5491 PUSH1 0x80 DUP4 ADD DUP6 PUSH2 0x43DE JUMP JUMPDEST PUSH2 0x549E PUSH1 0xA0 DUP4 ADD DUP5 PUSH2 0x43DE JUMP JUMPDEST SWAP8 SWAP7 POP POP POP POP POP POP POP JUMP JUMPDEST PUSH32 0x45524332305065726D69743A20696E76616C6964207369676E61747572650000 PUSH0 DUP3 ADD MSTORE POP JUMP JUMPDEST PUSH0 PUSH2 0x54DD PUSH1 0x1E DUP4 PUSH2 0x4273 JUMP JUMPDEST SWAP2 POP PUSH2 0x54E8 DUP3 PUSH2 0x54A9 JUMP JUMPDEST PUSH1 0x20 DUP3 ADD SWAP1 POP SWAP2 SWAP1 POP JUMP JUMPDEST PUSH0 PUSH1 0x20 DUP3 ADD SWAP1 POP DUP2 DUP2 SUB PUSH0 DUP4 ADD MSTORE PUSH2 0x550A DUP2 PUSH2 0x54D1 JUMP JUMPDEST SWAP1 POP SWAP2 SWAP1 POP JUMP JUMPDEST PUSH32 0x45524332303A20617070726F76652066726F6D20746865207A65726F20616464 PUSH0 DUP3 ADD MSTORE PUSH32 0x7265737300000000000000000000000000000000000000000000000000000000 PUSH1 0x20 DUP3 ADD MSTORE POP JUMP JUMPDEST PUSH0 PUSH2 0x556B PUSH1 0x24 DUP4 PUSH2 0x4273 JUMP JUMPDEST SWAP2 POP PUSH2 0x5576 DUP3 PUSH2 0x5511 JUMP JUMPDEST PUSH1 0x40 DUP3 ADD SWAP1 POP SWAP2 SWAP1 POP JUMP JUMPDEST PUSH0 PUSH1 0x20 DUP3 ADD SWAP1 POP DUP2 DUP2 SUB PUSH0 DUP4 ADD MSTORE PUSH2 0x5598 DUP2 PUSH2 0x555F JUMP JUMPDEST SWAP1 POP SWAP2 SWAP1 POP JUMP JUMPDEST PUSH32 0x45524332303A20617070726F766520746F20746865207A65726F206164647265 PUSH0 DUP3 ADD MSTORE PUSH32 0x7373000000000000000000000000000000000000000000000000000000000000 PUSH1 0x20 DUP3 ADD MSTORE POP JUMP JUMPDEST PUSH0 PUSH2 0x55F9 PUSH1 0x22 DUP4 PUSH2 0x4273 JUMP JUMPDEST SWAP2 POP PUSH2 0x5604 DUP3 PUSH2 0x559F JUMP JUMPDEST PUSH1 0x40 DUP3 ADD SWAP1 POP SWAP2 SWAP1 POP JUMP JUMPDEST PUSH0 PUSH1 0x20 DUP3 ADD SWAP1 POP DUP2 DUP2 SUB PUSH0 DUP4 ADD MSTORE PUSH2 0x5626 DUP2 PUSH2 0x55ED JUMP JUMPDEST SWAP1 POP SWAP2 SWAP1 POP JUMP JUMPDEST PUSH32 0x45524332303A20696E73756666696369656E7420616C6C6F77616E6365000000 PUSH0 DUP3 ADD MSTORE POP JUMP JUMPDEST PUSH0 PUSH2 0x5661 PUSH1 0x1D DUP4 PUSH2 0x4273 JUMP JUMPDEST SWAP2 POP PUSH2 0x566C DUP3 PUSH2 0x562D JUMP JUMPDEST PUSH1 0x20 DUP3 ADD SWAP1 POP SWAP2 SWAP1 POP JUMP JUMPDEST PUSH0 PUSH1 0x20 DUP3 ADD SWAP1 POP DUP2 DUP2 SUB PUSH0 DUP4 ADD MSTORE PUSH2 0x568E DUP2 PUSH2 0x5655 JUMP JUMPDEST SWAP1 POP SWAP2 SWAP1 POP JUMP JUMPDEST PUSH32 0x45524332303A207472616E736665722066726F6D20746865207A65726F206164 PUSH0 DUP3 ADD MSTORE PUSH32 0x6472657373000000000000000000000000000000000000000000000000000000 PUSH1 0x20 DUP3 ADD MSTORE POP JUMP JUMPDEST PUSH0 PUSH2 0x56EF PUSH1 0x25 DUP4 PUSH2 0x4273 JUMP JUMPDEST SWAP2 POP PUSH2 0x56FA DUP3 PUSH2 0x5695 JUMP JUMPDEST PUSH1 0x40 DUP3 ADD SWAP1 POP SWAP2 SWAP1 POP JUMP JUMPDEST PUSH0 PUSH1 0x20 DUP3 ADD SWAP1 POP DUP2 DUP2 SUB PUSH0 DUP4 ADD MSTORE PUSH2 0x571C DUP2 PUSH2 0x56E3 JUMP JUMPDEST SWAP1 POP SWAP2 SWAP1 POP JUMP JUMPDEST PUSH32 0x45524332303A207472616E7366657220746F20746865207A65726F2061646472 PUSH0 DUP3 ADD MSTORE PUSH32 0x6573730000000000000000000000000000000000000000000000000000000000 PUSH1 0x20 DUP3 ADD MSTORE POP JUMP JUMPDEST PUSH0 PUSH2 0x577D PUSH1 0x23 DUP4 PUSH2 0x4273 JUMP JUMPDEST SWAP2 POP PUSH2 0x5788 DUP3 PUSH2 0x5723 JUMP JUMPDEST PUSH1 0x40 DUP3 ADD SWAP1 POP SWAP2 SWAP1 POP JUMP JUMPDEST PUSH0 PUSH1 0x20 DUP3 ADD SWAP1 POP DUP2 DUP2 SUB PUSH0 DUP4 ADD MSTORE PUSH2 0x57AA DUP2 PUSH2 0x5771 JUMP JUMPDEST SWAP1 POP SWAP2 SWAP1 POP JUMP JUMPDEST PUSH32 0x45524332303A207472616E7366657220616D6F756E7420657863656564732062 PUSH0 DUP3 ADD MSTORE PUSH32 0x616C616E63650000000000000000000000000000000000000000000000000000 PUSH1 0x20 DUP3 ADD MSTORE POP JUMP JUMPDEST PUSH0 PUSH2 0x580B PUSH1 0x26 DUP4 PUSH2 0x4273 JUMP JUMPDEST SWAP2 POP PUSH2 0x5816 DUP3 PUSH2 0x57B1 JUMP JUMPDEST PUSH1 0x40 DUP3 ADD SWAP1 POP SWAP2 SWAP1 POP JUMP JUMPDEST PUSH0 PUSH1 0x20 DUP3 ADD SWAP1 POP DUP2 DUP2 SUB PUSH0 DUP4 ADD MSTORE PUSH2 0x5838 DUP2 PUSH2 0x57FF JUMP JUMPDEST SWAP1 POP SWAP2 SWAP1 POP JUMP JUMPDEST PUSH0 PUSH2 0x5849 DUP3 PUSH2 0x436D JUMP JUMPDEST SWAP2 POP PUSH2 0x5854 DUP4 PUSH2 0x436D JUMP JUMPDEST SWAP3 POP DUP3 DUP3 SUB SWAP1 POP DUP2 DUP2 GT ISZERO PUSH2 0x586C JUMPI PUSH2 0x586B PUSH2 0x4C2F JUMP JUMPDEST JUMPDEST SWAP3 SWAP2 POP POP JUMP JUMPDEST PUSH32 0x496E697469616C697A61626C653A20636F6E7472616374206973206E6F742069 PUSH0 DUP3 ADD MSTORE PUSH32 0x6E697469616C697A696E67000000000000000000000000000000000000000000 PUSH1 0x20 DUP3 ADD MSTORE POP JUMP JUMPDEST PUSH0 PUSH2 0x58CC PUSH1 0x2B DUP4 PUSH2 0x4273 JUMP JUMPDEST SWAP2 POP PUSH2 0x58D7 DUP3 PUSH2 0x5872 JUMP JUMPDEST PUSH1 0x40 DUP3 ADD SWAP1 POP SWAP2 SWAP1 POP JUMP JUMPDEST PUSH0 PUSH1 0x20 DUP3 ADD SWAP1 POP DUP2 DUP2 SUB PUSH0 DUP4 ADD MSTORE PUSH2 0x58F9 DUP2 PUSH2 0x58C0 JUMP JUMPDEST SWAP1 POP SWAP2 SWAP1 POP JUMP JUMPDEST PUSH32 0x53616665436173743A2076616C756520646F65736E27742066697420696E2033 PUSH0 DUP3 ADD MSTORE PUSH32 0x3220626974730000000000000000000000000000000000000000000000000000 PUSH1 0x20 DUP3 ADD MSTORE POP JUMP JUMPDEST PUSH0 PUSH2 0x595A PUSH1 0x26 DUP4 PUSH2 0x4273 JUMP JUMPDEST SWAP2 POP PUSH2 0x5965 DUP3 PUSH2 0x5900 JUMP JUMPDEST PUSH1 0x40 DUP3 ADD SWAP1 POP SWAP2 SWAP1 POP JUMP JUMPDEST PUSH0 PUSH1 0x20 DUP3 ADD SWAP1 POP DUP2 DUP2 SUB PUSH0 DUP4 ADD MSTORE PUSH2 0x5987 DUP2 PUSH2 0x594E JUMP JUMPDEST SWAP1 POP SWAP2 SWAP1 POP JUMP JUMPDEST PUSH32 0x53616665436173743A2076616C756520646F65736E27742066697420696E2034 PUSH0 DUP3 ADD MSTORE PUSH32 0x3820626974730000000000000000000000000000000000000000000000000000 PUSH1 0x20 DUP3 ADD MSTORE POP JUMP JUMPDEST PUSH0 PUSH2 0x59E8 PUSH1 0x26 DUP4 PUSH2 0x4273 JUMP JUMPDEST SWAP2 POP PUSH2 0x59F3 DUP3 PUSH2 0x598E JUMP JUMPDEST PUSH1 0x40 DUP3 ADD SWAP1 POP SWAP2 SWAP1 POP JUMP JUMPDEST PUSH0 PUSH1 0x20 DUP3 ADD SWAP1 POP DUP2 DUP2 SUB PUSH0 DUP4 ADD MSTORE PUSH2 0x5A15 DUP2 PUSH2 0x59DC JUMP JUMPDEST SWAP1 POP SWAP2 SWAP1 POP JUMP JUMPDEST PUSH0 DUP2 SWAP1 POP SWAP3 SWAP2 POP POP JUMP JUMPDEST PUSH32 0x416363657373436F6E74726F6C3A206163636F756E7420000000000000000000 PUSH0 DUP3 ADD MSTORE POP JUMP JUMPDEST PUSH0 PUSH2 0x5A5A PUSH1 0x17 DUP4 PUSH2 0x5A1C JUMP JUMPDEST SWAP2 POP PUSH2 0x5A65 DUP3 PUSH2 0x5A26 JUMP JUMPDEST PUSH1 0x17 DUP3 ADD SWAP1 POP SWAP2 SWAP1 POP JUMP JUMPDEST PUSH0 PUSH2 0x5A7A DUP3 PUSH2 0x4269 JUMP JUMPDEST PUSH2 0x5A84 DUP2 DUP6 PUSH2 0x5A1C JUMP JUMPDEST SWAP4 POP PUSH2 0x5A94 DUP2 DUP6 PUSH1 0x20 DUP7 ADD PUSH2 0x4283 JUMP JUMPDEST DUP1 DUP5 ADD SWAP2 POP POP SWAP3 SWAP2 POP POP JUMP JUMPDEST PUSH32 0x206973206D697373696E6720726F6C6520000000000000000000000000000000 PUSH0 DUP3 ADD MSTORE POP JUMP JUMPDEST PUSH0 PUSH2 0x5AD4 PUSH1 0x11 DUP4 PUSH2 0x5A1C JUMP JUMPDEST SWAP2 POP PUSH2 0x5ADF DUP3 PUSH2 0x5AA0 JUMP JUMPDEST PUSH1 0x11 DUP3 ADD SWAP1 POP SWAP2 SWAP1 POP JUMP JUMPDEST PUSH0 PUSH2 0x5AF4 DUP3 PUSH2 0x5A4E JUMP JUMPDEST SWAP2 POP PUSH2 0x5B00 DUP3 DUP6 PUSH2 0x5A70 JUMP JUMPDEST SWAP2 POP PUSH2 0x5B0B DUP3 PUSH2 0x5AC8 JUMP JUMPDEST SWAP2 POP PUSH2 0x5B17 DUP3 DUP5 PUSH2 0x5A70 JUMP JUMPDEST SWAP2 POP DUP2 SWAP1 POP SWAP4 SWAP3 POP POP POP JUMP JUMPDEST PUSH0 PUSH1 0xA0 DUP3 ADD SWAP1 POP PUSH2 0x5B36 PUSH0 DUP4 ADD DUP9 PUSH2 0x44B4 JUMP JUMPDEST PUSH2 0x5B43 PUSH1 0x20 DUP4 ADD DUP8 PUSH2 0x44B4 JUMP JUMPDEST PUSH2 0x5B50 PUSH1 0x40 DUP4 ADD DUP7 PUSH2 0x44B4 JUMP JUMPDEST PUSH2 0x5B5D PUSH1 0x60 DUP4 ADD DUP6 PUSH2 0x43DE JUMP JUMPDEST PUSH2 0x5B6A PUSH1 0x80 DUP4 ADD DUP5 PUSH2 0x4746 JUMP JUMPDEST SWAP7 SWAP6 POP POP POP POP POP POP JUMP JUMPDEST PUSH32 0x4E487B7100000000000000000000000000000000000000000000000000000000 PUSH0 MSTORE PUSH1 0x12 PUSH1 0x4 MSTORE PUSH1 0x24 PUSH0 REVERT JUMPDEST PUSH0 PUSH2 0x5BAB DUP3 PUSH2 0x436D JUMP JUMPDEST SWAP2 POP PUSH2 0x5BB6 DUP4 PUSH2 0x436D JUMP JUMPDEST SWAP3 POP DUP3 PUSH2 0x5BC6 JUMPI PUSH2 0x5BC5 PUSH2 0x5B74 JUMP JUMPDEST JUMPDEST DUP3 DUP3 DIV SWAP1 POP SWAP3 SWAP2 POP POP JUMP JUMPDEST PUSH32 0x5061757361626C653A206E6F7420706175736564000000000000000000000000 PUSH0 DUP3 ADD MSTORE POP JUMP JUMPDEST PUSH0 PUSH2 0x5C05 PUSH1 0x14 DUP4 PUSH2 0x4273 JUMP JUMPDEST SWAP2 POP PUSH2 0x5C10 DUP3 PUSH2 0x5BD1 JUMP JUMPDEST PUSH1 0x20 DUP3 ADD SWAP1 POP SWAP2 SWAP1 POP JUMP JUMPDEST PUSH0 PUSH1 0x20 DUP3 ADD SWAP1 POP DUP2 DUP2 SUB PUSH0 DUP4 ADD MSTORE PUSH2 0x5C32 DUP2 PUSH2 0x5BF9 JUMP JUMPDEST SWAP1 POP SWAP2 SWAP1 POP JUMP JUMPDEST PUSH32 0x4552433230566F7465733A20746F74616C20737570706C79207269736B73206F PUSH0 DUP3 ADD MSTORE PUSH32 0x766572666C6F77696E6720766F74657300000000000000000000000000000000 PUSH1 0x20 DUP3 ADD MSTORE POP JUMP JUMPDEST PUSH0 PUSH2 0x5C93 PUSH1 0x30 DUP4 PUSH2 0x4273 JUMP JUMPDEST SWAP2 POP PUSH2 0x5C9E DUP3 PUSH2 0x5C39 JUMP JUMPDEST PUSH1 0x40 DUP3 ADD SWAP1 POP SWAP2 SWAP1 POP JUMP JUMPDEST PUSH0 PUSH1 0x20 DUP3 ADD SWAP1 POP DUP2 DUP2 SUB PUSH0 DUP4 ADD MSTORE PUSH2 0x5CC0 DUP2 PUSH2 0x5C87 JUMP JUMPDEST SWAP1 POP SWAP2 SWAP1 POP JUMP JUMPDEST PUSH0 DUP2 SWAP1 POP DUP2 PUSH0 MSTORE PUSH1 0x20 PUSH0 KECCAK256 SWAP1 POP SWAP2 SWAP1 POP JUMP JUMPDEST PUSH0 PUSH1 0x20 PUSH1 0x1F DUP4 ADD DIV SWAP1 POP SWAP2 SWAP1 POP JUMP JUMPDEST PUSH0 DUP3 DUP3 SHL SWAP1 POP SWAP3 SWAP2 POP POP JUMP JUMPDEST PUSH0 PUSH1 0x8 DUP4 MUL PUSH2 0x5D23 PUSH32 0xFFFFFFFFFFFFFFFFFFFFFFFFFFFFFFFFFFFFFFFFFFFFFFFFFFFFFFFFFFFFFFFF DUP3 PUSH2 0x5CE8 JUMP JUMPDEST PUSH2 0x5D2D DUP7 DUP4 PUSH2 0x5CE8 JUMP JUMPDEST SWAP6 POP DUP1 NOT DUP5 AND SWAP4 POP DUP1 DUP7 AND DUP5 OR SWAP3 POP POP POP SWAP4 SWAP3 POP POP POP JUMP JUMPDEST PUSH0 PUSH2 0x5D5F PUSH2 0x5D5A PUSH2 0x5D55 DUP5 PUSH2 0x436D JUMP JUMPDEST PUSH2 0x50CC JUMP JUMPDEST PUSH2 0x436D JUMP JUMPDEST SWAP1 POP SWAP2 SWAP1 POP JUMP JUMPDEST PUSH0 DUP2 SWAP1 POP SWAP2 SWAP1 POP JUMP JUMPDEST PUSH2 0x5D78 DUP4 PUSH2 0x5D45 JUMP JUMPDEST PUSH2 0x5D8C PUSH2 0x5D84 DUP3 PUSH2 0x5D66 JUMP JUMPDEST DUP5 DUP5 SLOAD PUSH2 0x5CF4 JUMP JUMPDEST DUP3 SSTORE POP POP POP POP JUMP JUMPDEST PUSH0 SWAP1 JUMP JUMPDEST PUSH2 0x5DA0 PUSH2 0x5D94 JUMP JUMPDEST PUSH2 0x5DAB DUP2 DUP5 DUP5 PUSH2 0x5D6F JUMP JUMPDEST POP POP POP JUMP JUMPDEST JUMPDEST DUP2 DUP2 LT ISZERO PUSH2 0x5DCE JUMPI PUSH2 0x5DC3 PUSH0 DUP3 PUSH2 0x5D98 JUMP JUMPDEST PUSH1 0x1 DUP2 ADD SWAP1 POP PUSH2 0x5DB1 JUMP JUMPDEST POP POP JUMP JUMPDEST PUSH1 0x1F DUP3 GT ISZERO PUSH2 0x5E13 JUMPI PUSH2 0x5DE4 DUP2 PUSH2 0x5CC7 JUMP JUMPDEST PUSH2 0x5DED DUP5 PUSH2 0x5CD9 JUMP JUMPDEST DUP2 ADD PUSH1 0x20 DUP6 LT ISZERO PUSH2 0x5DFC JUMPI DUP2 SWAP1 POP JUMPDEST PUSH2 0x5E10 PUSH2 0x5E08 DUP6 PUSH2 0x5CD9 JUMP JUMPDEST DUP4 ADD DUP3 PUSH2 0x5DB0 JUMP JUMPDEST POP POP JUMPDEST POP POP POP JUMP JUMPDEST PUSH0 DUP3 DUP3 SHR SWAP1 POP SWAP3 SWAP2 POP POP JUMP JUMPDEST PUSH0 PUSH2 0x5E33 PUSH0 NOT DUP5 PUSH1 0x8 MUL PUSH2 0x5E18 JUMP JUMPDEST NOT DUP1 DUP4 AND SWAP2 POP POP SWAP3 SWAP2 POP POP JUMP JUMPDEST PUSH0 PUSH2 0x5E4B DUP4 DUP4 PUSH2 0x5E24 JUMP JUMPDEST SWAP2 POP DUP3 PUSH1 0x2 MUL DUP3 OR SWAP1 POP SWAP3 SWAP2 POP POP JUMP JUMPDEST PUSH2 0x5E64 DUP3 PUSH2 0x4269 JUMP JUMPDEST PUSH8 0xFFFFFFFFFFFFFFFF DUP2 GT ISZERO PUSH2 0x5E7D JUMPI PUSH2 0x5E7C PUSH2 0x4581 JUMP JUMPDEST JUMPDEST PUSH2 0x5E87 DUP3 SLOAD PUSH2 0x4BFF JUMP JUMPDEST PUSH2 0x5E92 DUP3 DUP3 DUP6 PUSH2 0x5DD2 JUMP JUMPDEST PUSH0 PUSH1 0x20 SWAP1 POP PUSH1 0x1F DUP4 GT PUSH1 0x1 DUP2 EQ PUSH2 0x5EC3 JUMPI PUSH0 DUP5 ISZERO PUSH2 0x5EB1 JUMPI DUP3 DUP8 ADD MLOAD SWAP1 POP JUMPDEST PUSH2 0x5EBB DUP6 DUP3 PUSH2 0x5E40 JUMP JUMPDEST DUP7 SSTORE POP PUSH2 0x5F22 JUMP JUMPDEST PUSH1 0x1F NOT DUP5 AND PUSH2 0x5ED1 DUP7 PUSH2 0x5CC7 JUMP JUMPDEST PUSH0 JUMPDEST DUP3 DUP2 LT ISZERO PUSH2 0x5EF8 JUMPI DUP5 DUP10 ADD MLOAD DUP3 SSTORE PUSH1 0x1 DUP3 ADD SWAP2 POP PUSH1 0x20 DUP6 ADD SWAP5 POP PUSH1 0x20 DUP2 ADD SWAP1 POP PUSH2 0x5ED3 JUMP JUMPDEST DUP7 DUP4 LT ISZERO PUSH2 0x5F15 JUMPI DUP5 DUP10 ADD MLOAD PUSH2 0x5F11 PUSH1 0x1F DUP10 AND DUP3 PUSH2 0x5E24 JUMP JUMPDEST DUP4 SSTORE POP JUMPDEST PUSH1 0x1 PUSH1 0x2 DUP9 MUL ADD DUP9 SSTORE POP POP POP JUMPDEST POP POP POP POP POP POP JUMP JUMPDEST PUSH0 PUSH1 0x40 DUP3 ADD SWAP1 POP PUSH2 0x5F3D PUSH0 DUP4 ADD DUP6 PUSH2 0x43DE JUMP JUMPDEST PUSH2 0x5F4A PUSH1 0x20 DUP4 ADD DUP5 PUSH2 0x43DE JUMP JUMPDEST SWAP4 SWAP3 POP POP POP JUMP JUMPDEST PUSH32 0x5061757361626C653A2070617573656400000000000000000000000000000000 PUSH0 DUP3 ADD MSTORE POP JUMP JUMPDEST PUSH0 PUSH2 0x5F85 PUSH1 0x10 DUP4 PUSH2 0x4273 JUMP JUMPDEST SWAP2 POP PUSH2 0x5F90 DUP3 PUSH2 0x5F51 JUMP JUMPDEST PUSH1 0x20 DUP3 ADD SWAP1 POP SWAP2 SWAP1 POP JUMP JUMPDEST PUSH0 PUSH1 0x20 DUP3 ADD SWAP1 POP DUP2 DUP2 SUB PUSH0 DUP4 ADD MSTORE PUSH2 0x5FB2 DUP2 PUSH2 0x5F79 JUMP JUMPDEST SWAP1 POP SWAP2 SWAP1 POP JUMP JUMPDEST PUSH0 PUSH1 0x80 DUP3 ADD SWAP1 POP PUSH2 0x5FCC PUSH0 DUP4 ADD DUP8 PUSH2 0x44B4 JUMP JUMPDEST PUSH2 0x5FD9 PUSH1 0x20 DUP4 ADD DUP7 PUSH2 0x4526 JUMP JUMPDEST PUSH2 0x5FE6 PUSH1 0x40 DUP4 ADD DUP6 PUSH2 0x44B4 JUMP JUMPDEST PUSH2 0x5FF3 PUSH1 0x60 DUP4 ADD DUP5 PUSH2 0x44B4 JUMP JUMPDEST SWAP6 SWAP5 POP POP POP POP POP JUMP JUMPDEST PUSH32 0x4E487B7100000000000000000000000000000000000000000000000000000000 PUSH0 MSTORE PUSH1 0x21 PUSH1 0x4 MSTORE PUSH1 0x24 PUSH0 REVERT JUMPDEST PUSH32 0x45434453413A20696E76616C6964207369676E61747572650000000000000000 PUSH0 DUP3 ADD MSTORE POP JUMP JUMPDEST PUSH0 PUSH2 0x605D PUSH1 0x18 DUP4 PUSH2 0x4273 JUMP JUMPDEST SWAP2 POP PUSH2 0x6068 DUP3 PUSH2 0x6029 JUMP JUMPDEST PUSH1 0x20 DUP3 ADD SWAP1 POP SWAP2 SWAP1 POP JUMP JUMPDEST PUSH0 PUSH1 0x20 DUP3 ADD SWAP1 POP DUP2 DUP2 SUB PUSH0 DUP4 ADD MSTORE PUSH2 0x608A DUP2 PUSH2 0x6051 JUMP JUMPDEST SWAP1 POP SWAP2 SWAP1 POP JUMP JUMPDEST PUSH32 0x45434453413A20696E76616C6964207369676E6174757265206C656E67746800 PUSH0 DUP3 ADD MSTORE POP JUMP JUMPDEST PUSH0 PUSH2 0x60C5 PUSH1 0x1F DUP4 PUSH2 0x4273 JUMP JUMPDEST SWAP2 POP PUSH2 0x60D0 DUP3 PUSH2 0x6091 JUMP JUMPDEST PUSH1 0x20 DUP3 ADD SWAP1 POP SWAP2 SWAP1 POP JUMP JUMPDEST PUSH0 PUSH1 0x20 DUP3 ADD SWAP1 POP DUP2 DUP2 SUB PUSH0 DUP4 ADD MSTORE PUSH2 0x60F2 DUP2 PUSH2 0x60B9 JUMP JUMPDEST SWAP1 POP SWAP2 SWAP1 POP JUMP JUMPDEST PUSH32 0x45434453413A20696E76616C6964207369676E6174757265202773272076616C PUSH0 DUP3 ADD MSTORE PUSH32 0x7565000000000000000000000000000000000000000000000000000000000000 PUSH1 0x20 DUP3 ADD MSTORE POP JUMP JUMPDEST PUSH0 PUSH2 0x6153 PUSH1 0x22 DUP4 PUSH2 0x4273 JUMP JUMPDEST SWAP2 POP PUSH2 0x615E DUP3 PUSH2 0x60F9 JUMP JUMPDEST PUSH1 0x40 DUP3 ADD SWAP1 POP SWAP2 SWAP1 POP JUMP JUMPDEST PUSH0 PUSH1 0x20 DUP3 ADD SWAP1 POP DUP2 DUP2 SUB PUSH0 DUP4 ADD MSTORE PUSH2 0x6180 DUP2 PUSH2 0x6147 JUMP JUMPDEST SWAP1 POP SWAP2 SWAP1 POP JUMP JUMPDEST PUSH0 PUSH2 0x6191 DUP3 PUSH2 0x436D JUMP JUMPDEST SWAP2 POP PUSH0 DUP3 SUB PUSH2 0x61A3 JUMPI PUSH2 0x61A2 PUSH2 0x4C2F JUMP JUMPDEST JUMPDEST PUSH1 0x1 DUP3 SUB SWAP1 POP SWAP2 SWAP1 POP JUMP JUMPDEST PUSH32 0x537472696E67733A20686578206C656E67746820696E73756666696369656E74 PUSH0 DUP3 ADD MSTORE POP JUMP JUMPDEST PUSH0 PUSH2 0x61E2 PUSH1 0x20 DUP4 PUSH2 0x4273 JUMP JUMPDEST SWAP2 POP PUSH2 0x61ED DUP3 PUSH2 0x61AE JUMP JUMPDEST PUSH1 0x20 DUP3 ADD SWAP1 POP SWAP2 SWAP1 POP JUMP JUMPDEST PUSH0 PUSH1 0x20 DUP3 ADD SWAP1 POP DUP2 DUP2 SUB PUSH0 DUP4 ADD MSTORE PUSH2 0x620F DUP2 PUSH2 0x61D6 JUMP JUMPDEST SWAP1 POP SWAP2 SWAP1 POP JUMP JUMPDEST PUSH32 0x45524332303A206D696E7420746F20746865207A65726F206164647265737300 PUSH0 DUP3 ADD MSTORE POP JUMP JUMPDEST PUSH0 PUSH2 0x624A PUSH1 0x1F DUP4 PUSH2 0x4273 JUMP JUMPDEST SWAP2 POP PUSH2 0x6255 DUP3 PUSH2 0x6216 JUMP JUMPDEST PUSH1 0x20 DUP3 ADD SWAP1 POP SWAP2 SWAP1 POP JUMP JUMPDEST PUSH0 PUSH1 0x20 DUP3 ADD SWAP1 POP DUP2 DUP2 SUB PUSH0 DUP4 ADD MSTORE PUSH2 0x6277 DUP2 PUSH2 0x623E JUMP JUMPDEST SWAP1 POP SWAP2 SWAP1 POP JUMP JUMPDEST PUSH32 0x45524332303A206275726E2066726F6D20746865207A65726F20616464726573 PUSH0 DUP3 ADD MSTORE PUSH32 0x7300000000000000000000000000000000000000000000000000000000000000 PUSH1 0x20 DUP3 ADD MSTORE POP JUMP JUMPDEST PUSH0 PUSH2 0x62D8 PUSH1 0x21 DUP4 PUSH2 0x4273 JUMP JUMPDEST SWAP2 POP PUSH2 0x62E3 DUP3 PUSH2 0x627E JUMP JUMPDEST PUSH1 0x40 DUP3 ADD SWAP1 POP SWAP2 SWAP1 POP JUMP JUMPDEST PUSH0 PUSH1 0x20 DUP3 ADD SWAP1 POP DUP2 DUP2 SUB PUSH0 DUP4 ADD MSTORE PUSH2 0x6305 DUP2 PUSH2 0x62CC JUMP JUMPDEST SWAP1 POP SWAP2 SWAP1 POP JUMP JUMPDEST PUSH32 0x45524332303A206275726E20616D6F756E7420657863656564732062616C616E PUSH0 DUP3 ADD MSTORE PUSH32 0x6365000000000000000000000000000000000000000000000000000000000000 PUSH1 0x20 DUP3 ADD MSTORE POP JUMP JUMPDEST PUSH0 PUSH2 0x6366 PUSH1 0x22 DUP4 PUSH2 0x4273 JUMP JUMPDEST SWAP2 POP PUSH2 0x6371 DUP3 PUSH2 0x630C JUMP JUMPDEST PUSH1 0x40 DUP3 ADD SWAP1 POP SWAP2 SWAP1 POP JUMP JUMPDEST PUSH0 PUSH1 0x20 DUP3 ADD SWAP1 POP DUP2 DUP2 SUB PUSH0 DUP4 ADD MSTORE PUSH2 0x6393 DUP2 PUSH2 0x635A JUMP JUMPDEST SWAP1 POP SWAP2 SWAP1 POP JUMP JUMPDEST PUSH32 0x53616665436173743A2076616C756520646F65736E27742066697420696E2032 PUSH0 DUP3 ADD MSTORE PUSH32 0x3234206269747300000000000000000000000000000000000000000000000000 PUSH1 0x20 DUP3 ADD MSTORE POP JUMP JUMPDEST PUSH0 PUSH2 0x63F4 PUSH1 0x27 DUP4 PUSH2 0x4273 JUMP JUMPDEST SWAP2 POP PUSH2 0x63FF DUP3 PUSH2 0x639A JUMP JUMPDEST PUSH1 0x40 DUP3 ADD SWAP1 POP SWAP2 SWAP1 POP JUMP JUMPDEST PUSH0 PUSH1 0x20 DUP3 ADD SWAP1 POP DUP2 DUP2 SUB PUSH0 DUP4 ADD MSTORE PUSH2 0x6421 DUP2 PUSH2 0x63E8 JUMP JUMPDEST SWAP1 POP SWAP2 SWAP1 POP JUMP INVALID LOG2 PUSH5 0x6970667358 0x22 SLT KECCAK256 PUSH20 0xFF06046C08D0CD853C758C631FA806BB26088007 0xB1 0x23 PUSH6 0x805C4921E936 SWAP12 PUSH7 0x64736F6C634300 ADDMOD EQ STOP CALLER "},"methodIdentifiers":{"CLOCK_MODE()":"4bf5d7e9","DEFAULT_ADMIN_ROLE()":"a217fddf","DOMAIN_SEPARATOR()":"3644e515","MAX_SUPPLY()":"32cb6b0c","MINTER_ROLE()":"d5391393","PAUSER_ROLE()":"e63ab1e9","allowance(address,address)":"dd62ed3e","approve(address,uint256)":"095ea7b3","balanceOf(address)":"70a08231","burn(uint256)":"42966c68","burnFrom(address,uint256)":"79cc6790","checkpoints(address,uint32)":"f1127ed8","clock()":"91ddadf4","decimals()":"313ce567","decreaseAllowance(address,uint256)":"a457c2d7","delegate(address)":"5c19a95c","delegateBySig(address,uint256,uint256,uint8,bytes32,bytes32)":"c3cda520","delegates(address)":"587cde1e","eip712Domain()":"84b0196e","getPastTotalSupply(uint256)":"8e539e8c","getPastVotes(address,uint256)":"3a46b1a8","getRoleAdmin(bytes32)":"248a9ca3","getVotes(address)":"9ab24eb0","grantRole(bytes32,address)":"2f2ff15d","hasRole(bytes32,address)":"91d14854","increaseAllowance(address,uint256)":"39509351","initialize(string,string)":"4cd88b76","mint(address,uint256)":"40c10f19","name()":"06fdde03","nonces(address)":"7ecebe00","numCheckpoints(address)":"6fcfff45","pause()":"8456cb59","paused()":"5c975abb","permit(address,address,uint256,uint256,uint8,bytes32,bytes32)":"d505accf","renounceRole(bytes32,address)":"36568abe","revokeRole(bytes32,address)":"d547741f","supportsInterface(bytes4)":"01ffc9a7","symbol()":"95d89b41","totalSupply()":"18160ddd","transfer(address,uint256)":"a9059cbb","transferFrom(address,address,uint256)":"23b872dd","unpause()":"3f4ba83a"}},"storageLayout":{"storage":[{"astId":542,"contract":"contracts/MindplexUpgradeableToken.sol:MindplexUpgradeableToken","label":"_initialized","offset":0,"slot":"0","type":"t_uint8"},{"astId":545,"contract":"contracts/MindplexUpgradeableToken.sol:MindplexUpgradeableToken","label":"_initializing","offset":1,"slot":"0","type":"t_bool"},{"astId":2898,"contract":"contracts/MindplexUpgradeableToken.sol:MindplexUpgradeableToken","label":"__gap","offset":0,"slot":"1","type":"t_array(t_uint256)50_storage"},{"astId":3895,"contract":"contracts/MindplexUpgradeableToken.sol:MindplexUpgradeableToken","label":"__gap","offset":0,"slot":"51","type":"t_array(t_uint256)50_storage"},{"astId":39,"contract":"contracts/MindplexUpgradeableToken.sol:MindplexUpgradeableToken","label":"_roles","offset":0,"slot":"101","type":"t_mapping(t_bytes32,t_struct(RoleData)34_storage)"},{"astId":334,"contract":"contracts/MindplexUpgradeableToken.sol:MindplexUpgradeableToken","label":"__gap","offset":0,"slot":"102","type":"t_array(t_uint256)49_storage"},{"astId":850,"contract":"contracts/MindplexUpgradeableToken.sol:MindplexUpgradeableToken","label":"_balances","offset":0,"slot":"151","type":"t_mapping(t_address,t_uint256)"},{"astId":856,"contract":"contracts/MindplexUpgradeableToken.sol:MindplexUpgradeableToken","label":"_allowances","offset":0,"slot":"152","type":"t_mapping(t_address,t_mapping(t_address,t_uint256))"},{"astId":858,"contract":"contracts/MindplexUpgradeableToken.sol:MindplexUpgradeableToken","label":"_totalSupply","offset":0,"slot":"153","type":"t_uint256"},{"astId":860,"contract":"contracts/MindplexUpgradeableToken.sol:MindplexUpgradeableToken","label":"_name","offset":0,"slot":"154","type":"t_string_storage"},{"astId":862,"contract":"contracts/MindplexUpgradeableToken.sol:MindplexUpgradeableToken","label":"_symbol","offset":0,"slot":"155","type":"t_string_storage"},{"astId":1442,"contract":"contracts/MindplexUpgradeableToken.sol:MindplexUpgradeableToken","label":"__gap","offset":0,"slot":"156","type":"t_array(t_uint256)45_storage"},{"astId":3586,"contract":"contracts/MindplexUpgradeableToken.sol:MindplexUpgradeableToken","label":"_hashedName","offset":0,"slot":"201","type":"t_bytes32"},{"astId":3589,"contract":"contracts/MindplexUpgradeableToken.sol:MindplexUpgradeableToken","label":"_hashedVersion","offset":0,"slot":"202","type":"t_bytes32"},{"astId":3591,"contract":"contracts/MindplexUpgradeableToken.sol:MindplexUpgradeableToken","label":"_name","offset":0,"slot":"203","type":"t_string_storage"},{"astId":3593,"contract":"contracts/MindplexUpgradeableToken.sol:MindplexUpgradeableToken","label":"_version","offset":0,"slot":"204","type":"t_string_storage"},{"astId":3851,"contract":"contracts/MindplexUpgradeableToken.sol:MindplexUpgradeableToken","label":"__gap","offset":0,"slot":"205","type":"t_array(t_uint256)48_storage"},{"astId":1547,"contract":"contracts/MindplexUpgradeableToken.sol:MindplexUpgradeableToken","label":"_nonces","offset":0,"slot":"253","type":"t_mapping(t_address,t_struct(Counter)2905_storage)"},{"astId":1555,"contract":"contracts/MindplexUpgradeableToken.sol:MindplexUpgradeableToken","label":"_PERMIT_TYPEHASH_DEPRECATED_SLOT","offset":0,"slot":"254","type":"t_bytes32"},{"astId":1711,"contract":"contracts/MindplexUpgradeableToken.sol:MindplexUpgradeableToken","label":"__gap","offset":0,"slot":"255","type":"t_array(t_uint256)49_storage"},{"astId":1753,"contract":"contracts/MindplexUpgradeableToken.sol:MindplexUpgradeableToken","label":"_delegates","offset":0,"slot":"304","type":"t_mapping(t_address,t_address)"},{"astId":1759,"contract":"contracts/MindplexUpgradeableToken.sol:MindplexUpgradeableToken","label":"_checkpoints","offset":0,"slot":"305","type":"t_mapping(t_address,t_array(t_struct(Checkpoint)1744_storage)dyn_storage)"},{"astId":1763,"contract":"contracts/MindplexUpgradeableToken.sol:MindplexUpgradeableToken","label":"_totalSupplyCheckpoints","offset":0,"slot":"306","type":"t_array(t_struct(Checkpoint)1744_storage)dyn_storage"},{"astId":2465,"contract":"contracts/MindplexUpgradeableToken.sol:MindplexUpgradeableToken","label":"__gap","offset":0,"slot":"307","type":"t_array(t_uint256)47_storage"},{"astId":725,"contract":"contracts/MindplexUpgradeableToken.sol:MindplexUpgradeableToken","label":"_paused","offset":0,"slot":"354","type":"t_bool"},{"astId":830,"contract":"contracts/MindplexUpgradeableToken.sol:MindplexUpgradeableToken","label":"__gap","offset":0,"slot":"355","type":"t_array(t_uint256)49_storage"}],"types":{"t_address":{"encoding":"inplace","label":"address","numberOfBytes":"20"},"t_array(t_struct(Checkpoint)1744_storage)dyn_storage":{"base":"t_struct(Checkpoint)1744_storage","encoding":"dynamic_array","label":"struct ERC20VotesUpgradeable.Checkpoint[]","numberOfBytes":"32"},"t_array(t_uint256)45_storage":{"base":"t_uint256","encoding":"inplace","label":"uint256[45]","numberOfBytes":"1440"},"t_array(t_uint256)47_storage":{"base":"t_uint256","encoding":"inplace","label":"uint256[47]","numberOfBytes":"1504"},"t_array(t_uint256)48_storage":{"base":"t_uint256","encoding":"inplace","label":"uint256[48]","numberOfBytes":"1536"},"t_array(t_uint256)49_storage":{"base":"t_uint256","encoding":"inplace","label":"uint256[49]","numberOfBytes":"1568"},"t_array(t_uint256)50_storage":{"base":"t_uint256","encoding":"inplace","label":"uint256[50]","numberOfBytes":"1600"},"t_bool":{"encoding":"inplace","label":"bool","numberOfBytes":"1"},"t_bytes32":{"encoding":"inplace","label":"bytes32","numberOfBytes":"32"},"t_mapping(t_address,t_address)":{"encoding":"mapping","key":"t_address","label":"mapping(address => address)","numberOfBytes":"32","value":"t_address"},"t_mapping(t_address,t_array(t_struct(Checkpoint)1744_storage)dyn_storage)":{"encoding":"mapping","key":"t_address","label":"mapping(address => struct ERC20VotesUpgradeable.Checkpoint[])","numberOfBytes":"32","value":"t_array(t_struct(Checkpoint)1744_storage)dyn_storage"},"t_mapping(t_address,t_bool)":{"encoding":"mapping","key":"t_address","label":"mapping(address => bool)","numberOfBytes":"32","value":"t_bool"},"t_mapping(t_address,t_mapping(t_address,t_uint256))":{"encoding":"mapping","key":"t_address","label":"mapping(address => mapping(address => uint256))","numberOfBytes":"32","value":"t_mapping(t_address,t_uint256)"},"t_mapping(t_address,t_struct(Counter)2905_storage)":{"encoding":"mapping","key":"t_address","label":"mapping(address => struct CountersUpgradeable.Counter)","numberOfBytes":"32","value":"t_struct(Counter)2905_storage"},"t_mapping(t_address,t_uint256)":{"encoding":"mapping","key":"t_address","label":"mapping(address => uint256)","numberOfBytes":"32","value":"t_uint256"},"t_mapping(t_bytes32,t_struct(RoleData)34_storage)":{"encoding":"mapping","key":"t_bytes32","label":"mapping(bytes32 => struct AccessControlUpgradeable.RoleData)","numberOfBytes":"32","value":"t_struct(RoleData)34_storage"},"t_string_storage":{"encoding":"bytes","label":"string","numberOfBytes":"32"},"t_struct(Checkpoint)1744_storage":{"encoding":"inplace","label":"struct ERC20VotesUpgradeable.Checkpoint","members":[{"astId":1741,"contract":"contracts/MindplexUpgradeableToken.sol:MindplexUpgradeableToken","label":"fromBlock","offset":0,"slot":"0","type":"t_uint32"},{"astId":1743,"contract":"contracts/MindplexUpgradeableToken.sol:MindplexUpgradeableToken","label":"votes","offset":4,"slot":"0","type":"t_uint224"}],"numberOfBytes":"32"},"t_struct(Counter)2905_storage":{"encoding":"inplace","label":"struct CountersUpgradeable.Counter","members":[{"astId":2904,"contract":"contracts/MindplexUpgradeableToken.sol:MindplexUpgradeableToken","label":"_value","offset":0,"slot":"0","type":"t_uint256"}],"numberOfBytes":"32"},"t_struct(RoleData)34_storage":{"encoding":"inplace","label":"struct AccessControlUpgradeable.RoleData","members":[{"astId":31,"contract":"contracts/MindplexUpgradeableToken.sol:MindplexUpgradeableToken","label":"members","offset":0,"slot":"0","type":"t_mapping(t_address,t_bool)"},{"astId":33,"contract":"contracts/MindplexUpgradeableToken.sol:MindplexUpgradeableToken","label":"adminRole","offset":0,"slot":"1","type":"t_bytes32"}],"numberOfBytes":"64"},"t_uint224":{"encoding":"inplace","label":"uint224","numberOfBytes":"28"},"t_uint256":{"encoding":"inplace","label":"uint256","numberOfBytes":"32"},"t_uint32":{"encoding":"inplace","label":"uint32","numberOfBytes":"4"},"t_uint8":{"encoding":"inplace","label":"uint8","numberOfBytes":"1"}}}}}}